{
  "address": "0xa3DD483d6955Ca2f3A8172be5a1bF64eA414d6Bf",
  "abi": [
    {
      "inputs": [
        {
          "internalType": "contract IUniswapV2Router",
          "name": "_uniRouter",
          "type": "address"
        },
        {
          "internalType": "contract IFireBirdRouter",
          "name": "_fireBirdRouter",
          "type": "address"
        }
      ],
      "stateMutability": "nonpayable",
      "type": "constructor"
    },
    {
      "anonymous": false,
      "inputs": [
        {
          "indexed": true,
          "internalType": "address",
          "name": "token",
          "type": "address"
        },
        {
          "indexed": false,
          "internalType": "uint256",
          "name": "amount",
          "type": "uint256"
        },
        {
          "indexed": false,
          "internalType": "address",
          "name": "to",
          "type": "address"
        }
      ],
      "name": "Withdraw",
      "type": "event"
    },
    {
      "anonymous": false,
      "inputs": [
        {
          "indexed": true,
          "internalType": "address",
          "name": "sender",
          "type": "address"
        },
        {
          "indexed": false,
          "internalType": "address",
          "name": "from",
          "type": "address"
        },
        {
          "indexed": false,
          "internalType": "uint256",
          "name": "amtFrom",
          "type": "uint256"
        },
        {
          "indexed": false,
          "internalType": "address",
          "name": "pool",
          "type": "address"
        },
        {
          "indexed": false,
          "internalType": "uint256",
          "name": "amtLp",
          "type": "uint256"
        }
      ],
      "name": "ZapIn",
      "type": "event"
    },
    {
      "anonymous": false,
      "inputs": [
        {
          "indexed": true,
          "internalType": "address",
          "name": "sender",
          "type": "address"
        },
        {
          "indexed": false,
          "internalType": "address",
          "name": "pool",
          "type": "address"
        },
        {
          "indexed": false,
          "internalType": "uint256",
          "name": "amtLp",
          "type": "uint256"
        },
        {
          "indexed": false,
          "internalType": "address",
          "name": "to",
          "type": "address"
        },
        {
          "indexed": false,
          "internalType": "uint256",
          "name": "amtTo",
          "type": "uint256"
        }
      ],
      "name": "ZapOut",
      "type": "event"
    },
    {
      "inputs": [],
      "name": "WBNB",
      "outputs": [
        {
          "internalType": "address",
          "name": "",
          "type": "address"
        }
      ],
      "stateMutability": "view",
      "type": "function"
    },
    {
      "inputs": [
        {
          "internalType": "address",
          "name": "_token",
          "type": "address"
        }
      ],
      "name": "addTokensResidual",
      "outputs": [],
      "stateMutability": "nonpayable",
      "type": "function"
    },
    {
      "inputs": [],
      "name": "fireBirdFactory",
      "outputs": [
        {
          "internalType": "contract IFireBirdFactory",
          "name": "",
          "type": "address"
        }
      ],
      "stateMutability": "view",
      "type": "function"
    },
    {
      "inputs": [],
      "name": "fireBirdFormula",
      "outputs": [
        {
          "internalType": "contract IFireBirdFormula",
          "name": "",
          "type": "address"
        }
      ],
      "stateMutability": "view",
      "type": "function"
    },
    {
      "inputs": [
        {
          "internalType": "address",
          "name": "",
          "type": "address"
        },
        {
          "internalType": "address",
          "name": "",
          "type": "address"
        },
        {
          "internalType": "uint256",
          "name": "",
          "type": "uint256"
        }
      ],
      "name": "fireBirdPairs",
      "outputs": [
        {
          "internalType": "address",
          "name": "",
          "type": "address"
        }
      ],
      "stateMutability": "view",
      "type": "function"
    },
    {
      "inputs": [],
      "name": "fireBirdRouter",
      "outputs": [
        {
          "internalType": "contract IFireBirdRouter",
          "name": "",
          "type": "address"
        }
      ],
      "stateMutability": "view",
      "type": "function"
    },
    {
      "inputs": [
        {
          "internalType": "address",
          "name": "_from",
          "type": "address"
        },
        {
          "internalType": "uint256",
          "name": "_fromAmount",
          "type": "uint256"
        },
        {
          "internalType": "address",
          "name": "lp",
          "type": "address"
        }
      ],
      "name": "getAmountBToZapIn",
      "outputs": [
        {
          "internalType": "uint256",
          "name": "amountBConverted",
          "type": "uint256"
        },
        {
          "internalType": "uint256",
          "name": "amountASell",
          "type": "uint256"
        }
      ],
      "stateMutability": "view",
      "type": "function"
    },
    {
      "inputs": [
        {
          "internalType": "address",
          "name": "_from",
          "type": "address"
        },
        {
          "internalType": "uint256",
          "name": "amount",
          "type": "uint256"
        },
        {
          "internalType": "address",
          "name": "_toToken",
          "type": "address"
        }
      ],
      "name": "getAmountToZapOut",
      "outputs": [
        {
          "internalType": "uint256",
          "name": "amountOtherSell",
          "type": "uint256"
        },
        {
          "internalType": "uint256",
          "name": "amountToConverted",
          "type": "uint256"
        },
        {
          "internalType": "uint256",
          "name": "amountToOrigin",
          "type": "uint256"
        }
      ],
      "stateMutability": "view",
      "type": "function"
    },
    {
      "inputs": [],
      "name": "governance",
      "outputs": [
        {
          "internalType": "address",
          "name": "",
          "type": "address"
        }
      ],
      "stateMutability": "view",
      "type": "function"
    },
    {
      "inputs": [],
      "name": "maxResidual",
      "outputs": [
        {
          "internalType": "uint256",
          "name": "",
          "type": "uint256"
        }
      ],
      "stateMutability": "view",
      "type": "function"
    },
    {
      "inputs": [
        {
          "internalType": "address",
          "name": "_input",
          "type": "address"
        },
        {
          "internalType": "address",
          "name": "_output",
          "type": "address"
        },
        {
          "internalType": "address[]",
          "name": "_pair",
          "type": "address[]"
        }
      ],
      "name": "setFireBirdPairs",
      "outputs": [],
      "stateMutability": "nonpayable",
      "type": "function"
    },
    {
      "inputs": [
        {
          "internalType": "address",
          "name": "_governance",
          "type": "address"
        }
      ],
      "name": "setGovernance",
      "outputs": [],
      "stateMutability": "nonpayable",
      "type": "function"
    },
    {
      "inputs": [
        {
          "internalType": "uint256",
          "name": "_maxResidual",
          "type": "uint256"
        }
      ],
      "name": "setMaxResidual",
      "outputs": [],
      "stateMutability": "nonpayable",
      "type": "function"
    },
    {
      "inputs": [
        {
          "internalType": "address[]",
          "name": "_tokensResidual",
          "type": "address[]"
        }
      ],
      "name": "setTokensResidual",
      "outputs": [],
      "stateMutability": "nonpayable",
      "type": "function"
    },
    {
      "inputs": [
        {
          "internalType": "uint256",
          "name": "",
          "type": "uint256"
        }
      ],
      "name": "tokensResidual",
      "outputs": [
        {
          "internalType": "address",
          "name": "",
          "type": "address"
        }
      ],
      "stateMutability": "view",
      "type": "function"
    },
    {
      "inputs": [],
      "name": "uniRouter",
      "outputs": [
        {
          "internalType": "contract IUniswapV2Router",
          "name": "",
          "type": "address"
        }
      ],
      "stateMutability": "view",
      "type": "function"
    },
    {
      "inputs": [
        {
          "internalType": "address",
          "name": "to",
          "type": "address"
        }
      ],
      "name": "withdraw",
      "outputs": [],
      "stateMutability": "nonpayable",
      "type": "function"
    },
    {
      "inputs": [
        {
          "internalType": "address[]",
          "name": "tokens",
          "type": "address[]"
        },
        {
          "internalType": "address",
          "name": "to",
          "type": "address"
        }
      ],
      "name": "withdrawToken",
      "outputs": [],
      "stateMutability": "nonpayable",
      "type": "function"
    },
    {
      "inputs": [
        {
          "internalType": "address",
          "name": "token",
          "type": "address"
        },
        {
          "internalType": "address",
          "name": "to",
          "type": "address"
        },
        {
          "internalType": "uint256",
          "name": "amount",
          "type": "uint256"
        }
      ],
      "name": "withdrawTokenAmount",
      "outputs": [],
      "stateMutability": "nonpayable",
      "type": "function"
    },
    {
      "inputs": [
        {
          "internalType": "address",
          "name": "_to",
          "type": "address"
        },
        {
          "internalType": "uint256",
          "name": "_minTokenB",
          "type": "uint256"
        },
        {
          "internalType": "uint256",
          "name": "_minLp",
          "type": "uint256"
        },
        {
          "internalType": "bool",
          "name": "transferResidual",
          "type": "bool"
        }
      ],
      "name": "zapIn",
      "outputs": [
        {
          "internalType": "uint256",
          "name": "",
          "type": "uint256"
        }
      ],
      "stateMutability": "payable",
      "type": "function"
    },
    {
      "inputs": [
        {
          "internalType": "address",
          "name": "_from",
          "type": "address"
        },
        {
          "internalType": "uint256[]",
          "name": "amounts",
          "type": "uint256[]"
        },
        {
          "internalType": "address",
          "name": "_to",
          "type": "address"
        },
        {
          "internalType": "bool",
          "name": "transferResidual",
          "type": "bool"
        }
      ],
      "name": "zapInToken",
      "outputs": [
        {
          "internalType": "uint256",
          "name": "lpAmt",
          "type": "uint256"
        }
      ],
      "stateMutability": "nonpayable",
      "type": "function"
    },
    {
      "inputs": [
        {
          "internalType": "address",
          "name": "_from",
          "type": "address"
        },
        {
          "internalType": "uint256",
          "name": "amount",
          "type": "uint256"
        },
        {
          "internalType": "address",
          "name": "_toToken",
          "type": "address"
        },
        {
          "internalType": "uint256",
          "name": "_minTokensRec",
          "type": "uint256"
        }
      ],
      "name": "zapOut",
      "outputs": [
        {
          "internalType": "uint256",
          "name": "",
          "type": "uint256"
        }
      ],
      "stateMutability": "nonpayable",
      "type": "function"
    },
    {
      "inputs": [
        {
          "internalType": "address",
          "name": "_from",
          "type": "address"
        },
        {
          "internalType": "uint256",
          "name": "amount",
          "type": "uint256"
        }
      ],
      "name": "zapOutToPair",
      "outputs": [
        {
          "internalType": "uint256",
          "name": "amountA",
          "type": "uint256"
        },
        {
          "internalType": "uint256",
          "name": "amountB",
          "type": "uint256"
        }
      ],
      "stateMutability": "nonpayable",
      "type": "function"
    },
    {
      "inputs": [
        {
          "internalType": "address",
          "name": "_from",
          "type": "address"
        },
        {
          "internalType": "uint256",
          "name": "_amount",
          "type": "uint256"
        },
        {
          "internalType": "uint256",
          "name": "_approvalAmount",
          "type": "uint256"
        },
        {
          "internalType": "uint256",
          "name": "_deadline",
          "type": "uint256"
        },
        {
          "internalType": "uint8",
          "name": "v",
          "type": "uint8"
        },
        {
          "internalType": "bytes32",
          "name": "r",
          "type": "bytes32"
        },
        {
          "internalType": "bytes32",
          "name": "s",
          "type": "bytes32"
        }
      ],
      "name": "zapOutToPairWithPermit",
      "outputs": [
        {
          "internalType": "uint256",
          "name": "amountA",
          "type": "uint256"
        },
        {
          "internalType": "uint256",
          "name": "amountB",
          "type": "uint256"
        }
      ],
      "stateMutability": "nonpayable",
      "type": "function"
    },
    {
      "inputs": [
        {
          "internalType": "address",
          "name": "_from",
          "type": "address"
        },
        {
          "internalType": "uint256",
          "name": "amount",
          "type": "uint256"
        },
        {
          "internalType": "address",
          "name": "_toToken",
          "type": "address"
        },
        {
          "internalType": "uint256",
          "name": "_minTokensRec",
          "type": "uint256"
        },
        {
          "internalType": "uint256",
          "name": "_approvalAmount",
          "type": "uint256"
        },
        {
          "internalType": "uint256",
          "name": "_deadline",
          "type": "uint256"
        },
        {
          "internalType": "uint8",
          "name": "v",
          "type": "uint8"
        },
        {
          "internalType": "bytes32",
          "name": "r",
          "type": "bytes32"
        },
        {
          "internalType": "bytes32",
          "name": "s",
          "type": "bytes32"
        }
      ],
      "name": "zapOutWithPermit",
      "outputs": [
        {
          "internalType": "uint256",
          "name": "",
          "type": "uint256"
        }
      ],
      "stateMutability": "nonpayable",
      "type": "function"
    },
    {
      "stateMutability": "payable",
      "type": "receive"
    }
  ],
  "transactionHash": "0xb866e10a960c376434dd5afed9ac3526ac9a5da134306105ea716ade7a5938c7",
  "args": [
    "0xa5E0829CaCEd8fFDD4De3c43696c57F7D7A678ff",
    "0x4BFBf7fCC9776CE8285B059fB77e7Bb2A5c5E365"
  ],
  "solcInputHash": "de4b5c98aaefeaf0642d1549f17f4799",
  "bytecode": "0x608060405260646008553480156200001657600080fd5b506040516200617a3803806200617a833981810160405260408110156200003c57600080fd5b508051602091820151600160008190558054336001600160a01b0319918216179091556003805482166001600160a01b03808616919091179091556004805490921690831690811782556040805163c45a015560e01b8152905194959394919363c45a015593828101939192829003018186803b158015620000bd57600080fd5b505afa158015620000d2573d6000803e3d6000fd5b505050506040513d6020811015620000e957600080fd5b5051600580546001600160a01b0319166001600160a01b0392831617905560408051634b75f54f60e01b8152905191831691634b75f54f91600480820192602092909190829003018186803b1580156200014257600080fd5b505afa15801562000157573d6000803e3d6000fd5b505050506040513d60208110156200016e57600080fd5b5051600680546001600160a01b0319166001600160a01b03928316179055604080516315ab88c960e31b815290519183169163ad5c464891600480820192602092909190829003018186803b158015620001c757600080fd5b505afa158015620001dc573d6000803e3d6000fd5b505050506040513d6020811015620001f357600080fd5b5051600280546001600160a01b0319166001600160a01b0390921691909117905550615f53905080620002276000396000f3fe60806040526004361061019a5760003560e01c8063521f2e09116100e15780638dd950021161008a578063ab033ea911610064578063ab033ea914610900578063b73a16f614610940578063e0243baa146109a7578063e5bc2920146109bc57610210565b80638dd9500214610882578063a0e47bf614610897578063a863ff2f146108ac57610210565b8063761c262e116100bb578063761c262e1461075e5780637b191ff2146107a55780637e2150fd1461086d57610210565b8063521f2e091461066a5780635aa6e6751461073457806360a13c521461074957610210565b80631ee11cde116101435780633c01ae6e1161011d5780633c01ae6e1461057c57806340564958146105bc57806351cff8d91461062a57610210565b80631ee11cde1461042c57806328e802ac1461050257806334d2365b1461055257610210565b806309342d951161017457806309342d951461039d57806312e22568146103ed57806314896f951461040257610210565b806303e2d7ff1461021557806304d21f061461028e578063082c6ed31461033e57610210565b36610210573332141561020e57604080517f08c379a000000000000000000000000000000000000000000000000000000000815260206004820152601d60248201527f5a61703a20446f206e6f742073656e6420455448206469726563746c79000000604482015290519081900360640190fd5b005b600080fd5b34801561022157600080fd5b506102656004803603606081101561023857600080fd5b5073ffffffffffffffffffffffffffffffffffffffff813581169160208101359091169060400135610a33565b6040805173ffffffffffffffffffffffffffffffffffffffff9092168252519081900360200190f35b34801561029a57600080fd5b5061020e600480360360208110156102b157600080fd5b8101906020810181356401000000008111156102cc57600080fd5b8201836020820111156102de57600080fd5b8035906020019184602083028401116401000000008311171561030057600080fd5b919080806020026020016040519081016040528093929190818152602001838360200280828437600092019190915250929550610a82945050505050565b34801561034a57600080fd5b506103846004803603604081101561036157600080fd5b5073ffffffffffffffffffffffffffffffffffffffff8135169060200135610b1f565b6040805192835260208301919091528051918290030190f35b3480156103a957600080fd5b50610384600480360360608110156103c057600080fd5b5073ffffffffffffffffffffffffffffffffffffffff813581169160208101359160409091013516611166565b3480156103f957600080fd5b50610265611571565b34801561040e57600080fd5b506102656004803603602081101561042557600080fd5b503561158d565b34801561043857600080fd5b5061020e6004803603606081101561044f57600080fd5b73ffffffffffffffffffffffffffffffffffffffff823581169260208101359091169181019060608101604082013564010000000081111561049057600080fd5b8201836020820111156104a257600080fd5b803590602001918460208302840111640100000000831117156104c457600080fd5b9190808060200260200160405190810160405280939291908181526020018383602002808284376000920191909152509295506115c1945050505050565b34801561050e57600080fd5b5061020e6004803603606081101561052557600080fd5b5073ffffffffffffffffffffffffffffffffffffffff81358116916020810135909116906040013561168f565b34801561055e57600080fd5b5061020e6004803603602081101561057557600080fd5b503561188b565b34801561058857600080fd5b5061020e6004803603602081101561059f57600080fd5b503573ffffffffffffffffffffffffffffffffffffffff16611916565b3480156105c857600080fd5b5061060c600480360360608110156105df57600080fd5b5073ffffffffffffffffffffffffffffffffffffffff813581169160208101359160409091013516611a13565b60408051938452602084019290925282820152519081900360600190f35b34801561063657600080fd5b5061020e6004803603602081101561064d57600080fd5b503573ffffffffffffffffffffffffffffffffffffffff16611d1a565b34801561067657600080fd5b506107226004803603608081101561068d57600080fd5b73ffffffffffffffffffffffffffffffffffffffff82351691908101906040810160208201356401000000008111156106c557600080fd5b8201836020820111156106d757600080fd5b803590602001918460208302840111640100000000831117156106f957600080fd5b919350915073ffffffffffffffffffffffffffffffffffffffff81351690602001351515611e16565b60408051918252519081900360200190f35b34801561074057600080fd5b50610265612421565b34801561075557600080fd5b5061026561243d565b6107226004803603608081101561077457600080fd5b5073ffffffffffffffffffffffffffffffffffffffff81351690602081013590604081013590606001351515612459565b3480156107b157600080fd5b5061020e600480360360408110156107c857600080fd5b8101906020810181356401000000008111156107e357600080fd5b8201836020820111156107f557600080fd5b8035906020019184602083028401116401000000008311171561081757600080fd5b9190808060200260200160405190810160405280939291908181526020018383602002808284376000920191909152509295505050903573ffffffffffffffffffffffffffffffffffffffff1691506125c39050565b34801561087957600080fd5b50610265612701565b34801561088e57600080fd5b5061026561271d565b3480156108a357600080fd5b50610265612739565b3480156108b857600080fd5b50610722600480360360808110156108cf57600080fd5b5073ffffffffffffffffffffffffffffffffffffffff81358116916020810135916040820135169060600135612755565b34801561090c57600080fd5b5061020e6004803603602081101561092357600080fd5b503573ffffffffffffffffffffffffffffffffffffffff16612e16565b34801561094c57600080fd5b50610384600480360360e081101561096357600080fd5b5073ffffffffffffffffffffffffffffffffffffffff8135169060208101359060408101359060608101359060ff6080820135169060a08101359060c00135612ee3565b3480156109b357600080fd5b50610722612fb1565b3480156109c857600080fd5b5061072260048036036101208110156109e057600080fd5b5073ffffffffffffffffffffffffffffffffffffffff81358116916020810135916040820135169060608101359060808101359060a08101359060ff60c0820135169060e0810135906101000135612fb7565b60076020528260005260406000206020528160005260406000208181548110610a5857fe5b60009182526020909120015473ffffffffffffffffffffffffffffffffffffffff16925083915050565b60015473ffffffffffffffffffffffffffffffffffffffff163314610b0857604080517f08c379a000000000000000000000000000000000000000000000000000000000815260206004820152601060248201527f5a61703a2021676f7665726e616e636500000000000000000000000000000000604482015290519081900360640190fd5b8051610b1b906009906020840190615d92565b5050565b60008060026000541415610b9457604080517f08c379a000000000000000000000000000000000000000000000000000000000815260206004820152601f60248201527f5265656e7472616e637947756172643a207265656e7472616e742063616c6c00604482015290519081900360640190fd5b6002600055610bbb73ffffffffffffffffffffffffffffffffffffffff8516333086613084565b610bc484613119565b600084905060008173ffffffffffffffffffffffffffffffffffffffff16630dfe16816040518163ffffffff1660e01b815260040160206040518083038186803b158015610c1157600080fd5b505afa158015610c25573d6000803e3d6000fd5b505050506040513d6020811015610c3b57600080fd5b5051604080517fd21220a7000000000000000000000000000000000000000000000000000000008152905191925060009173ffffffffffffffffffffffffffffffffffffffff85169163d21220a7916004808301926020929190829003018186803b158015610ca957600080fd5b505afa158015610cbd573d6000803e3d6000fd5b505050506040513d6020811015610cd357600080fd5b5051600554604080517fe5e31b1300000000000000000000000000000000000000000000000000000000815273ffffffffffffffffffffffffffffffffffffffff8b811660048301529151939450600093919092169163e5e31b13916024808301926020929190829003018186803b158015610d4e57600080fd5b505afa158015610d62573d6000803e3d6000fd5b505050506040513d6020811015610d7857600080fd5b505160025490915073ffffffffffffffffffffffffffffffffffffffff84811691161480610dc0575060025473ffffffffffffffffffffffffffffffffffffffff8381169116145b15610fd4578015610ed55760045460025473ffffffffffffffffffffffffffffffffffffffff9182169163b56b681d918b9187811691161415610e035784610e05565b855b604080517fffffffff0000000000000000000000000000000000000000000000000000000060e086901b16815273ffffffffffffffffffffffffffffffffffffffff9384166004820152919092166024820152604481018b905260016064820181905260848201523360a48201524260c4820152815160e480830193928290030181600087803b158015610e9857600080fd5b505af1158015610eac573d6000803e3d6000fd5b505050506040513d6040811015610ec257600080fd5b5080516020909101519096509450610fcf565b60035460025473ffffffffffffffffffffffffffffffffffffffff918216916302751cec9186821691161415610f0b5783610f0d565b845b604080517fffffffff0000000000000000000000000000000000000000000000000000000060e085901b16815273ffffffffffffffffffffffffffffffffffffffff9092166004830152602482018b905260016044830181905260648301523360848301524260a4830152805160c4808401938290030181600087803b158015610f9657600080fd5b505af1158015610faa573d6000803e3d6000fd5b505050506040513d6040811015610fc057600080fd5b50805160209091015190965094505b611154565b80156110815760048054604080517fe1f4a78400000000000000000000000000000000000000000000000000000000815273ffffffffffffffffffffffffffffffffffffffff8c81169482019490945286841660248201528584166044820152606481018b905260016084820181905260a48201523360c48201524260e48201528151939092169263e1f4a784926101048082019392918290030181600087803b158015610f9657600080fd5b600354604080517fbaa2abde00000000000000000000000000000000000000000000000000000000815273ffffffffffffffffffffffffffffffffffffffff86811660048301528581166024830152604482018b905260016064830181905260848301523360a48301524260c4830152825193169263baa2abde9260e4808401939192918290030181600087803b15801561111b57600080fd5b505af115801561112f573d6000803e3d6000fd5b505050506040513d604081101561114557600080fd5b50805160209091015190965094505b50506001600055509194909350915050565b600080600080600085905060008173ffffffffffffffffffffffffffffffffffffffff16630dfe16816040518163ffffffff1660e01b815260040160206040518083038186803b1580156111b957600080fd5b505afa1580156111cd573d6000803e3d6000fd5b505050506040513d60208110156111e357600080fd5b5051604080517fd21220a7000000000000000000000000000000000000000000000000000000008152905191925060009173ffffffffffffffffffffffffffffffffffffffff85169163d21220a7916004808301926020929190829003018186803b15801561125157600080fd5b505afa158015611265573d6000803e3d6000fd5b505050506040513d602081101561127b57600080fd5b5051905073ffffffffffffffffffffffffffffffffffffffff8a8116908316146112a557816112a7565b805b94506112b5888b8b856132fd565b6040805160018082528183019092529195506060945090925090506020808301908036833701905050905085816000815181106112ee57fe5b602002602001019073ffffffffffffffffffffffffffffffffffffffff16908173ffffffffffffffffffffffffffffffffffffffff16815250506060600660009054906101000a900473ffffffffffffffffffffffffffffffffffffffff1673ffffffffffffffffffffffffffffffffffffffff1663119220a5600560009054906101000a900473ffffffffffffffffffffffffffffffffffffffff168b8787876040518663ffffffff1660e01b8152600401808673ffffffffffffffffffffffffffffffffffffffff1681526020018573ffffffffffffffffffffffffffffffffffffffff1681526020018473ffffffffffffffffffffffffffffffffffffffff16815260200183815260200180602001828103825283818151815260200191508051906020019060200280838360005b83811015611438578181015183820152602001611420565b50505050905001965050505050505060006040518083038186803b15801561145f57600080fd5b505afa158015611473573d6000803e3d6000fd5b505050506040513d6000823e601f3d9081017fffffffffffffffffffffffffffffffffffffffffffffffffffffffffffffffe016820160405260208110156114ba57600080fd5b81019080805160405193929190846401000000008211156114da57600080fd5b9083019060208201858111156114ef57600080fd5b825186602082028301116401000000008211171561150c57600080fd5b82525081516020918201928201910280838360005b83811015611539578181015183820152602001611521565b5050505090500160405250505090508060018251038151811061155857fe5b6020026020010151839550955050505050935093915050565b60065473ffffffffffffffffffffffffffffffffffffffff1681565b6009818154811061159a57fe5b60009182526020909120015473ffffffffffffffffffffffffffffffffffffffff16905081565b60015473ffffffffffffffffffffffffffffffffffffffff16331461164757604080517f08c379a000000000000000000000000000000000000000000000000000000000815260206004820152601060248201527f5a61703a2021676f7665726e616e636500000000000000000000000000000000604482015290519081900360640190fd5b73ffffffffffffffffffffffffffffffffffffffff80841660009081526007602090815260408083209386168352928152919020825161168992840190615d92565b50505050565b60015473ffffffffffffffffffffffffffffffffffffffff16331461171557604080517f08c379a000000000000000000000000000000000000000000000000000000000815260206004820152601060248201527f5a61703a2021676f7665726e616e636500000000000000000000000000000000604482015290519081900360640190fd5b73ffffffffffffffffffffffffffffffffffffffff821661179757604080517f08c379a000000000000000000000000000000000000000000000000000000000815260206004820152601d60248201527f5a61703a20496e76616c69642052656365697665722041646472657373000000604482015290519081900360640190fd5b8273ffffffffffffffffffffffffffffffffffffffff1663a9059cbb83836040518363ffffffff1660e01b8152600401808373ffffffffffffffffffffffffffffffffffffffff16815260200182815260200192505050602060405180830381600087803b15801561180857600080fd5b505af115801561181c573d6000803e3d6000fd5b505050506040513d602081101561183257600080fd5b50506040805182815273ffffffffffffffffffffffffffffffffffffffff84811660208301528251908616927f56c54ba9bd38d8fd62012e42c7ee564519b09763c426d331b3661b537ead19b2928290030190a2505050565b60015473ffffffffffffffffffffffffffffffffffffffff16331461191157604080517f08c379a000000000000000000000000000000000000000000000000000000000815260206004820152601060248201527f5a61703a2021676f7665726e616e636500000000000000000000000000000000604482015290519081900360640190fd5b600855565b60015473ffffffffffffffffffffffffffffffffffffffff16331461199c57604080517f08c379a000000000000000000000000000000000000000000000000000000000815260206004820152601060248201527f5a61703a2021676f7665726e616e636500000000000000000000000000000000604482015290519081900360640190fd5b600980546001810182556000919091527f6e1540171b6c0c960b71a7020d9f60077f6af931a8bbf590da0223dacf75c7af0180547fffffffffffffffffffffffff00000000000000000000000000000000000000001673ffffffffffffffffffffffffffffffffffffffff92909216919091179055565b600080600080600087905060008173ffffffffffffffffffffffffffffffffffffffff16630dfe16816040518163ffffffff1660e01b815260040160206040518083038186803b158015611a6657600080fd5b505afa158015611a7a573d6000803e3d6000fd5b505050506040513d6020811015611a9057600080fd5b5051604080517fd21220a7000000000000000000000000000000000000000000000000000000008152905191925060009173ffffffffffffffffffffffffffffffffffffffff85169163d21220a7916004808301926020929190829003018186803b158015611afe57600080fd5b505afa158015611b12573d6000803e3d6000fd5b505050506040513d6020811015611b2857600080fd5b5051905073ffffffffffffffffffffffffffffffffffffffff88811690831614611b525781611b54565b805b935050505060008060008973ffffffffffffffffffffffffffffffffffffffff166318160ddd6040518163ffffffff1660e01b815260040160206040518083038186803b158015611ba457600080fd5b505afa158015611bb8573d6000803e3d6000fd5b505050506040513d6020811015611bce57600080fd5b5051604080517f70a0823100000000000000000000000000000000000000000000000000000000815273ffffffffffffffffffffffffffffffffffffffff8d8116600483015291519293508392611c7a928816916370a08231916024808301926020929190829003018186803b158015611c4757600080fd5b505afa158015611c5b573d6000803e3d6000fd5b505050506040513d6020811015611c7157600080fd5b50518b90613543565b81611c8157fe5b04925080611cef8973ffffffffffffffffffffffffffffffffffffffff166370a082318d6040518263ffffffff1660e01b8152600401808273ffffffffffffffffffffffffffffffffffffffff16815260200191505060206040518083038186803b158015611c4757600080fd5b81611cf657fe5b049150506000611d088a8585856135bf565b929a9299509097509095505050505050565b60015473ffffffffffffffffffffffffffffffffffffffff163314611da057604080517f08c379a000000000000000000000000000000000000000000000000000000000815260206004820152601060248201527f5a61703a2021676f7665726e616e636500000000000000000000000000000000604482015290519081900360640190fd5b60606009805480602002602001604051908101604052809291908181526020018280548015611e0557602002820191906000526020600020905b815473ffffffffffffffffffffffffffffffffffffffff168152600190910190602001808311611dda575b50505050509050610b1b81836125c3565b600060026000541415611e8a57604080517f08c379a000000000000000000000000000000000000000000000000000000000815260206004820152601f60248201527f5265656e7472616e637947756172643a207265656e7472616e742063616c6c00604482015290519081900360640190fd5b6002600081905550611ed2333087876000818110611ea457fe5b905060200201358973ffffffffffffffffffffffffffffffffffffffff16613084909392919063ffffffff16565b611edb86613119565b8273ffffffffffffffffffffffffffffffffffffffff16630dfe16816040518163ffffffff1660e01b815260040160206040518083038186803b158015611f2157600080fd5b505afa158015611f35573d6000803e3d6000fd5b505050506040513d6020811015611f4b57600080fd5b505173ffffffffffffffffffffffffffffffffffffffff87811691161480611ffc57508273ffffffffffffffffffffffffffffffffffffffff1663d21220a76040518163ffffffff1660e01b815260040160206040518083038186803b158015611fb457600080fd5b505afa158015611fc8573d6000803e3d6000fd5b505050506040513d6020811015611fde57600080fd5b505173ffffffffffffffffffffffffffffffffffffffff8781169116145b156122ce5760008060008573ffffffffffffffffffffffffffffffffffffffff16630dfe16816040518163ffffffff1660e01b815260040160206040518083038186803b15801561204c57600080fd5b505afa158015612060573d6000803e3d6000fd5b505050506040513d602081101561207657600080fd5b5051604080517fd21220a7000000000000000000000000000000000000000000000000000000008152905191925060009173ffffffffffffffffffffffffffffffffffffffff89169163d21220a7916004808301926020929190829003018186803b1580156120e457600080fd5b505afa1580156120f8573d6000803e3d6000fd5b505050506040513d602081101561210e57600080fd5b5051905073ffffffffffffffffffffffffffffffffffffffff8a811690831614612138578161213a565b805b935061215b878b8b8b600081811061214e57fe5b90506020020135856132fd565b92505050600061216e898385308a61378d565b90508787600181811061217d57fe5b905060200201358110156121f257604080517f08c379a000000000000000000000000000000000000000000000000000000000815260206004820181905260248201527f5a61703a20496e73756666696369656e74205265636569766520416d6f756e74604482015290519081900360640190fd5b6122c4868a8561221e868d8d600081811061220957fe5b90506020020135613cca90919063ffffffff16565b600554604080517fe5e31b1300000000000000000000000000000000000000000000000000000000815273ffffffffffffffffffffffffffffffffffffffff8e81166004830152915189933393169163e5e31b13916024808301926020929190829003018186803b15801561229257600080fd5b505afa1580156122a6573d6000803e3d6000fd5b505050506040513d60208110156122bc57600080fd5b50518c613d41565b9350505050612304565b60006122f087878760008181106122e157fe5b90506020020135306000613fdf565b90506123008482336000876144b8565b9150505b8484600281811061231157fe5b9050602002013581101561238657604080517f08c379a000000000000000000000000000000000000000000000000000000000815260206004820152601560248201527f5a61703a204869676820536c69707061676520496e0000000000000000000000604482015290519081900360640190fd5b337f6c9d1839e8465b42ebfd3c687420dbcdf116253fd431545be184fb051c38f0c28787876000816123b457fe5b905060200201358685604051808573ffffffffffffffffffffffffffffffffffffffff1681526020018481526020018373ffffffffffffffffffffffffffffffffffffffff16815260200182815260200194505050505060405180910390a2600160005595945050505050565b60015473ffffffffffffffffffffffffffffffffffffffff1681565b60045473ffffffffffffffffffffffffffffffffffffffff1681565b6000600260005414156124cd57604080517f08c379a000000000000000000000000000000000000000000000000000000000815260206004820152601f60248201527f5265656e7472616e637947756172643a207265656e7472616e742063616c6c00604482015290519081900360640190fd5b600260009081556124e186343388876144b8565b90508381101561255257604080517f08c379a000000000000000000000000000000000000000000000000000000000815260206004820152601560248201527f5a61703a204869676820536c69707061676520496e0000000000000000000000604482015290519081900360640190fd5b6002546040805173ffffffffffffffffffffffffffffffffffffffff928316815234602082015291881682820152606082018390525133917f6c9d1839e8465b42ebfd3c687420dbcdf116253fd431545be184fb051c38f0c2919081900360800190a2600160005595945050505050565b60015473ffffffffffffffffffffffffffffffffffffffff16331461264957604080517f08c379a000000000000000000000000000000000000000000000000000000000815260206004820152601060248201527f5a61703a2021676f7665726e616e636500000000000000000000000000000000604482015290519081900360640190fd5b73ffffffffffffffffffffffffffffffffffffffff81166126cb57604080517f08c379a000000000000000000000000000000000000000000000000000000000815260206004820152601d60248201527f5a61703a20496e76616c69642052656365697665722041646472657373000000604482015290519081900360640190fd5b60005b82518110156126fc576126f48382815181106126e657fe5b602002602001015183614e4b565b6001016126ce565b505050565b60055473ffffffffffffffffffffffffffffffffffffffff1681565b60025473ffffffffffffffffffffffffffffffffffffffff1681565b60035473ffffffffffffffffffffffffffffffffffffffff1681565b6000600260005414156127c957604080517f08c379a000000000000000000000000000000000000000000000000000000000815260206004820152601f60248201527f5265656e7472616e637947756172643a207265656e7472616e742063616c6c00604482015290519081900360640190fd5b60026000556127f073ffffffffffffffffffffffffffffffffffffffff8616333087613084565b6127f985613119565b60008060008060008990508073ffffffffffffffffffffffffffffffffffffffff16630dfe16816040518163ffffffff1660e01b815260040160206040518083038186803b15801561284a57600080fd5b505afa15801561285e573d6000803e3d6000fd5b505050506040513d602081101561287457600080fd5b5051604080517fd21220a7000000000000000000000000000000000000000000000000000000008152905191965073ffffffffffffffffffffffffffffffffffffffff83169163d21220a791600480820192602092909190829003018186803b1580156128e057600080fd5b505afa1580156128f4573d6000803e3d6000fd5b505050506040513d602081101561290a57600080fd5b5051600554604080517fe5e31b1300000000000000000000000000000000000000000000000000000000815273ffffffffffffffffffffffffffffffffffffffff8e811660048301529151939750600093919092169163e5e31b13916024808301926020929190829003018186803b15801561298557600080fd5b505afa158015612999573d6000803e3d6000fd5b505050506040513d60208110156129af57600080fd5b505190508015612a9d5760048054604080517fe1f4a78400000000000000000000000000000000000000000000000000000000815273ffffffffffffffffffffffffffffffffffffffff8f81169482019490945289841660248201528884166044820152606481018e905260016084820181905260a48201523060c48201524260e48201528151939092169263e1f4a784926101048082019392918290030181600087803b158015612a6057600080fd5b505af1158015612a74573d6000803e3d6000fd5b505050506040513d6040811015612a8a57600080fd5b5080516020909101519094509250612b70565b600354604080517fbaa2abde00000000000000000000000000000000000000000000000000000000815273ffffffffffffffffffffffffffffffffffffffff89811660048301528881166024830152604482018e905260016064830181905260848301523060a48301524260c4830152825193169263baa2abde9260e4808401939192918290030181600087803b158015612b3757600080fd5b505af1158015612b4b573d6000803e3d6000fd5b505050506040513d6040811015612b6157600080fd5b50805160209091015190945092505b50506000612b7d85613119565b612b8684613119565b73ffffffffffffffffffffffffffffffffffffffff881673eeeeeeeeeeeeeeeeeeeeeeeeeeeeeeeeeeeeeeee1415612c395760025460009073ffffffffffffffffffffffffffffffffffffffff87811691161480612bfe575060025473ffffffffffffffffffffffffffffffffffffffff8681169116145b612c09576000612c0b565b8a5b9050612c1986853084613fdf565b9150612c31612c2a86853085613fdf565b8390614fd8565b915050612cd2565b60008573ffffffffffffffffffffffffffffffffffffffff168973ffffffffffffffffffffffffffffffffffffffff161480612ca057508473ffffffffffffffffffffffffffffffffffffffff168973ffffffffffffffffffffffffffffffffffffffff16145b612cab576000612cad565b8a5b9050612cbc86858b308561378d565b9150612cce612c2a86858c308661378d565b9150505b86811015612d4157604080517f08c379a000000000000000000000000000000000000000000000000000000000815260206004820152601660248201527f5a61703a204869676820536c697070616765204f757400000000000000000000604482015290519081900360640190fd5b73ffffffffffffffffffffffffffffffffffffffff881673eeeeeeeeeeeeeeeeeeeeeeeeeeeeeeeeeeeeeeee1415612d8257612d7d338261504c565b612da3565b612da373ffffffffffffffffffffffffffffffffffffffff89163383615184565b6040805173ffffffffffffffffffffffffffffffffffffffff8c81168252602082018c90528a168183015260608101839052905133917f04a863d47eb1f82dce727c38e0b2294b96dea01f7d8c060216edb8ef473ea839919081900360800190a260016000559998505050505050505050565b60015473ffffffffffffffffffffffffffffffffffffffff163314612e9c57604080517f08c379a000000000000000000000000000000000000000000000000000000000815260206004820152601060248201527f5a61703a2021676f7665726e616e636500000000000000000000000000000000604482015290519081900360640190fd5b600180547fffffffffffffffffffffffff00000000000000000000000000000000000000001673ffffffffffffffffffffffffffffffffffffffff92909216919091179055565b604080517fd505accf000000000000000000000000000000000000000000000000000000008152336004820152306024820152604481018790526064810186905260ff8516608482015260a4810184905260c481018390529051600091829173ffffffffffffffffffffffffffffffffffffffff8b169163d505accf9160e4808301928692919082900301818387803b158015612f7f57600080fd5b505af1158015612f93573d6000803e3d6000fd5b50505050612fa18989610b1f565b909a909950975050505050505050565b60085481565b604080517fd505accf000000000000000000000000000000000000000000000000000000008152336004820152306024820152604481018790526064810186905260ff8516608482015260a4810184905260c48101839052905160009173ffffffffffffffffffffffffffffffffffffffff8c169163d505accf9160e480820192869290919082900301818387803b15801561305257600080fd5b505af1158015613066573d6000803e3d6000fd5b505050506130768a8a8a8a612755565b9a9950505050505050505050565b6040805173ffffffffffffffffffffffffffffffffffffffff80861660248301528416604482015260648082018490528251808303909101815260849091019091526020810180517bffffffffffffffffffffffffffffffffffffffffffffffffffffffff167f23b872dd0000000000000000000000000000000000000000000000000000000017905261168990859061520d565b600354604080517fdd62ed3e00000000000000000000000000000000000000000000000000000000815230600482015273ffffffffffffffffffffffffffffffffffffffff928316602482015290519183169163dd62ed3e91604480820192602092909190829003018186803b15801561319257600080fd5b505afa1580156131a6573d6000803e3d6000fd5b505050506040513d60208110156131bc57600080fd5b5051613209576003546132099073ffffffffffffffffffffffffffffffffffffffff83811691167fffffffffffffffffffffffffffffffffffffffffffffffffffffffffffffffff6152e5565b60048054604080517fdd62ed3e000000000000000000000000000000000000000000000000000000008152309381019390935273ffffffffffffffffffffffffffffffffffffffff9182166024840152519083169163dd62ed3e916044808301926020929190829003018186803b15801561328357600080fd5b505afa158015613297573d6000803e3d6000fd5b505050506040513d60208110156132ad57600080fd5b50516132fa576004546132fa9073ffffffffffffffffffffffffffffffffffffffff83811691167fffffffffffffffffffffffffffffffffffffffffffffffffffffffffffffffff6152e5565b50565b600554604080517fca22297900000000000000000000000000000000000000000000000000000000815273ffffffffffffffffffffffffffffffffffffffff878116600483015291516000938493849391169163ca22297991602480820192606092909190829003018186803b15801561337657600080fd5b505afa15801561338a573d6000803e3d6000fd5b505050506040513d60608110156133a057600080fd5b5080516020909101519092509050603263ffffffff831614156134d5576000808873ffffffffffffffffffffffffffffffffffffffff16630902f1ac6040518163ffffffff1660e01b815260040160606040518083038186803b15801561340657600080fd5b505afa15801561341a573d6000803e3d6000fd5b505050506040513d606081101561343057600080fd5b5080516020909101516dffffffffffffffffffffffffffff9182169350169050600073ffffffffffffffffffffffffffffffffffffffff89811690881614613478578161347a565b825b90506107ca6134c161348e836107cd613543565b6134bb6134b66134a186623cda29613543565b6134ae8e623cda20613543565b879101613543565b615473565b90613cca565b816134c857fe5b049550505050505061353b565b60008473ffffffffffffffffffffffffffffffffffffffff168773ffffffffffffffffffffffffffffffffffffffff1614613516578263ffffffff1661351e565b8163ffffffff165b9050613535606461352f8884613543565b906154c5565b93505050505b949350505050565b600082613552575060006135b9565b8282028284828161355f57fe5b04146135b6576040517f08c379a0000000000000000000000000000000000000000000000000000000008152600401808060200182810382526021815260200180615e7a6021913960400191505060405180910390fd5b90505b92915050565b600654600554604080517fb33d96b000000000000000000000000000000000000000000000000000000000815273ffffffffffffffffffffffffffffffffffffffff928316600482015287831660248201528683166044820152905160009384938493849384938493169163b33d96b09160648083019260c0929190829003018186803b15801561364f57600080fd5b505afa158015613663573d6000803e3d6000fd5b505050506040513d60c081101561367957600080fd5b50602081015160408201516060830151608084015160a090940151600654939950919750955091935090915073ffffffffffffffffffffffffffffffffffffffff1663671a11b5896136cb8882613cca565b6136d5888c613cca565b604080517fffffffff0000000000000000000000000000000000000000000000000000000060e087901b16815260048101949094526024840192909252604483015263ffffffff80881660648401528087166084840152851660a48301525160c4808301926020929190829003018186803b15801561375357600080fd5b505afa158015613767573d6000803e3d6000fd5b505050506040513d602081101561377d57600080fd5b50519a9950505050505050505050565b60008373ffffffffffffffffffffffffffffffffffffffff168673ffffffffffffffffffffffffffffffffffffffff1614156138085773ffffffffffffffffffffffffffffffffffffffff831630146138015761380173ffffffffffffffffffffffffffffffffffffffff87168487615184565b5083613cc1565b73ffffffffffffffffffffffffffffffffffffffff808716600090815260076020908152604080832093881683529281529082902080548351818402810184019094528084526060939283018282801561389857602002820191906000526020600020905b815473ffffffffffffffffffffffffffffffffffffffff16815260019091019060200180831161386d575b505050505090506060600082511115613abf57600460009054906101000a900473ffffffffffffffffffffffffffffffffffffffff1673ffffffffffffffffffffffffffffffffffffffff1663bff51d7189888a6001878b426040518863ffffffff1660e01b8152600401808873ffffffffffffffffffffffffffffffffffffffff1681526020018773ffffffffffffffffffffffffffffffffffffffff168152602001868152602001858152602001806020018473ffffffffffffffffffffffffffffffffffffffff168152602001838152602001828103825285818151815260200191508051906020019060200280838360005b838110156139a657818101518382015260200161398e565b5050505090500198505050505050505050600060405180830381600087803b1580156139d157600080fd5b505af11580156139e5573d6000803e3d6000fd5b505050506040513d6000823e601f3d9081017fffffffffffffffffffffffffffffffffffffffffffffffffffffffffffffffe01682016040526020811015613a2c57600080fd5b8101908080516040519392919084640100000000821115613a4c57600080fd5b908301906020820185811115613a6157600080fd5b8251866020820283011164010000000082111715613a7e57600080fd5b82525081516020918201928201910280838360005b83811015613aab578181015183820152602001613a93565b505050509050016040525050509050613ca4565b73ffffffffffffffffffffffffffffffffffffffff841615613c3d5760408051600180825281830190925290602080830190803683370190505091508382600081518110613b0957fe5b602002602001019073ffffffffffffffffffffffffffffffffffffffff16908173ffffffffffffffffffffffffffffffffffffffff1681525050600460009054906101000a900473ffffffffffffffffffffffffffffffffffffffff1673ffffffffffffffffffffffffffffffffffffffff1663bff51d7189888a6001878b426040518863ffffffff1660e01b8152600401808873ffffffffffffffffffffffffffffffffffffffff1681526020018773ffffffffffffffffffffffffffffffffffffffff168152602001868152602001858152602001806020018473ffffffffffffffffffffffffffffffffffffffff16815260200183815260200182810382528581815181526020019150805190602001906020028083836000838110156139a657818101518382015260200161398e565b604080517f08c379a000000000000000000000000000000000000000000000000000000000815260206004820152601760248201527f46697265426972645a61703a2021706174682073776170000000000000000000604482015290519081900360640190fd5b80600182510381518110613cb457fe5b6020026020010151925050505b95945050505050565b600082821115613d3b57604080517f08c379a000000000000000000000000000000000000000000000000000000000815260206004820152601e60248201527f536166654d6174683a207375627472616374696f6e206f766572666c6f770000604482015290519081900360640190fd5b50900390565b6000613d4c88613119565b613d5587613119565b6000808415613e565760048054604080517ffbf4513500000000000000000000000000000000000000000000000000000000815273ffffffffffffffffffffffffffffffffffffffff8f8116948201949094528d841660248201528c84166044820152606481018c9052608481018b9052600160a4820181905260c482015289841660e4820152426101048201529051929091169163fbf4513591610124808201926060929091908290030181600087803b158015613e1357600080fd5b505af1158015613e27573d6000803e3d6000fd5b505050506040513d6060811015613e3d57600080fd5b5080516020820151604090920151945092509050613f3d565b600354604080517fe8e3370000000000000000000000000000000000000000000000000000000000815273ffffffffffffffffffffffffffffffffffffffff8d811660048301528c81166024830152604482018c9052606482018b905260016084830181905260a483015289811660c48301524260e48301529151919092169163e8e33700916101048083019260609291908290030181600087803b158015613efe57600080fd5b505af1158015613f12573d6000803e3d6000fd5b505050506040513d6060811015613f2857600080fd5b50805160208201516040909201519450925090505b6000613f498984613cca565b90508480613f705750613f6d61271061352f6008548c61354390919063ffffffff16565b81115b15613f86578015613f8657613f868b3383615546565b6000613f928984613cca565b90508580613fb95750613fb661271061352f6008548c61354390919063ffffffff16565b81115b15613fcf578015613fcf57613fcf8b3383615546565b5050505098975050505050505050565b60025460009073ffffffffffffffffffffffffffffffffffffffff86811691161415614030576002546140299073ffffffffffffffffffffffffffffffffffffffff168486615546565b508261353b565b73ffffffffffffffffffffffffffffffffffffffff80861660009081526007602090815260408083206002549094168352928152908290208054835181840281018401909452808452606093928301828280156140c357602002820191906000526020600020905b815473ffffffffffffffffffffffffffffffffffffffff168152600190910190602001808311614098575b5050505050905060606000825111156142cc57600460009054906101000a900473ffffffffffffffffffffffffffffffffffffffff1673ffffffffffffffffffffffffffffffffffffffff16639c91fcb588886001868a426040518763ffffffff1660e01b8152600401808773ffffffffffffffffffffffffffffffffffffffff168152602001868152602001858152602001806020018473ffffffffffffffffffffffffffffffffffffffff168152602001838152602001828103825285818151815260200191508051906020019060200280838360005b838110156141b457818101518382015260200161419c565b50505050905001975050505050505050600060405180830381600087803b1580156141de57600080fd5b505af11580156141f2573d6000803e3d6000fd5b505050506040513d6000823e601f3d9081017fffffffffffffffffffffffffffffffffffffffffffffffffffffffffffffffe0168201604052602081101561423957600080fd5b810190808051604051939291908464010000000082111561425957600080fd5b90830190602082018581111561426e57600080fd5b825186602082028301116401000000008211171561428b57600080fd5b82525081516020918201928201910280838360005b838110156142b85781810151838201526020016142a0565b505050509050016040525050509050614494565b73ffffffffffffffffffffffffffffffffffffffff84161561442d576040805160018082528183019092529060208083019080368337019050509150838260008151811061431657fe5b602002602001019073ffffffffffffffffffffffffffffffffffffffff16908173ffffffffffffffffffffffffffffffffffffffff1681525050600460009054906101000a900473ffffffffffffffffffffffffffffffffffffffff1673ffffffffffffffffffffffffffffffffffffffff16639c91fcb588886001868a426040518763ffffffff1660e01b8152600401808773ffffffffffffffffffffffffffffffffffffffff168152602001868152602001858152602001806020018473ffffffffffffffffffffffffffffffffffffffff16815260200183815260200182810382528581815181526020019150805190602001906020028083836000838110156141b457818101518382015260200161419c565b604080517f08c379a000000000000000000000000000000000000000000000000000000000815260206004820152601b60248201527f46697265426972645a61703a20217061746820546f6b656e424e420000000000604482015290519081900360640190fd5b806001825103815181106144a457fe5b602002602001015192505050949350505050565b600080869050600260009054906101000a900473ffffffffffffffffffffffffffffffffffffffff1673ffffffffffffffffffffffffffffffffffffffff168773ffffffffffffffffffffffffffffffffffffffff16630dfe16816040518163ffffffff1660e01b815260040160206040518083038186803b15801561453d57600080fd5b505afa158015614551573d6000803e3d6000fd5b505050506040513d602081101561456757600080fd5b505173ffffffffffffffffffffffffffffffffffffffff1614806146375750600254604080517fd21220a7000000000000000000000000000000000000000000000000000000008152905173ffffffffffffffffffffffffffffffffffffffff928316928a169163d21220a7916004808301926020929190829003018186803b1580156145f357600080fd5b505afa158015614607573d6000803e3d6000fd5b505050506040513d602081101561461d57600080fd5b505173ffffffffffffffffffffffffffffffffffffffff16145b15614baf576000600260009054906101000a900473ffffffffffffffffffffffffffffffffffffffff1673ffffffffffffffffffffffffffffffffffffffff168873ffffffffffffffffffffffffffffffffffffffff16630dfe16816040518163ffffffff1660e01b815260040160206040518083038186803b1580156146bd57600080fd5b505afa1580156146d1573d6000803e3d6000fd5b505050506040513d60208110156146e757600080fd5b505173ffffffffffffffffffffffffffffffffffffffff161461477b578773ffffffffffffffffffffffffffffffffffffffff16630dfe16816040518163ffffffff1660e01b815260040160206040518083038186803b15801561474a57600080fd5b505afa15801561475e573d6000803e3d6000fd5b505050506040513d602081101561477457600080fd5b50516147ee565b8773ffffffffffffffffffffffffffffffffffffffff1663d21220a76040518163ffffffff1660e01b815260040160206040518083038186803b1580156147c157600080fd5b505afa1580156147d5573d6000803e3d6000fd5b505050506040513d60208110156147eb57600080fd5b50515b600554604080517fca22297900000000000000000000000000000000000000000000000000000000815273ffffffffffffffffffffffffffffffffffffffff8c81166004830152915193945060009384938493169163ca222979916024808301926060929190829003018186803b15801561486857600080fd5b505afa15801561487c573d6000803e3d6000fd5b505050506040513d606081101561489257600080fd5b8101908080519060200190929190805190602001909291908051906020019092919050505050915091506000600260009054906101000a900473ffffffffffffffffffffffffffffffffffffffff1673ffffffffffffffffffffffffffffffffffffffff168c73ffffffffffffffffffffffffffffffffffffffff16630dfe16816040518163ffffffff1660e01b815260040160206040518083038186803b15801561493d57600080fd5b505afa158015614951573d6000803e3d6000fd5b505050506040513d602081101561496757600080fd5b505173ffffffffffffffffffffffffffffffffffffffff1614614990578263ffffffff16614998565b8163ffffffff165b90506149a9606461352f8d84613543565b935050505060006149bc8383308761564b565b905086811015614a2d57604080517f08c379a000000000000000000000000000000000000000000000000000000000815260206004820181905260248201527f5a61703a20496e73756666696369656e74205265636569766520416d6f756e74604482015290519081900360640190fd5b6000614a398a84613cca565b9050600260009054906101000a900473ffffffffffffffffffffffffffffffffffffffff1673ffffffffffffffffffffffffffffffffffffffff1663d0e30db0826040518263ffffffff1660e01b81526004016000604051808303818588803b158015614aa557600080fd5b505af1158015614ab9573d6000803e3d6000fd5b5050505050614ba485600260009054906101000a900473ffffffffffffffffffffffffffffffffffffffff168684868e600560009054906101000a900473ffffffffffffffffffffffffffffffffffffffff1673ffffffffffffffffffffffffffffffffffffffff1663e5e31b138d6040518263ffffffff1660e01b8152600401808273ffffffffffffffffffffffffffffffffffffffff16815260200191505060206040518083038186803b158015614b7257600080fd5b505afa158015614b86573d6000803e3d6000fd5b505050506040513d6020811015614b9c57600080fd5b50518e613d41565b955050505050614e41565b60008773ffffffffffffffffffffffffffffffffffffffff16630dfe16816040518163ffffffff1660e01b815260040160206040518083038186803b158015614bf757600080fd5b505afa158015614c0b573d6000803e3d6000fd5b505050506040513d6020811015614c2157600080fd5b5051604080517fd21220a7000000000000000000000000000000000000000000000000000000008152905191925060009173ffffffffffffffffffffffffffffffffffffffff8b169163d21220a7916004808301926020929190829003018186803b158015614c8f57600080fd5b505afa158015614ca3573d6000803e3d6000fd5b505050506040513d6020811015614cb957600080fd5b5051600554604080517fca22297900000000000000000000000000000000000000000000000000000000815273ffffffffffffffffffffffffffffffffffffffff8781166004830152915193945060009384938493169163ca222979916024808301926060929190829003018186803b158015614d3557600080fd5b505afa158015614d49573d6000803e3d6000fd5b505050506040513d6060811015614d5f57600080fd5b505190506000614d7d606461352f8e63ffffffff8087169061354316565b9050614d8c868230600061564b565b9350614da485614d9c8e84613cca565b30600061564b565b92505050614e3a85858585858e600560009054906101000a900473ffffffffffffffffffffffffffffffffffffffff1673ffffffffffffffffffffffffffffffffffffffff1663e5e31b138d6040518263ffffffff1660e01b8152600401808273ffffffffffffffffffffffffffffffffffffffff16815260200191505060206040518083038186803b158015614b7257600080fd5b9550505050505b5095945050505050565b73ffffffffffffffffffffffffffffffffffffffff8216614ec757614e70814761504c565b6040805147815273ffffffffffffffffffffffffffffffffffffffff83811660208301528251908516927f56c54ba9bd38d8fd62012e42c7ee564519b09763c426d331b3661b537ead19b2928290030190a2610b1b565b60008273ffffffffffffffffffffffffffffffffffffffff166370a08231306040518263ffffffff1660e01b8152600401808273ffffffffffffffffffffffffffffffffffffffff16815260200191505060206040518083038186803b158015614f3057600080fd5b505afa158015614f44573d6000803e3d6000fd5b505050506040513d6020811015614f5a57600080fd5b5051604080517fa9059cbb00000000000000000000000000000000000000000000000000000000815273ffffffffffffffffffffffffffffffffffffffff85811660048301526024820184905291519293509085169163a9059cbb916044808201926020929091908290030181600087803b15801561180857600080fd5b6000828201838110156135b657604080517f08c379a000000000000000000000000000000000000000000000000000000000815260206004820152601b60248201527f536166654d6174683a206164646974696f6e206f766572666c6f770000000000604482015290519081900360640190fd5b6040805160008082526020820190925273ffffffffffffffffffffffffffffffffffffffff84169083906040518082805190602001908083835b602083106150c357805182527fffffffffffffffffffffffffffffffffffffffffffffffffffffffffffffffe09092019160209182019101615086565b6001836020036101000a03801982511681845116808217855250505050505090500191505060006040518083038185875af1925050503d8060008114615125576040519150601f19603f3d011682016040523d82523d6000602084013e61512a565b606091505b50509050806126fc576040517f08c379a0000000000000000000000000000000000000000000000000000000008152600401808060200182810382526023815260200180615e9b6023913960400191505060405180910390fd5b6040805173ffffffffffffffffffffffffffffffffffffffff8416602482015260448082018490528251808303909101815260649091019091526020810180517bffffffffffffffffffffffffffffffffffffffffffffffffffffffff167fa9059cbb000000000000000000000000000000000000000000000000000000001790526126fc9084905b606061526f826040518060400160405280602081526020017f5361666545524332303a206c6f772d6c6576656c2063616c6c206661696c65648152508573ffffffffffffffffffffffffffffffffffffffff16615afa9092919063ffffffff16565b8051909150156126fc5780806020019051602081101561528e57600080fd5b50516126fc576040517f08c379a000000000000000000000000000000000000000000000000000000000815260040180806020018281038252602a815260200180615ebe602a913960400191505060405180910390fd5b8015806153915750604080517fdd62ed3e00000000000000000000000000000000000000000000000000000000815230600482015273ffffffffffffffffffffffffffffffffffffffff848116602483015291519185169163dd62ed3e91604480820192602092909190829003018186803b15801561536357600080fd5b505afa158015615377573d6000803e3d6000fd5b505050506040513d602081101561538d57600080fd5b5051155b6153e6576040517f08c379a0000000000000000000000000000000000000000000000000000000008152600401808060200182810382526036815260200180615ee86036913960400191505060405180910390fd5b6040805173ffffffffffffffffffffffffffffffffffffffff8416602482015260448082018490528251808303909101815260649091019091526020810180517bffffffffffffffffffffffffffffffffffffffffffffffffffffffff167f095ea7b3000000000000000000000000000000000000000000000000000000001790526126fc90849061520d565b600060038211156154b6575080600160028204015b818110156154b05780915060028182858161549f57fe5b0401816154a857fe5b049050615488565b506154c0565b81156154c0575060015b919050565b600080821161553557604080517f08c379a000000000000000000000000000000000000000000000000000000000815260206004820152601a60248201527f536166654d6174683a206469766973696f6e206279207a65726f000000000000604482015290519081900360640190fd5b81838161553e57fe5b049392505050565b80615550576126fc565b60025473ffffffffffffffffffffffffffffffffffffffff8481169116141561562a57600254604080517f2e1a7d4d00000000000000000000000000000000000000000000000000000000815260048101849052905173ffffffffffffffffffffffffffffffffffffffff90921691632e1a7d4d9160248082019260009290919082900301818387803b1580156155e657600080fd5b505af11580156155fa573d6000803e3d6000fd5b5050505073ffffffffffffffffffffffffffffffffffffffff8216301461562557615625828261504c565b6126fc565b6126fc73ffffffffffffffffffffffffffffffffffffffff84168383615184565b60025460009073ffffffffffffffffffffffffffffffffffffffff8681169116141561573657600260009054906101000a900473ffffffffffffffffffffffffffffffffffffffff1673ffffffffffffffffffffffffffffffffffffffff1663d0e30db0856040518263ffffffff1660e01b81526004016000604051808303818588803b1580156156db57600080fd5b505af11580156156ef573d6000803e3d6000fd5b5050505073ffffffffffffffffffffffffffffffffffffffff841630149050614029576002546140299073ffffffffffffffffffffffffffffffffffffffff168486615184565b60025473ffffffffffffffffffffffffffffffffffffffff90811660009081526007602090815260408083209389168352928152908290208054835181840281018401909452808452606093928301828280156157c957602002820191906000526020600020905b815473ffffffffffffffffffffffffffffffffffffffff16815260019091019060200180831161579e575b50505050509050606060008251111561593857600460009054906101000a900473ffffffffffffffffffffffffffffffffffffffff1673ffffffffffffffffffffffffffffffffffffffff1663fde1adda87896001868a426040518763ffffffff1660e01b8152600401808673ffffffffffffffffffffffffffffffffffffffff168152602001858152602001806020018473ffffffffffffffffffffffffffffffffffffffff168152602001838152602001828103825285818151815260200191508051906020019060200280838360005b838110156158b457818101518382015260200161589c565b5050505090500196505050505050506000604051808303818588803b1580156158dc57600080fd5b505af11580156158f0573d6000803e3d6000fd5b50505050506040513d6000823e601f3d9081017fffffffffffffffffffffffffffffffffffffffffffffffffffffffffffffffe0168201604052602081101561423957600080fd5b73ffffffffffffffffffffffffffffffffffffffff841615615a93576040805160018082528183019092529060208083019080368337019050509150838260008151811061598257fe5b602002602001019073ffffffffffffffffffffffffffffffffffffffff16908173ffffffffffffffffffffffffffffffffffffffff1681525050600460009054906101000a900473ffffffffffffffffffffffffffffffffffffffff1673ffffffffffffffffffffffffffffffffffffffff1663fde1adda87896001868a426040518763ffffffff1660e01b8152600401808673ffffffffffffffffffffffffffffffffffffffff168152602001858152602001806020018473ffffffffffffffffffffffffffffffffffffffff16815260200183815260200182810382528581815181526020019150805190602001906020028083836000838110156158b457818101518382015260200161589c565b604080517f08c379a000000000000000000000000000000000000000000000000000000000815260206004820152601b60248201527f46697265426972645a61703a20217061746820424e42546f6b656e0000000000604482015290519081900360640190fd5b6060615b098484600085615b13565b90505b9392505050565b606082471015615b6e576040517f08c379a0000000000000000000000000000000000000000000000000000000008152600401808060200182810382526026815260200180615e546026913960400191505060405180910390fd5b615b7785615cce565b615be257604080517f08c379a000000000000000000000000000000000000000000000000000000000815260206004820152601d60248201527f416464726573733a2063616c6c20746f206e6f6e2d636f6e7472616374000000604482015290519081900360640190fd5b600060608673ffffffffffffffffffffffffffffffffffffffff1685876040518082805190602001908083835b60208310615c4c57805182527fffffffffffffffffffffffffffffffffffffffffffffffffffffffffffffffe09092019160209182019101615c0f565b6001836020036101000a03801982511681845116808217855250505050505090500191505060006040518083038185875af1925050503d8060008114615cae576040519150601f19603f3d011682016040523d82523d6000602084013e615cb3565b606091505b5091509150615cc3828286615cd4565b979650505050505050565b3b151590565b60608315615ce3575081615b0c565b825115615cf35782518084602001fd5b816040517f08c379a00000000000000000000000000000000000000000000000000000000081526004018080602001828103825283818151815260200191508051906020019080838360005b83811015615d57578181015183820152602001615d3f565b50505050905090810190601f168015615d845780820380516001836020036101000a031916815260200191505b509250505060405180910390fd5b828054828255906000526020600020908101928215615e0c579160200282015b82811115615e0c57825182547fffffffffffffffffffffffff00000000000000000000000000000000000000001673ffffffffffffffffffffffffffffffffffffffff909116178255602090920191600190910190615db2565b50615e18929150615e1c565b5090565b5b80821115615e185780547fffffffffffffffffffffffff0000000000000000000000000000000000000000168155600101615e1d56fe416464726573733a20696e73756666696369656e742062616c616e636520666f722063616c6c536166654d6174683a206d756c7469706c69636174696f6e206f766572666c6f775472616e7366657248656c7065723a204554485f5452414e534645525f4641494c45445361666545524332303a204552433230206f7065726174696f6e20646964206e6f7420737563636565645361666545524332303a20617070726f76652066726f6d206e6f6e2d7a65726f20746f206e6f6e2d7a65726f20616c6c6f77616e6365a26469706673582212206f5b0ddb16b172c3909af9e10d0ffb274aaab125b4a5cbafa924e10601794e9064736f6c634300060c0033",
  "devdoc": {
    "kind": "dev",
    "methods": {},
    "version": 1
  },
  "userdoc": {
    "kind": "user",
    "methods": {},
    "version": 1
  },
  "storageLayout": {
    "storage": [
      {
        "astId": 1739,
        "contract": "contracts/FireBirdZap.sol:FireBirdZap",
        "label": "_status",
        "offset": 0,
        "slot": "0",
        "type": "t_uint256"
      },
      {
        "astId": 1790,
        "contract": "contracts/FireBirdZap.sol:FireBirdZap",
        "label": "governance",
        "offset": 0,
        "slot": "1",
        "type": "t_address"
      },
      {
        "astId": 1792,
        "contract": "contracts/FireBirdZap.sol:FireBirdZap",
        "label": "WBNB",
        "offset": 0,
        "slot": "2",
        "type": "t_address"
      },
      {
        "astId": 1800,
        "contract": "contracts/FireBirdZap.sol:FireBirdZap",
        "label": "uniRouter",
        "offset": 0,
        "slot": "3",
        "type": "t_contract(IUniswapV2Router)6463"
      },
      {
        "astId": 1802,
        "contract": "contracts/FireBirdZap.sol:FireBirdZap",
        "label": "fireBirdRouter",
        "offset": 0,
        "slot": "4",
        "type": "t_contract(IFireBirdRouter)5746"
      },
      {
        "astId": 1804,
        "contract": "contracts/FireBirdZap.sol:FireBirdZap",
        "label": "fireBirdFactory",
        "offset": 0,
        "slot": "5",
        "type": "t_contract(IFireBirdFactory)4817"
      },
      {
        "astId": 1806,
        "contract": "contracts/FireBirdZap.sol:FireBirdZap",
        "label": "fireBirdFormula",
        "offset": 0,
        "slot": "6",
        "type": "t_contract(IFireBirdFormula)5058"
      },
      {
        "astId": 1813,
        "contract": "contracts/FireBirdZap.sol:FireBirdZap",
        "label": "fireBirdPairs",
        "offset": 0,
        "slot": "7",
        "type": "t_mapping(t_address,t_mapping(t_address,t_array(t_address)dyn_storage))"
      },
      {
        "astId": 1816,
        "contract": "contracts/FireBirdZap.sol:FireBirdZap",
        "label": "maxResidual",
        "offset": 0,
        "slot": "8",
        "type": "t_uint256"
      },
      {
        "astId": 1819,
        "contract": "contracts/FireBirdZap.sol:FireBirdZap",
        "label": "tokensResidual",
        "offset": 0,
        "slot": "9",
        "type": "t_array(t_address)dyn_storage"
      }
    ],
    "types": {
      "t_address": {
        "encoding": "inplace",
        "label": "address",
        "numberOfBytes": "20"
      },
      "t_array(t_address)dyn_storage": {
        "base": "t_address",
        "encoding": "dynamic_array",
        "label": "address[]",
        "numberOfBytes": "32"
      },
      "t_contract(IFireBirdFactory)4817": {
        "encoding": "inplace",
        "label": "contract IFireBirdFactory",
        "numberOfBytes": "20"
      },
      "t_contract(IFireBirdFormula)5058": {
        "encoding": "inplace",
        "label": "contract IFireBirdFormula",
        "numberOfBytes": "20"
      },
      "t_contract(IFireBirdRouter)5746": {
        "encoding": "inplace",
        "label": "contract IFireBirdRouter",
        "numberOfBytes": "20"
      },
      "t_contract(IUniswapV2Router)6463": {
        "encoding": "inplace",
        "label": "contract IUniswapV2Router",
        "numberOfBytes": "20"
      },
      "t_mapping(t_address,t_array(t_address)dyn_storage)": {
        "encoding": "mapping",
        "key": "t_address",
        "label": "mapping(address => address[])",
        "numberOfBytes": "32",
        "value": "t_array(t_address)dyn_storage"
      },
      "t_mapping(t_address,t_mapping(t_address,t_array(t_address)dyn_storage))": {
        "encoding": "mapping",
        "key": "t_address",
        "label": "mapping(address => mapping(address => address[]))",
        "numberOfBytes": "32",
        "value": "t_mapping(t_address,t_array(t_address)dyn_storage)"
      },
      "t_uint256": {
        "encoding": "inplace",
        "label": "uint256",
        "numberOfBytes": "32"
      }
    }
  }
}