{
  "address": "0xFD01ccD4555Cba977013Ce421A048D216E2922a4",
  "abi": [
    {
      "inputs": [],
      "name": "create",
      "outputs": [
        {
          "internalType": "address",
          "name": "",
          "type": "address"
        }
      ],
      "stateMutability": "nonpayable",
      "type": "function"
    },
    {
      "inputs": [
        {
          "internalType": "address",
          "name": "poolAddress",
          "type": "address"
        },
        {
          "internalType": "address",
          "name": "pair",
          "type": "address"
        },
        {
          "internalType": "address",
          "name": "rewardToken",
          "type": "address"
        },
        {
          "internalType": "address",
          "name": "timelock",
          "type": "address"
        },
        {
          "internalType": "address",
          "name": "stakePoolRewardFund",
          "type": "address"
        },
        {
          "internalType": "bytes",
          "name": "data",
          "type": "bytes"
        }
      ],
      "name": "initialize",
      "outputs": [],
      "stateMutability": "nonpayable",
      "type": "function"
    },
    {
      "inputs": [],
      "name": "version",
      "outputs": [
        {
          "internalType": "uint256",
          "name": "",
          "type": "uint256"
        }
      ],
      "stateMutability": "view",
      "type": "function"
    }
  ],
  "transactionHash": "0xfbec3fae4c6f27778e3a207f488c9fd34d198debbd7460fb857cc7b8289124c9",
  "args": [],
  "solcInputHash": "63597f5a4a6874aad833f1d3636991b3",
  "bytecode": "0x6080604052610bb960005534801561001657600080fd5b50613bf6806100266000396000f3fe608060405234801561001057600080fd5b50600436106100415760003560e01c806301f79fb61461004657806354fd4d501461005b578063efc81a8c14610079575b600080fd5b610059610054366004610250565b61008e565b005b6100636101d3565b6040516100709190610479565b60405180910390f35b6100816101d9565b604051610070919061039d565b86600061009d83850185610311565b90508173ffffffffffffffffffffffffffffffffffffffff1663c0eac9ea88836000015184602001518560400151866060015187608001518860a001518960c001518a60e001516040518a63ffffffff1660e01b8152600401610108999897969594939291906103e4565b600060405180830381600087803b15801561012257600080fd5b505af1158015610136573d6000803e3d6000fd5b505050506101008101516040517f358394d800000000000000000000000000000000000000000000000000000000815273ffffffffffffffffffffffffffffffffffffffff84169163358394d891610196918c918a908c90600401610441565b600060405180830381600087803b1580156101b057600080fd5b505af11580156101c4573d6000803e3d6000fd5b50505050505050505050505050565b60005481565b600080336000546040516101ec9061021a565b6101f79291906103be565b604051809103906000f080158015610213573d6000803e3d6000fd5b5091505090565b61371a806104a783390190565b803573ffffffffffffffffffffffffffffffffffffffff8116811461024b57600080fd5b919050565b600080600080600080600060c0888a03121561026a578283fd5b61027388610227565b965061028160208901610227565b955061028f60408901610227565b945061029d60608901610227565b93506102ab60808901610227565b925060a088013567ffffffffffffffff808211156102c7578384fd5b818a0191508a601f8301126102da578384fd5b8135818111156102e8578485fd5b8b60208285010111156102f9578485fd5b60208301945080935050505092959891949750929550565b6000610120808385031215610324578182fd5b61032d81610482565b905061033883610227565b815261034660208401610227565b602082015260408301356040820152606083013560608201526080830135608082015260a083013560a082015260c083013560c082015260e083013560e08201526101008084013581830152508091505092915050565b73ffffffffffffffffffffffffffffffffffffffff91909116815260200190565b73ffffffffffffffffffffffffffffffffffffffff929092168252602082015260400190565b73ffffffffffffffffffffffffffffffffffffffff998a16815297891660208901529590971660408701526060860193909352608085019190915260a084015260c083015260e08201929092526101008101919091526101200190565b73ffffffffffffffffffffffffffffffffffffffff948516815260208101939093529083166040830152909116606082015260800190565b90815260200190565b60405181810167ffffffffffffffff8111828210171561049e57fe5b60405291905056fe60806040526203f4806008556001600955600a805460ff1916905534801561002657600080fd5b5060405161371a38038061371a8339818101604052604081101561004957600080fd5b508051602090910151600680546001600160a01b039093166001600160a01b031993841617905560058054909216331790915560005561368c8061008e6000396000f3fe608060405234801561001057600080fd5b50600436106102265760003560e01c80638583f6a51161012a578063c0eac9ea116100bd578063e2589d381161008c578063efe2226611610071578063efe22266146107e9578063f36c0a72146107f1578063f77c4791146107f957610226565b8063e2589d38146107a5578063e9fad8ee146107e157610226565b8063c0eac9ea1461070c578063d33219b414610775578063d9fa1de11461077d578063db2e21bc1461079d57610226565b8063b69ef8a8116100f9578063b69ef8a81461068e578063b88a802f14610696578063be6153351461069e578063c012c42e146106da57610226565b80638583f6a5146105e957806385cc179e146106255780639c3962cb14610645578063a694fc3a1461067157610226565b80634bf69206116101bd57806360d470881161018c5780636d3c6d92116101715780636d3c6d92146104e357806372aa0a601461051f57806376d743fe146105bd57610226565b806360d470881461049057806364467bbe146104c357610226565b80634bf69206146103e257806351ed6a301461041557806354fd4d5014610446578063597293f31461044e57610226565b80633468a5b8116101f95780633468a5b814610317578063358394d81461035e578063362a3fad146103a757806343768649146103da57610226565b806317837baa1461022b5780631959a0021461024557806329d79588146102915780632e1a7d4d146102f8575b600080fd5b610233610801565b60408051918252519081900360200190f35b6102786004803603602081101561025b57600080fd5b503573ffffffffffffffffffffffffffffffffffffffff16610807565b6040805192835260208301919091528051918290030190f35b6102cd600480360360408110156102a757600080fd5b50803560ff16906020013573ffffffffffffffffffffffffffffffffffffffff16610820565b6040805195865260208601949094528484019290925260608401526080830152519081900360a00190f35b6103156004803603602081101561030e57600080fd5b5035610880565b005b61034a6004803603602081101561032d57600080fd5b503573ffffffffffffffffffffffffffffffffffffffff16610961565b604080519115158252519081900360200190f35b6103156004803603608081101561037457600080fd5b5073ffffffffffffffffffffffffffffffffffffffff8135811691602081013591604082013581169160600135166109e9565b610315600480360360208110156103bd57600080fd5b503573ffffffffffffffffffffffffffffffffffffffff16610b38565b610233610b63565b610315600480360360208110156103f857600080fd5b503573ffffffffffffffffffffffffffffffffffffffff16610b69565b61041d610cf8565b6040805173ffffffffffffffffffffffffffffffffffffffff9092168252519081900360200190f35b610233610d14565b6102336004803603606081101561046457600080fd5b5060ff8135169073ffffffffffffffffffffffffffffffffffffffff6020820135169060400135610d1a565b610233600480360360208110156104a657600080fd5b503573ffffffffffffffffffffffffffffffffffffffff16610e11565b610315600480360360208110156104d957600080fd5b503560ff16610e43565b610315600480360360408110156104f957600080fd5b50803560ff16906020013573ffffffffffffffffffffffffffffffffffffffff16610fc3565b61053c6004803603602081101561053557600080fd5b50356114a8565b6040805173ffffffffffffffffffffffffffffffffffffffff9e8f1681529c8e1660208e01529a909c168b8b015260608b019890985260808a019690965260a089019490945260c088019290925260e08701526101008601526101208501526101408401526101608301526101808201929092529051908190036101a00190f35b610315600480360360608110156105d357600080fd5b5060ff813516906020810135906040013561153b565b610315600480360360408110156105ff57600080fd5b50803560ff16906020013573ffffffffffffffffffffffffffffffffffffffff16611721565b6103156004803603602081101561063b57600080fd5b503560ff166119d9565b6102336004803603606081101561065b57600080fd5b5060ff8135169060208101359060400135611b1b565b6103156004803603602081101561068757600080fd5b5035611bac565b610233611c50565b610315611c56565b610233600480360360408110156106b457600080fd5b50803560ff16906020013573ffffffffffffffffffffffffffffffffffffffff16611c61565b610233600480360360808110156106f057600080fd5b5060ff8135169060208101359060408101359060600135611e37565b610315600480360361012081101561072357600080fd5b5073ffffffffffffffffffffffffffffffffffffffff813581169160208101358216916040820135169060608101359060808101359060a08101359060c08101359060e0810135906101000135611f45565b61041d6125f7565b6102336004803603602081101561079357600080fd5b503560ff16612613565b610315612623565b610315600480360360408110156107bb57600080fd5b50803560ff16906020013573ffffffffffffffffffffffffffffffffffffffff1661282c565b610315612ae4565b61041d612afd565b610315612b19565b61041d612b42565b60085481565b6001602052600090815260409020805460069091015482565b73ffffffffffffffffffffffffffffffffffffffff166000908152600160208181526040808420805460ff909616855292830182528084205460038401835281852054600485018452828620546005909501909352932054939492939092565b6009546001146108f157604080517f08c379a000000000000000000000000000000000000000000000000000000000815260206004820152601160248201527f5374616b65506f6f6c3a204c4f434b4544000000000000000000000000000000604482015290519081900360640190fd5b60006009556108ff81612b5e565b6003546109239073ffffffffffffffffffffffffffffffffffffffff163383612ce2565b60408051828152905133917f884edad9ce6fa2440d8a54cc123490eb96d2768479d49ff9c7366125a9424364919081900360200190a2506001600955565b6000805b60025460ff821610156109de57600060028260ff168154811061098457fe5b60009182526020909120600d90910201805490915073ffffffffffffffffffffffffffffffffffffffff858116911614156109d55780600501546203f480014210156109d5576000925050506109e4565b50600101610965565b50600190505b919050565b600a5460ff1615610a45576040517f08c379a00000000000000000000000000000000000000000000000000000000081526004018080602001828103825260248152602001806134a06024913960400191505060405180910390fd5b62278d006008541115610aa3576040517f08c379a00000000000000000000000000000000000000000000000000000000081526004018080602001828103825260288152602001806134c46028913960400191505060405180910390fd5b6003805473ffffffffffffffffffffffffffffffffffffffff9586167fffffffffffffffffffffffff000000000000000000000000000000000000000091821617909155600893909355600480549285169284169290921790915560058054919093169116179055600a80547fffffffffffffffffffffffffffffffffffffffffffffffffffffffffffffff00166001179055565b60025460005b8160ff168160ff161015610b5e57610b568184610fc3565b600101610b3e565b505050565b60025490565b600954600114610bda57604080517f08c379a000000000000000000000000000000000000000000000000000000000815260206004820152601160248201527f5374616b65506f6f6c3a204c4f434b4544000000000000000000000000000000604482015290519081900360640190fd5b6000600955600654604080517f393a7484000000000000000000000000000000000000000000000000000000008152336004820152905173ffffffffffffffffffffffffffffffffffffffff9092169163393a748491602480820192602092909190829003018186803b158015610c5057600080fd5b505afa158015610c64573d6000803e3d6000fd5b505050506040513d6020811015610c7a57600080fd5b5051610ce757604080517f08c379a000000000000000000000000000000000000000000000000000000000815260206004820152601960248201527f5374616b65506f6f6c3a20496e76616c69642073656e64657200000000000000604482015290519081900360640190fd5b610cf081612eb7565b506001600955565b60035473ffffffffffffffffffffffffffffffffffffffff1681565b60005481565b60008060028560ff1681548110610d2d57fe5b60009182526020909120600d90910201600181015490915073ffffffffffffffffffffffffffffffffffffffff1680610d6a578392505050610e0a565b8073ffffffffffffffffffffffffffffffffffffffff16632e81056686866040518363ffffffff1660e01b8152600401808373ffffffffffffffffffffffffffffffffffffffff1681526020018281526020019250505060206040518083038186803b158015610dd957600080fd5b505afa158015610ded573d6000803e3d6000fd5b505050506040513d6020811015610e0357600080fd5b5051925050505b9392505050565b60085473ffffffffffffffffffffffffffffffffffffffff821660009081526001602052604090206006015401919050565b600954600114610eb457604080517f08c379a000000000000000000000000000000000000000000000000000000000815260206004820152601160248201527f5374616b65506f6f6c3a204c4f434b4544000000000000000000000000000000604482015290519081900360640190fd5b600060095560055473ffffffffffffffffffffffffffffffffffffffff163314610f3f57604080517f08c379a000000000000000000000000000000000000000000000000000000000815260206004820152601460248201527f5374616b65506f6f6c3a202174696d656c6f636b000000000000000000000000604482015290519081900360640190fd5b600060028260ff1681548110610f5157fe5b90600052602060002090600d02019050610f6a826119d9565b4260058201819055600060068301819055604080519283526020830191909152805160ff8516927fd50c9d621671c3fc38b7813912936d3cee3f956bdbf5f6c61b5091f2ff2b0fd592908290030190a250506001600955565b610fcc826119d9565b73ffffffffffffffffffffffffffffffffffffffff811660009081526001602052604081206002805491929160ff861690811061100557fe5b600091825260208083206007600d909302019182015460ff88168452600186019091526040832054855492945090929161105e919061105890670de0b6b3a76400009061105290876130cf565b90613142565b906131c3565b600884015490915080156111f05783600a01544211156110f35760ff87166000908152600586016020908152604080832054600489019092528220546110a3916131c3565b905080156110ed576110b5838261323a565b60ff891660009081526005880160205260409020549093506110d7908261323a565b60ff891660009081526005880160205260409020555b506111f0565b811561114f57600061110a606461105285856130cf565b905061111683826131c3565b60ff89166000908152600488016020526040902054909350611138908261323a565b60ff89166000908152600488016020526040902055505b6009840154428110156111ee57600b8501546000906111909061105261117542866131c3565b60ff8d16600090815260048c016020526040902054906130cf565b60ff8a166000908152600589016020526040902054909150808211156111eb5760006111bc83836131c3565b90506111c8828261323a565b60ff8c16600090815260058b0160205260409020556111e7868261323a565b9550505b50505b505b811561149f5760ff87166000908152600386016020526040902054611215908361323a565b60ff88166000908152600387016020526040902055600c840154611239908361323a565b600c850155845461125890670de0b6b3a76400009061105290866130cf565b60ff8816600090815260018701602090815260408083209390935560028801905290812054611287908461323a565b60ff89166000908152600288016020908152604080832084905588546004805483517f70a0823100000000000000000000000000000000000000000000000000000000815273ffffffffffffffffffffffffffffffffffffffff91821692810192909252925195965091169384926370a082319260248082019391829003018186803b15801561131657600080fd5b505afa15801561132a573d6000803e3d6000fd5b505050506040513d602081101561134057600080fd5b50519050801561149b5760ff8a166000908152600289016020526040812081905561136c8b8486610d1a565b9050600082821161137d578161137f565b825b60048054604080517fd1660f9900000000000000000000000000000000000000000000000000000000815273ffffffffffffffffffffffffffffffffffffffff898116948201949094528f8416602482015260448101859052905193945091169163d1660f999160648082019260009290919082900301818387803b15801561140757600080fd5b505af115801561141b573d6000803e3d6000fd5b505050508a73ffffffffffffffffffffffffffffffffffffffff168473ffffffffffffffffffffffffffffffffffffffff168d60ff167f16dc511f817964d1eb39e0c3e84ce317f07b5b12cdfa1f8c2f179a08836af51a88868660405180848152602001838152602001828152602001935050505060405180910390a450505b5050505b50505050505050565b600281815481106114b857600080fd5b60009182526020909120600d9091020180546001820154600283015460038401546004850154600586015460068701546007880154600889015460098a0154600a8b0154600b8c0154600c909c015473ffffffffffffffffffffffffffffffffffffffff9b8c169d50998b169b9a9098169996989597949693959294919390928d565b6009546001146115ac57604080517f08c379a000000000000000000000000000000000000000000000000000000000815260206004820152601160248201527f5374616b65506f6f6c3a204c4f434b4544000000000000000000000000000000604482015290519081900360640190fd5b600060095560055473ffffffffffffffffffffffffffffffffffffffff16331461163757604080517f08c379a000000000000000000000000000000000000000000000000000000000815260206004820152601460248201527f5374616b65506f6f6c3a202174696d656c6f636b000000000000000000000000604482015290519081900360640190fd5b600060028460ff168154811061164957fe5b90600052602060002090600d020190508060050154421115801561166d5750824211155b6116c2576040517f08c379a000000000000000000000000000000000000000000000000000000000815260040180806020018281038252602481526020018061353d6024913960400191505060405180910390fd5b6116cb846119d9565b60058101839055600681018290556040805184815260208101849052815160ff8716927fd50c9d621671c3fc38b7813912936d3cee3f956bdbf5f6c61b5091f2ff2b0fd5928290030190a2505060016009555050565b60095460011461179257604080517f08c379a000000000000000000000000000000000000000000000000000000000815260206004820152601160248201527f5374616b65506f6f6c3a204c4f434b4544000000000000000000000000000000604482015290519081900360640190fd5b600060095560055473ffffffffffffffffffffffffffffffffffffffff16331461181d57604080517f08c379a000000000000000000000000000000000000000000000000000000000815260206004820152601460248201527f5374616b65506f6f6c3a202174696d656c6f636b000000000000000000000000604482015290519081900360640190fd5b600654604080517fbd5b622a00000000000000000000000000000000000000000000000000000000815273ffffffffffffffffffffffffffffffffffffffff84811660048301529151919092169163bd5b622a916024808301926020929190829003018186803b15801561189057600080fd5b505afa1580156118a4573d6000803e3d6000fd5b505050506040513d60208110156118ba57600080fd5b5051611911576040517f08c379a00000000000000000000000000000000000000000000000000000000081526004018080602001828103825260218152602001806135a86021913960400191505060405180910390fd5b600060028360ff168154811061192357fe5b60009182526020909120600d909102016001810180547fffffffffffffffffffffffff00000000000000000000000000000000000000001673ffffffffffffffffffffffffffffffffffffffff85161790559050611980836119d9565b6040805173ffffffffffffffffffffffffffffffffffffffff84168152905160ff8516917fe6b2c8a01867d369cd4952ca70fea492ef433a6ff31b8c8d15c4781f136e60ed919081900360200190a25050600160095550565b600060028260ff16815481106119eb57fe5b90600052602060002090600d020190506000816005015490506000814211611a135742611a15565b815b600484015490915080821115611b1457600354604080517f70a08231000000000000000000000000000000000000000000000000000000008152306004820152905160009273ffffffffffffffffffffffffffffffffffffffff16916370a08231916024808301926020929190829003018186803b158015611a9657600080fd5b505afa158015611aaa573d6000803e3d6000fd5b505050506040513d6020811015611ac057600080fd5b505190508015611b0b576000611af282611052670de0b6b3a7640000611aec8b888a8d60060154611e37565b906130cf565b6007870154909150611b04908261323a565b6007870155505b50600484018290555b5050505050565b60008060028560ff1681548110611b2e57fe5b90600052602060002090600d020190506000816006015490508160030154851080611b5c5750816005015485115b15611b6c57600092505050610e0a565b6000611b7a87878785611e37565b8354909150611ba190889073ffffffffffffffffffffffffffffffffffffffff1683610d1a565b979650505050505050565b600954600114611c1d57604080517f08c379a000000000000000000000000000000000000000000000000000000000815260206004820152601160248201527f5374616b65506f6f6c3a204c4f434b4544000000000000000000000000000000604482015290519081900360640190fd5b6000600955600354611c479073ffffffffffffffffffffffffffffffffffffffff163330846132ae565b610cf033612eb7565b60075481565b611c5f33610b38565b565b73ffffffffffffffffffffffffffffffffffffffff811660009081526001602052604081206002805483919060ff8716908110611c9a57fe5b600091825260208083206007600d9093020191820154600354604080517f70a08231000000000000000000000000000000000000000000000000000000008152306004820152905194965091949373ffffffffffffffffffffffffffffffffffffffff909116926370a082319260248082019391829003018186803b158015611d2257600080fd5b505afa158015611d36573d6000803e3d6000fd5b505050506040513d6020811015611d4c57600080fd5b505160058401549091506000428210611d655742611d67565b815b60048601549091508082118015611d7d57508315155b15611db4576000611da485611052670de0b6b3a7640000611aec8f87898e60060154611e37565b9050611db0868261323a565b9550505b60ff8a16600090815260018801602090815260408083205460028b019092528220548954611dff929161105891611df990670de0b6b3a764000090611052908d6130cf565b9061323a565b8754909150611e26908c9073ffffffffffffffffffffffffffffffffffffffff1683610d1a565b985050505050505050505b92915050565b60008060028660ff1681548110611e4a57fe5b60009182526020909120600d90910201600281015490915073ffffffffffffffffffffffffffffffffffffffff1680611e9457611e8b84611aec87896131c3565b92505050611f3d565b8073ffffffffffffffffffffffffffffffffffffffff16629fc047836003015484600501548989896040518663ffffffff1660e01b8152600401808681526020018581526020018481526020018381526020018281526020019550505050505060206040518083038186803b158015611f0c57600080fd5b505afa158015611f20573d6000803e3d6000fd5b505050506040513d6020811015611f3657600080fd5b5051925050505b949350505050565b600954600114611fb657604080517f08c379a000000000000000000000000000000000000000000000000000000000815260206004820152601160248201527f5374616b65506f6f6c3a204c4f434b4544000000000000000000000000000000604482015290519081900360640190fd5b600060095560055473ffffffffffffffffffffffffffffffffffffffff16331461204157604080517f08c379a000000000000000000000000000000000000000000000000000000000815260206004820152601460248201527f5374616b65506f6f6c3a202174696d656c6f636b000000000000000000000000604482015290519081900360640190fd5b6002546010101561209d576040517f08c379a000000000000000000000000000000000000000000000000000000000815260040180806020018281038252602281526020018061347e6022913960400191505060405180910390fd5b600654604080517fbd5b622a00000000000000000000000000000000000000000000000000000000815273ffffffffffffffffffffffffffffffffffffffff8b811660048301529151919092169163bd5b622a916024808301926020929190829003018186803b15801561211057600080fd5b505afa158015612124573d6000803e3d6000fd5b505050506040513d602081101561213a57600080fd5b5051612191576040517f08c379a00000000000000000000000000000000000000000000000000000000081526004018080602001828103825260218152602001806135a86021913960400191505060405180910390fd5b600654604080517fa5120bd500000000000000000000000000000000000000000000000000000000815273ffffffffffffffffffffffffffffffffffffffff8a811660048301529151919092169163a5120bd5916024808301926020929190829003018186803b15801561220457600080fd5b505afa158015612218573d6000803e3d6000fd5b505050506040513d602081101561222e57600080fd5b5051612285576040517f08c379a00000000000000000000000000000000000000000000000000000000081526004018080602001828103825260248152602001806135c96024913960400191505060405180910390fd5b808211156122de576040517f08c379a000000000000000000000000000000000000000000000000000000000815260040180806020018281038252602c8152602001806134ec602c913960400191505060405180910390fd5b8542116122eb57856122ed565b425b9550848610612347576040517f08c379a00000000000000000000000000000000000000000000000000000000081526004018080602001828103825260258152602001806135186025913960400191505060405180910390fd5b60648311156123a1576040517f08c379a00000000000000000000000000000000000000000000000000000000081526004018080602001828103825260248152602001806135ed6024913960400191505060405180910390fd5b6123a9612b19565b6002604051806101a001604052808b73ffffffffffffffffffffffffffffffffffffffff1681526020018a73ffffffffffffffffffffffffffffffffffffffff1681526020018973ffffffffffffffffffffffffffffffffffffffff168152602001888152602001888152602001878152602001868152602001600081526020018581526020018481526020018381526020018484038152602001600081525090806001815401808255809150506001900390600052602060002090600d020160009091909190915060008201518160000160006101000a81548173ffffffffffffffffffffffffffffffffffffffff021916908373ffffffffffffffffffffffffffffffffffffffff16021790555060208201518160010160006101000a81548173ffffffffffffffffffffffffffffffffffffffff021916908373ffffffffffffffffffffffffffffffffffffffff16021790555060408201518160020160006101000a81548173ffffffffffffffffffffffffffffffffffffffff021916908373ffffffffffffffffffffffffffffffffffffffff160217905550606082015181600301556080820151816004015560a0820151816005015560c0820151816006015560e082015181600701556101008201518160080155610120820151816009015561014082015181600a015561016082015181600b015561018082015181600c015550506001600280549050037fa2c202ffa25e71dc0d2875a9b67a9e2572541a0a246c21d72355cca968fd4be160405160405180910390a25050600160095550505050505050565b60055473ffffffffffffffffffffffffffffffffffffffff1681565b6000611e31824242600101611b1b565b60095460011461269457604080517f08c379a000000000000000000000000000000000000000000000000000000000815260206004820152601160248201527f5374616b65506f6f6c3a204c4f434b4544000000000000000000000000000000604482015290519081900360640190fd5b600060095560085415806127415750600654604080517fea74109e000000000000000000000000000000000000000000000000000000008152306004820152905173ffffffffffffffffffffffffffffffffffffffff9092169163ea74109e91602480820192602092909190829003018186803b15801561271457600080fd5b505afa158015612728573d6000803e3d6000fd5b505050506040513d602081101561273e57600080fd5b50515b612796576040517f08c379a00000000000000000000000000000000000000000000000000000000081526004018080602001828103825260268152602001806135826026913960400191505060405180910390fd5b33600090815260016020526040902080546007546127b490826131c3565b600755600082556003546127df9073ffffffffffffffffffffffffffffffffffffffff163383612ce2565b60025460005b8160ff168160ff1610156128215760ff8116600090815260018086016020908152604080842084905560028801909152822091909155016127e5565b505060016009555050565b60095460011461289d57604080517f08c379a000000000000000000000000000000000000000000000000000000000815260206004820152601160248201527f5374616b65506f6f6c3a204c4f434b4544000000000000000000000000000000604482015290519081900360640190fd5b600060095560055473ffffffffffffffffffffffffffffffffffffffff16331461292857604080517f08c379a000000000000000000000000000000000000000000000000000000000815260206004820152601460248201527f5374616b65506f6f6c3a202174696d656c6f636b000000000000000000000000604482015290519081900360640190fd5b600654604080517fa5120bd500000000000000000000000000000000000000000000000000000000815273ffffffffffffffffffffffffffffffffffffffff84811660048301529151919092169163a5120bd5916024808301926020929190829003018186803b15801561299b57600080fd5b505afa1580156129af573d6000803e3d6000fd5b505050506040513d60208110156129c557600080fd5b5051612a1c576040517f08c379a00000000000000000000000000000000000000000000000000000000081526004018080602001828103825260248152602001806135c96024913960400191505060405180910390fd5b600060028360ff1681548110612a2e57fe5b60009182526020909120600d909102016002810180547fffffffffffffffffffffffff00000000000000000000000000000000000000001673ffffffffffffffffffffffffffffffffffffffff85161790559050612a8b836119d9565b6040805173ffffffffffffffffffffffffffffffffffffffff84168152905160ff8516917fa5e6b0a10fde1bb3c6184cb03bd87ce234e172121088195454746cf4a2e8094d919081900360200190a25050600160095550565b33600090815260016020526040902054611c5f90610880565b60045473ffffffffffffffffffffffffffffffffffffffff1681565b60025460005b8160ff168160ff161015612b3e57612b36816119d9565b600101612b1f565b5050565b60065473ffffffffffffffffffffffffffffffffffffffff1681565b3360009081526001602052604090208054821115612bc7576040517f08c379a00000000000000000000000000000000000000000000000000000000081526004018080602001828103825260228152602001806136116022913960400191505060405180910390fd5b6008546006820154612bd89161323a565b421015612c4657604080517f08c379a000000000000000000000000000000000000000000000000000000000815260206004820152601160248201527f5374616b65506f6f6c3a2066726f7a656e000000000000000000000000000000604482015290519081900360640190fd5b612c4f33610b38565b600754612c5c90836131c3565b6007558054612c6b90836131c3565b815560025460005b8160ff168160ff161015612cdc57612cbc670de0b6b3a764000061105260028460ff1681548110612ca057fe5b600091825260209091206007600d9092020101548654906130cf565b60ff82166000908152600180860160205260409091209190915501612c73565b50505050565b6040805173ffffffffffffffffffffffffffffffffffffffff8481166024830152604480830185905283518084039091018152606490920183526020820180517bffffffffffffffffffffffffffffffffffffffffffffffffffffffff167fa9059cbb000000000000000000000000000000000000000000000000000000001781529251825160009485949389169392918291908083835b60208310612db757805182527fffffffffffffffffffffffffffffffffffffffffffffffffffffffffffffffe09092019160209182019101612d7a565b6001836020036101000a0380198251168184511680821785525050505050509050019150506000604051808303816000865af19150503d8060008114612e19576040519150601f19603f3d011682016040523d82523d6000602084013e612e1e565b606091505b5091509150818015612e4c575080511580612e4c5750808060200190516020811015612e4957600080fd5b50515b611b1457604080517f08c379a000000000000000000000000000000000000000000000000000000000815260206004820152601f60248201527f5472616e7366657248656c7065723a205452414e534645525f4641494c454400604482015290519081900360640190fd5b600754600354604080517f70a082310000000000000000000000000000000000000000000000000000000081523060048201529051600093612f6693909273ffffffffffffffffffffffffffffffffffffffff909116916370a0823191602480820192602092909190829003018186803b158015612f3457600080fd5b505afa158015612f48573d6000803e3d6000fd5b505050506040513d6020811015612f5e57600080fd5b5051906131c3565b905060008111612fd757604080517f08c379a000000000000000000000000000000000000000000000000000000000815260206004820152601a60248201527f5374616b65506f6f6c3a20496e76616c69642062616c616e6365000000000000604482015290519081900360640190fd5b600754612fe4908261323a565b60075573ffffffffffffffffffffffffffffffffffffffff8216600090815260016020526040902061301583610b38565b8054613021908361323a565b815560025460005b8160ff168160ff16101561307657613056670de0b6b3a764000061105260028460ff1681548110612ca057fe5b60ff82166000908152600180860160205260409091209190915501613029565b5042600683015560408051848152905173ffffffffffffffffffffffffffffffffffffffff8616917fe1fffcc4923d04b559f4d29a8bfc6cda04eb5b0d3c460751c2402c5c5cc9109c919081900360200190a250505050565b6000826130de57506000611e31565b828202828482816130eb57fe5b0414610e0a576040517f08c379a00000000000000000000000000000000000000000000000000000000081526004018080602001828103825260218152602001806135616021913960400191505060405180910390fd5b60008082116131b257604080517f08c379a000000000000000000000000000000000000000000000000000000000815260206004820152601a60248201527f536166654d6174683a206469766973696f6e206279207a65726f000000000000604482015290519081900360640190fd5b8183816131bb57fe5b049392505050565b60008282111561323457604080517f08c379a000000000000000000000000000000000000000000000000000000000815260206004820152601e60248201527f536166654d6174683a207375627472616374696f6e206f766572666c6f770000604482015290519081900360640190fd5b50900390565b600082820183811015610e0a57604080517f08c379a000000000000000000000000000000000000000000000000000000000815260206004820152601b60248201527f536166654d6174683a206164646974696f6e206f766572666c6f770000000000604482015290519081900360640190fd5b6040805173ffffffffffffffffffffffffffffffffffffffff85811660248301528481166044830152606480830185905283518084039091018152608490920183526020820180517bffffffffffffffffffffffffffffffffffffffffffffffffffffffff167f23b872dd00000000000000000000000000000000000000000000000000000000178152925182516000948594938a169392918291908083835b6020831061338b57805182527fffffffffffffffffffffffffffffffffffffffffffffffffffffffffffffffe0909201916020918201910161334e565b6001836020036101000a0380198251168184511680821785525050505050509050019150506000604051808303816000865af19150503d80600081146133ed576040519150601f19603f3d011682016040523d82523d6000602084013e6133f2565b606091505b5091509150818015613420575080511580613420575080806020019051602081101561341d57600080fd5b50515b613475576040517f08c379a00000000000000000000000000000000000000000000000000000000081526004018080602001828103825260248152602001806136336024913960400191505060405180910390fd5b50505050505056fe5374616b65506f6f6c3a2052657761726420706f6f6c206c656e677468203e2031365374616b65506f6f6c3a20496e697469616c697a65206d7573742062652066616c73652e5374616b65506f6f6c3a20756e7374616b696e6746726f7a656e54696d65203e20333020646179735374616b65506f6f6c3a20737461727456657374696e6754696d65203e20656e6456657374696e6754696d655374616b65506f6f6c3a20737461727454696d65203e3d20656e6452657761726454696d655374616b65506f6f6c3a20626c6f636b54696d65203e20656e6452657761726454696d65536166654d6174683a206d756c7469706c69636174696f6e206f766572666c6f775374616b65506f6f6c3a204e6f7420616c6c6f7720656d657267656e637957697468647261775374616b65506f6f6c3a20496e76616c69642072657761726420726562617365725374616b65506f6f6c3a20496e76616c696420726577617264206d756c7469706c6965725374616b65506f6f6c3a20696e76616c6964206c6f636b52657761726450657263656e745374616b65506f6f6c3a20696e76616c696420776974686472617720616d6f756e745472616e7366657248656c7065723a205452414e534645525f46524f4d5f4641494c4544a264697066735822122004b10c4e3b4743fbbc6f7a3b0fb52745bdc2fa700dfebf238857972dcd4dae2564736f6c63430007060033a2646970667358221220aedaba16340610e3e7e12e20dbfe05ff6e65d19984db14a912cde2f0a75a807e64736f6c63430007060033",
  "devdoc": {
    "kind": "dev",
    "methods": {},
    "version": 1
  },
  "userdoc": {
    "kind": "user",
    "methods": {},
    "version": 1
  },
  "storageLayout": {
    "storage": [
      {
        "astId": 11263,
        "contract": "contracts/StakePoolCreator.sol:StakePoolCreator",
        "label": "version",
        "offset": 0,
        "slot": "0",
        "type": "t_uint256"
      }
    ],
    "types": {
      "t_uint256": {
        "encoding": "inplace",
        "label": "uint256",
        "numberOfBytes": "32"
      }
    }
  }
}