{
  "address": "0x7973b6961C8C5ca8026B9FB82332626e715ff8c7",
  "abi": [
    {
      "inputs": [],
      "stateMutability": "nonpayable",
      "type": "constructor"
    },
    {
      "inputs": [
        {
          "internalType": "uint256",
          "name": "reserve0",
          "type": "uint256"
        },
        {
          "internalType": "uint256",
          "name": "reserve1",
          "type": "uint256"
        },
        {
          "internalType": "uint256",
          "name": "balance0Adjusted",
          "type": "uint256"
        },
        {
          "internalType": "uint256",
          "name": "balance1Adjusted",
          "type": "uint256"
        },
        {
          "internalType": "uint32",
          "name": "tokenWeight0",
          "type": "uint32"
        }
      ],
      "name": "ensureConstantValue",
      "outputs": [
        {
          "internalType": "bool",
          "name": "",
          "type": "bool"
        }
      ],
      "stateMutability": "view",
      "type": "function"
    },
    {
      "inputs": [
        {
          "internalType": "uint256",
          "name": "amountOut",
          "type": "uint256"
        },
        {
          "internalType": "uint256",
          "name": "reserveIn",
          "type": "uint256"
        },
        {
          "internalType": "uint256",
          "name": "reserveOut",
          "type": "uint256"
        },
        {
          "internalType": "uint32",
          "name": "tokenWeightIn",
          "type": "uint32"
        },
        {
          "internalType": "uint32",
          "name": "tokenWeightOut",
          "type": "uint32"
        },
        {
          "internalType": "uint32",
          "name": "swapFee",
          "type": "uint32"
        }
      ],
      "name": "getAmountIn",
      "outputs": [
        {
          "internalType": "uint256",
          "name": "amountIn",
          "type": "uint256"
        }
      ],
      "stateMutability": "view",
      "type": "function"
    },
    {
      "inputs": [
        {
          "internalType": "uint256",
          "name": "amountIn",
          "type": "uint256"
        },
        {
          "internalType": "uint256",
          "name": "reserveIn",
          "type": "uint256"
        },
        {
          "internalType": "uint256",
          "name": "reserveOut",
          "type": "uint256"
        },
        {
          "internalType": "uint32",
          "name": "tokenWeightIn",
          "type": "uint32"
        },
        {
          "internalType": "uint32",
          "name": "tokenWeightOut",
          "type": "uint32"
        },
        {
          "internalType": "uint32",
          "name": "swapFee",
          "type": "uint32"
        }
      ],
      "name": "getAmountOut",
      "outputs": [
        {
          "internalType": "uint256",
          "name": "amountOut",
          "type": "uint256"
        }
      ],
      "stateMutability": "view",
      "type": "function"
    },
    {
      "inputs": [
        {
          "internalType": "address",
          "name": "tokenIn",
          "type": "address"
        },
        {
          "internalType": "address",
          "name": "tokenOut",
          "type": "address"
        },
        {
          "internalType": "uint256",
          "name": "amountOut",
          "type": "uint256"
        },
        {
          "internalType": "address[]",
          "name": "path",
          "type": "address[]"
        }
      ],
      "name": "getAmountsIn",
      "outputs": [
        {
          "internalType": "uint256[]",
          "name": "amounts",
          "type": "uint256[]"
        }
      ],
      "stateMutability": "view",
      "type": "function"
    },
    {
      "inputs": [
        {
          "internalType": "address",
          "name": "tokenIn",
          "type": "address"
        },
        {
          "internalType": "address",
          "name": "tokenOut",
          "type": "address"
        },
        {
          "internalType": "uint256",
          "name": "amountIn",
          "type": "uint256"
        },
        {
          "internalType": "address[]",
          "name": "path",
          "type": "address[]"
        }
      ],
      "name": "getAmountsOut",
      "outputs": [
        {
          "internalType": "uint256[]",
          "name": "amounts",
          "type": "uint256[]"
        }
      ],
      "stateMutability": "view",
      "type": "function"
    },
    {
      "inputs": [
        {
          "internalType": "address",
          "name": "factory",
          "type": "address"
        },
        {
          "internalType": "address",
          "name": "tokenIn",
          "type": "address"
        },
        {
          "internalType": "address",
          "name": "tokenOut",
          "type": "address"
        },
        {
          "internalType": "uint256",
          "name": "amountOut",
          "type": "uint256"
        },
        {
          "internalType": "address[]",
          "name": "path",
          "type": "address[]"
        }
      ],
      "name": "getFactoryAmountsIn",
      "outputs": [
        {
          "internalType": "uint256[]",
          "name": "amounts",
          "type": "uint256[]"
        }
      ],
      "stateMutability": "view",
      "type": "function"
    },
    {
      "inputs": [
        {
          "internalType": "address",
          "name": "factory",
          "type": "address"
        },
        {
          "internalType": "address",
          "name": "tokenIn",
          "type": "address"
        },
        {
          "internalType": "address",
          "name": "tokenOut",
          "type": "address"
        },
        {
          "internalType": "uint256",
          "name": "amountIn",
          "type": "uint256"
        },
        {
          "internalType": "address[]",
          "name": "path",
          "type": "address[]"
        }
      ],
      "name": "getFactoryAmountsOut",
      "outputs": [
        {
          "internalType": "uint256[]",
          "name": "amounts",
          "type": "uint256[]"
        }
      ],
      "stateMutability": "view",
      "type": "function"
    },
    {
      "inputs": [
        {
          "internalType": "address",
          "name": "factory",
          "type": "address"
        },
        {
          "internalType": "address",
          "name": "pair",
          "type": "address"
        },
        {
          "internalType": "address",
          "name": "tokenA",
          "type": "address"
        }
      ],
      "name": "getFactoryReserveAndWeights",
      "outputs": [
        {
          "internalType": "address",
          "name": "tokenB",
          "type": "address"
        },
        {
          "internalType": "uint256",
          "name": "reserveA",
          "type": "uint256"
        },
        {
          "internalType": "uint256",
          "name": "reserveB",
          "type": "uint256"
        },
        {
          "internalType": "uint32",
          "name": "tokenWeightA",
          "type": "uint32"
        },
        {
          "internalType": "uint32",
          "name": "tokenWeightB",
          "type": "uint32"
        },
        {
          "internalType": "uint32",
          "name": "swapFee",
          "type": "uint32"
        }
      ],
      "stateMutability": "view",
      "type": "function"
    },
    {
      "inputs": [
        {
          "internalType": "address",
          "name": "factory",
          "type": "address"
        },
        {
          "internalType": "address",
          "name": "pair",
          "type": "address"
        }
      ],
      "name": "getFactoryWeightsAndSwapFee",
      "outputs": [
        {
          "internalType": "uint32",
          "name": "tokenWeight0",
          "type": "uint32"
        },
        {
          "internalType": "uint32",
          "name": "tokenWeight1",
          "type": "uint32"
        },
        {
          "internalType": "uint32",
          "name": "swapFee",
          "type": "uint32"
        }
      ],
      "stateMutability": "view",
      "type": "function"
    },
    {
      "inputs": [
        {
          "internalType": "address",
          "name": "pair",
          "type": "address"
        },
        {
          "internalType": "address",
          "name": "tokenA",
          "type": "address"
        }
      ],
      "name": "getOtherToken",
      "outputs": [
        {
          "internalType": "address",
          "name": "tokenB",
          "type": "address"
        }
      ],
      "stateMutability": "view",
      "type": "function"
    },
    {
      "inputs": [
        {
          "internalType": "address",
          "name": "pair",
          "type": "address"
        },
        {
          "internalType": "address",
          "name": "tokenIn",
          "type": "address"
        },
        {
          "internalType": "uint256",
          "name": "amountOut",
          "type": "uint256"
        }
      ],
      "name": "getPairAmountIn",
      "outputs": [
        {
          "internalType": "uint256",
          "name": "amountIn",
          "type": "uint256"
        }
      ],
      "stateMutability": "view",
      "type": "function"
    },
    {
      "inputs": [
        {
          "internalType": "address",
          "name": "pair",
          "type": "address"
        },
        {
          "internalType": "address",
          "name": "tokenIn",
          "type": "address"
        },
        {
          "internalType": "uint256",
          "name": "amountIn",
          "type": "uint256"
        }
      ],
      "name": "getPairAmountOut",
      "outputs": [
        {
          "internalType": "uint256",
          "name": "amountOut",
          "type": "uint256"
        }
      ],
      "stateMutability": "view",
      "type": "function"
    },
    {
      "inputs": [
        {
          "internalType": "address",
          "name": "pair",
          "type": "address"
        },
        {
          "internalType": "address",
          "name": "tokenA",
          "type": "address"
        }
      ],
      "name": "getReserveAndWeights",
      "outputs": [
        {
          "internalType": "address",
          "name": "tokenB",
          "type": "address"
        },
        {
          "internalType": "uint256",
          "name": "reserveA",
          "type": "uint256"
        },
        {
          "internalType": "uint256",
          "name": "reserveB",
          "type": "uint256"
        },
        {
          "internalType": "uint32",
          "name": "tokenWeightA",
          "type": "uint32"
        },
        {
          "internalType": "uint32",
          "name": "tokenWeightB",
          "type": "uint32"
        },
        {
          "internalType": "uint32",
          "name": "swapFee",
          "type": "uint32"
        }
      ],
      "stateMutability": "view",
      "type": "function"
    },
    {
      "inputs": [
        {
          "internalType": "address",
          "name": "pair",
          "type": "address"
        },
        {
          "internalType": "address",
          "name": "tokenA",
          "type": "address"
        },
        {
          "internalType": "address",
          "name": "tokenB",
          "type": "address"
        }
      ],
      "name": "getReserves",
      "outputs": [
        {
          "internalType": "uint256",
          "name": "reserveA",
          "type": "uint256"
        },
        {
          "internalType": "uint256",
          "name": "reserveB",
          "type": "uint256"
        }
      ],
      "stateMutability": "view",
      "type": "function"
    },
    {
      "inputs": [
        {
          "internalType": "address",
          "name": "pair",
          "type": "address"
        }
      ],
      "name": "getWeightsAndSwapFee",
      "outputs": [
        {
          "internalType": "uint32",
          "name": "tokenWeight0",
          "type": "uint32"
        },
        {
          "internalType": "uint32",
          "name": "tokenWeight1",
          "type": "uint32"
        },
        {
          "internalType": "uint32",
          "name": "swapFee",
          "type": "uint32"
        }
      ],
      "stateMutability": "view",
      "type": "function"
    },
    {
      "inputs": [
        {
          "internalType": "uint256",
          "name": "totalLiquidity",
          "type": "uint256"
        },
        {
          "internalType": "uint112",
          "name": "reserve0",
          "type": "uint112"
        },
        {
          "internalType": "uint112",
          "name": "reserve1",
          "type": "uint112"
        },
        {
          "internalType": "uint32",
          "name": "tokenWeight0",
          "type": "uint32"
        },
        {
          "internalType": "uint32",
          "name": "tokenWeight1",
          "type": "uint32"
        },
        {
          "internalType": "uint112",
          "name": "collectedFee0",
          "type": "uint112"
        },
        {
          "internalType": "uint112",
          "name": "collectedFee1",
          "type": "uint112"
        }
      ],
      "name": "mintLiquidityFee",
      "outputs": [
        {
          "internalType": "uint256",
          "name": "amount",
          "type": "uint256"
        }
      ],
      "stateMutability": "view",
      "type": "function"
    },
    {
      "inputs": [
        {
          "internalType": "uint256",
          "name": "amountA",
          "type": "uint256"
        },
        {
          "internalType": "uint256",
          "name": "reserveA",
          "type": "uint256"
        },
        {
          "internalType": "uint256",
          "name": "reserveB",
          "type": "uint256"
        }
      ],
      "name": "quote",
      "outputs": [
        {
          "internalType": "uint256",
          "name": "amountB",
          "type": "uint256"
        }
      ],
      "stateMutability": "pure",
      "type": "function"
    },
    {
      "inputs": [
        {
          "internalType": "address",
          "name": "tokenA",
          "type": "address"
        },
        {
          "internalType": "address",
          "name": "tokenB",
          "type": "address"
        }
      ],
      "name": "sortTokens",
      "outputs": [
        {
          "internalType": "address",
          "name": "token0",
          "type": "address"
        },
        {
          "internalType": "address",
          "name": "token1",
          "type": "address"
        }
      ],
      "stateMutability": "pure",
      "type": "function"
    }
  ],
  "transactionHash": "0x3a09913dc6761568a1200fdd6cc9fb48ab793282bca371ec7cca3528726cb68e",
  "args": [],
  "solcInputHash": "d4e9bb2b88bc76f692f0666ab2cb4e6c",
  "bytecode": "0x60806040523480156200001157600080fd5b506200001c62000022565b6200074d565b6001641c35fedd1560601b036020556001646c3390ecc9605e1b036021556001640cf801476160611b0360225560016431bdb23e1d605f1b0360235560016502fb1d8fe083605b1b0360245560016505b771955b37605a1b036025556001650af67a93bb5160591b0360265560016515060c256cb360581b036027556001651428a2f98d7360581b036028556001654d515663970960561b03602955600165944620b0e70f60551b03602a55600166011c592761c66760541b03602b5560016602214d10d014eb60531b03602c55600166020ade36b7dbef60531b03602d5560016603eab73b3bbfe360521b03602e556001660782ee3593f6d760511b03602f556001661ccf4b44bb4821604f1b0360305560016606e7f88ad8a77760511b0360315560016669f3d1c921891d604d1b03603255600166cb2ff529eb71e5604c1b03603355600166c2d415c3db974b604c1b0360345560016702eb40f9f620fda7604a1b0360355560016705990681d961a1eb60491b03603655600167055e12902701414760491b0360375560016714962dee9dc9764160471b0360385560016704ef57b9b560fab560491b0360395560016712ed7b32a58f552b60471b03603a556001679131271922eaa60760441b03603b556001678b380f3558668c4760441b03603c556001680215f77c045fbe885760421b03603d556001600160831b03603e556001670f577eded5773a1160471b03603f556001680eb5ec597592befbf5603f1b036040556001681c35fedd14b861eb05603e1b036041556001683619c87664579bc94b603d1b0360425560016867c00a3b07ffc01fd7603c1b03604355600168c6f6c8f8739773a7a5603b1b03604455600168bec763f8209b7a72b1603b1b0360455560016902dbb8caad9b7097b91b60391b03604655600169057b3d49dda84556d6f760381b03604755600169054183095b2c8ececf3160381b036048556001690a14517cc6b9457111ef60371b0360495560016913545598e5c23276ccf160361b03604a556001692511882c39c3adea96ff60351b03604b55600169471649d87199aa99075760341b03604c557004429a21a029d4c1457cfbffffffffffff604d55700415bc6d6fb7dd71af2cb3ffffffffffff604e557003eab73b3bbfe282243ce1ffffffffffff604f557003c1771ac9fb6b4c18e229ffffffffffff605055700399e96897690418f785257fffffffffff605155700373fc456c53bb779bf0ea9fffffffffff60525570034f9e8e490c48e67e6ab8bfffffffffff60535570032cbfd4a7adc790560b3337ffffffffff60545570030b50570f6e5d2acca94613ffffffffff6055557002eb40f9f620fda6b56c2861ffffffffff6056557002cc8340ecb0d0f520a6af58ffffffffff6057557002af09481380a0a35cf1ba02ffffffffff605855700292c5bdd3b92ec810287b1b3fffffffff605955700277abdcdab07d5a77ac6d6b9fffffffff605a5570025daf6654b1eaa55fd64df5efffffffff605b55700244c49c648baa98192dce88b7ffffffff605c5570022ce03cd5619a311b2471268bffffffff605d55700215f77c045fbe885654a44a0fffffffff605e556001600160811b03605f557001eaefdbdaaee7421fc4d3ede5ffffffff6060557001d6bd8b2eb257df7e8ca57b09bfffffff6061557001c35fedd14b861eb0443f7f133fffffff6062557001b0ce43b322bcde4a56e8ada5afffffff60635570019f0028ec1fff007f5a195a39dfffffff60645570018ded91f0e72ee74f49b15ba527ffffff60655570017d8ec7f04136f4e5615fd41a63ffffff60665570016ddc6556cdb84bdc8d12d22e6fffffff60675570015ecf52776a1155b5bd8395814f7fffff60685570015060c256cb23b3b3cc3754cf40ffffff6069557001428a2f98d728ae223ddab715be3fffff606a5570013545598e5c23276ccf0ede68034fffff606b557001288c4161ce1d6f54b7f61081194fffff606c5570011c592761c666aa641d5a01a40f17ffff606d55700110a688680a7530515f3e6e6cfdcdffff606e557001056f1b5bedf75c6bcb2ce8aed428ffff606f556ffaadceceeff8a0890f3875f008277fff6070556ff05dc6b27edad306388a600f6ba0bfff6071556fe67a5a25da41063de1495d5b18cdbfff6072556fdcff115b14eedde6fc3aa5353f2e4fff6073556fd3e7a3924312399f9aae2e0f868f8fff6074556fcb2ff529eb71e41582cccd5a1ee26fff6075556fc2d415c3db974ab32a51840c0b67edff6076556fbad03e7d883f69ad5b0a186184e06bff6077556fb320d03b2c343d4829abd6075f0cc5ff6078556fabc25204e02828d73c6e80bcdb1a95bf6079556fa4b16f74ee4bb2040a1ec6c15fbbf2df607a556f9deaf736ac1f569deb1b5ae3f36c130f607b556f976bd9952c7aa957f5937d790ef65037607c556f9131271922eaa6064b73a22d0bd4f2bf607d556f8b380f3558668c46c91c49a2f8e967b9607e556f857ddf0117efa215952912839f6473e6607f55565b613aec806200075d6000396000f3fe608060405234801561001057600080fd5b50600436106101365760003560e01c80638888a737116100b2578063b19210b011610081578063b3923a9911610066578063b3923a9914610788578063ca22297914610825578063d69109371461085857610136565b8063b19210b0146106fc578063b33d96b01461074357610136565b80638888a737146105925780638fabd82d146105d557806392aec23c14610672578063ad615dec146106d357610136565b80635bff1d9211610109578063671a11b5116100ee578063671a11b51461045757806367f84adc1461049e57806379c91b371461054357610136565b80635bff1d92146103755780636350d7741461040257610136565b8063119220a51461013b5780632bb66e1d146102305780633274946114610293578063544caa56146102f1575b600080fd5b6101e0600480360360a081101561015157600080fd5b73ffffffffffffffffffffffffffffffffffffffff823581169260208101358216926040820135909216916060820135919081019060a0810160808201356401000000008111156101a157600080fd5b8201836020820111156101b357600080fd5b803590602001918460208302840111640100000000831117156101d557600080fd5b5090925090506108bc565b60408051602080825283518183015283519192839290830191858101910280838360005b8381101561021c578181015183820152602001610204565b505050509050019250505060405180910390f35b61026b6004803603604081101561024657600080fd5b5073ffffffffffffffffffffffffffffffffffffffff81358116916020013516610abd565b6040805163ffffffff9485168152928416602084015292168183015290519081900360600190f35b6102d8600480360360608110156102a957600080fd5b5073ffffffffffffffffffffffffffffffffffffffff8135811691602081013582169160409091013516610b6e565b6040805192835260208301919091528051918290030190f35b61032c6004803603604081101561030757600080fd5b5073ffffffffffffffffffffffffffffffffffffffff81358116916020013516610e0d565b604051808373ffffffffffffffffffffffffffffffffffffffff1681526020018273ffffffffffffffffffffffffffffffffffffffff1681526020019250505060405180910390f35b6103b06004803603604081101561038b57600080fd5b5073ffffffffffffffffffffffffffffffffffffffff81358116916020013516610f60565b6040805173ffffffffffffffffffffffffffffffffffffffff909716875260208701959095528585019390935263ffffffff9182166060860152811660808501521660a0830152519081900360c00190f35b6104456004803603606081101561041857600080fd5b5073ffffffffffffffffffffffffffffffffffffffff8135811691602081013590911690604001356112bb565b60408051918252519081900360200190f35b610445600480360360c081101561046d57600080fd5b5080359060208101359060408101359063ffffffff6060820135811691608081013582169160a090910135166112f8565b6101e0600480360360a08110156104b457600080fd5b73ffffffffffffffffffffffffffffffffffffffff823581169260208101358216926040820135909216916060820135919081019060a08101608082013564010000000081111561050457600080fd5b82018360208201111561051657600080fd5b8035906020019184602083028401116401000000008311171561053857600080fd5b50909250905061147d565b61057e600480360360a081101561055957600080fd5b508035906020810135906040810135906060810135906080013563ffffffff16611672565b604080519115158252519081900360200190f35b610445600480360360608110156105a857600080fd5b5073ffffffffffffffffffffffffffffffffffffffff813581169160208101359091169060400135611776565b6101e0600480360360808110156105eb57600080fd5b73ffffffffffffffffffffffffffffffffffffffff82358116926020810135909116916040820135919081019060808101606082013564010000000081111561063357600080fd5b82018360208201111561064557600080fd5b8035906020019184602083028401116401000000008311171561066757600080fd5b5090925090506117a5565b610445600480360360e081101561068857600080fd5b508035906dffffffffffffffffffffffffffff6020820135811691604081013582169163ffffffff606083013581169260808101359091169160a082013581169160c0013516611992565b610445600480360360608110156106e957600080fd5b5080359060208101359060400135611a8f565b610445600480360360c081101561071257600080fd5b5080359060208101359060408101359063ffffffff6060820135811691608081013582169160a09091013516611b69565b6103b06004803603606081101561075957600080fd5b5073ffffffffffffffffffffffffffffffffffffffff8135811691602081013582169160409091013516611d11565b6101e06004803603608081101561079e57600080fd5b73ffffffffffffffffffffffffffffffffffffffff8235811692602081013590911691604082013591908101906080810160608201356401000000008111156107e657600080fd5b8201836020820111156107f857600080fd5b8035906020019184602083028401116401000000008311171561081a57600080fd5b509092509050612004565b61026b6004803603602081101561083b57600080fd5b503573ffffffffffffffffffffffffffffffffffffffff166121e6565b6108936004803603604081101561086e57600080fd5b5073ffffffffffffffffffffffffffffffffffffffff813581169160200135166123dd565b6040805173ffffffffffffffffffffffffffffffffffffffff9092168252519081900360200190f35b60608161092a57604080517f08c379a000000000000000000000000000000000000000000000000000000000815260206004820152601d60248201527f4669726542697264466f726d756c613a20494e56414c49445f50415448000000604482015290519081900360640190fd5b6001820167ffffffffffffffff8111801561094457600080fd5b5060405190808252806020026020018201604052801561096e578160200160208202803683370190505b509050838160008151811061097f57fe5b60209081029190910101528560005b83811015610a2d576000806000806000806109d28f8c8c8a8181106109af57fe5b9050602002013573ffffffffffffffffffffffffffffffffffffffff168a611d11565b9550955095509550955095506109ff8988815181106109ed57fe5b602002602001015186868686866112f8565b898860010181518110610a0e57fe5b602090810291909101015250939550506001909301925061098e915050565b508573ffffffffffffffffffffffffffffffffffffffff168173ffffffffffffffffffffffffffffffffffffffff1614610ab2576040517f08c379a0000000000000000000000000000000000000000000000000000000008152600401808060200182810382526027815260200180613a1c6027913960400191505060405180910390fd5b509695505050505050565b60008060008473ffffffffffffffffffffffffffffffffffffffff1663ca222979856040518263ffffffff1660e01b8152600401808273ffffffffffffffffffffffffffffffffffffffff16815260200191505060606040518083038186803b158015610b2957600080fd5b505afa158015610b3d573d6000803e3d6000fd5b505050506040513d6060811015610b5357600080fd5b50805160208201516040909201519097919650945092505050565b600080600080610b7e8686610e0d565b915091506000808873ffffffffffffffffffffffffffffffffffffffff16630902f1ac6040518163ffffffff1660e01b815260040160606040518083038186803b158015610bcb57600080fd5b505afa158015610bdf573d6000803e3d6000fd5b505050506040513d6060811015610bf557600080fd5b508051602091820151604080517f0dfe168100000000000000000000000000000000000000000000000000000000815290516dffffffffffffffffffffffffffff938416965092909116935073ffffffffffffffffffffffffffffffffffffffff8c1692630dfe168192600480840193829003018186803b158015610c7957600080fd5b505afa158015610c8d573d6000803e3d6000fd5b505050506040513d6020811015610ca357600080fd5b505173ffffffffffffffffffffffffffffffffffffffff8581169116148015610d5557508873ffffffffffffffffffffffffffffffffffffffff1663d21220a76040518163ffffffff1660e01b815260040160206040518083038186803b158015610d0d57600080fd5b505afa158015610d21573d6000803e3d6000fd5b505050506040513d6020811015610d3757600080fd5b505173ffffffffffffffffffffffffffffffffffffffff8481169116145b610dc057604080517f08c379a000000000000000000000000000000000000000000000000000000000815260206004820152601e60248201527f4669726542697264466f726d756c613a20496e76616c696420746f6b656e0000604482015290519081900360640190fd5b8373ffffffffffffffffffffffffffffffffffffffff168873ffffffffffffffffffffffffffffffffffffffff1614610dfa578082610dfd565b81815b909a909950975050505050505050565b6000808273ffffffffffffffffffffffffffffffffffffffff168473ffffffffffffffffffffffffffffffffffffffff161415610e95576040517f08c379a0000000000000000000000000000000000000000000000000000000008152600401808060200182810382526024815260200180613a6d6024913960400191505060405180910390fd5b8273ffffffffffffffffffffffffffffffffffffffff168473ffffffffffffffffffffffffffffffffffffffff1610610ecf578284610ed2565b83835b909250905073ffffffffffffffffffffffffffffffffffffffff8216610f5957604080517f08c379a000000000000000000000000000000000000000000000000000000000815260206004820152601d60248201527f4669726542697264466f726d756c613a205a45524f5f41444452455353000000604482015290519081900360640190fd5b9250929050565b6000806000806000806000808973ffffffffffffffffffffffffffffffffffffffff16630902f1ac6040518163ffffffff1660e01b815260040160606040518083038186803b158015610fb257600080fd5b505afa158015610fc6573d6000803e3d6000fd5b505050506040513d6060811015610fdc57600080fd5b5080516020909101516dffffffffffffffffffffffffffff91821693501690506000806110088c6121e6565b8097508193508294505050508b73ffffffffffffffffffffffffffffffffffffffff16630dfe16816040518163ffffffff1660e01b815260040160206040518083038186803b15801561105a57600080fd5b505afa15801561106e573d6000803e3d6000fd5b505050506040513d602081101561108457600080fd5b505173ffffffffffffffffffffffffffffffffffffffff8c81169116141561112d578b73ffffffffffffffffffffffffffffffffffffffff1663d21220a76040518163ffffffff1660e01b815260040160206040518083038186803b1580156110ec57600080fd5b505afa158015611100573d6000803e3d6000fd5b505050506040513d602081101561111657600080fd5b5051995092975090955093509150848484846112ad565b8b73ffffffffffffffffffffffffffffffffffffffff1663d21220a76040518163ffffffff1660e01b815260040160206040518083038186803b15801561117357600080fd5b505afa158015611187573d6000803e3d6000fd5b505050506040513d602081101561119d57600080fd5b505173ffffffffffffffffffffffffffffffffffffffff8c811691161415611246578b73ffffffffffffffffffffffffffffffffffffffff16630dfe16816040518163ffffffff1660e01b815260040160206040518083038186803b15801561120557600080fd5b505afa158015611219573d6000803e3d6000fd5b505050506040513d602081101561122f57600080fd5b5051995091975091955093509150838583856112ad565b604080517f08c379a000000000000000000000000000000000000000000000000000000000815260206004820152601f60248201527f4669726542697264466f726d756c613a20496e76616c696420746f6b656e4100604482015290519081900360640190fd5b505050509295509295509295565b60008060008060008060006112d08a8a610f60565b9550955095509550955095506112ea888587858786611b69565b9a9950505050505050505050565b6000808711611352576040517f08c379a000000000000000000000000000000000000000000000000000000000815260040180806020018281038252602a815260200180613a43602a913960400191505060405180910390fd5b6000861180156113625750600085115b6113b7576040517f08c379a00000000000000000000000000000000000000000000000000000000081526004018080602001828103825260278152602001806139f56027913960400191505060405180910390fd5b60006113d18863ffffffff6127108690038116906125ea16565b90508363ffffffff168563ffffffff161415611417576113fd816113f7896127106125ea565b90612676565b61140787836125ea565b8161140e57fe5b04915050611473565b6000808061142b846113f78c6127106125ea565b90506114448161143d8c6127106125ea565b8a8a6126e8565b909350915060006114558a856125ea565b905060ff83168a901b848183038161146957fe5b0496505050505050505b9695505050505050565b6060816114eb57604080517f08c379a000000000000000000000000000000000000000000000000000000000815260206004820152601d60248201527f4669726542697264466f726d756c613a20494e56414c49445f50415448000000604482015290519081900360640190fd5b6001820167ffffffffffffffff8111801561150557600080fd5b5060405190808252806020026020018201604052801561152f578160200160208202803683370190505b509050838160018351038151811061154357fe5b602090810291909101015284825b80156115ed576000806000806000806115738f8c8c60018b038181106109af57fe5b9550955095509550955095506115a089888151811061158e57fe5b60200260200101518587858786611b69565b8960018903815181106115af57fe5b602090810291909101015250939550507fffffffffffffffffffffffffffffffffffffffffffffffffffffffffffffffff9093019250611551915050565b508673ffffffffffffffffffffffffffffffffffffffff168173ffffffffffffffffffffffffffffffffffffffff1614610ab2576040517f08c379a0000000000000000000000000000000000000000000000000000000008152600401808060200182810382526026815260200180613a916026913960400191505060405180910390fd5b60008163ffffffff16603214156116a05761168d86866125ea565b61169785856125ea565b1015905061176d565b8584101580156116b05750848310155b156116bd5750600161176d565b8584111580156116cd5750848311155b156116da5750600061176d565b81606481900360008080808b8a1061171b576116f98b8a8760326126e8565b90945060ff16925061170e8a8d8860326126e8565b90925060ff169050611746565b6117288c8b8860326126e8565b90945060ff16925061173d898c8760326126e8565b90925060ff1690505b60008184106117555781611757565b835b918290039290921c92039290921c111593505050505b95945050505050565b600080600080600080600061178b8a8a610f60565b9550955095509550955095506112ea8886868686866112f8565b60608161181357604080517f08c379a000000000000000000000000000000000000000000000000000000000815260206004820152601d60248201527f4669726542697264466f726d756c613a20494e56414c49445f50415448000000604482015290519081900360640190fd5b6001820167ffffffffffffffff8111801561182d57600080fd5b50604051908082528060200260200182016040528015611857578160200160208202803683370190505b509050838160008151811061186857fe5b60209081029190910101528560005b83811015611903576000806000806000806118ba8b8b8981811061189757fe5b9050602002013573ffffffffffffffffffffffffffffffffffffffff1689610f60565b9550955095509550955095506118d58988815181106109ed57fe5b8988600101815181106118e457fe5b6020908102919091010152509395505060019093019250611877915050565b508573ffffffffffffffffffffffffffffffffffffffff168173ffffffffffffffffffffffffffffffffffffffff1614611988576040517f08c379a0000000000000000000000000000000000000000000000000000000008152600401808060200182810382526027815260200180613a1c6027913960400191505060405180910390fd5b5095945050505050565b60006dffffffffffffffffffffffffffff831615611a13576000806119e66119cd6dffffffffffffffffffffffffffff878116908c16612676565b8a6dffffffffffffffffffffffffffff168960646126e8565b90925060ff169050611a0e8a611a0883611a0083876125ea565b87911c612676565b9061284f565b925050505b6dffffffffffffffffffffffffffff821615611a8457600080611a65611a4c6dffffffffffffffffffffffffffff868116908b16612676565b896dffffffffffffffffffffffffffff168860646126e8565b90925060ff169050611a7f8a611a0883611a0083876125ea565b925050505b979650505050505050565b6000808411611ae9576040517f08c379a00000000000000000000000000000000000000000000000000000000081526004018080602001828103825260248152602001806139d16024913960400191505060405180910390fd5b600083118015611af95750600082115b611b4e576040517f08c379a00000000000000000000000000000000000000000000000000000000081526004018080602001828103825260278152602001806139f56027913960400191505060405180910390fd5b82611b5985846125ea565b81611b6057fe5b04949350505050565b6000808711611bc3576040517f08c379a000000000000000000000000000000000000000000000000000000000815260040180806020018281038252602b8152602001806139a6602b913960400191505060405180910390fd5b600086118015611bd35750600085115b611c28576040517f08c379a00000000000000000000000000000000000000000000000000000000081526004018080602001828103825260278152602001806139f56027913960400191505060405180910390fd5b8263ffffffff168463ffffffff161415611c99576000611c54612710611c4e898b6125ea565b906125ea565b90506000611c79846127100363ffffffff16611c4e8b8a61284f90919063ffffffff16565b9050611c906001828481611c8957fe5b0490612676565b92505050611473565b60008080611ca7888b61284f565b9050611cb58882888a6126e8565b90935091506000611cc88a6127106125ea565b90506000611cd682866125ea565b905060ff841682811b90611d009060019063ffffffff6127108c90031690848603901c81611c8957fe5b9d9c50505050505050505050505050565b6000806000806000806000808973ffffffffffffffffffffffffffffffffffffffff16630902f1ac6040518163ffffffff1660e01b815260040160606040518083038186803b158015611d6357600080fd5b505afa158015611d77573d6000803e3d6000fd5b505050506040513d6060811015611d8d57600080fd5b5080516020909101516dffffffffffffffffffffffffffff9182169350169050600080611dba8d8d610abd565b8097508193508294505050508b73ffffffffffffffffffffffffffffffffffffffff16630dfe16816040518163ffffffff1660e01b815260040160206040518083038186803b158015611e0c57600080fd5b505afa158015611e20573d6000803e3d6000fd5b505050506040513d6020811015611e3657600080fd5b505173ffffffffffffffffffffffffffffffffffffffff8c811691161415611edf578b73ffffffffffffffffffffffffffffffffffffffff1663d21220a76040518163ffffffff1660e01b815260040160206040518083038186803b158015611e9e57600080fd5b505afa158015611eb2573d6000803e3d6000fd5b505050506040513d6020811015611ec857600080fd5b505199509297509095509350915084848484611ff4565b8b73ffffffffffffffffffffffffffffffffffffffff1663d21220a76040518163ffffffff1660e01b815260040160206040518083038186803b158015611f2557600080fd5b505afa158015611f39573d6000803e3d6000fd5b505050506040513d6020811015611f4f57600080fd5b505173ffffffffffffffffffffffffffffffffffffffff8c811691161415611246578b73ffffffffffffffffffffffffffffffffffffffff16630dfe16816040518163ffffffff1660e01b815260040160206040518083038186803b158015611fb757600080fd5b505afa158015611fcb573d6000803e3d6000fd5b505050506040513d6020811015611fe157600080fd5b5051995091975091955093509150838583855b5050505093975093979195509350565b60608161207257604080517f08c379a000000000000000000000000000000000000000000000000000000000815260206004820152601d60248201527f4669726542697264466f726d756c613a20494e56414c49445f50415448000000604482015290519081900360640190fd5b6001820167ffffffffffffffff8111801561208c57600080fd5b506040519080825280602002602001820160405280156120b6578160200160208202803683370190505b50905083816001835103815181106120ca57fe5b602090810291909101015284825b8015612161576000806000806000806120f98b8b60018a0381811061189757fe5b95509550955095509550955061211489888151811061158e57fe5b89600189038151811061212357fe5b602090810291909101015250939550507fffffffffffffffffffffffffffffffffffffffffffffffffffffffffffffffff90930192506120d8915050565b508673ffffffffffffffffffffffffffffffffffffffff168173ffffffffffffffffffffffffffffffffffffffff1614611988576040517f08c379a0000000000000000000000000000000000000000000000000000000008152600401808060200182810382526026815260200180613a916026913960400191505060405180910390fd5b60008060008373ffffffffffffffffffffffffffffffffffffffff166332bfe4696040518163ffffffff1660e01b8152600401604080518083038186803b15801561223057600080fd5b505afa92505050801561225c57506040513d604081101561225057600080fd5b50805160209091015160015b612353576122686138c3565b806122735750612312565b806040517f08c379a00000000000000000000000000000000000000000000000000000000081526004018080602001828103825283818151815260200191508051906020019080838360005b838110156122d75781810151838201526020016122bf565b50505050905090810190601f1680156123045780820380516001836020036101000a031916815260200191505b509250505060405180910390fd5b3d80801561233c576040519150601f19603f3d011682016040523d82523d6000602084013e612341565b606091505b50603280601e935093509350506123d6565b81818773ffffffffffffffffffffffffffffffffffffffff1663d4cadf686040518163ffffffff1660e01b815260040160206040518083038186803b15801561239b57600080fd5b505afa1580156123af573d6000803e3d6000fd5b505050506040513d60208110156123c557600080fd5b5051919650945092506123d6915050565b9193909250565b6000808373ffffffffffffffffffffffffffffffffffffffff16630dfe16816040518163ffffffff1660e01b815260040160206040518083038186803b15801561242657600080fd5b505afa15801561243a573d6000803e3d6000fd5b505050506040513d602081101561245057600080fd5b5051604080517fd21220a7000000000000000000000000000000000000000000000000000000008152905191925060009173ffffffffffffffffffffffffffffffffffffffff87169163d21220a7916004808301926020929190829003018186803b1580156124be57600080fd5b505afa1580156124d2573d6000803e3d6000fd5b505050506040513d60208110156124e857600080fd5b5051905073ffffffffffffffffffffffffffffffffffffffff828116908516148061253e57508373ffffffffffffffffffffffffffffffffffffffff168173ffffffffffffffffffffffffffffffffffffffff16145b6125a957604080517f08c379a000000000000000000000000000000000000000000000000000000000815260206004820152601f60248201527f4669726542697264466f726d756c613a20496e76616c696420746f6b656e4100604482015290519081900360640190fd5b8373ffffffffffffffffffffffffffffffffffffffff168273ffffffffffffffffffffffffffffffffffffffff16146125e2578161176d565b949350505050565b60008115806126055750508082028282828161260257fe5b04145b61267057604080517f08c379a000000000000000000000000000000000000000000000000000000000815260206004820152601460248201527f64732d6d6174682d6d756c2d6f766572666c6f77000000000000000000000000604482015290519081900360640190fd5b92915050565b8082018281101561267057604080517f08c379a000000000000000000000000000000000000000000000000000000000815260206004820152601460248201527f64732d6d6174682d6164642d6f766572666c6f77000000000000000000000000604482015290519081900360640190fd5b6000808486101561275a57604080517f08c379a000000000000000000000000000000000000000000000000000000000815260206004820152601b60248201527f6e6f7420737570706f7274205f626173654e203c205f62617365440000000000604482015290519081900360640190fd5b700200000000000000000000000000000000861061277757600080fd5b600080866f8000000000000000000000000000000089028161279557fe5b04905070015bf0a8b1457695355fb8ac404e7a79e38110156127c1576127ba816128c1565b91506127cd565b6127ca81612e3b565b91505b60008563ffffffff168763ffffffff168402816127e657fe5b0490507008000000000000000000000000000000008110156128195761280b81612f6b565b607f94509450505050612846565b600061282482613432565b905061283981607f0360ff1683901c826134c2565b9550935061284692505050565b94509492505050565b8082038281111561267057604080517f08c379a000000000000000000000000000000000000000000000000000000000815260206004820152601560248201527f64732d6d6174682d7375622d756e646572666c6f770000000000000000000000604482015290519081900360640190fd5b6000808080806fd3094c70f034de4b96ff7d5b6f99fcd88610612922576f40000000000000000000000000000000840193506fd3094c70f034de4b96ff7d5b6f99fcd86f8000000000000000000000000000000087028161291e57fe5b0495505b6fa45af1e1f40c333b3de1db4dd55f29a7861061297d576f20000000000000000000000000000000840193506fa45af1e1f40c333b3de1db4dd55f29a76f8000000000000000000000000000000087028161297957fe5b0495505b6f910b022db7ae67ce76b441c27035c6a186106129d8576f10000000000000000000000000000000840193506f910b022db7ae67ce76b441c27035c6a16f800000000000000000000000000000008702816129d457fe5b0495505b6f88415abbe9a76bead8d00cf112e4d4a88610612a33576f08000000000000000000000000000000840193506f88415abbe9a76bead8d00cf112e4d4a86f80000000000000000000000000000000870281612a2f57fe5b0495505b6f84102b00893f64c705e841d5d4064bd38610612a8e576f04000000000000000000000000000000840193506f84102b00893f64c705e841d5d4064bd36f80000000000000000000000000000000870281612a8a57fe5b0495505b6f8204055aaef1c8bd5c3259f4822735a28610612ae9576f02000000000000000000000000000000840193506f8204055aaef1c8bd5c3259f4822735a26f80000000000000000000000000000000870281612ae557fe5b0495505b6f810100ab00222d861931c15e39b44e998610612b44576f01000000000000000000000000000000840193506f810100ab00222d861931c15e39b44e996f80000000000000000000000000000000870281612b4057fe5b0495505b6f808040155aabbbe9451521693554f7338610612b9e576e800000000000000000000000000000840193506f808040155aabbbe9451521693554f7336f80000000000000000000000000000000870281612b9a57fe5b0495505b7fffffffffffffffffffffffffffffffff80000000000000000000000000000000860192508291506f80000000000000000000000000000000828002049050700100000000000000000000000000000000838103830204840193506f8000000000000000000000000000000081830281612c1457fe5b049150700200000000000000000000000000000000836faaaaaaaaaaaaaaaaaaaaaaaaaaaaaaaa03830281612c4557fe5b04840193506f8000000000000000000000000000000081830281612c6557fe5b049150700300000000000000000000000000000000836f9999999999999999999999999999999903830281612c9657fe5b04840193506f8000000000000000000000000000000081830281612cb657fe5b049150700400000000000000000000000000000000836f9249249249249249249249249249249203830281612ce757fe5b04840193506f8000000000000000000000000000000081830281612d0757fe5b049150700500000000000000000000000000000000836f8e38e38e38e38e38e38e38e38e38e38e03830281612d3857fe5b04840193506f8000000000000000000000000000000081830281612d5857fe5b049150700600000000000000000000000000000000836f8ba2e8ba2e8ba2e8ba2e8ba2e8ba2e8b03830281612d8957fe5b04840193506f8000000000000000000000000000000081830281612da957fe5b049150700700000000000000000000000000000000836f89d89d89d89d89d89d89d89d89d89d8903830281612dda57fe5b04840193506f8000000000000000000000000000000081830281612dfa57fe5b049150700800000000000000000000000000000000836f8888888888888888888888888888888803830281612e2b57fe5b049390930193505050505b919050565b6000807001000000000000000000000000000000008310612e90576000612e736f80000000000000000000000000000000850461385c565b60ff1693841c936f80000000000000000000000000000000029150505b6f80000000000000000000000000000000831115612f3f57607f5b60ff811615612f3d576f800000000000000000000000000000008480020493507001000000000000000000000000000000008410612f1657600193841c9360ff7fffffffffffffffffffffffffffffffffffffffffffffffffffffffffffffffff8301161b91909101905b7fffffffffffffffffffffffffffffffffffffffffffffffffffffffffffffffff01612eab565b505b6f05b9de1d10bf4103d647b0955897ba806f03f80fe03f80fe03f80fe03f80fe03f88202049392505050565b6000670168244fdac780006f800000000000000000000000000000006f0fffffffffffffffffffffffffffffff84168080028290048082028390048083028490049485026710e1b3be415a00009092026705a0913f6b1e000091909102010192909181830204905080664807432bc1800002830192506f8000000000000000000000000000000082820281612ffc57fe5b04905080660c0135dca0400002830192506f800000000000000000000000000000008282028161302857fe5b049050806601b707b1cdc00002830192506f800000000000000000000000000000008282028161305457fe5b049050806536e0f639b80002830192506f800000000000000000000000000000008282028161307f57fe5b04905080650618fee9f80002830192506f80000000000000000000000000000000828202816130aa57fe5b04905080649c197dcc0002830192506f80000000000000000000000000000000828202816130d457fe5b04905080640e30dce40002830192506f80000000000000000000000000000000828202816130fe57fe5b0490508064012ebd130002830192506f800000000000000000000000000000008282028161312857fe5b049050806317499f0002830192506f800000000000000000000000000000008282028161315157fe5b049050806301a9d48002830192506f800000000000000000000000000000008282028161317a57fe5b04905080621c638002830192506f80000000000000000000000000000000828202816131a257fe5b049050806201c63802830192506f80000000000000000000000000000000828202816131ca57fe5b04905080611ab802830192506f80000000000000000000000000000000828202816131f157fe5b0490508061017c02830192506f800000000000000000000000000000008282028161321857fe5b04905080601402830192506f800000000000000000000000000000008282028161323e57fe5b6721c3677c82b400009190049384010482016f80000000000000000000000000000000019290506f100000000000000000000000000000008516156132a75770018ebef9eac820ae8682b9793ac6d1e7767001c3d6a24ed82218787d624d3e5eba95f984020492505b6f200000000000000000000000000000008516156132e9577001368b2fc6f9609fe7aceb46aa619baed470018ebef9eac820ae8682b9793ac6d1e77884020492505b6f4000000000000000000000000000000085161561332a576fbc5ab1b16779be3575bd8f0520a9f21f7001368b2fc6f9609fe7aceb46aa619baed584020492505b6f8000000000000000000000000000000085161561336a576f454aaa8efe072e7f6ddbab84b40a55c96fbc5ab1b16779be3575bd8f0520a9f21e84020492505b7001000000000000000000000000000000008516156133ab576f0960aadc109e7a3bf4578099615711ea6f454aaa8efe072e7f6ddbab84b40a55c584020492505b7002000000000000000000000000000000008516156133eb576e2bf84208204f5977f9a8cf01fdce3d6f0960aadc109e7a3bf4578099615711d784020492505b700400000000000000000000000000000000851615613429576d03c6ab775dd0b95b4cbee7e65d116e2bf84208204f5977f9a8cf01fdc30784020492505b50909392505050565b60006020607f5b8060ff168260010160ff161015613481576000600260ff848401160490508460008260ff166080811061346857fe5b0154106134775780925061347b565b8091505b50613439565b8360008260ff166080811061349257fe5b0154106134a2579150612e369050565b8360008360ff16608081106134b357fe5b01541061013657509050612e36565b60008083905060008360ff16858302901c9150816f03442c4e6074a82f1797f72ac000000002810190508360ff16858302901c9150816f0116b96f757c380fb287fd0e4000000002810190508360ff16858302901c9150816e45ae5bdd5f0e03eca1ff439000000002810190508360ff16858302901c9150816e0defabf91302cd95b9ffda5000000002810190508360ff16858302901c9150816e02529ca9832b22439efff9b800000002810190508360ff16858302901c9150816d54f1cf12bd04e516b6da8800000002810190508360ff16858302901c9150816d0a9e39e257a09ca2d6db5100000002810190508360ff16858302901c9150816d012e066e7b839fa050c30900000002810190508360ff16858302901c9150816c1e33d7d926c329a1ad1a80000002810190508360ff16858302901c9150816c02bee513bdb4a6b19b5f80000002810190508360ff16858302901c9150816b3a9316fa79b88eccf2a0000002810190508360ff16858302901c9150816b048177ebe1fa81237520000002810190508360ff16858302901c9150816a5263fe90242dcbacf0000002810190508360ff16858302901c9150816a057e22099c030d9410000002810190508360ff16858302901c9150816957e22099c030d941000002810190508360ff16858302901c91508169052b6b5456997631000002810190508360ff16858302901c915081684985f67696bf74800002810190508360ff16858302901c9150816803dea12ea99e49800002810190508360ff16858302901c9150816731880f2214b6e00002810190508360ff16858302901c91508167025bcff56eb3600002810190508360ff16858302901c915081661b722e10ab100002810190508360ff16858302901c9150816601317c7007700002810190508360ff16858302901c915081650cba84aafa0002810190508360ff16858302901c9150816482573a0a0002810190508360ff16858302901c9150816405035ad90002810190508360ff16858302901c915081632f881b0002810190508360ff16858302901c9150816301b2934002810190508360ff16858302901c915081620efc4002810190508360ff16858302901c915081617fe002810190508360ff16858302901c91508161042002810190508360ff16858302901c915081602102810190508360ff16858302901c915081600102810190508360ff166001901b856f0688589cc0e9505e2f2fee5580000000838161385057fe5b04010195945050505050565b600080610100831015613884575b600183111561387f57600192831c920161386a565b612670565b60805b60ff8116156138b657600160ff82161b84106138ab5760ff81169390931c92908117905b60011c607f16613887565b5092915050565b60e01c90565b600060443d10156138d3576139a2565b600481823e6308c379a06138e782516138bd565b146138f1576139a2565b6040517ffffffffffffffffffffffffffffffffffffffffffffffffffffffffffffffffc3d016004823e80513d67ffffffffffffffff816024840111818411171561393f57505050506139a2565b8284019250825191508082111561395957505050506139a2565b503d83016020828401011115613971575050506139a2565b601f017fffffffffffffffffffffffffffffffffffffffffffffffffffffffffffffffe01681016020016040529150505b9056fe4669726542697264466f726d756c613a20494e53554646494349454e545f4f55545055545f414d4f554e544669726542697264466f726d756c613a20494e53554646494349454e545f414d4f554e544669726542697264466f726d756c613a20494e53554646494349454e545f4c49515549444954594669726542697264466f726d756c613a20494e56414c49445f544f4b454e5f4f55545f504154484669726542697264466f726d756c613a20494e53554646494349454e545f494e5055545f414d4f554e544669726542697264466f726d756c613a204944454e544943414c5f4144445245535345534669726542697264466f726d756c613a20494e56414c49445f544f4b454e5f494e5f50415448a264697066735822122047fa340d268e2ba38cf0e907d21134bb8351b32b9aabd40cf2669cf51e39456c64736f6c63430007060033",
  "devdoc": {
    "kind": "dev",
    "methods": {
      "getAmountIn(uint256,uint256,uint256,uint32,uint32,uint32)": {
        "details": "given an output amount of an asset and pair reserves, returns a required input amount of the other asset Formula: return = reserveIn * ( (reserveOut / (reserveOut - amountOut)) ^ (tokenWeightOut / tokenWeightIn) - 1) * (10000/ (10000 - swapFee)",
        "params": {
          "amountOut": "target reserve amount",
          "reserveIn": "source reserve balance",
          "reserveOut": "target reserve balance",
          "swapFee": "swap fee of the conversion",
          "tokenWeightIn": "source reserve weight, represented in ppm (2-98)",
          "tokenWeightOut": "target reserve weight, represented in ppm (2-98)"
        },
        "returns": {
          "amountIn": "amountIn"
        }
      },
      "getAmountOut(uint256,uint256,uint256,uint32,uint32,uint32)": {
        "details": "given an input amount of an asset and pair reserves, returns the maximum output amount of the other asset, Formula: return = reserveOut * (1 - (reserveIn / (reserveIn + amountIn * (10000 - swapFee))) ^ (tokenWeightIn / tokenWeightOut))",
        "params": {
          "amountIn": "source reserve amount",
          "reserveIn": "source reserve balance",
          "reserveOut": "target reserve balance",
          "swapFee": "swap fee of the conversion",
          "tokenWeightIn": "source reserve weight, represented in ppm (2-98)",
          "tokenWeightOut": "target reserve weight, represented in ppm (2-98)"
        },
        "returns": {
          "amountOut": "amountOut"
        }
      }
    },
    "version": 1
  },
  "userdoc": {
    "kind": "user",
    "methods": {},
    "version": 1
  },
  "storageLayout": {
    "storage": [
      {
        "astId": 1828,
        "contract": "contracts/FireBirdFormula.sol:FireBirdFormula",
        "label": "maxExpArray",
        "offset": 0,
        "slot": "0",
        "type": "t_array(t_uint256)128_storage"
      }
    ],
    "types": {
      "t_array(t_uint256)128_storage": {
        "base": "t_uint256",
        "encoding": "inplace",
        "label": "uint256[128]",
        "numberOfBytes": "4096"
      },
      "t_uint256": {
        "encoding": "inplace",
        "label": "uint256",
        "numberOfBytes": "32"
      }
    }
  }
}