{
  "address": "0x43659Cd896e93620aEcC5e74A4e3b76F98ff3Dfc",
  "abi": [
    {
      "inputs": [
        {
          "internalType": "contract IUniswapV2Router",
          "name": "_uniRouter",
          "type": "address"
        },
        {
          "internalType": "contract IFireBirdRouter",
          "name": "_fireBirdRouter",
          "type": "address"
        }
      ],
      "stateMutability": "nonpayable",
      "type": "constructor"
    },
    {
      "anonymous": false,
      "inputs": [
        {
          "indexed": false,
          "internalType": "address",
          "name": "governance",
          "type": "address"
        }
      ],
      "name": "LogGovernance",
      "type": "event"
    },
    {
      "anonymous": false,
      "inputs": [
        {
          "indexed": true,
          "internalType": "address",
          "name": "token",
          "type": "address"
        },
        {
          "indexed": false,
          "internalType": "uint256",
          "name": "amount",
          "type": "uint256"
        },
        {
          "indexed": false,
          "internalType": "address",
          "name": "to",
          "type": "address"
        }
      ],
      "name": "Withdraw",
      "type": "event"
    },
    {
      "anonymous": false,
      "inputs": [
        {
          "indexed": true,
          "internalType": "address",
          "name": "sender",
          "type": "address"
        },
        {
          "indexed": false,
          "internalType": "address",
          "name": "from",
          "type": "address"
        },
        {
          "indexed": false,
          "internalType": "uint256",
          "name": "amtFrom",
          "type": "uint256"
        },
        {
          "indexed": false,
          "internalType": "address",
          "name": "pool",
          "type": "address"
        },
        {
          "indexed": false,
          "internalType": "uint256",
          "name": "amtLp",
          "type": "uint256"
        }
      ],
      "name": "ZapIn",
      "type": "event"
    },
    {
      "anonymous": false,
      "inputs": [
        {
          "indexed": true,
          "internalType": "address",
          "name": "sender",
          "type": "address"
        },
        {
          "indexed": false,
          "internalType": "address",
          "name": "pool",
          "type": "address"
        },
        {
          "indexed": false,
          "internalType": "uint256",
          "name": "amtLp",
          "type": "uint256"
        },
        {
          "indexed": false,
          "internalType": "address",
          "name": "to",
          "type": "address"
        },
        {
          "indexed": false,
          "internalType": "uint256",
          "name": "amtTo",
          "type": "uint256"
        }
      ],
      "name": "ZapOut",
      "type": "event"
    },
    {
      "inputs": [],
      "name": "WBNB",
      "outputs": [
        {
          "internalType": "address",
          "name": "",
          "type": "address"
        }
      ],
      "stateMutability": "view",
      "type": "function"
    },
    {
      "inputs": [
        {
          "internalType": "address",
          "name": "_token",
          "type": "address"
        }
      ],
      "name": "addTokensResidual",
      "outputs": [],
      "stateMutability": "nonpayable",
      "type": "function"
    },
    {
      "inputs": [],
      "name": "fireBirdFactory",
      "outputs": [
        {
          "internalType": "contract IFireBirdFactory",
          "name": "",
          "type": "address"
        }
      ],
      "stateMutability": "view",
      "type": "function"
    },
    {
      "inputs": [],
      "name": "fireBirdFormula",
      "outputs": [
        {
          "internalType": "contract IFireBirdFormula",
          "name": "",
          "type": "address"
        }
      ],
      "stateMutability": "view",
      "type": "function"
    },
    {
      "inputs": [
        {
          "internalType": "address",
          "name": "",
          "type": "address"
        },
        {
          "internalType": "address",
          "name": "",
          "type": "address"
        },
        {
          "internalType": "uint256",
          "name": "",
          "type": "uint256"
        }
      ],
      "name": "fireBirdPairs",
      "outputs": [
        {
          "internalType": "address",
          "name": "",
          "type": "address"
        }
      ],
      "stateMutability": "view",
      "type": "function"
    },
    {
      "inputs": [],
      "name": "fireBirdRouter",
      "outputs": [
        {
          "internalType": "contract IFireBirdRouter",
          "name": "",
          "type": "address"
        }
      ],
      "stateMutability": "view",
      "type": "function"
    },
    {
      "inputs": [
        {
          "internalType": "address",
          "name": "_from",
          "type": "address"
        },
        {
          "internalType": "uint256",
          "name": "_fromAmount",
          "type": "uint256"
        },
        {
          "internalType": "address",
          "name": "lp",
          "type": "address"
        }
      ],
      "name": "getAmountBToZapIn",
      "outputs": [
        {
          "internalType": "uint256",
          "name": "amountBConverted",
          "type": "uint256"
        },
        {
          "internalType": "uint256",
          "name": "amountASell",
          "type": "uint256"
        }
      ],
      "stateMutability": "view",
      "type": "function"
    },
    {
      "inputs": [
        {
          "internalType": "address",
          "name": "_from",
          "type": "address"
        },
        {
          "internalType": "uint256",
          "name": "amount",
          "type": "uint256"
        },
        {
          "internalType": "address",
          "name": "_toToken",
          "type": "address"
        }
      ],
      "name": "getAmountToZapOut",
      "outputs": [
        {
          "internalType": "uint256",
          "name": "amountOtherSell",
          "type": "uint256"
        },
        {
          "internalType": "uint256",
          "name": "amountToConverted",
          "type": "uint256"
        },
        {
          "internalType": "uint256",
          "name": "amountToOrigin",
          "type": "uint256"
        }
      ],
      "stateMutability": "view",
      "type": "function"
    },
    {
      "inputs": [],
      "name": "governance",
      "outputs": [
        {
          "internalType": "address",
          "name": "",
          "type": "address"
        }
      ],
      "stateMutability": "view",
      "type": "function"
    },
    {
      "inputs": [],
      "name": "maxResidual",
      "outputs": [
        {
          "internalType": "uint256",
          "name": "",
          "type": "uint256"
        }
      ],
      "stateMutability": "view",
      "type": "function"
    },
    {
      "inputs": [
        {
          "internalType": "address",
          "name": "_input",
          "type": "address"
        },
        {
          "internalType": "address",
          "name": "_output",
          "type": "address"
        },
        {
          "internalType": "address[]",
          "name": "_pair",
          "type": "address[]"
        }
      ],
      "name": "setFireBirdPairs",
      "outputs": [],
      "stateMutability": "nonpayable",
      "type": "function"
    },
    {
      "inputs": [
        {
          "internalType": "address",
          "name": "_governance",
          "type": "address"
        }
      ],
      "name": "setGovernance",
      "outputs": [],
      "stateMutability": "nonpayable",
      "type": "function"
    },
    {
      "inputs": [
        {
          "internalType": "uint256",
          "name": "_maxResidual",
          "type": "uint256"
        }
      ],
      "name": "setMaxResidual",
      "outputs": [],
      "stateMutability": "nonpayable",
      "type": "function"
    },
    {
      "inputs": [
        {
          "internalType": "address[]",
          "name": "_tokensResidual",
          "type": "address[]"
        }
      ],
      "name": "setTokensResidual",
      "outputs": [],
      "stateMutability": "nonpayable",
      "type": "function"
    },
    {
      "inputs": [
        {
          "internalType": "uint256",
          "name": "",
          "type": "uint256"
        }
      ],
      "name": "tokensResidual",
      "outputs": [
        {
          "internalType": "address",
          "name": "",
          "type": "address"
        }
      ],
      "stateMutability": "view",
      "type": "function"
    },
    {
      "inputs": [],
      "name": "uniRouter",
      "outputs": [
        {
          "internalType": "contract IUniswapV2Router",
          "name": "",
          "type": "address"
        }
      ],
      "stateMutability": "view",
      "type": "function"
    },
    {
      "inputs": [
        {
          "internalType": "address",
          "name": "to",
          "type": "address"
        }
      ],
      "name": "withdraw",
      "outputs": [],
      "stateMutability": "nonpayable",
      "type": "function"
    },
    {
      "inputs": [
        {
          "internalType": "address[]",
          "name": "tokens",
          "type": "address[]"
        },
        {
          "internalType": "address",
          "name": "to",
          "type": "address"
        }
      ],
      "name": "withdrawToken",
      "outputs": [],
      "stateMutability": "nonpayable",
      "type": "function"
    },
    {
      "inputs": [
        {
          "internalType": "address",
          "name": "token",
          "type": "address"
        },
        {
          "internalType": "address",
          "name": "to",
          "type": "address"
        },
        {
          "internalType": "uint256",
          "name": "amount",
          "type": "uint256"
        }
      ],
      "name": "withdrawTokenAmount",
      "outputs": [],
      "stateMutability": "nonpayable",
      "type": "function"
    },
    {
      "inputs": [
        {
          "internalType": "address",
          "name": "_to",
          "type": "address"
        },
        {
          "internalType": "uint256",
          "name": "_minTokenB",
          "type": "uint256"
        },
        {
          "internalType": "uint256",
          "name": "_minLp",
          "type": "uint256"
        },
        {
          "internalType": "bool",
          "name": "transferResidual",
          "type": "bool"
        }
      ],
      "name": "zapIn",
      "outputs": [
        {
          "internalType": "uint256",
          "name": "",
          "type": "uint256"
        }
      ],
      "stateMutability": "payable",
      "type": "function"
    },
    {
      "inputs": [
        {
          "internalType": "address",
          "name": "_from",
          "type": "address"
        },
        {
          "internalType": "uint256[]",
          "name": "amounts",
          "type": "uint256[]"
        },
        {
          "internalType": "address",
          "name": "_to",
          "type": "address"
        },
        {
          "internalType": "bool",
          "name": "transferResidual",
          "type": "bool"
        }
      ],
      "name": "zapInToken",
      "outputs": [
        {
          "internalType": "uint256",
          "name": "lpAmt",
          "type": "uint256"
        }
      ],
      "stateMutability": "nonpayable",
      "type": "function"
    },
    {
      "inputs": [
        {
          "internalType": "address",
          "name": "_from",
          "type": "address"
        },
        {
          "internalType": "uint256",
          "name": "amount",
          "type": "uint256"
        },
        {
          "internalType": "address",
          "name": "_toToken",
          "type": "address"
        },
        {
          "internalType": "uint256",
          "name": "_minTokensRec",
          "type": "uint256"
        }
      ],
      "name": "zapOut",
      "outputs": [
        {
          "internalType": "uint256",
          "name": "",
          "type": "uint256"
        }
      ],
      "stateMutability": "nonpayable",
      "type": "function"
    },
    {
      "inputs": [
        {
          "internalType": "address",
          "name": "_from",
          "type": "address"
        },
        {
          "internalType": "uint256",
          "name": "amount",
          "type": "uint256"
        },
        {
          "internalType": "address",
          "name": "_toToken",
          "type": "address"
        },
        {
          "internalType": "uint256",
          "name": "_minTokensRec",
          "type": "uint256"
        },
        {
          "internalType": "uint256",
          "name": "_approvalAmount",
          "type": "uint256"
        },
        {
          "internalType": "uint256",
          "name": "_deadline",
          "type": "uint256"
        },
        {
          "internalType": "uint8",
          "name": "v",
          "type": "uint8"
        },
        {
          "internalType": "bytes32",
          "name": "r",
          "type": "bytes32"
        },
        {
          "internalType": "bytes32",
          "name": "s",
          "type": "bytes32"
        }
      ],
      "name": "zapOutWithPermit",
      "outputs": [
        {
          "internalType": "uint256",
          "name": "",
          "type": "uint256"
        }
      ],
      "stateMutability": "nonpayable",
      "type": "function"
    },
    {
      "stateMutability": "payable",
      "type": "receive"
    }
  ],
  "transactionHash": "0x0e5b7cec2ae2656234fe60f9f2b81c380810d72caceadd285e12014b787a2802",
  "args": [
    "0xc0fFee0000C824D24E0F280f1e4D21152625742b",
    "0x4BFBf7fCC9776CE8285B059fB77e7Bb2A5c5E365"
  ],
  "solcInputHash": "e39826d3f1b3e76af59c601f16223594",
  "bytecode": "0x608060405260646008553480156200001657600080fd5b506040516200580538038062005805833981810160405260408110156200003c57600080fd5b508051602091820151600160008190558054336001600160a01b0319918216179091556003805482166001600160a01b03808616919091179091556004805490921690831690811782556040805163c45a015560e01b8152905194959394919363c45a015593828101939192829003018186803b158015620000bd57600080fd5b505afa158015620000d2573d6000803e3d6000fd5b505050506040513d6020811015620000e957600080fd5b5051600580546001600160a01b0319166001600160a01b0392831617905560408051634b75f54f60e01b8152905191831691634b75f54f91600480820192602092909190829003018186803b1580156200014257600080fd5b505afa15801562000157573d6000803e3d6000fd5b505050506040513d60208110156200016e57600080fd5b5051600680546001600160a01b0319166001600160a01b03928316179055604080516315ab88c960e31b815290519183169163ad5c464891600480820192602092909190829003018186803b158015620001c757600080fd5b505afa158015620001dc573d6000803e3d6000fd5b505050506040513d6020811015620001f357600080fd5b5051600280546001600160a01b0319166001600160a01b03909216919091179055506155de905080620002276000396000f3fe6080604052600436106101845760003560e01c8063521f2e09116100d65780638dd950021161007f578063ab033ea911610059578063ab033ea9146108a4578063e0243baa146108e4578063e5bc2920146108f9576101fa565b80638dd9500214610826578063a0e47bf61461083b578063a863ff2f14610850576101fa565b8063761c262e116100b0578063761c262e146107025780637b191ff2146107495780637e2150fd14610811576101fa565b8063521f2e091461060e5780635aa6e675146106d857806360a13c52146106ed576101fa565b80631ee11cde116101385780633c01ae6e116101125780633c01ae6e14610520578063405649581461056057806351cff8d9146105ce576101fa565b80631ee11cde146103d057806328e802ac146104a657806334d2365b146104f6576101fa565b806309342d951161016957806309342d951461032857806312e225681461039157806314896f95146103a6576101fa565b806303e2d7ff146101ff57806304d21f0614610278576101fa565b366101fa57333214156101f857604080517f08c379a000000000000000000000000000000000000000000000000000000000815260206004820152601d60248201527f5a61703a20446f206e6f742073656e6420455448206469726563746c79000000604482015290519081900360640190fd5b005b600080fd5b34801561020b57600080fd5b5061024f6004803603606081101561022257600080fd5b5073ffffffffffffffffffffffffffffffffffffffff813581169160208101359091169060400135610970565b6040805173ffffffffffffffffffffffffffffffffffffffff9092168252519081900360200190f35b34801561028457600080fd5b506101f86004803603602081101561029b57600080fd5b8101906020810181356401000000008111156102b657600080fd5b8201836020820111156102c857600080fd5b803590602001918460208302840111640100000000831117156102ea57600080fd5b9190808060200260200160405190810160405280939291908181526020018383602002808284376000920191909152509295506109bf945050505050565b34801561033457600080fd5b506103786004803603606081101561034b57600080fd5b5073ffffffffffffffffffffffffffffffffffffffff813581169160208101359160409091013516610a5c565b6040805192835260208301919091528051918290030190f35b34801561039d57600080fd5b5061024f610e67565b3480156103b257600080fd5b5061024f600480360360208110156103c957600080fd5b5035610e83565b3480156103dc57600080fd5b506101f8600480360360608110156103f357600080fd5b73ffffffffffffffffffffffffffffffffffffffff823581169260208101359091169181019060608101604082013564010000000081111561043457600080fd5b82018360208201111561044657600080fd5b8035906020019184602083028401116401000000008311171561046857600080fd5b919080806020026020016040519081016040528093929190818152602001838360200280828437600092019190915250929550610eb7945050505050565b3480156104b257600080fd5b506101f8600480360360608110156104c957600080fd5b5073ffffffffffffffffffffffffffffffffffffffff813581169160208101359091169060400135610f85565b34801561050257600080fd5b506101f86004803603602081101561051957600080fd5b5035611105565b34801561052c57600080fd5b506101f86004803603602081101561054357600080fd5b503573ffffffffffffffffffffffffffffffffffffffff16611190565b34801561056c57600080fd5b506105b06004803603606081101561058357600080fd5b5073ffffffffffffffffffffffffffffffffffffffff81358116916020810135916040909101351661128d565b60408051938452602084019290925282820152519081900360600190f35b3480156105da57600080fd5b506101f8600480360360208110156105f157600080fd5b503573ffffffffffffffffffffffffffffffffffffffff16611594565b34801561061a57600080fd5b506106c66004803603608081101561063157600080fd5b73ffffffffffffffffffffffffffffffffffffffff823516919081019060408101602082013564010000000081111561066957600080fd5b82018360208201111561067b57600080fd5b8035906020019184602083028401116401000000008311171561069d57600080fd5b919350915073ffffffffffffffffffffffffffffffffffffffff81351690602001351515611690565b60408051918252519081900360200190f35b3480156106e457600080fd5b5061024f611c9b565b3480156106f957600080fd5b5061024f611cb7565b6106c66004803603608081101561071857600080fd5b5073ffffffffffffffffffffffffffffffffffffffff81351690602081013590604081013590606001351515611cd3565b34801561075557600080fd5b506101f86004803603604081101561076c57600080fd5b81019060208101813564010000000081111561078757600080fd5b82018360208201111561079957600080fd5b803590602001918460208302840111640100000000831117156107bb57600080fd5b9190808060200260200160405190810160405280939291908181526020018383602002808284376000920191909152509295505050903573ffffffffffffffffffffffffffffffffffffffff169150611e3d9050565b34801561081d57600080fd5b5061024f611f7b565b34801561083257600080fd5b5061024f611f97565b34801561084757600080fd5b5061024f611fb3565b34801561085c57600080fd5b506106c66004803603608081101561087357600080fd5b5073ffffffffffffffffffffffffffffffffffffffff81358116916020810135916040820135169060600135611fcf565b3480156108b057600080fd5b506101f8600480360360208110156108c757600080fd5b503573ffffffffffffffffffffffffffffffffffffffff16612690565b3480156108f057600080fd5b506106c6612795565b34801561090557600080fd5b506106c6600480360361012081101561091d57600080fd5b5073ffffffffffffffffffffffffffffffffffffffff81358116916020810135916040820135169060608101359060808101359060a08101359060ff60c0820135169060e081013590610100013561279b565b6007602052826000526040600020602052816000526040600020818154811061099557fe5b60009182526020909120015473ffffffffffffffffffffffffffffffffffffffff16925083915050565b60015473ffffffffffffffffffffffffffffffffffffffff163314610a4557604080517f08c379a000000000000000000000000000000000000000000000000000000000815260206004820152601060248201527f5a61703a2021676f7665726e616e636500000000000000000000000000000000604482015290519081900360640190fd5b8051610a5890600990602084019061541d565b5050565b600080600080600085905060008173ffffffffffffffffffffffffffffffffffffffff16630dfe16816040518163ffffffff1660e01b815260040160206040518083038186803b158015610aaf57600080fd5b505afa158015610ac3573d6000803e3d6000fd5b505050506040513d6020811015610ad957600080fd5b5051604080517fd21220a7000000000000000000000000000000000000000000000000000000008152905191925060009173ffffffffffffffffffffffffffffffffffffffff85169163d21220a7916004808301926020929190829003018186803b158015610b4757600080fd5b505afa158015610b5b573d6000803e3d6000fd5b505050506040513d6020811015610b7157600080fd5b5051905073ffffffffffffffffffffffffffffffffffffffff8a811690831614610b9b5781610b9d565b805b9450610bab888b8b85612868565b604080516001808252818301909252919550606094509092509050602080830190803683370190505090508581600081518110610be457fe5b602002602001019073ffffffffffffffffffffffffffffffffffffffff16908173ffffffffffffffffffffffffffffffffffffffff16815250506060600660009054906101000a900473ffffffffffffffffffffffffffffffffffffffff1673ffffffffffffffffffffffffffffffffffffffff1663119220a5600560009054906101000a900473ffffffffffffffffffffffffffffffffffffffff168b8787876040518663ffffffff1660e01b8152600401808673ffffffffffffffffffffffffffffffffffffffff1681526020018573ffffffffffffffffffffffffffffffffffffffff1681526020018473ffffffffffffffffffffffffffffffffffffffff16815260200183815260200180602001828103825283818151815260200191508051906020019060200280838360005b83811015610d2e578181015183820152602001610d16565b50505050905001965050505050505060006040518083038186803b158015610d5557600080fd5b505afa158015610d69573d6000803e3d6000fd5b505050506040513d6000823e601f3d9081017fffffffffffffffffffffffffffffffffffffffffffffffffffffffffffffffe01682016040526020811015610db057600080fd5b8101908080516040519392919084640100000000821115610dd057600080fd5b908301906020820185811115610de557600080fd5b8251866020820283011164010000000082111715610e0257600080fd5b82525081516020918201928201910280838360005b83811015610e2f578181015183820152602001610e17565b50505050905001604052505050905080600182510381518110610e4e57fe5b6020026020010151839550955050505050935093915050565b60065473ffffffffffffffffffffffffffffffffffffffff1681565b60098181548110610e9057fe5b60009182526020909120015473ffffffffffffffffffffffffffffffffffffffff16905081565b60015473ffffffffffffffffffffffffffffffffffffffff163314610f3d57604080517f08c379a000000000000000000000000000000000000000000000000000000000815260206004820152601060248201527f5a61703a2021676f7665726e616e636500000000000000000000000000000000604482015290519081900360640190fd5b73ffffffffffffffffffffffffffffffffffffffff808416600090815260076020908152604080832093861683529281529190208251610f7f9284019061541d565b50505050565b60015473ffffffffffffffffffffffffffffffffffffffff16331461100b57604080517f08c379a000000000000000000000000000000000000000000000000000000000815260206004820152601060248201527f5a61703a2021676f7665726e616e636500000000000000000000000000000000604482015290519081900360640190fd5b73ffffffffffffffffffffffffffffffffffffffff821661108d57604080517f08c379a000000000000000000000000000000000000000000000000000000000815260206004820152601d60248201527f5a61703a20496e76616c69642052656365697665722041646472657373000000604482015290519081900360640190fd5b6110ae73ffffffffffffffffffffffffffffffffffffffff84168383612aae565b6040805182815273ffffffffffffffffffffffffffffffffffffffff84811660208301528251908616927f56c54ba9bd38d8fd62012e42c7ee564519b09763c426d331b3661b537ead19b2928290030190a2505050565b60015473ffffffffffffffffffffffffffffffffffffffff16331461118b57604080517f08c379a000000000000000000000000000000000000000000000000000000000815260206004820152601060248201527f5a61703a2021676f7665726e616e636500000000000000000000000000000000604482015290519081900360640190fd5b600855565b60015473ffffffffffffffffffffffffffffffffffffffff16331461121657604080517f08c379a000000000000000000000000000000000000000000000000000000000815260206004820152601060248201527f5a61703a2021676f7665726e616e636500000000000000000000000000000000604482015290519081900360640190fd5b600980546001810182556000919091527f6e1540171b6c0c960b71a7020d9f60077f6af931a8bbf590da0223dacf75c7af0180547fffffffffffffffffffffffff00000000000000000000000000000000000000001673ffffffffffffffffffffffffffffffffffffffff92909216919091179055565b600080600080600087905060008173ffffffffffffffffffffffffffffffffffffffff16630dfe16816040518163ffffffff1660e01b815260040160206040518083038186803b1580156112e057600080fd5b505afa1580156112f4573d6000803e3d6000fd5b505050506040513d602081101561130a57600080fd5b5051604080517fd21220a7000000000000000000000000000000000000000000000000000000008152905191925060009173ffffffffffffffffffffffffffffffffffffffff85169163d21220a7916004808301926020929190829003018186803b15801561137857600080fd5b505afa15801561138c573d6000803e3d6000fd5b505050506040513d60208110156113a257600080fd5b5051905073ffffffffffffffffffffffffffffffffffffffff888116908316146113cc57816113ce565b805b935050505060008060008973ffffffffffffffffffffffffffffffffffffffff166318160ddd6040518163ffffffff1660e01b815260040160206040518083038186803b15801561141e57600080fd5b505afa158015611432573d6000803e3d6000fd5b505050506040513d602081101561144857600080fd5b5051604080517f70a0823100000000000000000000000000000000000000000000000000000000815273ffffffffffffffffffffffffffffffffffffffff8d81166004830152915192935083926114f4928816916370a08231916024808301926020929190829003018186803b1580156114c157600080fd5b505afa1580156114d5573d6000803e3d6000fd5b505050506040513d60208110156114eb57600080fd5b50518b90612b3b565b816114fb57fe5b049250806115698973ffffffffffffffffffffffffffffffffffffffff166370a082318d6040518263ffffffff1660e01b8152600401808273ffffffffffffffffffffffffffffffffffffffff16815260200191505060206040518083038186803b1580156114c157600080fd5b8161157057fe5b0491505060006115828a858585612bb7565b929a9299509097509095505050505050565b60015473ffffffffffffffffffffffffffffffffffffffff16331461161a57604080517f08c379a000000000000000000000000000000000000000000000000000000000815260206004820152601060248201527f5a61703a2021676f7665726e616e636500000000000000000000000000000000604482015290519081900360640190fd5b6060600980548060200260200160405190810160405280929190818152602001828054801561167f57602002820191906000526020600020905b815473ffffffffffffffffffffffffffffffffffffffff168152600190910190602001808311611654575b50505050509050610a588183611e3d565b60006002600054141561170457604080517f08c379a000000000000000000000000000000000000000000000000000000000815260206004820152601f60248201527f5265656e7472616e637947756172643a207265656e7472616e742063616c6c00604482015290519081900360640190fd5b600260008190555061174c33308787600081811061171e57fe5b905060200201358973ffffffffffffffffffffffffffffffffffffffff16612d85909392919063ffffffff16565b61175586612e1a565b8273ffffffffffffffffffffffffffffffffffffffff16630dfe16816040518163ffffffff1660e01b815260040160206040518083038186803b15801561179b57600080fd5b505afa1580156117af573d6000803e3d6000fd5b505050506040513d60208110156117c557600080fd5b505173ffffffffffffffffffffffffffffffffffffffff8781169116148061187657508273ffffffffffffffffffffffffffffffffffffffff1663d21220a76040518163ffffffff1660e01b815260040160206040518083038186803b15801561182e57600080fd5b505afa158015611842573d6000803e3d6000fd5b505050506040513d602081101561185857600080fd5b505173ffffffffffffffffffffffffffffffffffffffff8781169116145b15611b485760008060008573ffffffffffffffffffffffffffffffffffffffff16630dfe16816040518163ffffffff1660e01b815260040160206040518083038186803b1580156118c657600080fd5b505afa1580156118da573d6000803e3d6000fd5b505050506040513d60208110156118f057600080fd5b5051604080517fd21220a7000000000000000000000000000000000000000000000000000000008152905191925060009173ffffffffffffffffffffffffffffffffffffffff89169163d21220a7916004808301926020929190829003018186803b15801561195e57600080fd5b505afa158015611972573d6000803e3d6000fd5b505050506040513d602081101561198857600080fd5b5051905073ffffffffffffffffffffffffffffffffffffffff8a8116908316146119b257816119b4565b805b93506119d5878b8b8b60008181106119c857fe5b9050602002013585612868565b9250505060006119e8898385308a612ffe565b9050878760018181106119f757fe5b90506020020135811015611a6c57604080517f08c379a000000000000000000000000000000000000000000000000000000000815260206004820181905260248201527f5a61703a20496e73756666696369656e74205265636569766520416d6f756e74604482015290519081900360640190fd5b611b3e868a85611a98868d8d6000818110611a8357fe5b9050602002013561353b90919063ffffffff16565b600554604080517fe5e31b1300000000000000000000000000000000000000000000000000000000815273ffffffffffffffffffffffffffffffffffffffff8e81166004830152915189933393169163e5e31b13916024808301926020929190829003018186803b158015611b0c57600080fd5b505afa158015611b20573d6000803e3d6000fd5b505050506040513d6020811015611b3657600080fd5b50518c6135b2565b9350505050611b7e565b6000611b6a8787876000818110611b5b57fe5b90506020020135306000613850565b9050611b7a848233600087613d29565b9150505b84846002818110611b8b57fe5b90506020020135811015611c0057604080517f08c379a000000000000000000000000000000000000000000000000000000000815260206004820152601560248201527f5a61703a204869676820536c69707061676520496e0000000000000000000000604482015290519081900360640190fd5b337f6c9d1839e8465b42ebfd3c687420dbcdf116253fd431545be184fb051c38f0c2878787600081611c2e57fe5b905060200201358685604051808573ffffffffffffffffffffffffffffffffffffffff1681526020018481526020018373ffffffffffffffffffffffffffffffffffffffff16815260200182815260200194505050505060405180910390a2600160005595945050505050565b60015473ffffffffffffffffffffffffffffffffffffffff1681565b60045473ffffffffffffffffffffffffffffffffffffffff1681565b600060026000541415611d4757604080517f08c379a000000000000000000000000000000000000000000000000000000000815260206004820152601f60248201527f5265656e7472616e637947756172643a207265656e7472616e742063616c6c00604482015290519081900360640190fd5b60026000908155611d5b8634338887613d29565b905083811015611dcc57604080517f08c379a000000000000000000000000000000000000000000000000000000000815260206004820152601560248201527f5a61703a204869676820536c69707061676520496e0000000000000000000000604482015290519081900360640190fd5b6002546040805173ffffffffffffffffffffffffffffffffffffffff928316815234602082015291881682820152606082018390525133917f6c9d1839e8465b42ebfd3c687420dbcdf116253fd431545be184fb051c38f0c2919081900360800190a2600160005595945050505050565b60015473ffffffffffffffffffffffffffffffffffffffff163314611ec357604080517f08c379a000000000000000000000000000000000000000000000000000000000815260206004820152601060248201527f5a61703a2021676f7665726e616e636500000000000000000000000000000000604482015290519081900360640190fd5b73ffffffffffffffffffffffffffffffffffffffff8116611f4557604080517f08c379a000000000000000000000000000000000000000000000000000000000815260206004820152601d60248201527f5a61703a20496e76616c69642052656365697665722041646472657373000000604482015290519081900360640190fd5b60005b8251811015611f7657611f6e838281518110611f6057fe5b6020026020010151836145a1565b600101611f48565b505050565b60055473ffffffffffffffffffffffffffffffffffffffff1681565b60025473ffffffffffffffffffffffffffffffffffffffff1681565b60035473ffffffffffffffffffffffffffffffffffffffff1681565b60006002600054141561204357604080517f08c379a000000000000000000000000000000000000000000000000000000000815260206004820152601f60248201527f5265656e7472616e637947756172643a207265656e7472616e742063616c6c00604482015290519081900360640190fd5b600260005561206a73ffffffffffffffffffffffffffffffffffffffff8616333087612d85565b61207385612e1a565b60008060008060008990508073ffffffffffffffffffffffffffffffffffffffff16630dfe16816040518163ffffffff1660e01b815260040160206040518083038186803b1580156120c457600080fd5b505afa1580156120d8573d6000803e3d6000fd5b505050506040513d60208110156120ee57600080fd5b5051604080517fd21220a7000000000000000000000000000000000000000000000000000000008152905191965073ffffffffffffffffffffffffffffffffffffffff83169163d21220a791600480820192602092909190829003018186803b15801561215a57600080fd5b505afa15801561216e573d6000803e3d6000fd5b505050506040513d602081101561218457600080fd5b5051600554604080517fe5e31b1300000000000000000000000000000000000000000000000000000000815273ffffffffffffffffffffffffffffffffffffffff8e811660048301529151939750600093919092169163e5e31b13916024808301926020929190829003018186803b1580156121ff57600080fd5b505afa158015612213573d6000803e3d6000fd5b505050506040513d602081101561222957600080fd5b5051905080156123175760048054604080517fe1f4a78400000000000000000000000000000000000000000000000000000000815273ffffffffffffffffffffffffffffffffffffffff8f81169482019490945289841660248201528884166044820152606481018e905260016084820181905260a48201523060c48201524260e48201528151939092169263e1f4a784926101048082019392918290030181600087803b1580156122da57600080fd5b505af11580156122ee573d6000803e3d6000fd5b505050506040513d604081101561230457600080fd5b50805160209091015190945092506123ea565b600354604080517fbaa2abde00000000000000000000000000000000000000000000000000000000815273ffffffffffffffffffffffffffffffffffffffff89811660048301528881166024830152604482018e905260016064830181905260848301523060a48301524260c4830152825193169263baa2abde9260e4808401939192918290030181600087803b1580156123b157600080fd5b505af11580156123c5573d6000803e3d6000fd5b505050506040513d60408110156123db57600080fd5b50805160209091015190945092505b505060006123f785612e1a565b61240084612e1a565b73ffffffffffffffffffffffffffffffffffffffff881673eeeeeeeeeeeeeeeeeeeeeeeeeeeeeeeeeeeeeeee14156124b35760025460009073ffffffffffffffffffffffffffffffffffffffff87811691161480612478575060025473ffffffffffffffffffffffffffffffffffffffff8681169116145b612483576000612485565b8a5b905061249386853084613850565b91506124ab6124a486853085613850565b83906146ec565b91505061254c565b60008573ffffffffffffffffffffffffffffffffffffffff168973ffffffffffffffffffffffffffffffffffffffff16148061251a57508473ffffffffffffffffffffffffffffffffffffffff168973ffffffffffffffffffffffffffffffffffffffff16145b612525576000612527565b8a5b905061253686858b3085612ffe565b91506125486124a486858c3086612ffe565b9150505b868110156125bb57604080517f08c379a000000000000000000000000000000000000000000000000000000000815260206004820152601660248201527f5a61703a204869676820536c697070616765204f757400000000000000000000604482015290519081900360640190fd5b73ffffffffffffffffffffffffffffffffffffffff881673eeeeeeeeeeeeeeeeeeeeeeeeeeeeeeeeeeeeeeee14156125fc576125f73382614760565b61261d565b61261d73ffffffffffffffffffffffffffffffffffffffff89163383612aae565b6040805173ffffffffffffffffffffffffffffffffffffffff8c81168252602082018c90528a168183015260608101839052905133917f04a863d47eb1f82dce727c38e0b2294b96dea01f7d8c060216edb8ef473ea839919081900360800190a260016000559998505050505050505050565b60015473ffffffffffffffffffffffffffffffffffffffff16331461271657604080517f08c379a000000000000000000000000000000000000000000000000000000000815260206004820152601060248201527f5a61703a2021676f7665726e616e636500000000000000000000000000000000604482015290519081900360640190fd5b600180547fffffffffffffffffffffffff00000000000000000000000000000000000000001673ffffffffffffffffffffffffffffffffffffffff838116919091179182905560408051929091168252517f4d5c50bb72d5f3b4cd853277f0fedffc1df6a70dbed9a9f365013b5a8543e884916020908290030190a150565b60085481565b604080517fd505accf000000000000000000000000000000000000000000000000000000008152336004820152306024820152604481018790526064810186905260ff8516608482015260a4810184905260c48101839052905160009173ffffffffffffffffffffffffffffffffffffffff8c169163d505accf9160e480820192869290919082900301818387803b15801561283657600080fd5b505af115801561284a573d6000803e3d6000fd5b5050505061285a8a8a8a8a611fcf565b9a9950505050505050505050565b600554604080517fca22297900000000000000000000000000000000000000000000000000000000815273ffffffffffffffffffffffffffffffffffffffff878116600483015291516000938493849391169163ca22297991602480820192606092909190829003018186803b1580156128e157600080fd5b505afa1580156128f5573d6000803e3d6000fd5b505050506040513d606081101561290b57600080fd5b5080516020909101519092509050603263ffffffff83161415612a40576000808873ffffffffffffffffffffffffffffffffffffffff16630902f1ac6040518163ffffffff1660e01b815260040160606040518083038186803b15801561297157600080fd5b505afa158015612985573d6000803e3d6000fd5b505050506040513d606081101561299b57600080fd5b5080516020909101516dffffffffffffffffffffffffffff9182169350169050600073ffffffffffffffffffffffffffffffffffffffff898116908816146129e357816129e5565b825b90506107ca612a2c6129f9836107cd612b3b565b612a26612a21612a0c86623cda29612b3b565b612a198e623cda20612b3b565b879101612b3b565b614898565b9061353b565b81612a3357fe5b0495505050505050612aa6565b60008473ffffffffffffffffffffffffffffffffffffffff168773ffffffffffffffffffffffffffffffffffffffff1614612a81578263ffffffff16612a89565b8163ffffffff165b9050612aa06064612a9a8884612b3b565b906148ea565b93505050505b949350505050565b6040805173ffffffffffffffffffffffffffffffffffffffff8416602482015260448082018490528251808303909101815260649091019091526020810180517bffffffffffffffffffffffffffffffffffffffffffffffffffffffff167fa9059cbb00000000000000000000000000000000000000000000000000000000179052611f7690849061496b565b600082612b4a57506000612bb1565b82820282848281612b5757fe5b0414612bae576040517f08c379a00000000000000000000000000000000000000000000000000000000081526004018080602001828103825260218152602001806155056021913960400191505060405180910390fd5b90505b92915050565b600654600554604080517fb33d96b000000000000000000000000000000000000000000000000000000000815273ffffffffffffffffffffffffffffffffffffffff928316600482015287831660248201528683166044820152905160009384938493849384938493169163b33d96b09160648083019260c0929190829003018186803b158015612c4757600080fd5b505afa158015612c5b573d6000803e3d6000fd5b505050506040513d60c0811015612c7157600080fd5b50602081015160408201516060830151608084015160a090940151600654939950919750955091935090915073ffffffffffffffffffffffffffffffffffffffff1663671a11b589612cc3888261353b565b612ccd888c61353b565b604080517fffffffff0000000000000000000000000000000000000000000000000000000060e087901b16815260048101949094526024840192909252604483015263ffffffff80881660648401528087166084840152851660a48301525160c4808301926020929190829003018186803b158015612d4b57600080fd5b505afa158015612d5f573d6000803e3d6000fd5b505050506040513d6020811015612d7557600080fd5b50519a9950505050505050505050565b6040805173ffffffffffffffffffffffffffffffffffffffff80861660248301528416604482015260648082018490528251808303909101815260849091019091526020810180517bffffffffffffffffffffffffffffffffffffffffffffffffffffffff167f23b872dd00000000000000000000000000000000000000000000000000000000179052610f7f90859061496b565b600354604080517fdd62ed3e00000000000000000000000000000000000000000000000000000000815230600482015273ffffffffffffffffffffffffffffffffffffffff928316602482015290519183169163dd62ed3e91604480820192602092909190829003018186803b158015612e9357600080fd5b505afa158015612ea7573d6000803e3d6000fd5b505050506040513d6020811015612ebd57600080fd5b5051612f0a57600354612f0a9073ffffffffffffffffffffffffffffffffffffffff83811691167fffffffffffffffffffffffffffffffffffffffffffffffffffffffffffffffff614a43565b60048054604080517fdd62ed3e000000000000000000000000000000000000000000000000000000008152309381019390935273ffffffffffffffffffffffffffffffffffffffff9182166024840152519083169163dd62ed3e916044808301926020929190829003018186803b158015612f8457600080fd5b505afa158015612f98573d6000803e3d6000fd5b505050506040513d6020811015612fae57600080fd5b5051612ffb57600454612ffb9073ffffffffffffffffffffffffffffffffffffffff83811691167fffffffffffffffffffffffffffffffffffffffffffffffffffffffffffffffff614a43565b50565b60008373ffffffffffffffffffffffffffffffffffffffff168673ffffffffffffffffffffffffffffffffffffffff1614156130795773ffffffffffffffffffffffffffffffffffffffff831630146130725761307273ffffffffffffffffffffffffffffffffffffffff87168487612aae565b5083613532565b73ffffffffffffffffffffffffffffffffffffffff808716600090815260076020908152604080832093881683529281529082902080548351818402810184019094528084526060939283018282801561310957602002820191906000526020600020905b815473ffffffffffffffffffffffffffffffffffffffff1681526001909101906020018083116130de575b50505050509050606060008251111561333057600460009054906101000a900473ffffffffffffffffffffffffffffffffffffffff1673ffffffffffffffffffffffffffffffffffffffff1663bff51d7189888a6001878b426040518863ffffffff1660e01b8152600401808873ffffffffffffffffffffffffffffffffffffffff1681526020018773ffffffffffffffffffffffffffffffffffffffff168152602001868152602001858152602001806020018473ffffffffffffffffffffffffffffffffffffffff168152602001838152602001828103825285818151815260200191508051906020019060200280838360005b838110156132175781810151838201526020016131ff565b5050505090500198505050505050505050600060405180830381600087803b15801561324257600080fd5b505af1158015613256573d6000803e3d6000fd5b505050506040513d6000823e601f3d9081017fffffffffffffffffffffffffffffffffffffffffffffffffffffffffffffffe0168201604052602081101561329d57600080fd5b81019080805160405193929190846401000000008211156132bd57600080fd5b9083019060208201858111156132d257600080fd5b82518660208202830111640100000000821117156132ef57600080fd5b82525081516020918201928201910280838360005b8381101561331c578181015183820152602001613304565b505050509050016040525050509050613515565b73ffffffffffffffffffffffffffffffffffffffff8416156134ae576040805160018082528183019092529060208083019080368337019050509150838260008151811061337a57fe5b602002602001019073ffffffffffffffffffffffffffffffffffffffff16908173ffffffffffffffffffffffffffffffffffffffff1681525050600460009054906101000a900473ffffffffffffffffffffffffffffffffffffffff1673ffffffffffffffffffffffffffffffffffffffff1663bff51d7189888a6001878b426040518863ffffffff1660e01b8152600401808873ffffffffffffffffffffffffffffffffffffffff1681526020018773ffffffffffffffffffffffffffffffffffffffff168152602001868152602001858152602001806020018473ffffffffffffffffffffffffffffffffffffffff16815260200183815260200182810382528581815181526020019150805190602001906020028083836000838110156132175781810151838201526020016131ff565b604080517f08c379a000000000000000000000000000000000000000000000000000000000815260206004820152601760248201527f46697265426972645a61703a2021706174682073776170000000000000000000604482015290519081900360640190fd5b8060018251038151811061352557fe5b6020026020010151925050505b95945050505050565b6000828211156135ac57604080517f08c379a000000000000000000000000000000000000000000000000000000000815260206004820152601e60248201527f536166654d6174683a207375627472616374696f6e206f766572666c6f770000604482015290519081900360640190fd5b50900390565b60006135bd88612e1a565b6135c687612e1a565b60008084156136c75760048054604080517ffbf4513500000000000000000000000000000000000000000000000000000000815273ffffffffffffffffffffffffffffffffffffffff8f8116948201949094528d841660248201528c84166044820152606481018c9052608481018b9052600160a4820181905260c482015289841660e4820152426101048201529051929091169163fbf4513591610124808201926060929091908290030181600087803b15801561368457600080fd5b505af1158015613698573d6000803e3d6000fd5b505050506040513d60608110156136ae57600080fd5b50805160208201516040909201519450925090506137ae565b600354604080517fe8e3370000000000000000000000000000000000000000000000000000000000815273ffffffffffffffffffffffffffffffffffffffff8d811660048301528c81166024830152604482018c9052606482018b905260016084830181905260a483015289811660c48301524260e48301529151919092169163e8e33700916101048083019260609291908290030181600087803b15801561376f57600080fd5b505af1158015613783573d6000803e3d6000fd5b505050506040513d606081101561379957600080fd5b50805160208201516040909201519450925090505b60006137ba898461353b565b905084806137e157506137de612710612a9a6008548c612b3b90919063ffffffff16565b81115b156137f75780156137f7576137f78b3383614bd1565b6000613803898461353b565b9050858061382a5750613827612710612a9a6008548c612b3b90919063ffffffff16565b81115b15613840578015613840576138408b3383614bd1565b5050505098975050505050505050565b60025460009073ffffffffffffffffffffffffffffffffffffffff868116911614156138a15760025461389a9073ffffffffffffffffffffffffffffffffffffffff168486614bd1565b5082612aa6565b73ffffffffffffffffffffffffffffffffffffffff808616600090815260076020908152604080832060025490941683529281529082902080548351818402810184019094528084526060939283018282801561393457602002820191906000526020600020905b815473ffffffffffffffffffffffffffffffffffffffff168152600190910190602001808311613909575b505050505090506060600082511115613b3d57600460009054906101000a900473ffffffffffffffffffffffffffffffffffffffff1673ffffffffffffffffffffffffffffffffffffffff16639c91fcb588886001868a426040518763ffffffff1660e01b8152600401808773ffffffffffffffffffffffffffffffffffffffff168152602001868152602001858152602001806020018473ffffffffffffffffffffffffffffffffffffffff168152602001838152602001828103825285818151815260200191508051906020019060200280838360005b83811015613a25578181015183820152602001613a0d565b50505050905001975050505050505050600060405180830381600087803b158015613a4f57600080fd5b505af1158015613a63573d6000803e3d6000fd5b505050506040513d6000823e601f3d9081017fffffffffffffffffffffffffffffffffffffffffffffffffffffffffffffffe01682016040526020811015613aaa57600080fd5b8101908080516040519392919084640100000000821115613aca57600080fd5b908301906020820185811115613adf57600080fd5b8251866020820283011164010000000082111715613afc57600080fd5b82525081516020918201928201910280838360005b83811015613b29578181015183820152602001613b11565b505050509050016040525050509050613d05565b73ffffffffffffffffffffffffffffffffffffffff841615613c9e5760408051600180825281830190925290602080830190803683370190505091508382600081518110613b8757fe5b602002602001019073ffffffffffffffffffffffffffffffffffffffff16908173ffffffffffffffffffffffffffffffffffffffff1681525050600460009054906101000a900473ffffffffffffffffffffffffffffffffffffffff1673ffffffffffffffffffffffffffffffffffffffff16639c91fcb588886001868a426040518763ffffffff1660e01b8152600401808773ffffffffffffffffffffffffffffffffffffffff168152602001868152602001858152602001806020018473ffffffffffffffffffffffffffffffffffffffff1681526020018381526020018281038252858181518152602001915080519060200190602002808383600083811015613a25578181015183820152602001613a0d565b604080517f08c379a000000000000000000000000000000000000000000000000000000000815260206004820152601b60248201527f46697265426972645a61703a20217061746820546f6b656e424e420000000000604482015290519081900360640190fd5b80600182510381518110613d1557fe5b602002602001015192505050949350505050565b600080869050600260009054906101000a900473ffffffffffffffffffffffffffffffffffffffff1673ffffffffffffffffffffffffffffffffffffffff168773ffffffffffffffffffffffffffffffffffffffff16630dfe16816040518163ffffffff1660e01b815260040160206040518083038186803b158015613dae57600080fd5b505afa158015613dc2573d6000803e3d6000fd5b505050506040513d6020811015613dd857600080fd5b505173ffffffffffffffffffffffffffffffffffffffff161480613ea85750600254604080517fd21220a7000000000000000000000000000000000000000000000000000000008152905173ffffffffffffffffffffffffffffffffffffffff928316928a169163d21220a7916004808301926020929190829003018186803b158015613e6457600080fd5b505afa158015613e78573d6000803e3d6000fd5b505050506040513d6020811015613e8e57600080fd5b505173ffffffffffffffffffffffffffffffffffffffff16145b15614305576000600260009054906101000a900473ffffffffffffffffffffffffffffffffffffffff1673ffffffffffffffffffffffffffffffffffffffff168873ffffffffffffffffffffffffffffffffffffffff16630dfe16816040518163ffffffff1660e01b815260040160206040518083038186803b158015613f2e57600080fd5b505afa158015613f42573d6000803e3d6000fd5b505050506040513d6020811015613f5857600080fd5b505173ffffffffffffffffffffffffffffffffffffffff1614613fec578773ffffffffffffffffffffffffffffffffffffffff16630dfe16816040518163ffffffff1660e01b815260040160206040518083038186803b158015613fbb57600080fd5b505afa158015613fcf573d6000803e3d6000fd5b505050506040513d6020811015613fe557600080fd5b505161405f565b8773ffffffffffffffffffffffffffffffffffffffff1663d21220a76040518163ffffffff1660e01b815260040160206040518083038186803b15801561403257600080fd5b505afa158015614046573d6000803e3d6000fd5b505050506040513d602081101561405c57600080fd5b50515b9050600061410283600260009054906101000a900473ffffffffffffffffffffffffffffffffffffffff168a8c73ffffffffffffffffffffffffffffffffffffffff16630dfe16816040518163ffffffff1660e01b815260040160206040518083038186803b1580156140d157600080fd5b505afa1580156140e5573d6000803e3d6000fd5b505050506040513d60208110156140fb57600080fd5b5051612868565b9050600061411283833087614cd6565b90508681101561418357604080517f08c379a000000000000000000000000000000000000000000000000000000000815260206004820181905260248201527f5a61703a20496e73756666696369656e74205265636569766520416d6f756e74604482015290519081900360640190fd5b600061418f8a8461353b565b9050600260009054906101000a900473ffffffffffffffffffffffffffffffffffffffff1673ffffffffffffffffffffffffffffffffffffffff1663d0e30db0826040518263ffffffff1660e01b81526004016000604051808303818588803b1580156141fb57600080fd5b505af115801561420f573d6000803e3d6000fd5b50505050506142fa85600260009054906101000a900473ffffffffffffffffffffffffffffffffffffffff168684868e600560009054906101000a900473ffffffffffffffffffffffffffffffffffffffff1673ffffffffffffffffffffffffffffffffffffffff1663e5e31b138d6040518263ffffffff1660e01b8152600401808273ffffffffffffffffffffffffffffffffffffffff16815260200191505060206040518083038186803b1580156142c857600080fd5b505afa1580156142dc573d6000803e3d6000fd5b505050506040513d60208110156142f257600080fd5b50518e6135b2565b955050505050614597565b60008773ffffffffffffffffffffffffffffffffffffffff16630dfe16816040518163ffffffff1660e01b815260040160206040518083038186803b15801561434d57600080fd5b505afa158015614361573d6000803e3d6000fd5b505050506040513d602081101561437757600080fd5b5051604080517fd21220a7000000000000000000000000000000000000000000000000000000008152905191925060009173ffffffffffffffffffffffffffffffffffffffff8b169163d21220a7916004808301926020929190829003018186803b1580156143e557600080fd5b505afa1580156143f9573d6000803e3d6000fd5b505050506040513d602081101561440f57600080fd5b5051600554604080517fca22297900000000000000000000000000000000000000000000000000000000815273ffffffffffffffffffffffffffffffffffffffff8781166004830152915193945060009384938493169163ca222979916024808301926060929190829003018186803b15801561448b57600080fd5b505afa15801561449f573d6000803e3d6000fd5b505050506040513d60608110156144b557600080fd5b5051905060006144d36064612a9a8e63ffffffff80871690612b3b16565b90506144e28682306000614cd6565b93506144fa856144f28e8461353b565b306000614cd6565b9250505061459085858585858e600560009054906101000a900473ffffffffffffffffffffffffffffffffffffffff1673ffffffffffffffffffffffffffffffffffffffff1663e5e31b138d6040518263ffffffff1660e01b8152600401808273ffffffffffffffffffffffffffffffffffffffff16815260200191505060206040518083038186803b1580156142c857600080fd5b9550505050505b5095945050505050565b73ffffffffffffffffffffffffffffffffffffffff821673eeeeeeeeeeeeeeeeeeeeeeeeeeeeeeeeeeeeeeee1415614634576145dd8147614760565b6040805147815273ffffffffffffffffffffffffffffffffffffffff83811660208301528251908516927f56c54ba9bd38d8fd62012e42c7ee564519b09763c426d331b3661b537ead19b2928290030190a2610a58565b60008273ffffffffffffffffffffffffffffffffffffffff166370a08231306040518263ffffffff1660e01b8152600401808273ffffffffffffffffffffffffffffffffffffffff16815260200191505060206040518083038186803b15801561469d57600080fd5b505afa1580156146b1573d6000803e3d6000fd5b505050506040513d60208110156146c757600080fd5b505190506110ae73ffffffffffffffffffffffffffffffffffffffff84168383612aae565b600082820183811015612bae57604080517f08c379a000000000000000000000000000000000000000000000000000000000815260206004820152601b60248201527f536166654d6174683a206164646974696f6e206f766572666c6f770000000000604482015290519081900360640190fd5b6040805160008082526020820190925273ffffffffffffffffffffffffffffffffffffffff84169083906040518082805190602001908083835b602083106147d757805182527fffffffffffffffffffffffffffffffffffffffffffffffffffffffffffffffe0909201916020918201910161479a565b6001836020036101000a03801982511681845116808217855250505050505090500191505060006040518083038185875af1925050503d8060008114614839576040519150601f19603f3d011682016040523d82523d6000602084013e61483e565b606091505b5050905080611f76576040517f08c379a00000000000000000000000000000000000000000000000000000000081526004018080602001828103825260238152602001806155266023913960400191505060405180910390fd5b600060038211156148db575080600160028204015b818110156148d5578091506002818285816148c457fe5b0401816148cd57fe5b0490506148ad565b506148e5565b81156148e5575060015b919050565b600080821161495a57604080517f08c379a000000000000000000000000000000000000000000000000000000000815260206004820152601a60248201527f536166654d6174683a206469766973696f6e206279207a65726f000000000000604482015290519081900360640190fd5b81838161496357fe5b049392505050565b60606149cd826040518060400160405280602081526020017f5361666545524332303a206c6f772d6c6576656c2063616c6c206661696c65648152508573ffffffffffffffffffffffffffffffffffffffff166151859092919063ffffffff16565b805190915015611f76578080602001905160208110156149ec57600080fd5b5051611f76576040517f08c379a000000000000000000000000000000000000000000000000000000000815260040180806020018281038252602a815260200180615549602a913960400191505060405180910390fd5b801580614aef5750604080517fdd62ed3e00000000000000000000000000000000000000000000000000000000815230600482015273ffffffffffffffffffffffffffffffffffffffff848116602483015291519185169163dd62ed3e91604480820192602092909190829003018186803b158015614ac157600080fd5b505afa158015614ad5573d6000803e3d6000fd5b505050506040513d6020811015614aeb57600080fd5b5051155b614b44576040517f08c379a00000000000000000000000000000000000000000000000000000000081526004018080602001828103825260368152602001806155736036913960400191505060405180910390fd5b6040805173ffffffffffffffffffffffffffffffffffffffff8416602482015260448082018490528251808303909101815260649091019091526020810180517bffffffffffffffffffffffffffffffffffffffffffffffffffffffff167f095ea7b300000000000000000000000000000000000000000000000000000000179052611f7690849061496b565b80614bdb57611f76565b60025473ffffffffffffffffffffffffffffffffffffffff84811691161415614cb557600254604080517f2e1a7d4d00000000000000000000000000000000000000000000000000000000815260048101849052905173ffffffffffffffffffffffffffffffffffffffff90921691632e1a7d4d9160248082019260009290919082900301818387803b158015614c7157600080fd5b505af1158015614c85573d6000803e3d6000fd5b5050505073ffffffffffffffffffffffffffffffffffffffff82163014614cb057614cb08282614760565b611f76565b611f7673ffffffffffffffffffffffffffffffffffffffff84168383612aae565b60025460009073ffffffffffffffffffffffffffffffffffffffff86811691161415614dc157600260009054906101000a900473ffffffffffffffffffffffffffffffffffffffff1673ffffffffffffffffffffffffffffffffffffffff1663d0e30db0856040518263ffffffff1660e01b81526004016000604051808303818588803b158015614d6657600080fd5b505af1158015614d7a573d6000803e3d6000fd5b5050505073ffffffffffffffffffffffffffffffffffffffff84163014905061389a5760025461389a9073ffffffffffffffffffffffffffffffffffffffff168486612aae565b60025473ffffffffffffffffffffffffffffffffffffffff9081166000908152600760209081526040808320938916835292815290829020805483518184028101840190945280845260609392830182828015614e5457602002820191906000526020600020905b815473ffffffffffffffffffffffffffffffffffffffff168152600190910190602001808311614e29575b505050505090506060600082511115614fc357600460009054906101000a900473ffffffffffffffffffffffffffffffffffffffff1673ffffffffffffffffffffffffffffffffffffffff1663fde1adda87896001868a426040518763ffffffff1660e01b8152600401808673ffffffffffffffffffffffffffffffffffffffff168152602001858152602001806020018473ffffffffffffffffffffffffffffffffffffffff168152602001838152602001828103825285818151815260200191508051906020019060200280838360005b83811015614f3f578181015183820152602001614f27565b5050505090500196505050505050506000604051808303818588803b158015614f6757600080fd5b505af1158015614f7b573d6000803e3d6000fd5b50505050506040513d6000823e601f3d9081017fffffffffffffffffffffffffffffffffffffffffffffffffffffffffffffffe01682016040526020811015613aaa57600080fd5b73ffffffffffffffffffffffffffffffffffffffff84161561511e576040805160018082528183019092529060208083019080368337019050509150838260008151811061500d57fe5b602002602001019073ffffffffffffffffffffffffffffffffffffffff16908173ffffffffffffffffffffffffffffffffffffffff1681525050600460009054906101000a900473ffffffffffffffffffffffffffffffffffffffff1673ffffffffffffffffffffffffffffffffffffffff1663fde1adda87896001868a426040518763ffffffff1660e01b8152600401808673ffffffffffffffffffffffffffffffffffffffff168152602001858152602001806020018473ffffffffffffffffffffffffffffffffffffffff1681526020018381526020018281038252858181518152602001915080519060200190602002808383600083811015614f3f578181015183820152602001614f27565b604080517f08c379a000000000000000000000000000000000000000000000000000000000815260206004820152601b60248201527f46697265426972645a61703a20217061746820424e42546f6b656e0000000000604482015290519081900360640190fd5b6060615194848460008561519e565b90505b9392505050565b6060824710156151f9576040517f08c379a00000000000000000000000000000000000000000000000000000000081526004018080602001828103825260268152602001806154df6026913960400191505060405180910390fd5b61520285615359565b61526d57604080517f08c379a000000000000000000000000000000000000000000000000000000000815260206004820152601d60248201527f416464726573733a2063616c6c20746f206e6f6e2d636f6e7472616374000000604482015290519081900360640190fd5b600060608673ffffffffffffffffffffffffffffffffffffffff1685876040518082805190602001908083835b602083106152d757805182527fffffffffffffffffffffffffffffffffffffffffffffffffffffffffffffffe0909201916020918201910161529a565b6001836020036101000a03801982511681845116808217855250505050505090500191505060006040518083038185875af1925050503d8060008114615339576040519150601f19603f3d011682016040523d82523d6000602084013e61533e565b606091505b509150915061534e82828661535f565b979650505050505050565b3b151590565b6060831561536e575081615197565b82511561537e5782518084602001fd5b816040517f08c379a00000000000000000000000000000000000000000000000000000000081526004018080602001828103825283818151815260200191508051906020019080838360005b838110156153e25781810151838201526020016153ca565b50505050905090810190601f16801561540f5780820380516001836020036101000a031916815260200191505b509250505060405180910390fd5b828054828255906000526020600020908101928215615497579160200282015b8281111561549757825182547fffffffffffffffffffffffff00000000000000000000000000000000000000001673ffffffffffffffffffffffffffffffffffffffff90911617825560209092019160019091019061543d565b506154a39291506154a7565b5090565b5b808211156154a35780547fffffffffffffffffffffffff00000000000000000000000000000000000000001681556001016154a856fe416464726573733a20696e73756666696369656e742062616c616e636520666f722063616c6c536166654d6174683a206d756c7469706c69636174696f6e206f766572666c6f775472616e7366657248656c7065723a204554485f5452414e534645525f4641494c45445361666545524332303a204552433230206f7065726174696f6e20646964206e6f7420737563636565645361666545524332303a20617070726f76652066726f6d206e6f6e2d7a65726f20746f206e6f6e2d7a65726f20616c6c6f77616e6365a2646970667358221220ac8fd5bee11474e949b368a603f9bf5dd1e44d283033399c8d11dcda7848679d64736f6c634300060c0033",
  "devdoc": {
    "kind": "dev",
    "methods": {},
    "version": 1
  },
  "userdoc": {
    "kind": "user",
    "methods": {},
    "version": 1
  },
  "storageLayout": {
    "storage": [
      {
        "astId": 1739,
        "contract": "contracts/FireBirdZap.sol:FireBirdZap",
        "label": "_status",
        "offset": 0,
        "slot": "0",
        "type": "t_uint256"
      },
      {
        "astId": 1790,
        "contract": "contracts/FireBirdZap.sol:FireBirdZap",
        "label": "governance",
        "offset": 0,
        "slot": "1",
        "type": "t_address"
      },
      {
        "astId": 1792,
        "contract": "contracts/FireBirdZap.sol:FireBirdZap",
        "label": "WBNB",
        "offset": 0,
        "slot": "2",
        "type": "t_address"
      },
      {
        "astId": 1800,
        "contract": "contracts/FireBirdZap.sol:FireBirdZap",
        "label": "uniRouter",
        "offset": 0,
        "slot": "3",
        "type": "t_contract(IUniswapV2Router)6236"
      },
      {
        "astId": 1802,
        "contract": "contracts/FireBirdZap.sol:FireBirdZap",
        "label": "fireBirdRouter",
        "offset": 0,
        "slot": "4",
        "type": "t_contract(IFireBirdRouter)5519"
      },
      {
        "astId": 1804,
        "contract": "contracts/FireBirdZap.sol:FireBirdZap",
        "label": "fireBirdFactory",
        "offset": 0,
        "slot": "5",
        "type": "t_contract(IFireBirdFactory)4590"
      },
      {
        "astId": 1806,
        "contract": "contracts/FireBirdZap.sol:FireBirdZap",
        "label": "fireBirdFormula",
        "offset": 0,
        "slot": "6",
        "type": "t_contract(IFireBirdFormula)4831"
      },
      {
        "astId": 1813,
        "contract": "contracts/FireBirdZap.sol:FireBirdZap",
        "label": "fireBirdPairs",
        "offset": 0,
        "slot": "7",
        "type": "t_mapping(t_address,t_mapping(t_address,t_array(t_address)dyn_storage))"
      },
      {
        "astId": 1816,
        "contract": "contracts/FireBirdZap.sol:FireBirdZap",
        "label": "maxResidual",
        "offset": 0,
        "slot": "8",
        "type": "t_uint256"
      },
      {
        "astId": 1819,
        "contract": "contracts/FireBirdZap.sol:FireBirdZap",
        "label": "tokensResidual",
        "offset": 0,
        "slot": "9",
        "type": "t_array(t_address)dyn_storage"
      }
    ],
    "types": {
      "t_address": {
        "encoding": "inplace",
        "label": "address",
        "numberOfBytes": "20"
      },
      "t_array(t_address)dyn_storage": {
        "base": "t_address",
        "encoding": "dynamic_array",
        "label": "address[]",
        "numberOfBytes": "32"
      },
      "t_contract(IFireBirdFactory)4590": {
        "encoding": "inplace",
        "label": "contract IFireBirdFactory",
        "numberOfBytes": "20"
      },
      "t_contract(IFireBirdFormula)4831": {
        "encoding": "inplace",
        "label": "contract IFireBirdFormula",
        "numberOfBytes": "20"
      },
      "t_contract(IFireBirdRouter)5519": {
        "encoding": "inplace",
        "label": "contract IFireBirdRouter",
        "numberOfBytes": "20"
      },
      "t_contract(IUniswapV2Router)6236": {
        "encoding": "inplace",
        "label": "contract IUniswapV2Router",
        "numberOfBytes": "20"
      },
      "t_mapping(t_address,t_array(t_address)dyn_storage)": {
        "encoding": "mapping",
        "key": "t_address",
        "label": "mapping(address => address[])",
        "numberOfBytes": "32",
        "value": "t_array(t_address)dyn_storage"
      },
      "t_mapping(t_address,t_mapping(t_address,t_array(t_address)dyn_storage))": {
        "encoding": "mapping",
        "key": "t_address",
        "label": "mapping(address => mapping(address => address[]))",
        "numberOfBytes": "32",
        "value": "t_mapping(t_address,t_array(t_address)dyn_storage)"
      },
      "t_uint256": {
        "encoding": "inplace",
        "label": "uint256",
        "numberOfBytes": "32"
      }
    }
  }
}