{
  "address": "0xE13910c475edFC99e66236772eE29B4dFD128e87",
  "abi": [
    {
      "anonymous": false,
      "inputs": [
        {
          "indexed": true,
          "internalType": "address",
          "name": "governance",
          "type": "address"
        }
      ],
      "name": "ChangeGovernance",
      "type": "event"
    },
    {
      "anonymous": false,
      "inputs": [
        {
          "indexed": true,
          "internalType": "address",
          "name": "farm",
          "type": "address"
        },
        {
          "indexed": true,
          "internalType": "address",
          "name": "stakeToken",
          "type": "address"
        },
        {
          "indexed": false,
          "internalType": "uint256",
          "name": "version",
          "type": "uint256"
        },
        {
          "indexed": false,
          "internalType": "address",
          "name": "timelock",
          "type": "address"
        },
        {
          "indexed": false,
          "internalType": "address",
          "name": "stakePoolRewardFund",
          "type": "address"
        },
        {
          "indexed": false,
          "internalType": "uint256",
          "name": "totalStakePool",
          "type": "uint256"
        }
      ],
      "name": "MasterCreated",
      "type": "event"
    },
    {
      "anonymous": false,
      "inputs": [
        {
          "indexed": true,
          "internalType": "uint256",
          "name": "amount",
          "type": "uint256"
        }
      ],
      "name": "SetExtraFeeRate",
      "type": "event"
    },
    {
      "anonymous": false,
      "inputs": [
        {
          "indexed": true,
          "internalType": "uint256",
          "name": "amount",
          "type": "uint256"
        }
      ],
      "name": "SetFeeAmount",
      "type": "event"
    },
    {
      "anonymous": false,
      "inputs": [
        {
          "indexed": true,
          "internalType": "address",
          "name": "feeCollector",
          "type": "address"
        }
      ],
      "name": "SetFeeCollector",
      "type": "event"
    },
    {
      "anonymous": false,
      "inputs": [
        {
          "indexed": true,
          "internalType": "address",
          "name": "token",
          "type": "address"
        }
      ],
      "name": "SetFeeToken",
      "type": "event"
    },
    {
      "anonymous": false,
      "inputs": [
        {
          "indexed": true,
          "internalType": "address",
          "name": "contractAddress",
          "type": "address"
        },
        {
          "indexed": false,
          "internalType": "uint256",
          "name": "verion",
          "type": "uint256"
        }
      ],
      "name": "SetStakePoolCreator",
      "type": "event"
    },
    {
      "anonymous": false,
      "inputs": [
        {
          "indexed": true,
          "internalType": "address",
          "name": "contractAddress",
          "type": "address"
        },
        {
          "indexed": false,
          "internalType": "bool",
          "name": "value",
          "type": "bool"
        }
      ],
      "name": "SetStakePoolVerifier",
      "type": "event"
    },
    {
      "anonymous": false,
      "inputs": [
        {
          "indexed": true,
          "internalType": "address",
          "name": "contractAddress",
          "type": "address"
        },
        {
          "indexed": false,
          "internalType": "bool",
          "name": "value",
          "type": "bool"
        }
      ],
      "name": "SetWhitelistRewardMultiplier",
      "type": "event"
    },
    {
      "anonymous": false,
      "inputs": [
        {
          "indexed": true,
          "internalType": "address",
          "name": "contractAddress",
          "type": "address"
        },
        {
          "indexed": false,
          "internalType": "bool",
          "name": "value",
          "type": "bool"
        }
      ],
      "name": "SetWhitelistRewardRebaser",
      "type": "event"
    },
    {
      "anonymous": false,
      "inputs": [
        {
          "indexed": true,
          "internalType": "address",
          "name": "contractAddress",
          "type": "address"
        },
        {
          "indexed": false,
          "internalType": "int8",
          "name": "value",
          "type": "int8"
        }
      ],
      "name": "SetWhitelistStakePool",
      "type": "event"
    },
    {
      "anonymous": false,
      "inputs": [
        {
          "indexed": true,
          "internalType": "address",
          "name": "contractAddress",
          "type": "address"
        },
        {
          "indexed": false,
          "internalType": "bool",
          "name": "value",
          "type": "bool"
        }
      ],
      "name": "SetWhitelistStakingFor",
      "type": "event"
    },
    {
      "inputs": [
        {
          "internalType": "address",
          "name": "",
          "type": "address"
        }
      ],
      "name": "_stakePoolVerifiers",
      "outputs": [
        {
          "internalType": "bool",
          "name": "",
          "type": "bool"
        }
      ],
      "stateMutability": "view",
      "type": "function"
    },
    {
      "inputs": [
        {
          "internalType": "address",
          "name": "_address",
          "type": "address"
        }
      ],
      "name": "addStakePoolCreator",
      "outputs": [],
      "stateMutability": "nonpayable",
      "type": "function"
    },
    {
      "inputs": [
        {
          "internalType": "uint256",
          "name": "",
          "type": "uint256"
        }
      ],
      "name": "allStakePools",
      "outputs": [
        {
          "internalType": "address",
          "name": "",
          "type": "address"
        }
      ],
      "stateMutability": "view",
      "type": "function"
    },
    {
      "inputs": [],
      "name": "allStakePoolsLength",
      "outputs": [
        {
          "internalType": "uint256",
          "name": "",
          "type": "uint256"
        }
      ],
      "stateMutability": "view",
      "type": "function"
    },
    {
      "inputs": [
        {
          "internalType": "address",
          "name": "",
          "type": "address"
        }
      ],
      "name": "allowEmergencyWithdrawStakePools",
      "outputs": [
        {
          "internalType": "bool",
          "name": "",
          "type": "bool"
        }
      ],
      "stateMutability": "view",
      "type": "function"
    },
    {
      "inputs": [
        {
          "internalType": "uint256",
          "name": "version",
          "type": "uint256"
        },
        {
          "internalType": "address",
          "name": "stakeToken",
          "type": "address"
        },
        {
          "internalType": "address",
          "name": "rewardToken",
          "type": "address"
        },
        {
          "internalType": "uint256",
          "name": "rewardFundAmount",
          "type": "uint256"
        },
        {
          "internalType": "uint256",
          "name": "delayTimeLock",
          "type": "uint256"
        },
        {
          "internalType": "bytes",
          "name": "data",
          "type": "bytes"
        }
      ],
      "name": "create",
      "outputs": [
        {
          "internalType": "address",
          "name": "",
          "type": "address"
        }
      ],
      "stateMutability": "nonpayable",
      "type": "function"
    },
    {
      "inputs": [],
      "name": "enableWhitelistRewardMultiplier",
      "outputs": [
        {
          "internalType": "bool",
          "name": "",
          "type": "bool"
        }
      ],
      "stateMutability": "view",
      "type": "function"
    },
    {
      "inputs": [],
      "name": "enableWhitelistRewardRebaser",
      "outputs": [
        {
          "internalType": "bool",
          "name": "",
          "type": "bool"
        }
      ],
      "stateMutability": "view",
      "type": "function"
    },
    {
      "inputs": [],
      "name": "extraFeeRate",
      "outputs": [
        {
          "internalType": "uint256",
          "name": "",
          "type": "uint256"
        }
      ],
      "stateMutability": "view",
      "type": "function"
    },
    {
      "inputs": [],
      "name": "feeAmount",
      "outputs": [
        {
          "internalType": "uint256",
          "name": "",
          "type": "uint256"
        }
      ],
      "stateMutability": "view",
      "type": "function"
    },
    {
      "inputs": [],
      "name": "feeCollector",
      "outputs": [
        {
          "internalType": "address",
          "name": "",
          "type": "address"
        }
      ],
      "stateMutability": "view",
      "type": "function"
    },
    {
      "inputs": [],
      "name": "feeToken",
      "outputs": [
        {
          "internalType": "address",
          "name": "",
          "type": "address"
        }
      ],
      "stateMutability": "view",
      "type": "function"
    },
    {
      "inputs": [
        {
          "internalType": "address",
          "name": "token",
          "type": "address"
        }
      ],
      "name": "getCreationFee",
      "outputs": [
        {
          "internalType": "uint256",
          "name": "",
          "type": "uint256"
        }
      ],
      "stateMutability": "view",
      "type": "function"
    },
    {
      "inputs": [],
      "name": "governance",
      "outputs": [
        {
          "internalType": "address",
          "name": "",
          "type": "address"
        }
      ],
      "stateMutability": "view",
      "type": "function"
    },
    {
      "inputs": [
        {
          "internalType": "address",
          "name": "_swapFactory",
          "type": "address"
        }
      ],
      "name": "initialize",
      "outputs": [],
      "stateMutability": "nonpayable",
      "type": "function"
    },
    {
      "inputs": [
        {
          "internalType": "address",
          "name": "_address",
          "type": "address"
        }
      ],
      "name": "isAllowEmergencyWithdrawStakePool",
      "outputs": [
        {
          "internalType": "bool",
          "name": "",
          "type": "bool"
        }
      ],
      "stateMutability": "view",
      "type": "function"
    },
    {
      "inputs": [
        {
          "internalType": "address",
          "name": "b",
          "type": "address"
        }
      ],
      "name": "isStakePool",
      "outputs": [
        {
          "internalType": "bool",
          "name": "",
          "type": "bool"
        }
      ],
      "stateMutability": "view",
      "type": "function"
    },
    {
      "inputs": [
        {
          "internalType": "address",
          "name": "_address",
          "type": "address"
        }
      ],
      "name": "isStakePoolVerifier",
      "outputs": [
        {
          "internalType": "bool",
          "name": "",
          "type": "bool"
        }
      ],
      "stateMutability": "view",
      "type": "function"
    },
    {
      "inputs": [
        {
          "internalType": "address",
          "name": "_address",
          "type": "address"
        }
      ],
      "name": "isWhitelistRewardMultiplier",
      "outputs": [
        {
          "internalType": "bool",
          "name": "",
          "type": "bool"
        }
      ],
      "stateMutability": "view",
      "type": "function"
    },
    {
      "inputs": [
        {
          "internalType": "address",
          "name": "_address",
          "type": "address"
        }
      ],
      "name": "isWhitelistRewardRebaser",
      "outputs": [
        {
          "internalType": "bool",
          "name": "",
          "type": "bool"
        }
      ],
      "stateMutability": "view",
      "type": "function"
    },
    {
      "inputs": [
        {
          "internalType": "address",
          "name": "_address",
          "type": "address"
        }
      ],
      "name": "isWhitelistStakePool",
      "outputs": [
        {
          "internalType": "int8",
          "name": "",
          "type": "int8"
        }
      ],
      "stateMutability": "view",
      "type": "function"
    },
    {
      "inputs": [
        {
          "internalType": "address",
          "name": "_address",
          "type": "address"
        }
      ],
      "name": "isWhitelistStakingFor",
      "outputs": [
        {
          "internalType": "bool",
          "name": "",
          "type": "bool"
        }
      ],
      "stateMutability": "view",
      "type": "function"
    },
    {
      "inputs": [
        {
          "internalType": "address",
          "name": "_address",
          "type": "address"
        },
        {
          "internalType": "bool",
          "name": "state",
          "type": "bool"
        }
      ],
      "name": "setAllowEmergencyWithdrawStakePool",
      "outputs": [],
      "stateMutability": "nonpayable",
      "type": "function"
    },
    {
      "inputs": [
        {
          "internalType": "bool",
          "name": "value",
          "type": "bool"
        }
      ],
      "name": "setEnableWhitelistRewardMultiplier",
      "outputs": [],
      "stateMutability": "nonpayable",
      "type": "function"
    },
    {
      "inputs": [
        {
          "internalType": "bool",
          "name": "value",
          "type": "bool"
        }
      ],
      "name": "setEnableWhitelistRewardRebaser",
      "outputs": [],
      "stateMutability": "nonpayable",
      "type": "function"
    },
    {
      "inputs": [
        {
          "internalType": "uint256",
          "name": "_extraFeeRate",
          "type": "uint256"
        }
      ],
      "name": "setExtraFeeRate",
      "outputs": [],
      "stateMutability": "nonpayable",
      "type": "function"
    },
    {
      "inputs": [
        {
          "internalType": "uint256",
          "name": "_feeAmount",
          "type": "uint256"
        }
      ],
      "name": "setFeeAmount",
      "outputs": [],
      "stateMutability": "nonpayable",
      "type": "function"
    },
    {
      "inputs": [
        {
          "internalType": "address",
          "name": "_address",
          "type": "address"
        }
      ],
      "name": "setFeeCollector",
      "outputs": [],
      "stateMutability": "nonpayable",
      "type": "function"
    },
    {
      "inputs": [
        {
          "internalType": "address",
          "name": "_token",
          "type": "address"
        }
      ],
      "name": "setFeeToken",
      "outputs": [],
      "stateMutability": "nonpayable",
      "type": "function"
    },
    {
      "inputs": [
        {
          "internalType": "address",
          "name": "_governance",
          "type": "address"
        }
      ],
      "name": "setGovernance",
      "outputs": [],
      "stateMutability": "nonpayable",
      "type": "function"
    },
    {
      "inputs": [
        {
          "internalType": "address",
          "name": "_address",
          "type": "address"
        },
        {
          "internalType": "bool",
          "name": "state",
          "type": "bool"
        }
      ],
      "name": "setStakePoolVerifier",
      "outputs": [],
      "stateMutability": "nonpayable",
      "type": "function"
    },
    {
      "inputs": [
        {
          "internalType": "address",
          "name": "_address",
          "type": "address"
        },
        {
          "internalType": "bool",
          "name": "state",
          "type": "bool"
        }
      ],
      "name": "setWhitelistRewardMultiplier",
      "outputs": [],
      "stateMutability": "nonpayable",
      "type": "function"
    },
    {
      "inputs": [
        {
          "internalType": "address",
          "name": "_address",
          "type": "address"
        },
        {
          "internalType": "bool",
          "name": "state",
          "type": "bool"
        }
      ],
      "name": "setWhitelistRewardRebaser",
      "outputs": [],
      "stateMutability": "nonpayable",
      "type": "function"
    },
    {
      "inputs": [
        {
          "internalType": "address",
          "name": "_address",
          "type": "address"
        },
        {
          "internalType": "int8",
          "name": "state",
          "type": "int8"
        }
      ],
      "name": "setWhitelistStakePool",
      "outputs": [],
      "stateMutability": "nonpayable",
      "type": "function"
    },
    {
      "inputs": [
        {
          "internalType": "address",
          "name": "_address",
          "type": "address"
        },
        {
          "internalType": "bool",
          "name": "state",
          "type": "bool"
        }
      ],
      "name": "setWhitelistStakingFor",
      "outputs": [],
      "stateMutability": "nonpayable",
      "type": "function"
    },
    {
      "inputs": [
        {
          "internalType": "uint256",
          "name": "",
          "type": "uint256"
        }
      ],
      "name": "stakePoolCreators",
      "outputs": [
        {
          "internalType": "address",
          "name": "",
          "type": "address"
        }
      ],
      "stateMutability": "view",
      "type": "function"
    },
    {
      "inputs": [],
      "name": "swapFactory",
      "outputs": [
        {
          "internalType": "contract IIsPair",
          "name": "",
          "type": "address"
        }
      ],
      "stateMutability": "view",
      "type": "function"
    }
  ],
  "transactionHash": "0xb7fa9df0726ec4d5b8c1c63f57093008f0414c58da29dc1916e83cf53c792ec6",
  "args": [],
  "solcInputHash": "d4e9bb2b88bc76f692f0666ab2cb4e6c",
  "bytecode": "0x6080604052600d805462ff00001961ff001960ff19909216600117919091166101001716905534801561003157600080fd5b50614d21806100416000396000f3fe608060405234801561001057600080fd5b50600436106102775760003560e01c80639c97e6a311610160578063c0f72e64116100d8578063dbabcf9a1161008c578063ea74109e11610071578063ea74109e146104de578063f7a44111146104f1578063fd1c2fcf1461050457610277565b8063dbabcf9a146104c3578063e7e2686e146104cb57610277565b8063c4d66de8116100bd578063c4d66de81461048a578063c897776f1461049d578063d671b459146104b057610277565b8063c0f72e641461046f578063c415b95c1461048257610277565b8063a5120bd51161012f578063ae3a60d411610114578063ae3a60d414610436578063af33341914610449578063bd5b622a1461045c57610277565b8063a5120bd514610410578063ab033ea91461042357610277565b80639c97e6a3146103b75780639ca9dd51146103ca578063a3f0f60f146103dd578063a42dce80146103fd57610277565b8063393a7484116101f357806369e15404116101c25780637944f944116101a75780637944f944146103945780637a77c6f21461039c57806393a440eb146103af57610277565b806369e15404146103795780636b3926801461038157610277565b8063393a7484146103435780635aa6e675146103565780635c6e2cb71461035e578063647846a51461037157610277565b8063229436121161024a57806326de22991161022f57806326de2299146103085780632bdef6bf146103285780632f0d5c061461033057610277565b806322943612146102e257806325a72109146102f557610277565b80631047a8571461027c57806314f62ea9146102a557806315cce224146102ba5780631e067279146102cf575b600080fd5b61028f61028a366004611f4c565b610517565b60405161029c919061220a565b60405180910390f35b6102ad610546565b60405161029c9190612575565b6102cd6102c8366004611f4c565b61054c565b005b6102cd6102dd366004611f8b565b610662565b6102cd6102f0366004611f4c565b610756565b6102cd610303366004611f8b565b610940565b61031b61031636600461202c565b610a5d565b60405161029c919061210c565b6102ad610a94565b6102cd61033e366004611f8b565b610a9a565b61028f610351366004611f4c565b610bb7565b61031b610be2565b61031b61036c36600461205c565b610bfe565b61031b610e1c565b6102ad610e38565b6102cd61038f36600461202c565b610e3e565b61031b610ec2565b6102cd6103aa366004611ff4565b610ede565b61028f610f60565b6102cd6103c5366004611fc3565b610f69565b6102cd6103d8366004611ff4565b61108c565b6103f06103eb366004611f4c565b611114565b60405161029c9190612215565b6102cd61040b366004611f4c565b61113e565b61028f61041e366004611f4c565b61124b565b6102cd610431366004611f4c565b6112b8565b61028f610444366004611f4c565b6113c5565b6102cd610457366004611f8b565b6113da565b61028f61046a366004611f4c565b6114f7565b61028f61047d366004611f4c565b611556565b61031b611581565b6102cd610498366004611f4c565b61159d565b61031b6104ab36600461202c565b611663565b6102cd6104be36600461202c565b61168b565b61028f611759565b6102ad6104d9366004611f4c565b611767565b61028f6104ec366004611f4c565b611834565b61028f6104ff366004611f4c565b61185f565b6102cd610512366004611f8b565b611874565b73ffffffffffffffffffffffffffffffffffffffff811660009081526005602052604090205460ff165b919050565b600c5490565b60015473ffffffffffffffffffffffffffffffffffffffff1633146105a6576040517f08c379a000000000000000000000000000000000000000000000000000000000815260040161059d9061233a565b60405180910390fd5b73ffffffffffffffffffffffffffffffffffffffff81166105f3576040517f08c379a000000000000000000000000000000000000000000000000000000000815260040161059d90612429565b600380547fffffffffffffffffffffffff00000000000000000000000000000000000000001673ffffffffffffffffffffffffffffffffffffffff83169081179091556040517f0842bcbb92ca6d47ae89816778a843992dff9b876fad009865e1c5df73d46d1f90600090a250565b60015473ffffffffffffffffffffffffffffffffffffffff1633146106b3576040517f08c379a000000000000000000000000000000000000000000000000000000000815260040161059d9061233a565b73ffffffffffffffffffffffffffffffffffffffff8216610700576040517f08c379a000000000000000000000000000000000000000000000000000000000815260040161059d906122dd565b73ffffffffffffffffffffffffffffffffffffffff919091166000908152600e6020526040902080547fffffffffffffffffffffffffffffffffffffffffffffffffffffffffffffff0016911515919091179055565b60015473ffffffffffffffffffffffffffffffffffffffff1633146107a7576040517f08c379a000000000000000000000000000000000000000000000000000000000815260040161059d9061233a565b73ffffffffffffffffffffffffffffffffffffffff81166107f4576040517f08c379a000000000000000000000000000000000000000000000000000000000815260040161059d906122dd565b60008173ffffffffffffffffffffffffffffffffffffffff166354fd4d506040518163ffffffff1660e01b8152600401602060405180830381600087803b15801561083e57600080fd5b505af1158015610852573d6000803e3d6000fd5b505050506040513d601f19601f820116820180604052508101906108769190612044565b90506103e88110156108b4576040517f08c379a000000000000000000000000000000000000000000000000000000000815260040161059d90612223565b6000818152600b60205260409081902080547fffffffffffffffffffffffff00000000000000000000000000000000000000001673ffffffffffffffffffffffffffffffffffffffff851690811790915590517f6a6096f5ac532df663ae3f06ab81f92e13e1963316c9e53ada5caa47c39ca73f90610934908490612575565b60405180910390a25050565b60015473ffffffffffffffffffffffffffffffffffffffff163314610991576040517f08c379a000000000000000000000000000000000000000000000000000000000815260040161059d9061233a565b73ffffffffffffffffffffffffffffffffffffffff82166109de576040517f08c379a000000000000000000000000000000000000000000000000000000000815260040161059d906122dd565b73ffffffffffffffffffffffffffffffffffffffff82166000818152600a60205260409081902080547fffffffffffffffffffffffffffffffffffffffffffffffffffffffffffffff0016841515179055517f77c59d7fc4aa81269ea7c0f6866e520725269f9b20b66f81acfd1305a203163c9061093490849061220a565b600c8181548110610a6d57600080fd5b60009182526020909120015473ffffffffffffffffffffffffffffffffffffffff16905081565b600f5481565b60015473ffffffffffffffffffffffffffffffffffffffff163314610aeb576040517f08c379a000000000000000000000000000000000000000000000000000000000815260040161059d9061233a565b73ffffffffffffffffffffffffffffffffffffffff8216610b38576040517f08c379a000000000000000000000000000000000000000000000000000000000815260040161059d906122dd565b73ffffffffffffffffffffffffffffffffffffffff82166000818152600660205260409081902080547fffffffffffffffffffffffffffffffffffffffffffffffffffffffffffffff0016841515179055517f3b916f9f58a666ff1fee02f431340754e5bb74df23e21fc542ca42cbd06219279061093490849061220a565b73ffffffffffffffffffffffffffffffffffffffff1660009081526006602052604090205460ff1690565b60015473ffffffffffffffffffffffffffffffffffffffff1681565b6000878152600b602052604081205473ffffffffffffffffffffffffffffffffffffffff1680610c5a576040517f08c379a000000000000000000000000000000000000000000000000000000000815260040161059d906123cc565b6000610c6589611767565b60025490915073ffffffffffffffffffffffffffffffffffffffff1615801590610ca6575060035473ffffffffffffffffffffffffffffffffffffffff1615155b8015610cb25750600081115b15610ce357600354600254610ce39173ffffffffffffffffffffffffffffffffffffffff9081169133911684611991565b6000604051610cf190611f32565b604051809103906000f080158015610d0d573d6000803e3d6000fd5b5090508715610dfe576040517f70a08231000000000000000000000000000000000000000000000000000000008152889073ffffffffffffffffffffffffffffffffffffffff8b16906370a0823190610d6a90339060040161210c565b60206040518083038186803b158015610d8257600080fd5b505afa158015610d96573d6000803e3d6000fd5b505050506040513d601f19601f82011682018060405250810190610dba9190612044565b1015610df2576040517f08c379a000000000000000000000000000000000000000000000000000000000815260040161059d90612486565b610dfe8933838b611991565b610e0d838b838c8b8b8b611b60565b9b9a5050505050505050505050565b60035473ffffffffffffffffffffffffffffffffffffffff1681565b60045481565b60015473ffffffffffffffffffffffffffffffffffffffff163314610e8f576040517f08c379a000000000000000000000000000000000000000000000000000000000815260040161059d9061233a565b600481905560405181907fd854f702b4e23ab27557a75b5b4e72066f8ab6929930f813720339c72eaa8b6390600090a250565b60005473ffffffffffffffffffffffffffffffffffffffff1681565b60015473ffffffffffffffffffffffffffffffffffffffff163314610f2f576040517f08c379a000000000000000000000000000000000000000000000000000000000815260040161059d9061233a565b600d80547fffffffffffffffffffffffffffffffffffffffffffffffffffffffffffffff0016911515919091179055565b600d5460ff1681565b73ffffffffffffffffffffffffffffffffffffffff8216610fb6576040517f08c379a000000000000000000000000000000000000000000000000000000000815260040161059d906122dd565b336000908152600a602052604090205460ff161515600114611004576040517f08c379a000000000000000000000000000000000000000000000000000000000815260040161059d90612280565b73ffffffffffffffffffffffffffffffffffffffff821660008181526009602052604080822080549285900b60ff167fffffffffffffffffffffffffffffffffffffffffffffffffffffffffffffff0090931692909217909155517ff612269986bc6d299c312815bdab8f8f9f01ba9047885463a0fe56f5a4d01f4190610934908490612215565b60015473ffffffffffffffffffffffffffffffffffffffff1633146110dd576040517f08c379a000000000000000000000000000000000000000000000000000000000815260040161059d9061233a565b600d8054911515610100027fffffffffffffffffffffffffffffffffffffffffffffffffffffffffffff00ff909216919091179055565b73ffffffffffffffffffffffffffffffffffffffff16600090815260096020526040812054900b90565b60015473ffffffffffffffffffffffffffffffffffffffff16331461118f576040517f08c379a000000000000000000000000000000000000000000000000000000000815260040161059d9061233a565b73ffffffffffffffffffffffffffffffffffffffff81166111dc576040517f08c379a000000000000000000000000000000000000000000000000000000000815260040161059d906122dd565b600280547fffffffffffffffffffffffff00000000000000000000000000000000000000001673ffffffffffffffffffffffffffffffffffffffff83169081179091556040517fd649da8f6092116f86ea4e5139de0b75ad371d823918d16368ba3ff09a5cbc9f90600090a250565b600d54600090610100900460ff1661126557506001610541565b73ffffffffffffffffffffffffffffffffffffffff8216156112af5773ffffffffffffffffffffffffffffffffffffffff821660009081526008602052604090205460ff166112b2565b60015b92915050565b60015473ffffffffffffffffffffffffffffffffffffffff163314611309576040517f08c379a000000000000000000000000000000000000000000000000000000000815260040161059d9061233a565b73ffffffffffffffffffffffffffffffffffffffff8116611356576040517f08c379a000000000000000000000000000000000000000000000000000000000815260040161059d9061236f565b600180547fffffffffffffffffffffffff00000000000000000000000000000000000000001673ffffffffffffffffffffffffffffffffffffffff83169081179091556040517f13079bd259b6c430f434e223f09ff073409b818146629085e53378cf536d3ce890600090a250565b600a6020526000908152604090205460ff1681565b60015473ffffffffffffffffffffffffffffffffffffffff16331461142b576040517f08c379a000000000000000000000000000000000000000000000000000000000815260040161059d9061233a565b73ffffffffffffffffffffffffffffffffffffffff8216611478576040517f08c379a000000000000000000000000000000000000000000000000000000000815260040161059d906122dd565b73ffffffffffffffffffffffffffffffffffffffff82166000818152600760205260409081902080547fffffffffffffffffffffffffffffffffffffffffffffffffffffffffffffff0016841515179055517f5edfdd2e2097af35bace0d40492d5f9f03cf3bd715261fde4ee191e9207d72e29061093490849061220a565b600d5460009060ff1661150c57506001610541565b73ffffffffffffffffffffffffffffffffffffffff8216156112af5773ffffffffffffffffffffffffffffffffffffffff821660009081526007602052604090205460ff166112b2565b73ffffffffffffffffffffffffffffffffffffffff166000908152600a602052604090205460ff1690565b60025473ffffffffffffffffffffffffffffffffffffffff1681565b600d5462010000900460ff16156115e0576040517f08c379a000000000000000000000000000000000000000000000000000000000815260040161059d90612540565b600180547fffffffffffffffffffffffff000000000000000000000000000000000000000090811633179091556000805473ffffffffffffffffffffffffffffffffffffffff9390931692909116919091179055600d80547fffffffffffffffffffffffffffffffffffffffffffffffffffffffffff00ffff1662010000179055565b600b6020526000908152604090205473ffffffffffffffffffffffffffffffffffffffff1681565b60015473ffffffffffffffffffffffffffffffffffffffff1633146116dc576040517f08c379a000000000000000000000000000000000000000000000000000000000815260040161059d9061233a565b6103e881101580156116f0575061c3508111155b611726576040517f08c379a000000000000000000000000000000000000000000000000000000000815260040161059d906124e3565b600f81905560405181907faddb414e6e07b38602cd55188972aef90aaa93ae3ef76e115ccfa0fccce3225b90600090a250565b600d54610100900460ff1681565b600080546040517fe5e31b1300000000000000000000000000000000000000000000000000000000815273ffffffffffffffffffffffffffffffffffffffff9091169063e5e31b13906117be90859060040161210c565b60206040518083038186803b1580156117d657600080fd5b505afa1580156117ea573d6000803e3d6000fd5b505050506040513d601f19601f8201168201806040525081019061180e9190612010565b1561181c5750600454610541565b6103e8600f54600454028161182d57fe5b0492915050565b73ffffffffffffffffffffffffffffffffffffffff166000908152600e602052604090205460ff1690565b600e6020526000908152604090205460ff1681565b60015473ffffffffffffffffffffffffffffffffffffffff1633146118c5576040517f08c379a000000000000000000000000000000000000000000000000000000000815260040161059d9061233a565b73ffffffffffffffffffffffffffffffffffffffff8216611912576040517f08c379a000000000000000000000000000000000000000000000000000000000815260040161059d906122dd565b73ffffffffffffffffffffffffffffffffffffffff82166000818152600860205260409081902080547fffffffffffffffffffffffffffffffffffffffffffffffffffffffffffffff0016841515179055517f4c41ad10dd097dc116b8169ab8fe174c349e1890aceee2cd9eaaba320ee543d19061093490849061220a565b6040805173ffffffffffffffffffffffffffffffffffffffff85811660248301528481166044830152606480830185905283518084039091018152608490920183526020820180517bffffffffffffffffffffffffffffffffffffffffffffffffffffffff167f23b872dd00000000000000000000000000000000000000000000000000000000178152925182516000948594938a169392918291908083835b60208310611a6e57805182527fffffffffffffffffffffffffffffffffffffffffffffffffffffffffffffffe09092019160209182019101611a31565b6001836020036101000a0380198251168184511680821785525050505050509050019150506000604051808303816000865af19150503d8060008114611ad0576040519150601f19603f3d011682016040523d82523d6000602084013e611ad5565b606091505b5091509150818015611b03575080511580611b035750808060200190516020811015611b0057600080fd5b50515b611b58576040517f08c379a0000000000000000000000000000000000000000000000000000000008152600401808060200182810382526024815260200180614cc86024913960400191505060405180910390fd5b505050505050565b600080604051611b6f90611f3f565b604051809103906000f080158015611b8b573d6000803e3d6000fd5b50905060008973ffffffffffffffffffffffffffffffffffffffff1663efc81a8c6040518163ffffffff1660e01b8152600401602060405180830381600087803b158015611bd857600080fd5b505af1158015611bec573d6000803e3d6000fd5b505050506040513d601f19601f82011682018060405250810190611c109190611f6f565b600c805460018082019092557fdf6966c971051c3d54ec59162606531493a51404a002842f56009d7e5cf4a8c70180547fffffffffffffffffffffffff00000000000000000000000000000000000000001673ffffffffffffffffffffffffffffffffffffffff84811691821790925560008181526005602090815260409182902080547fffffffffffffffffffffffffffffffffffffffffffffffffffffffffffffff001690951790945580517f54fd4d500000000000000000000000000000000000000000000000000000000081529051949550918d169390927f093fc7d12adac15861090201060d4995cb324c50b86da4e418eb3553c056dc169284926354fd4d5092600480840193919291829003018186803b158015611d3357600080fd5b505afa158015611d47573d6000803e3d6000fd5b505050506040513d601f19601f82011682018060405250810190611d6b9190612044565b600c54604051611d80929188918f919061257e565b60405180910390a36040517f01f79fb600000000000000000000000000000000000000000000000000000000815273ffffffffffffffffffffffffffffffffffffffff8b16906301f79fb690611de69084908d908c9088908f908d908d9060040161217a565b600060405180830381600087803b158015611e0057600080fd5b505af1158015611e14573d6000803e3d6000fd5b50506040517f485cc95500000000000000000000000000000000000000000000000000000000815273ffffffffffffffffffffffffffffffffffffffff8b16925063485cc9559150611e6c9084908690600401612153565b600060405180830381600087803b158015611e8657600080fd5b505af1158015611e9a573d6000803e3d6000fd5b50506040517fcd6dc68700000000000000000000000000000000000000000000000000000000815273ffffffffffffffffffffffffffffffffffffffff8516925063cd6dc6879150611ef29033908a9060040161212d565b600060405180830381600087803b158015611f0c57600080fd5b505af1158015611f20573d6000803e3d6000fd5b50929c9b505050505050505050505050565b610889806125e483390190565b611e5b80612e6d83390190565b600060208284031215611f5d578081fd5b8135611f68816125b0565b9392505050565b600060208284031215611f80578081fd5b8151611f68816125b0565b60008060408385031215611f9d578081fd5b8235611fa8816125b0565b91506020830135611fb8816125d5565b809150509250929050565b60008060408385031215611fd5578182fd5b8235611fe0816125b0565b9150602083013580820b8114611fb8578182fd5b600060208284031215612005578081fd5b8135611f68816125d5565b600060208284031215612021578081fd5b8151611f68816125d5565b60006020828403121561203d578081fd5b5035919050565b600060208284031215612055578081fd5b5051919050565b600080600080600080600060c0888a031215612076578283fd5b873596506020880135612088816125b0565b95506040880135612098816125b0565b9450606088013593506080880135925060a088013567ffffffffffffffff808211156120c2578384fd5b818a0191508a601f8301126120d5578384fd5b8135818111156120e3578485fd5b8b60208285010111156120f4578485fd5b60208301945080935050505092959891949750929550565b73ffffffffffffffffffffffffffffffffffffffff91909116815260200190565b73ffffffffffffffffffffffffffffffffffffffff929092168252602082015260400190565b73ffffffffffffffffffffffffffffffffffffffff92831681529116602082015260400190565b600073ffffffffffffffffffffffffffffffffffffffff808a16835280891660208401528088166040840152808716606084015280861660808401525060c060a08301528260c0830152828460e084013781830160e090810191909152601f9092017fffffffffffffffffffffffffffffffffffffffffffffffffffffffffffffffe01601019695505050505050565b901515815260200190565b60009190910b815260200190565b60208082526022908201527f496e76616c6964207374616b6520706f6f6c2063726561746f7220766572736960408201527f6f6e000000000000000000000000000000000000000000000000000000000000606082015260800190565b60208082526030908201527f5374616b65506f6f6c436f6e74726f6c6c65723a20696e76616c69642073746160408201527f6b6520706f6f6c20766572696669657200000000000000000000000000000000606082015260800190565b60208082526024908201527f5374616b65506f6f6c436f6e74726f6c6c65723a20696e76616c69642061646460408201527f7265737300000000000000000000000000000000000000000000000000000000606082015260800190565b6020808252818101527f5374616b65506f6f6c436f6e74726f6c6c65723a2021676f7665726e616e6365604082015260600190565b60208082526027908201527f5374616b65506f6f6c436f6e74726f6c6c65723a20696e76616c696420676f7660408201527f65726e616e636500000000000000000000000000000000000000000000000000606082015260800190565b60208082526037908201527f5374616b65506f6f6c436f6e74726f6c6c65723a20496e76616c69642073746160408201527f6b6520706f6f6c2063726561746f722076657273696f6e000000000000000000606082015260800190565b60208082526023908201527f5374616b65506f6f6c436f6e74726f6c6c65723a20696e76616c6964205f746f60408201527f6b656e0000000000000000000000000000000000000000000000000000000000606082015260800190565b60208082526030908201527f5374616b65506f6f6c436f6e74726f6c6c65723a204e6f7420656e6f7567682060408201527f72657761726446756e64416d6f756e7400000000000000000000000000000000606082015260800190565b6020808252602a908201527f5374616b65506f6f6c436f6e74726f6c6c65723a20696e76616c6964205f657860408201527f7472614665655261746500000000000000000000000000000000000000000000606082015260800190565b6020808252818101527f5374616b65506f6f6c436f6e74726f6c6c65723a20696e697469616c697a6564604082015260600190565b90815260200190565b93845273ffffffffffffffffffffffffffffffffffffffff928316602085015291166040830152606082015260800190565b73ffffffffffffffffffffffffffffffffffffffff811681146125d257600080fd5b50565b80151581146125d257600080fdfe608060405234801561001057600080fd5b50610869806100206000396000f3fe608060405234801561001057600080fd5b506004361061007d5760003560e01c8063afb9d3ca1161005b578063afb9d3ca14610149578063d1660f9914610184578063d33219b4146101c7578063f8ea4756146101f85761007d565b80630c612694146100825780633468a5b8146100c7578063485cc9551461010e575b600080fd5b6100c56004803603606081101561009857600080fd5b5073ffffffffffffffffffffffffffffffffffffffff813581169160208101359091169060400135610200565b005b6100fa600480360360208110156100dd57600080fd5b503573ffffffffffffffffffffffffffffffffffffffff166102f4565b604080519115158252519081900360200190f35b6100c56004803603604081101561012457600080fd5b5073ffffffffffffffffffffffffffffffffffffffff8135811691602001351661039a565b6100c56004803603604081101561015f57600080fd5b5073ffffffffffffffffffffffffffffffffffffffff8135811691602001351661049d565b6100c56004803603606081101561019a57600080fd5b5073ffffffffffffffffffffffffffffffffffffffff81358116916020810135909116906040013561053e565b6101cf6105c4565b6040805173ffffffffffffffffffffffffffffffffffffffff9092168252519081900360200190f35b6101cf6105e0565b60015473ffffffffffffffffffffffffffffffffffffffff16331461028657604080517f08c379a000000000000000000000000000000000000000000000000000000000815260206004820152601e60248201527f5374616b65506f6f6c52657761726446756e643a202174696d656c6f636b0000604482015290519081900360640190fd5b61028f836102f4565b6102e4576040517f08c379a00000000000000000000000000000000000000000000000000000000081526004018080602001828103825260338152602001806108016033913960400191505060405180910390fd5b6102ef8383836105fc565b505050565b60008054604080517f3468a5b800000000000000000000000000000000000000000000000000000000815273ffffffffffffffffffffffffffffffffffffffff858116600483015291519190921691633468a5b8916024808301926020929190829003018186803b15801561036857600080fd5b505afa15801561037c573d6000803e3d6000fd5b505050506040513d602081101561039257600080fd5b505192915050565b60015474010000000000000000000000000000000000000000900460ff161561040e576040517f08c379a00000000000000000000000000000000000000000000000000000000081526004018080602001828103825260288152602001806107d96028913960400191505060405180910390fd5b600080547fffffffffffffffffffffffff000000000000000000000000000000000000000090811673ffffffffffffffffffffffffffffffffffffffff948516179091556001805474010000000000000000000000000000000000000000921692909316919091177fffffffffffffffffffffff00ffffffffffffffffffffffffffffffffffffffff16179055565b61053a82828473ffffffffffffffffffffffffffffffffffffffff166370a08231306040518263ffffffff1660e01b8152600401808273ffffffffffffffffffffffffffffffffffffffff16815260200191505060206040518083038186803b15801561050957600080fd5b505afa15801561051d573d6000803e3d6000fd5b505050506040513d602081101561053357600080fd5b5051610200565b5050565b60005473ffffffffffffffffffffffffffffffffffffffff1633146102e457604080517f08c379a000000000000000000000000000000000000000000000000000000000815260206004820152601f60248201527f5374616b65506f6f6c52657761726446756e643a20217374616b65506f6f6c00604482015290519081900360640190fd5b60015473ffffffffffffffffffffffffffffffffffffffff1681565b60005473ffffffffffffffffffffffffffffffffffffffff1681565b6040805173ffffffffffffffffffffffffffffffffffffffff8481166024830152604480830185905283518084039091018152606490920183526020820180517bffffffffffffffffffffffffffffffffffffffffffffffffffffffff167fa9059cbb000000000000000000000000000000000000000000000000000000001781529251825160009485949389169392918291908083835b602083106106d157805182527fffffffffffffffffffffffffffffffffffffffffffffffffffffffffffffffe09092019160209182019101610694565b6001836020036101000a0380198251168184511680821785525050505050509050019150506000604051808303816000865af19150503d8060008114610733576040519150601f19603f3d011682016040523d82523d6000602084013e610738565b606091505b5091509150818015610766575080511580610766575080806020019051602081101561076357600080fd5b50515b6107d157604080517f08c379a000000000000000000000000000000000000000000000000000000000815260206004820152601f60248201527f5472616e7366657248656c7065723a205452414e534645525f4641494c454400604482015290519081900360640190fd5b505050505056fe5374616b65506f6f6c52657761726446756e643a20616c726561647920696e697469616c697a65645374616b65506f6f6c52657761726446756e643a206e6f7420616c6c6f77207265636f7665722072657761726420746f6b656ea264697066735822122056e3770b2325173b6dab2f2406ca4b20b4d2d631aac1c3c363f989c963e1a3c064736f6c63430007060033608060405234801561001057600080fd5b506003805460ff19908116909155600080549091169055611e25806100366000396000f3fe6080604052600436106100ec5760003560e01c80636fc1f57e1161008a578063cd6dc68711610059578063cd6dc6871461069e578063e177246e146106e4578063f2b065371461070e578063f851a44014610738576100f3565b80636fc1f57e146106365780637d645fab1461065f578063b1b43ae514610674578063c1a287e214610689576100f3565b80633a66f901116100c65780633a66f901146103135780634dd18bf514610483578063591fcdfe146104c35780636a42b8f814610621576100f3565b80630825f38f146100f85780630e18b681146102be57806326782247146102d5576100f3565b366100f357005b600080fd5b610249600480360360a081101561010e57600080fd5b73ffffffffffffffffffffffffffffffffffffffff8235169160208101359181019060608101604082013564010000000081111561014b57600080fd5b82018360208201111561015d57600080fd5b8035906020019184600183028401116401000000008311171561017f57600080fd5b91908080601f01602080910402602001604051908101604052809392919081815260200183838082843760009201919091525092959493602081019350359150506401000000008111156101d257600080fd5b8201836020820111156101e457600080fd5b8035906020019184600183028401116401000000008311171561020657600080fd5b91908080601f016020809104026020016040519081016040528093929190818152602001838380828437600092019190915250929550509135925061074d915050565b6040805160208082528351818301528351919283929083019185019080838360005b8381101561028357818101518382015260200161026b565b50505050905090810190601f1680156102b05780820380516001836020036101000a031916815260200191505b509250505060405180910390f35b3480156102ca57600080fd5b506102d3610d94565b005b3480156102e157600080fd5b506102ea610ea3565b6040805173ffffffffffffffffffffffffffffffffffffffff9092168252519081900360200190f35b34801561031f57600080fd5b50610471600480360360a081101561033657600080fd5b73ffffffffffffffffffffffffffffffffffffffff8235169160208101359181019060608101604082013564010000000081111561037357600080fd5b82018360208201111561038557600080fd5b803590602001918460018302840111640100000000831117156103a757600080fd5b91908080601f01602080910402602001604051908101604052809392919081815260200183838082843760009201919091525092959493602081019350359150506401000000008111156103fa57600080fd5b82018360208201111561040c57600080fd5b8035906020019184600183028401116401000000008311171561042e57600080fd5b91908080601f0160208091040260200160405190810160405280939291908181526020018383808284376000920191909152509295505091359250610ebf915050565b60408051918252519081900360200190f35b34801561048f57600080fd5b506102d3600480360360208110156104a657600080fd5b503573ffffffffffffffffffffffffffffffffffffffff16611221565b3480156104cf57600080fd5b506102d3600480360360a08110156104e657600080fd5b73ffffffffffffffffffffffffffffffffffffffff8235169160208101359181019060608101604082013564010000000081111561052357600080fd5b82018360208201111561053557600080fd5b8035906020019184600183028401116401000000008311171561055757600080fd5b91908080601f01602080910402602001604051908101604052809392919081815260200183838082843760009201919091525092959493602081019350359150506401000000008111156105aa57600080fd5b8201836020820111156105bc57600080fd5b803590602001918460018302840111640100000000831117156105de57600080fd5b91908080601f016020809104026020016040519081016040528093929190818152602001838380828437600092019190915250929550509135925061139f915050565b34801561062d57600080fd5b50610471611692565b34801561064257600080fd5b5061064b611698565b604080519115158252519081900360200190f35b34801561066b57600080fd5b506104716116a1565b34801561068057600080fd5b506104716116a8565b34801561069557600080fd5b506104716116af565b3480156106aa57600080fd5b506102d3600480360360408110156106c157600080fd5b5073ffffffffffffffffffffffffffffffffffffffff81351690602001356116b6565b3480156106f057600080fd5b506102d36004803603602081101561070757600080fd5b503561189e565b34801561071a57600080fd5b5061064b6004803603602081101561073157600080fd5b50356119e1565b34801561074457600080fd5b506102ea6119f6565b600054606090610100900473ffffffffffffffffffffffffffffffffffffffff1633146107c5576040517f08c379a0000000000000000000000000000000000000000000000000000000008152600401808060200182810382526038815260200180611a976038913960400191505060405180910390fd5b60008686868686604051602001808673ffffffffffffffffffffffffffffffffffffffff1681526020018581526020018060200180602001848152602001838103835286818151815260200191508051906020019080838360005b83811015610838578181015183820152602001610820565b50505050905090810190601f1680156108655780820380516001836020036101000a031916815260200191505b50838103825285518152855160209182019187019080838360005b83811015610898578181015183820152602001610880565b50505050905090810190601f1680156108c55780820380516001836020036101000a031916815260200191505b50604080517fffffffffffffffffffffffffffffffffffffffffffffffffffffffffffffffe081840301815291815281516020928301206000818152600490935291205490995060ff16975061096e9650505050505050576040517f08c379a000000000000000000000000000000000000000000000000000000000815260040180806020018281038252603d815260200180611c56603d913960400191505060405180910390fd5b82610977611a17565b10156109ce576040517f08c379a0000000000000000000000000000000000000000000000000000000008152600401808060200182810382526045815260200180611b6a6045913960600191505060405180910390fd5b6109db8362127500611a1b565b6109e3611a17565b1115610a3a576040517f08c379a0000000000000000000000000000000000000000000000000000000008152600401808060200182810382526033815260200180611b376033913960400191505060405180910390fd5b600081815260046020526040902080547fffffffffffffffffffffffffffffffffffffffffffffffffffffffffffffff001690558451606090610a7e575083610b34565b85805190602001208560405160200180837bffffffffffffffffffffffffffffffffffffffffffffffffffffffff1916815260040182805190602001908083835b60208310610afc57805182527fffffffffffffffffffffffffffffffffffffffffffffffffffffffffffffffe09092019160209182019101610abf565b6001836020036101000a0380198251168184511680821785525050505050509050019250505060405160208183030381529060405290505b6000808973ffffffffffffffffffffffffffffffffffffffff1689846040518082805190602001908083835b60208310610b9d57805182527fffffffffffffffffffffffffffffffffffffffffffffffffffffffffffffffe09092019160209182019101610b60565b6001836020036101000a03801982511681845116808217855250505050505090500191505060006040518083038185875af1925050503d8060008114610bff576040519150601f19603f3d011682016040523d82523d6000602084013e610c04565b606091505b509150915081610c5f576040517f08c379a000000000000000000000000000000000000000000000000000000000815260040180806020018281038252603d815260200180611d39603d913960400191505060405180910390fd5b8973ffffffffffffffffffffffffffffffffffffffff16847fa560e3198060a2f10670c1ec5b403077ea6ae93ca8de1c32b451dc1a943cd6e78b8b8b8b604051808581526020018060200180602001848152602001838103835286818151815260200191508051906020019080838360005b83811015610ce9578181015183820152602001610cd1565b50505050905090810190601f168015610d165780820380516001836020036101000a031916815260200191505b50838103825285518152855160209182019187019080838360005b83811015610d49578181015183820152602001610d31565b50505050905090810190601f168015610d765780820380516001836020036101000a031916815260200191505b50965050505050505060405180910390a39998505050505050505050565b60015473ffffffffffffffffffffffffffffffffffffffff163314610e04576040517f08c379a0000000000000000000000000000000000000000000000000000000008152600401808060200182810382526038815260200180611c936038913960400191505060405180910390fd5b600080546101003381027fffffffffffffffffffffff0000000000000000000000000000000000000000ff90921691909117808355600180547fffffffffffffffffffffffff000000000000000000000000000000000000000016905560405191900473ffffffffffffffffffffffffffffffffffffffff16917f71614071b88dee5e0b2ae578a9dd7b2ebbe9ae832ba419dc0242cd065a290b6c91a2565b60015473ffffffffffffffffffffffffffffffffffffffff1681565b60008054610100900473ffffffffffffffffffffffffffffffffffffffff163314610f35576040517f08c379a0000000000000000000000000000000000000000000000000000000008152600401808060200182810382526036815260200180611d036036913960400191505060405180910390fd5b610f49600254610f43611a17565b90611a1b565b821015610fa1576040517f08c379a0000000000000000000000000000000000000000000000000000000008152600401808060200182810382526049815260200180611d766049913960600191505060405180910390fd5b60008686868686604051602001808673ffffffffffffffffffffffffffffffffffffffff1681526020018581526020018060200180602001848152602001838103835286818151815260200191508051906020019080838360005b83811015611014578181015183820152602001610ffc565b50505050905090810190601f1680156110415780820380516001836020036101000a031916815260200191505b50838103825285518152855160209182019187019080838360005b8381101561107457818101518382015260200161105c565b50505050905090810190601f1680156110a15780820380516001836020036101000a031916815260200191505b5097505050505050505060405160208183030381529060405280519060200120905060016004600083815260200190815260200160002060006101000a81548160ff0219169083151502179055508673ffffffffffffffffffffffffffffffffffffffff16817f76e2796dc3a81d57b0e8504b647febcbeeb5f4af818e164f11eef8131a6a763f88888888604051808581526020018060200180602001848152602001838103835286818151815260200191508051906020019080838360005b83811015611179578181015183820152602001611161565b50505050905090810190601f1680156111a65780820380516001836020036101000a031916815260200191505b50838103825285518152855160209182019187019080838360005b838110156111d95781810151838201526020016111c1565b50505050905090810190601f1680156112065780820380516001836020036101000a031916815260200191505b50965050505050505060405180910390a39695505050505050565b60035460ff161561128957333014611284576040517f08c379a0000000000000000000000000000000000000000000000000000000008152600401808060200182810382526038815260200180611ccb6038913960400191505060405180910390fd5b61132a565b600054610100900473ffffffffffffffffffffffffffffffffffffffff1633146112fe576040517f08c379a000000000000000000000000000000000000000000000000000000000815260040180806020018281038252603b815260200180611be3603b913960400191505060405180910390fd5b600380547fffffffffffffffffffffffffffffffffffffffffffffffffffffffffffffff001660011790555b600180547fffffffffffffffffffffffff00000000000000000000000000000000000000001673ffffffffffffffffffffffffffffffffffffffff83811691909117918290556040519116907f69d78e38a01985fbb1462961809b4b2d65531bc93b2b94037f3334b82ca4a75690600090a250565b600054610100900473ffffffffffffffffffffffffffffffffffffffff163314611414576040517f08c379a0000000000000000000000000000000000000000000000000000000008152600401808060200182810382526037815260200180611acf6037913960400191505060405180910390fd5b60008585858585604051602001808673ffffffffffffffffffffffffffffffffffffffff1681526020018581526020018060200180602001848152602001838103835286818151815260200191508051906020019080838360005b8381101561148757818101518382015260200161146f565b50505050905090810190601f1680156114b45780820380516001836020036101000a031916815260200191505b50838103825285518152855160209182019187019080838360005b838110156114e75781810151838201526020016114cf565b50505050905090810190601f1680156115145780820380516001836020036101000a031916815260200191505b5097505050505050505060405160208183030381529060405280519060200120905060006004600083815260200190815260200160002060006101000a81548160ff0219169083151502179055508573ffffffffffffffffffffffffffffffffffffffff16817f2fffc091a501fd91bfbff27141450d3acb40fb8e6d8382b243ec7a812a3aaf8787878787604051808581526020018060200180602001848152602001838103835286818151815260200191508051906020019080838360005b838110156115ec5781810151838201526020016115d4565b50505050905090810190601f1680156116195780820380516001836020036101000a031916815260200191505b50838103825285518152855160209182019187019080838360005b8381101561164c578181015183820152602001611634565b50505050905090810190601f1680156116795780820380516001836020036101000a031916815260200191505b50965050505050505060405180910390a3505050505050565b60025481565b60035460ff1681565b62278d0081565b6201518081565b6212750081565b60005460ff1615611712576040517f08c379a0000000000000000000000000000000000000000000000000000000008152600401808060200182810382526031815260200180611b066031913960400191505060405180910390fd5b6201518081101561176e576040517f08c379a0000000000000000000000000000000000000000000000000000000008152600401808060200182810382526034815260200180611baf6034913960400191505060405180910390fd5b62278d008111156117ca576040517f08c379a0000000000000000000000000000000000000000000000000000000008152600401808060200182810382526038815260200180611c1e6038913960400191505060405180910390fd5b60028190556000805460017fffffffffffffffffffffff0000000000000000000000000000000000000000ff90911661010073ffffffffffffffffffffffffffffffffffffffff8681168202929092177fffffffffffffffffffffffffffffffffffffffffffffffffffffffffffffff00169290921780845560405192900416917f71614071b88dee5e0b2ae578a9dd7b2ebbe9ae832ba419dc0242cd065a290b6c91a26002546040517f948b1f6a42ee138b7e34058ba85a37f716d55ff25ff05a763f15bed6a04c8d2c90600090a25050565b3330146118f6576040517f08c379a0000000000000000000000000000000000000000000000000000000008152600401808060200182810382526031815260200180611dbf6031913960400191505060405180910390fd5b62015180811015611952576040517f08c379a0000000000000000000000000000000000000000000000000000000008152600401808060200182810382526034815260200180611baf6034913960400191505060405180910390fd5b62278d008111156119ae576040517f08c379a0000000000000000000000000000000000000000000000000000000008152600401808060200182810382526038815260200180611c1e6038913960400191505060405180910390fd5b600281905560405181907f948b1f6a42ee138b7e34058ba85a37f716d55ff25ff05a763f15bed6a04c8d2c90600090a250565b60046020526000908152604090205460ff1681565b600054610100900473ffffffffffffffffffffffffffffffffffffffff1681565b4290565b600082820183811015611a8f57604080517f08c379a000000000000000000000000000000000000000000000000000000000815260206004820152601b60248201527f536166654d6174683a206164646974696f6e206f766572666c6f770000000000604482015290519081900360640190fd5b939250505056fe54696d656c6f636b3a3a657865637574655472616e73616374696f6e3a2043616c6c206d75737420636f6d652066726f6d2061646d696e2e54696d656c6f636b3a3a63616e63656c5472616e73616374696f6e3a2043616c6c206d75737420636f6d652066726f6d2061646d696e2e54696d656c6f636b3a3a636f6e7374727563746f723a20496e697469616c697a6564206d7573742062652066616c73652e54696d656c6f636b3a3a657865637574655472616e73616374696f6e3a205472616e73616374696f6e206973207374616c652e54696d656c6f636b3a3a657865637574655472616e73616374696f6e3a205472616e73616374696f6e206861736e2774207375727061737365642074696d65206c6f636b2e54696d656c6f636b3a3a73657444656c61793a2044656c6179206d75737420657863656564206d696e696d756d2064656c61792e54696d656c6f636b3a3a73657450656e64696e6741646d696e3a2046697273742063616c6c206d75737420636f6d652066726f6d2061646d696e2e54696d656c6f636b3a3a73657444656c61793a2044656c6179206d757374206e6f7420657863656564206d6178696d756d2064656c61792e54696d656c6f636b3a3a657865637574655472616e73616374696f6e3a205472616e73616374696f6e206861736e2774206265656e207175657565642e54696d656c6f636b3a3a61636365707441646d696e3a2043616c6c206d75737420636f6d652066726f6d2070656e64696e6741646d696e2e54696d656c6f636b3a3a73657450656e64696e6741646d696e3a2043616c6c206d75737420636f6d652066726f6d2054696d656c6f636b2e54696d656c6f636b3a3a71756575655472616e73616374696f6e3a2043616c6c206d75737420636f6d652066726f6d2061646d696e2e54696d656c6f636b3a3a657865637574655472616e73616374696f6e3a205472616e73616374696f6e20657865637574696f6e2072657665727465642e54696d656c6f636b3a3a71756575655472616e73616374696f6e3a20457374696d6174656420657865637574696f6e20626c6f636b206d75737420736174697366792064656c61792e54696d656c6f636b3a3a73657444656c61793a2043616c6c206d75737420636f6d652066726f6d2054696d656c6f636b2ea26469706673582212202eda9294c7cc64789fd6990e299ac50c0f2b49773c8e930c50ae27181e35d16e64736f6c634300070600335472616e7366657248656c7065723a205452414e534645525f46524f4d5f4641494c4544a2646970667358221220936b0fe254ea3fd8eb6952a2e107f2b828b13eac73fe33bff576f5ac87f3e2f964736f6c63430007060033",
  "devdoc": {
    "kind": "dev",
    "methods": {},
    "version": 1
  },
  "userdoc": {
    "kind": "user",
    "methods": {},
    "version": 1
  },
  "storageLayout": {
    "storage": [
      {
        "astId": 10360,
        "contract": "contracts/StakePoolController.sol:StakePoolController",
        "label": "swapFactory",
        "offset": 0,
        "slot": "0",
        "type": "t_contract(IIsPair)14908"
      },
      {
        "astId": 10362,
        "contract": "contracts/StakePoolController.sol:StakePoolController",
        "label": "governance",
        "offset": 0,
        "slot": "1",
        "type": "t_address"
      },
      {
        "astId": 10364,
        "contract": "contracts/StakePoolController.sol:StakePoolController",
        "label": "feeCollector",
        "offset": 0,
        "slot": "2",
        "type": "t_address"
      },
      {
        "astId": 10366,
        "contract": "contracts/StakePoolController.sol:StakePoolController",
        "label": "feeToken",
        "offset": 0,
        "slot": "3",
        "type": "t_address"
      },
      {
        "astId": 10368,
        "contract": "contracts/StakePoolController.sol:StakePoolController",
        "label": "feeAmount",
        "offset": 0,
        "slot": "4",
        "type": "t_uint256"
      },
      {
        "astId": 10372,
        "contract": "contracts/StakePoolController.sol:StakePoolController",
        "label": "_stakePools",
        "offset": 0,
        "slot": "5",
        "type": "t_mapping(t_address,t_bool)"
      },
      {
        "astId": 10376,
        "contract": "contracts/StakePoolController.sol:StakePoolController",
        "label": "_whitelistStakingFor",
        "offset": 0,
        "slot": "6",
        "type": "t_mapping(t_address,t_bool)"
      },
      {
        "astId": 10380,
        "contract": "contracts/StakePoolController.sol:StakePoolController",
        "label": "_whitelistRewardRebaser",
        "offset": 0,
        "slot": "7",
        "type": "t_mapping(t_address,t_bool)"
      },
      {
        "astId": 10384,
        "contract": "contracts/StakePoolController.sol:StakePoolController",
        "label": "_whitelistRewardMultiplier",
        "offset": 0,
        "slot": "8",
        "type": "t_mapping(t_address,t_bool)"
      },
      {
        "astId": 10388,
        "contract": "contracts/StakePoolController.sol:StakePoolController",
        "label": "_whitelistStakePools",
        "offset": 0,
        "slot": "9",
        "type": "t_mapping(t_address,t_int8)"
      },
      {
        "astId": 10392,
        "contract": "contracts/StakePoolController.sol:StakePoolController",
        "label": "_stakePoolVerifiers",
        "offset": 0,
        "slot": "10",
        "type": "t_mapping(t_address,t_bool)"
      },
      {
        "astId": 10396,
        "contract": "contracts/StakePoolController.sol:StakePoolController",
        "label": "stakePoolCreators",
        "offset": 0,
        "slot": "11",
        "type": "t_mapping(t_uint256,t_address)"
      },
      {
        "astId": 10400,
        "contract": "contracts/StakePoolController.sol:StakePoolController",
        "label": "allStakePools",
        "offset": 0,
        "slot": "12",
        "type": "t_array(t_address)dyn_storage"
      },
      {
        "astId": 10403,
        "contract": "contracts/StakePoolController.sol:StakePoolController",
        "label": "enableWhitelistRewardRebaser",
        "offset": 0,
        "slot": "13",
        "type": "t_bool"
      },
      {
        "astId": 10406,
        "contract": "contracts/StakePoolController.sol:StakePoolController",
        "label": "enableWhitelistRewardMultiplier",
        "offset": 1,
        "slot": "13",
        "type": "t_bool"
      },
      {
        "astId": 10409,
        "contract": "contracts/StakePoolController.sol:StakePoolController",
        "label": "_initialized",
        "offset": 2,
        "slot": "13",
        "type": "t_bool"
      },
      {
        "astId": 10413,
        "contract": "contracts/StakePoolController.sol:StakePoolController",
        "label": "allowEmergencyWithdrawStakePools",
        "offset": 0,
        "slot": "14",
        "type": "t_mapping(t_address,t_bool)"
      },
      {
        "astId": 10415,
        "contract": "contracts/StakePoolController.sol:StakePoolController",
        "label": "extraFeeRate",
        "offset": 0,
        "slot": "15",
        "type": "t_uint256"
      }
    ],
    "types": {
      "t_address": {
        "encoding": "inplace",
        "label": "address",
        "numberOfBytes": "20"
      },
      "t_array(t_address)dyn_storage": {
        "base": "t_address",
        "encoding": "dynamic_array",
        "label": "address[]",
        "numberOfBytes": "32"
      },
      "t_bool": {
        "encoding": "inplace",
        "label": "bool",
        "numberOfBytes": "1"
      },
      "t_contract(IIsPair)14908": {
        "encoding": "inplace",
        "label": "contract IIsPair",
        "numberOfBytes": "20"
      },
      "t_int8": {
        "encoding": "inplace",
        "label": "int8",
        "numberOfBytes": "1"
      },
      "t_mapping(t_address,t_bool)": {
        "encoding": "mapping",
        "key": "t_address",
        "label": "mapping(address => bool)",
        "numberOfBytes": "32",
        "value": "t_bool"
      },
      "t_mapping(t_address,t_int8)": {
        "encoding": "mapping",
        "key": "t_address",
        "label": "mapping(address => int8)",
        "numberOfBytes": "32",
        "value": "t_int8"
      },
      "t_mapping(t_uint256,t_address)": {
        "encoding": "mapping",
        "key": "t_uint256",
        "label": "mapping(uint256 => address)",
        "numberOfBytes": "32",
        "value": "t_address"
      },
      "t_uint256": {
        "encoding": "inplace",
        "label": "uint256",
        "numberOfBytes": "32"
      }
    }
  }
}