{
  "address": "0x073a95BBfC6aF81962F68b3C4c2408a807b4413C",
  "abi": [
    {
      "inputs": [
        {
          "internalType": "contract IUniswapV2Router",
          "name": "_uniRouter",
          "type": "address"
        },
        {
          "internalType": "contract IFireBirdRouter",
          "name": "_fireBirdRouter",
          "type": "address"
        }
      ],
      "stateMutability": "nonpayable",
      "type": "constructor"
    },
    {
      "anonymous": false,
      "inputs": [
        {
          "indexed": true,
          "internalType": "address",
          "name": "token",
          "type": "address"
        },
        {
          "indexed": false,
          "internalType": "uint256",
          "name": "amount",
          "type": "uint256"
        },
        {
          "indexed": false,
          "internalType": "address",
          "name": "to",
          "type": "address"
        }
      ],
      "name": "Withdraw",
      "type": "event"
    },
    {
      "anonymous": false,
      "inputs": [
        {
          "indexed": true,
          "internalType": "address",
          "name": "sender",
          "type": "address"
        },
        {
          "indexed": false,
          "internalType": "address",
          "name": "from",
          "type": "address"
        },
        {
          "indexed": false,
          "internalType": "uint256",
          "name": "amtFrom",
          "type": "uint256"
        },
        {
          "indexed": false,
          "internalType": "address",
          "name": "pool",
          "type": "address"
        },
        {
          "indexed": false,
          "internalType": "uint256",
          "name": "amtLp",
          "type": "uint256"
        }
      ],
      "name": "ZapIn",
      "type": "event"
    },
    {
      "anonymous": false,
      "inputs": [
        {
          "indexed": true,
          "internalType": "address",
          "name": "sender",
          "type": "address"
        },
        {
          "indexed": false,
          "internalType": "address",
          "name": "pool",
          "type": "address"
        },
        {
          "indexed": false,
          "internalType": "uint256",
          "name": "amtLp",
          "type": "uint256"
        },
        {
          "indexed": false,
          "internalType": "address",
          "name": "to",
          "type": "address"
        },
        {
          "indexed": false,
          "internalType": "uint256",
          "name": "amtTo",
          "type": "uint256"
        }
      ],
      "name": "ZapOut",
      "type": "event"
    },
    {
      "inputs": [],
      "name": "WBNB",
      "outputs": [
        {
          "internalType": "address",
          "name": "",
          "type": "address"
        }
      ],
      "stateMutability": "view",
      "type": "function"
    },
    {
      "inputs": [
        {
          "internalType": "address",
          "name": "_token",
          "type": "address"
        }
      ],
      "name": "addTokensResidual",
      "outputs": [],
      "stateMutability": "nonpayable",
      "type": "function"
    },
    {
      "inputs": [],
      "name": "fireBirdFactory",
      "outputs": [
        {
          "internalType": "contract IFireBirdFactory",
          "name": "",
          "type": "address"
        }
      ],
      "stateMutability": "view",
      "type": "function"
    },
    {
      "inputs": [],
      "name": "fireBirdFormula",
      "outputs": [
        {
          "internalType": "contract IFireBirdFormula",
          "name": "",
          "type": "address"
        }
      ],
      "stateMutability": "view",
      "type": "function"
    },
    {
      "inputs": [
        {
          "internalType": "address",
          "name": "",
          "type": "address"
        },
        {
          "internalType": "address",
          "name": "",
          "type": "address"
        },
        {
          "internalType": "uint256",
          "name": "",
          "type": "uint256"
        }
      ],
      "name": "fireBirdPairs",
      "outputs": [
        {
          "internalType": "address",
          "name": "",
          "type": "address"
        }
      ],
      "stateMutability": "view",
      "type": "function"
    },
    {
      "inputs": [],
      "name": "fireBirdRouter",
      "outputs": [
        {
          "internalType": "contract IFireBirdRouter",
          "name": "",
          "type": "address"
        }
      ],
      "stateMutability": "view",
      "type": "function"
    },
    {
      "inputs": [
        {
          "internalType": "address",
          "name": "_from",
          "type": "address"
        },
        {
          "internalType": "uint256",
          "name": "_fromAmount",
          "type": "uint256"
        },
        {
          "internalType": "address",
          "name": "lp",
          "type": "address"
        }
      ],
      "name": "getAmountBToZapIn",
      "outputs": [
        {
          "internalType": "uint256",
          "name": "amountBConverted",
          "type": "uint256"
        },
        {
          "internalType": "uint256",
          "name": "amountASell",
          "type": "uint256"
        }
      ],
      "stateMutability": "view",
      "type": "function"
    },
    {
      "inputs": [
        {
          "internalType": "address",
          "name": "_from",
          "type": "address"
        },
        {
          "internalType": "uint256",
          "name": "amount",
          "type": "uint256"
        },
        {
          "internalType": "address",
          "name": "_toToken",
          "type": "address"
        }
      ],
      "name": "getAmountToZapOut",
      "outputs": [
        {
          "internalType": "uint256",
          "name": "amountOtherSell",
          "type": "uint256"
        },
        {
          "internalType": "uint256",
          "name": "amountToConverted",
          "type": "uint256"
        },
        {
          "internalType": "uint256",
          "name": "amountToOrigin",
          "type": "uint256"
        }
      ],
      "stateMutability": "view",
      "type": "function"
    },
    {
      "inputs": [],
      "name": "governance",
      "outputs": [
        {
          "internalType": "address",
          "name": "",
          "type": "address"
        }
      ],
      "stateMutability": "view",
      "type": "function"
    },
    {
      "inputs": [],
      "name": "maxResidual",
      "outputs": [
        {
          "internalType": "uint256",
          "name": "",
          "type": "uint256"
        }
      ],
      "stateMutability": "view",
      "type": "function"
    },
    {
      "inputs": [
        {
          "internalType": "address",
          "name": "_input",
          "type": "address"
        },
        {
          "internalType": "address",
          "name": "_output",
          "type": "address"
        },
        {
          "internalType": "address[]",
          "name": "_pair",
          "type": "address[]"
        }
      ],
      "name": "setFireBirdPairs",
      "outputs": [],
      "stateMutability": "nonpayable",
      "type": "function"
    },
    {
      "inputs": [
        {
          "internalType": "address",
          "name": "_governance",
          "type": "address"
        }
      ],
      "name": "setGovernance",
      "outputs": [],
      "stateMutability": "nonpayable",
      "type": "function"
    },
    {
      "inputs": [
        {
          "internalType": "uint256",
          "name": "_maxResidual",
          "type": "uint256"
        }
      ],
      "name": "setMaxResidual",
      "outputs": [],
      "stateMutability": "nonpayable",
      "type": "function"
    },
    {
      "inputs": [
        {
          "internalType": "address[]",
          "name": "_tokensResidual",
          "type": "address[]"
        }
      ],
      "name": "setTokensResidual",
      "outputs": [],
      "stateMutability": "nonpayable",
      "type": "function"
    },
    {
      "inputs": [
        {
          "internalType": "uint256",
          "name": "",
          "type": "uint256"
        }
      ],
      "name": "tokensResidual",
      "outputs": [
        {
          "internalType": "address",
          "name": "",
          "type": "address"
        }
      ],
      "stateMutability": "view",
      "type": "function"
    },
    {
      "inputs": [],
      "name": "uniRouter",
      "outputs": [
        {
          "internalType": "contract IUniswapV2Router",
          "name": "",
          "type": "address"
        }
      ],
      "stateMutability": "view",
      "type": "function"
    },
    {
      "inputs": [
        {
          "internalType": "address",
          "name": "to",
          "type": "address"
        }
      ],
      "name": "withdraw",
      "outputs": [],
      "stateMutability": "nonpayable",
      "type": "function"
    },
    {
      "inputs": [
        {
          "internalType": "address[]",
          "name": "tokens",
          "type": "address[]"
        },
        {
          "internalType": "address",
          "name": "to",
          "type": "address"
        }
      ],
      "name": "withdrawToken",
      "outputs": [],
      "stateMutability": "nonpayable",
      "type": "function"
    },
    {
      "inputs": [
        {
          "internalType": "address",
          "name": "_to",
          "type": "address"
        },
        {
          "internalType": "uint256",
          "name": "_minTokenB",
          "type": "uint256"
        },
        {
          "internalType": "uint256",
          "name": "_minLp",
          "type": "uint256"
        },
        {
          "internalType": "bool",
          "name": "transferResidual",
          "type": "bool"
        }
      ],
      "name": "zapIn",
      "outputs": [
        {
          "internalType": "uint256",
          "name": "",
          "type": "uint256"
        }
      ],
      "stateMutability": "payable",
      "type": "function"
    },
    {
      "inputs": [
        {
          "internalType": "address",
          "name": "_from",
          "type": "address"
        },
        {
          "internalType": "uint256[]",
          "name": "amounts",
          "type": "uint256[]"
        },
        {
          "internalType": "address",
          "name": "_to",
          "type": "address"
        },
        {
          "internalType": "bool",
          "name": "transferResidual",
          "type": "bool"
        }
      ],
      "name": "zapInToken",
      "outputs": [
        {
          "internalType": "uint256",
          "name": "lpAmt",
          "type": "uint256"
        }
      ],
      "stateMutability": "nonpayable",
      "type": "function"
    },
    {
      "inputs": [
        {
          "internalType": "address",
          "name": "_from",
          "type": "address"
        },
        {
          "internalType": "uint256",
          "name": "amount",
          "type": "uint256"
        },
        {
          "internalType": "address",
          "name": "_toToken",
          "type": "address"
        },
        {
          "internalType": "uint256",
          "name": "_minTokensRec",
          "type": "uint256"
        }
      ],
      "name": "zapOut",
      "outputs": [
        {
          "internalType": "uint256",
          "name": "",
          "type": "uint256"
        }
      ],
      "stateMutability": "nonpayable",
      "type": "function"
    },
    {
      "inputs": [
        {
          "internalType": "address",
          "name": "_from",
          "type": "address"
        },
        {
          "internalType": "uint256",
          "name": "amount",
          "type": "uint256"
        }
      ],
      "name": "zapOutToPair",
      "outputs": [
        {
          "internalType": "uint256",
          "name": "amountA",
          "type": "uint256"
        },
        {
          "internalType": "uint256",
          "name": "amountB",
          "type": "uint256"
        }
      ],
      "stateMutability": "nonpayable",
      "type": "function"
    },
    {
      "inputs": [
        {
          "internalType": "address",
          "name": "_from",
          "type": "address"
        },
        {
          "internalType": "uint256",
          "name": "_amount",
          "type": "uint256"
        },
        {
          "internalType": "uint256",
          "name": "_approvalAmount",
          "type": "uint256"
        },
        {
          "internalType": "uint256",
          "name": "_deadline",
          "type": "uint256"
        },
        {
          "internalType": "uint8",
          "name": "v",
          "type": "uint8"
        },
        {
          "internalType": "bytes32",
          "name": "r",
          "type": "bytes32"
        },
        {
          "internalType": "bytes32",
          "name": "s",
          "type": "bytes32"
        }
      ],
      "name": "zapOutToPairWithPermit",
      "outputs": [
        {
          "internalType": "uint256",
          "name": "amountA",
          "type": "uint256"
        },
        {
          "internalType": "uint256",
          "name": "amountB",
          "type": "uint256"
        }
      ],
      "stateMutability": "nonpayable",
      "type": "function"
    },
    {
      "inputs": [
        {
          "internalType": "address",
          "name": "_from",
          "type": "address"
        },
        {
          "internalType": "uint256",
          "name": "amount",
          "type": "uint256"
        },
        {
          "internalType": "address",
          "name": "_toToken",
          "type": "address"
        },
        {
          "internalType": "uint256",
          "name": "_minTokensRec",
          "type": "uint256"
        },
        {
          "internalType": "uint256",
          "name": "_approvalAmount",
          "type": "uint256"
        },
        {
          "internalType": "uint256",
          "name": "_deadline",
          "type": "uint256"
        },
        {
          "internalType": "uint8",
          "name": "v",
          "type": "uint8"
        },
        {
          "internalType": "bytes32",
          "name": "r",
          "type": "bytes32"
        },
        {
          "internalType": "bytes32",
          "name": "s",
          "type": "bytes32"
        }
      ],
      "name": "zapOutWithPermit",
      "outputs": [
        {
          "internalType": "uint256",
          "name": "",
          "type": "uint256"
        }
      ],
      "stateMutability": "nonpayable",
      "type": "function"
    },
    {
      "stateMutability": "payable",
      "type": "receive"
    }
  ],
  "transactionHash": "0x50d07e64da7f5ca6fc451b2f4f36ea2a81105e9e4318c12b7e4494783a9a3c76",
  "args": [
    "0x10ED43C718714eb63d5aA57B78B54704E256024E",
    "0xE5661A3e1c1350606705DD8Edeb8Bfc7d5934666"
  ],
  "solcInputHash": "62812d29f709351baf601151a10eb8e0",
  "bytecode": "0x608060405260646008553480156200001657600080fd5b5060405162005fa638038062005fa6833981810160405260408110156200003c57600080fd5b508051602091820151600160008190558054336001600160a01b0319918216179091556003805482166001600160a01b03808616919091179091556004805490921690831690811782556040805163c45a015560e01b8152905194959394919363c45a015593828101939192829003018186803b158015620000bd57600080fd5b505afa158015620000d2573d6000803e3d6000fd5b505050506040513d6020811015620000e957600080fd5b5051600580546001600160a01b0319166001600160a01b0392831617905560408051634b75f54f60e01b8152905191831691634b75f54f91600480820192602092909190829003018186803b1580156200014257600080fd5b505afa15801562000157573d6000803e3d6000fd5b505050506040513d60208110156200016e57600080fd5b5051600680546001600160a01b0319166001600160a01b03928316179055604080516315ab88c960e31b815290519183169163ad5c464891600480820192602092909190829003018186803b158015620001c757600080fd5b505afa158015620001dc573d6000803e3d6000fd5b505050506040513d6020811015620001f357600080fd5b5051600280546001600160a01b0319166001600160a01b0390921691909117905550615d7f905080620002276000396000f3fe60806040526004361061018f5760003560e01c80635aa6e675116100d6578063a0e47bf61161007f578063b73a16f611610059578063b73a16f6146108e5578063e0243baa1461094c578063e5bc29201461096157610205565b8063a0e47bf61461083c578063a863ff2f14610851578063ab033ea9146108a557610205565b80637b191ff2116100b05780637b191ff21461074a5780637e2150fd146108125780638dd950021461082757610205565b80635aa6e675146106d957806360a13c52146106ee578063761c262e1461070357610205565b80631ee11cde116101385780634056495811610112578063405649581461056157806351cff8d9146105cf578063521f2e091461060f57610205565b80631ee11cde1461042157806334d2365b146104f75780633c01ae6e1461052157610205565b806309342d951161016957806309342d951461039257806312e22568146103e257806314896f95146103f757610205565b806303e2d7ff1461020a57806304d21f0614610283578063082c6ed31461033357610205565b36610205573332141561020357604080517f08c379a000000000000000000000000000000000000000000000000000000000815260206004820152601d60248201527f5a61703a20446f206e6f742073656e6420455448206469726563746c79000000604482015290519081900360640190fd5b005b600080fd5b34801561021657600080fd5b5061025a6004803603606081101561022d57600080fd5b5073ffffffffffffffffffffffffffffffffffffffff8135811691602081013590911690604001356109d8565b6040805173ffffffffffffffffffffffffffffffffffffffff9092168252519081900360200190f35b34801561028f57600080fd5b50610203600480360360208110156102a657600080fd5b8101906020810181356401000000008111156102c157600080fd5b8201836020820111156102d357600080fd5b803590602001918460208302840111640100000000831117156102f557600080fd5b919080806020026020016040519081016040528093929190818152602001838360200280828437600092019190915250929550610a27945050505050565b34801561033f57600080fd5b506103796004803603604081101561035657600080fd5b5073ffffffffffffffffffffffffffffffffffffffff8135169060200135610ac4565b6040805192835260208301919091528051918290030190f35b34801561039e57600080fd5b50610379600480360360608110156103b557600080fd5b5073ffffffffffffffffffffffffffffffffffffffff81358116916020810135916040909101351661110b565b3480156103ee57600080fd5b5061025a611516565b34801561040357600080fd5b5061025a6004803603602081101561041a57600080fd5b5035611532565b34801561042d57600080fd5b506102036004803603606081101561044457600080fd5b73ffffffffffffffffffffffffffffffffffffffff823581169260208101359091169181019060608101604082013564010000000081111561048557600080fd5b82018360208201111561049757600080fd5b803590602001918460208302840111640100000000831117156104b957600080fd5b919080806020026020016040519081016040528093929190818152602001838360200280828437600092019190915250929550611566945050505050565b34801561050357600080fd5b506102036004803603602081101561051a57600080fd5b5035611634565b34801561052d57600080fd5b506102036004803603602081101561054457600080fd5b503573ffffffffffffffffffffffffffffffffffffffff166116bf565b34801561056d57600080fd5b506105b16004803603606081101561058457600080fd5b5073ffffffffffffffffffffffffffffffffffffffff8135811691602081013591604090910135166117bc565b60408051938452602084019290925282820152519081900360600190f35b3480156105db57600080fd5b50610203600480360360208110156105f257600080fd5b503573ffffffffffffffffffffffffffffffffffffffff16611ac3565b34801561061b57600080fd5b506106c76004803603608081101561063257600080fd5b73ffffffffffffffffffffffffffffffffffffffff823516919081019060408101602082013564010000000081111561066a57600080fd5b82018360208201111561067c57600080fd5b8035906020019184602083028401116401000000008311171561069e57600080fd5b919350915073ffffffffffffffffffffffffffffffffffffffff81351690602001351515611bbf565b60408051918252519081900360200190f35b3480156106e557600080fd5b5061025a6121ca565b3480156106fa57600080fd5b5061025a6121e6565b6106c76004803603608081101561071957600080fd5b5073ffffffffffffffffffffffffffffffffffffffff81351690602081013590604081013590606001351515612202565b34801561075657600080fd5b506102036004803603604081101561076d57600080fd5b81019060208101813564010000000081111561078857600080fd5b82018360208201111561079a57600080fd5b803590602001918460208302840111640100000000831117156107bc57600080fd5b9190808060200260200160405190810160405280939291908181526020018383602002808284376000920191909152509295505050903573ffffffffffffffffffffffffffffffffffffffff16915061236c9050565b34801561081e57600080fd5b5061025a6124aa565b34801561083357600080fd5b5061025a6124c6565b34801561084857600080fd5b5061025a6124e2565b34801561085d57600080fd5b506106c76004803603608081101561087457600080fd5b5073ffffffffffffffffffffffffffffffffffffffff813581169160208101359160408201351690606001356124fe565b3480156108b157600080fd5b50610203600480360360208110156108c857600080fd5b503573ffffffffffffffffffffffffffffffffffffffff16612bbf565b3480156108f157600080fd5b50610379600480360360e081101561090857600080fd5b5073ffffffffffffffffffffffffffffffffffffffff8135169060208101359060408101359060608101359060ff6080820135169060a08101359060c00135612c8c565b34801561095857600080fd5b506106c7612d5a565b34801561096d57600080fd5b506106c7600480360361012081101561098557600080fd5b5073ffffffffffffffffffffffffffffffffffffffff81358116916020810135916040820135169060608101359060808101359060a08101359060ff60c0820135169060e0810135906101000135612d60565b600760205282600052604060002060205281600052604060002081815481106109fd57fe5b60009182526020909120015473ffffffffffffffffffffffffffffffffffffffff16925083915050565b60015473ffffffffffffffffffffffffffffffffffffffff163314610aad57604080517f08c379a000000000000000000000000000000000000000000000000000000000815260206004820152601060248201527f5a61703a2021676f7665726e616e636500000000000000000000000000000000604482015290519081900360640190fd5b8051610ac0906009906020840190615bbe565b5050565b60008060026000541415610b3957604080517f08c379a000000000000000000000000000000000000000000000000000000000815260206004820152601f60248201527f5265656e7472616e637947756172643a207265656e7472616e742063616c6c00604482015290519081900360640190fd5b6002600055610b6073ffffffffffffffffffffffffffffffffffffffff8516333086612e2d565b610b6984612ec2565b600084905060008173ffffffffffffffffffffffffffffffffffffffff16630dfe16816040518163ffffffff1660e01b815260040160206040518083038186803b158015610bb657600080fd5b505afa158015610bca573d6000803e3d6000fd5b505050506040513d6020811015610be057600080fd5b5051604080517fd21220a7000000000000000000000000000000000000000000000000000000008152905191925060009173ffffffffffffffffffffffffffffffffffffffff85169163d21220a7916004808301926020929190829003018186803b158015610c4e57600080fd5b505afa158015610c62573d6000803e3d6000fd5b505050506040513d6020811015610c7857600080fd5b5051600554604080517fe5e31b1300000000000000000000000000000000000000000000000000000000815273ffffffffffffffffffffffffffffffffffffffff8b811660048301529151939450600093919092169163e5e31b13916024808301926020929190829003018186803b158015610cf357600080fd5b505afa158015610d07573d6000803e3d6000fd5b505050506040513d6020811015610d1d57600080fd5b505160025490915073ffffffffffffffffffffffffffffffffffffffff84811691161480610d65575060025473ffffffffffffffffffffffffffffffffffffffff8381169116145b15610f79578015610e7a5760045460025473ffffffffffffffffffffffffffffffffffffffff9182169163b56b681d918b9187811691161415610da85784610daa565b855b604080517fffffffff0000000000000000000000000000000000000000000000000000000060e086901b16815273ffffffffffffffffffffffffffffffffffffffff9384166004820152919092166024820152604481018b905260016064820181905260848201523360a48201524260c4820152815160e480830193928290030181600087803b158015610e3d57600080fd5b505af1158015610e51573d6000803e3d6000fd5b505050506040513d6040811015610e6757600080fd5b5080516020909101519096509450610f74565b60035460025473ffffffffffffffffffffffffffffffffffffffff918216916302751cec9186821691161415610eb05783610eb2565b845b604080517fffffffff0000000000000000000000000000000000000000000000000000000060e085901b16815273ffffffffffffffffffffffffffffffffffffffff9092166004830152602482018b905260016044830181905260648301523360848301524260a4830152805160c4808401938290030181600087803b158015610f3b57600080fd5b505af1158015610f4f573d6000803e3d6000fd5b505050506040513d6040811015610f6557600080fd5b50805160209091015190965094505b6110f9565b80156110265760048054604080517fe1f4a78400000000000000000000000000000000000000000000000000000000815273ffffffffffffffffffffffffffffffffffffffff8c81169482019490945286841660248201528584166044820152606481018b905260016084820181905260a48201523360c48201524260e48201528151939092169263e1f4a784926101048082019392918290030181600087803b158015610f3b57600080fd5b600354604080517fbaa2abde00000000000000000000000000000000000000000000000000000000815273ffffffffffffffffffffffffffffffffffffffff86811660048301528581166024830152604482018b905260016064830181905260848301523360a48301524260c4830152825193169263baa2abde9260e4808401939192918290030181600087803b1580156110c057600080fd5b505af11580156110d4573d6000803e3d6000fd5b505050506040513d60408110156110ea57600080fd5b50805160209091015190965094505b50506001600055509194909350915050565b600080600080600085905060008173ffffffffffffffffffffffffffffffffffffffff16630dfe16816040518163ffffffff1660e01b815260040160206040518083038186803b15801561115e57600080fd5b505afa158015611172573d6000803e3d6000fd5b505050506040513d602081101561118857600080fd5b5051604080517fd21220a7000000000000000000000000000000000000000000000000000000008152905191925060009173ffffffffffffffffffffffffffffffffffffffff85169163d21220a7916004808301926020929190829003018186803b1580156111f657600080fd5b505afa15801561120a573d6000803e3d6000fd5b505050506040513d602081101561122057600080fd5b5051905073ffffffffffffffffffffffffffffffffffffffff8a81169083161461124a578161124c565b805b945061125a888b8b856130a6565b60408051600180825281830190925291955060609450909250905060208083019080368337019050509050858160008151811061129357fe5b602002602001019073ffffffffffffffffffffffffffffffffffffffff16908173ffffffffffffffffffffffffffffffffffffffff16815250506060600660009054906101000a900473ffffffffffffffffffffffffffffffffffffffff1673ffffffffffffffffffffffffffffffffffffffff1663119220a5600560009054906101000a900473ffffffffffffffffffffffffffffffffffffffff168b8787876040518663ffffffff1660e01b8152600401808673ffffffffffffffffffffffffffffffffffffffff1681526020018573ffffffffffffffffffffffffffffffffffffffff1681526020018473ffffffffffffffffffffffffffffffffffffffff16815260200183815260200180602001828103825283818151815260200191508051906020019060200280838360005b838110156113dd5781810151838201526020016113c5565b50505050905001965050505050505060006040518083038186803b15801561140457600080fd5b505afa158015611418573d6000803e3d6000fd5b505050506040513d6000823e601f3d9081017fffffffffffffffffffffffffffffffffffffffffffffffffffffffffffffffe0168201604052602081101561145f57600080fd5b810190808051604051939291908464010000000082111561147f57600080fd5b90830190602082018581111561149457600080fd5b82518660208202830111640100000000821117156114b157600080fd5b82525081516020918201928201910280838360005b838110156114de5781810151838201526020016114c6565b505050509050016040525050509050806001825103815181106114fd57fe5b6020026020010151839550955050505050935093915050565b60065473ffffffffffffffffffffffffffffffffffffffff1681565b6009818154811061153f57fe5b60009182526020909120015473ffffffffffffffffffffffffffffffffffffffff16905081565b60015473ffffffffffffffffffffffffffffffffffffffff1633146115ec57604080517f08c379a000000000000000000000000000000000000000000000000000000000815260206004820152601060248201527f5a61703a2021676f7665726e616e636500000000000000000000000000000000604482015290519081900360640190fd5b73ffffffffffffffffffffffffffffffffffffffff80841660009081526007602090815260408083209386168352928152919020825161162e92840190615bbe565b50505050565b60015473ffffffffffffffffffffffffffffffffffffffff1633146116ba57604080517f08c379a000000000000000000000000000000000000000000000000000000000815260206004820152601060248201527f5a61703a2021676f7665726e616e636500000000000000000000000000000000604482015290519081900360640190fd5b600855565b60015473ffffffffffffffffffffffffffffffffffffffff16331461174557604080517f08c379a000000000000000000000000000000000000000000000000000000000815260206004820152601060248201527f5a61703a2021676f7665726e616e636500000000000000000000000000000000604482015290519081900360640190fd5b600980546001810182556000919091527f6e1540171b6c0c960b71a7020d9f60077f6af931a8bbf590da0223dacf75c7af0180547fffffffffffffffffffffffff00000000000000000000000000000000000000001673ffffffffffffffffffffffffffffffffffffffff92909216919091179055565b600080600080600087905060008173ffffffffffffffffffffffffffffffffffffffff16630dfe16816040518163ffffffff1660e01b815260040160206040518083038186803b15801561180f57600080fd5b505afa158015611823573d6000803e3d6000fd5b505050506040513d602081101561183957600080fd5b5051604080517fd21220a7000000000000000000000000000000000000000000000000000000008152905191925060009173ffffffffffffffffffffffffffffffffffffffff85169163d21220a7916004808301926020929190829003018186803b1580156118a757600080fd5b505afa1580156118bb573d6000803e3d6000fd5b505050506040513d60208110156118d157600080fd5b5051905073ffffffffffffffffffffffffffffffffffffffff888116908316146118fb57816118fd565b805b935050505060008060008973ffffffffffffffffffffffffffffffffffffffff166318160ddd6040518163ffffffff1660e01b815260040160206040518083038186803b15801561194d57600080fd5b505afa158015611961573d6000803e3d6000fd5b505050506040513d602081101561197757600080fd5b5051604080517f70a0823100000000000000000000000000000000000000000000000000000000815273ffffffffffffffffffffffffffffffffffffffff8d8116600483015291519293508392611a23928816916370a08231916024808301926020929190829003018186803b1580156119f057600080fd5b505afa158015611a04573d6000803e3d6000fd5b505050506040513d6020811015611a1a57600080fd5b50518b906132ec565b81611a2a57fe5b04925080611a988973ffffffffffffffffffffffffffffffffffffffff166370a082318d6040518263ffffffff1660e01b8152600401808273ffffffffffffffffffffffffffffffffffffffff16815260200191505060206040518083038186803b1580156119f057600080fd5b81611a9f57fe5b049150506000611ab18a858585613368565b929a9299509097509095505050505050565b60015473ffffffffffffffffffffffffffffffffffffffff163314611b4957604080517f08c379a000000000000000000000000000000000000000000000000000000000815260206004820152601060248201527f5a61703a2021676f7665726e616e636500000000000000000000000000000000604482015290519081900360640190fd5b60606009805480602002602001604051908101604052809291908181526020018280548015611bae57602002820191906000526020600020905b815473ffffffffffffffffffffffffffffffffffffffff168152600190910190602001808311611b83575b50505050509050610ac0818361236c565b600060026000541415611c3357604080517f08c379a000000000000000000000000000000000000000000000000000000000815260206004820152601f60248201527f5265656e7472616e637947756172643a207265656e7472616e742063616c6c00604482015290519081900360640190fd5b6002600081905550611c7b333087876000818110611c4d57fe5b905060200201358973ffffffffffffffffffffffffffffffffffffffff16612e2d909392919063ffffffff16565b611c8486612ec2565b8273ffffffffffffffffffffffffffffffffffffffff16630dfe16816040518163ffffffff1660e01b815260040160206040518083038186803b158015611cca57600080fd5b505afa158015611cde573d6000803e3d6000fd5b505050506040513d6020811015611cf457600080fd5b505173ffffffffffffffffffffffffffffffffffffffff87811691161480611da557508273ffffffffffffffffffffffffffffffffffffffff1663d21220a76040518163ffffffff1660e01b815260040160206040518083038186803b158015611d5d57600080fd5b505afa158015611d71573d6000803e3d6000fd5b505050506040513d6020811015611d8757600080fd5b505173ffffffffffffffffffffffffffffffffffffffff8781169116145b156120775760008060008573ffffffffffffffffffffffffffffffffffffffff16630dfe16816040518163ffffffff1660e01b815260040160206040518083038186803b158015611df557600080fd5b505afa158015611e09573d6000803e3d6000fd5b505050506040513d6020811015611e1f57600080fd5b5051604080517fd21220a7000000000000000000000000000000000000000000000000000000008152905191925060009173ffffffffffffffffffffffffffffffffffffffff89169163d21220a7916004808301926020929190829003018186803b158015611e8d57600080fd5b505afa158015611ea1573d6000803e3d6000fd5b505050506040513d6020811015611eb757600080fd5b5051905073ffffffffffffffffffffffffffffffffffffffff8a811690831614611ee15781611ee3565b805b9350611f04878b8b8b6000818110611ef757fe5b90506020020135856130a6565b925050506000611f17898385308a613536565b905087876001818110611f2657fe5b90506020020135811015611f9b57604080517f08c379a000000000000000000000000000000000000000000000000000000000815260206004820181905260248201527f5a61703a20496e73756666696369656e74205265636569766520416d6f756e74604482015290519081900360640190fd5b61206d868a85611fc7868d8d6000818110611fb257fe5b90506020020135613a7390919063ffffffff16565b600554604080517fe5e31b1300000000000000000000000000000000000000000000000000000000815273ffffffffffffffffffffffffffffffffffffffff8e81166004830152915189933393169163e5e31b13916024808301926020929190829003018186803b15801561203b57600080fd5b505afa15801561204f573d6000803e3d6000fd5b505050506040513d602081101561206557600080fd5b50518c613aea565b93505050506120ad565b6000612099878787600081811061208a57fe5b90506020020135306000613d88565b90506120a9848233600087614261565b9150505b848460028181106120ba57fe5b9050602002013581101561212f57604080517f08c379a000000000000000000000000000000000000000000000000000000000815260206004820152601560248201527f5a61703a204869676820536c69707061676520496e0000000000000000000000604482015290519081900360640190fd5b337f6c9d1839e8465b42ebfd3c687420dbcdf116253fd431545be184fb051c38f0c287878760008161215d57fe5b905060200201358685604051808573ffffffffffffffffffffffffffffffffffffffff1681526020018481526020018373ffffffffffffffffffffffffffffffffffffffff16815260200182815260200194505050505060405180910390a2600160005595945050505050565b60015473ffffffffffffffffffffffffffffffffffffffff1681565b60045473ffffffffffffffffffffffffffffffffffffffff1681565b60006002600054141561227657604080517f08c379a000000000000000000000000000000000000000000000000000000000815260206004820152601f60248201527f5265656e7472616e637947756172643a207265656e7472616e742063616c6c00604482015290519081900360640190fd5b6002600090815561228a8634338887614261565b9050838110156122fb57604080517f08c379a000000000000000000000000000000000000000000000000000000000815260206004820152601560248201527f5a61703a204869676820536c69707061676520496e0000000000000000000000604482015290519081900360640190fd5b6002546040805173ffffffffffffffffffffffffffffffffffffffff928316815234602082015291881682820152606082018390525133917f6c9d1839e8465b42ebfd3c687420dbcdf116253fd431545be184fb051c38f0c2919081900360800190a2600160005595945050505050565b60015473ffffffffffffffffffffffffffffffffffffffff1633146123f257604080517f08c379a000000000000000000000000000000000000000000000000000000000815260206004820152601060248201527f5a61703a2021676f7665726e616e636500000000000000000000000000000000604482015290519081900360640190fd5b73ffffffffffffffffffffffffffffffffffffffff811661247457604080517f08c379a000000000000000000000000000000000000000000000000000000000815260206004820152601d60248201527f5a61703a20496e76616c69642052656365697665722041646472657373000000604482015290519081900360640190fd5b60005b82518110156124a55761249d83828151811061248f57fe5b602002602001015183614bf4565b600101612477565b505050565b60055473ffffffffffffffffffffffffffffffffffffffff1681565b60025473ffffffffffffffffffffffffffffffffffffffff1681565b60035473ffffffffffffffffffffffffffffffffffffffff1681565b60006002600054141561257257604080517f08c379a000000000000000000000000000000000000000000000000000000000815260206004820152601f60248201527f5265656e7472616e637947756172643a207265656e7472616e742063616c6c00604482015290519081900360640190fd5b600260005561259973ffffffffffffffffffffffffffffffffffffffff8616333087612e2d565b6125a285612ec2565b60008060008060008990508073ffffffffffffffffffffffffffffffffffffffff16630dfe16816040518163ffffffff1660e01b815260040160206040518083038186803b1580156125f357600080fd5b505afa158015612607573d6000803e3d6000fd5b505050506040513d602081101561261d57600080fd5b5051604080517fd21220a7000000000000000000000000000000000000000000000000000000008152905191965073ffffffffffffffffffffffffffffffffffffffff83169163d21220a791600480820192602092909190829003018186803b15801561268957600080fd5b505afa15801561269d573d6000803e3d6000fd5b505050506040513d60208110156126b357600080fd5b5051600554604080517fe5e31b1300000000000000000000000000000000000000000000000000000000815273ffffffffffffffffffffffffffffffffffffffff8e811660048301529151939750600093919092169163e5e31b13916024808301926020929190829003018186803b15801561272e57600080fd5b505afa158015612742573d6000803e3d6000fd5b505050506040513d602081101561275857600080fd5b5051905080156128465760048054604080517fe1f4a78400000000000000000000000000000000000000000000000000000000815273ffffffffffffffffffffffffffffffffffffffff8f81169482019490945289841660248201528884166044820152606481018e905260016084820181905260a48201523060c48201524260e48201528151939092169263e1f4a784926101048082019392918290030181600087803b15801561280957600080fd5b505af115801561281d573d6000803e3d6000fd5b505050506040513d604081101561283357600080fd5b5080516020909101519094509250612919565b600354604080517fbaa2abde00000000000000000000000000000000000000000000000000000000815273ffffffffffffffffffffffffffffffffffffffff89811660048301528881166024830152604482018e905260016064830181905260848301523060a48301524260c4830152825193169263baa2abde9260e4808401939192918290030181600087803b1580156128e057600080fd5b505af11580156128f4573d6000803e3d6000fd5b505050506040513d604081101561290a57600080fd5b50805160209091015190945092505b5050600061292685612ec2565b61292f84612ec2565b73ffffffffffffffffffffffffffffffffffffffff881673eeeeeeeeeeeeeeeeeeeeeeeeeeeeeeeeeeeeeeee14156129e25760025460009073ffffffffffffffffffffffffffffffffffffffff878116911614806129a7575060025473ffffffffffffffffffffffffffffffffffffffff8681169116145b6129b25760006129b4565b8a5b90506129c286853084613d88565b91506129da6129d386853085613d88565b8390614e04565b915050612a7b565b60008573ffffffffffffffffffffffffffffffffffffffff168973ffffffffffffffffffffffffffffffffffffffff161480612a4957508473ffffffffffffffffffffffffffffffffffffffff168973ffffffffffffffffffffffffffffffffffffffff16145b612a54576000612a56565b8a5b9050612a6586858b3085613536565b9150612a776129d386858c3086613536565b9150505b86811015612aea57604080517f08c379a000000000000000000000000000000000000000000000000000000000815260206004820152601660248201527f5a61703a204869676820536c697070616765204f757400000000000000000000604482015290519081900360640190fd5b73ffffffffffffffffffffffffffffffffffffffff881673eeeeeeeeeeeeeeeeeeeeeeeeeeeeeeeeeeeeeeee1415612b2b57612b263382614e78565b612b4c565b612b4c73ffffffffffffffffffffffffffffffffffffffff89163383614fb0565b6040805173ffffffffffffffffffffffffffffffffffffffff8c81168252602082018c90528a168183015260608101839052905133917f04a863d47eb1f82dce727c38e0b2294b96dea01f7d8c060216edb8ef473ea839919081900360800190a260016000559998505050505050505050565b60015473ffffffffffffffffffffffffffffffffffffffff163314612c4557604080517f08c379a000000000000000000000000000000000000000000000000000000000815260206004820152601060248201527f5a61703a2021676f7665726e616e636500000000000000000000000000000000604482015290519081900360640190fd5b600180547fffffffffffffffffffffffff00000000000000000000000000000000000000001673ffffffffffffffffffffffffffffffffffffffff92909216919091179055565b604080517fd505accf000000000000000000000000000000000000000000000000000000008152336004820152306024820152604481018790526064810186905260ff8516608482015260a4810184905260c481018390529051600091829173ffffffffffffffffffffffffffffffffffffffff8b169163d505accf9160e4808301928692919082900301818387803b158015612d2857600080fd5b505af1158015612d3c573d6000803e3d6000fd5b50505050612d4a8989610ac4565b909a909950975050505050505050565b60085481565b604080517fd505accf000000000000000000000000000000000000000000000000000000008152336004820152306024820152604481018790526064810186905260ff8516608482015260a4810184905260c48101839052905160009173ffffffffffffffffffffffffffffffffffffffff8c169163d505accf9160e480820192869290919082900301818387803b158015612dfb57600080fd5b505af1158015612e0f573d6000803e3d6000fd5b50505050612e1f8a8a8a8a6124fe565b9a9950505050505050505050565b6040805173ffffffffffffffffffffffffffffffffffffffff80861660248301528416604482015260648082018490528251808303909101815260849091019091526020810180517bffffffffffffffffffffffffffffffffffffffffffffffffffffffff167f23b872dd0000000000000000000000000000000000000000000000000000000017905261162e908590615039565b600354604080517fdd62ed3e00000000000000000000000000000000000000000000000000000000815230600482015273ffffffffffffffffffffffffffffffffffffffff928316602482015290519183169163dd62ed3e91604480820192602092909190829003018186803b158015612f3b57600080fd5b505afa158015612f4f573d6000803e3d6000fd5b505050506040513d6020811015612f6557600080fd5b5051612fb257600354612fb29073ffffffffffffffffffffffffffffffffffffffff83811691167fffffffffffffffffffffffffffffffffffffffffffffffffffffffffffffffff615111565b60048054604080517fdd62ed3e000000000000000000000000000000000000000000000000000000008152309381019390935273ffffffffffffffffffffffffffffffffffffffff9182166024840152519083169163dd62ed3e916044808301926020929190829003018186803b15801561302c57600080fd5b505afa158015613040573d6000803e3d6000fd5b505050506040513d602081101561305657600080fd5b50516130a3576004546130a39073ffffffffffffffffffffffffffffffffffffffff83811691167fffffffffffffffffffffffffffffffffffffffffffffffffffffffffffffffff615111565b50565b600554604080517fca22297900000000000000000000000000000000000000000000000000000000815273ffffffffffffffffffffffffffffffffffffffff878116600483015291516000938493849391169163ca22297991602480820192606092909190829003018186803b15801561311f57600080fd5b505afa158015613133573d6000803e3d6000fd5b505050506040513d606081101561314957600080fd5b5080516020909101519092509050603263ffffffff8316141561327e576000808873ffffffffffffffffffffffffffffffffffffffff16630902f1ac6040518163ffffffff1660e01b815260040160606040518083038186803b1580156131af57600080fd5b505afa1580156131c3573d6000803e3d6000fd5b505050506040513d60608110156131d957600080fd5b5080516020909101516dffffffffffffffffffffffffffff9182169350169050600073ffffffffffffffffffffffffffffffffffffffff898116908816146132215781613223565b825b90506107ca61326a613237836107cd6132ec565b61326461325f61324a86623cda296132ec565b6132578e623cda206132ec565b8791016132ec565b61529f565b90613a73565b8161327157fe5b04955050505050506132e4565b60008473ffffffffffffffffffffffffffffffffffffffff168773ffffffffffffffffffffffffffffffffffffffff16146132bf578263ffffffff166132c7565b8163ffffffff165b90506132de60646132d888846132ec565b906152f1565b93505050505b949350505050565b6000826132fb57506000613362565b8282028284828161330857fe5b041461335f576040517f08c379a0000000000000000000000000000000000000000000000000000000008152600401808060200182810382526021815260200180615ca66021913960400191505060405180910390fd5b90505b92915050565b600654600554604080517fb33d96b000000000000000000000000000000000000000000000000000000000815273ffffffffffffffffffffffffffffffffffffffff928316600482015287831660248201528683166044820152905160009384938493849384938493169163b33d96b09160648083019260c0929190829003018186803b1580156133f857600080fd5b505afa15801561340c573d6000803e3d6000fd5b505050506040513d60c081101561342257600080fd5b50602081015160408201516060830151608084015160a090940151600654939950919750955091935090915073ffffffffffffffffffffffffffffffffffffffff1663671a11b5896134748882613a73565b61347e888c613a73565b604080517fffffffff0000000000000000000000000000000000000000000000000000000060e087901b16815260048101949094526024840192909252604483015263ffffffff80881660648401528087166084840152851660a48301525160c4808301926020929190829003018186803b1580156134fc57600080fd5b505afa158015613510573d6000803e3d6000fd5b505050506040513d602081101561352657600080fd5b50519a9950505050505050505050565b60008373ffffffffffffffffffffffffffffffffffffffff168673ffffffffffffffffffffffffffffffffffffffff1614156135b15773ffffffffffffffffffffffffffffffffffffffff831630146135aa576135aa73ffffffffffffffffffffffffffffffffffffffff87168487614fb0565b5083613a6a565b73ffffffffffffffffffffffffffffffffffffffff808716600090815260076020908152604080832093881683529281529082902080548351818402810184019094528084526060939283018282801561364157602002820191906000526020600020905b815473ffffffffffffffffffffffffffffffffffffffff168152600190910190602001808311613616575b50505050509050606060008251111561386857600460009054906101000a900473ffffffffffffffffffffffffffffffffffffffff1673ffffffffffffffffffffffffffffffffffffffff1663bff51d7189888a6001878b426040518863ffffffff1660e01b8152600401808873ffffffffffffffffffffffffffffffffffffffff1681526020018773ffffffffffffffffffffffffffffffffffffffff168152602001868152602001858152602001806020018473ffffffffffffffffffffffffffffffffffffffff168152602001838152602001828103825285818151815260200191508051906020019060200280838360005b8381101561374f578181015183820152602001613737565b5050505090500198505050505050505050600060405180830381600087803b15801561377a57600080fd5b505af115801561378e573d6000803e3d6000fd5b505050506040513d6000823e601f3d9081017fffffffffffffffffffffffffffffffffffffffffffffffffffffffffffffffe016820160405260208110156137d557600080fd5b81019080805160405193929190846401000000008211156137f557600080fd5b90830190602082018581111561380a57600080fd5b825186602082028301116401000000008211171561382757600080fd5b82525081516020918201928201910280838360005b8381101561385457818101518382015260200161383c565b505050509050016040525050509050613a4d565b73ffffffffffffffffffffffffffffffffffffffff8416156139e657604080516001808252818301909252906020808301908036833701905050915083826000815181106138b257fe5b602002602001019073ffffffffffffffffffffffffffffffffffffffff16908173ffffffffffffffffffffffffffffffffffffffff1681525050600460009054906101000a900473ffffffffffffffffffffffffffffffffffffffff1673ffffffffffffffffffffffffffffffffffffffff1663bff51d7189888a6001878b426040518863ffffffff1660e01b8152600401808873ffffffffffffffffffffffffffffffffffffffff1681526020018773ffffffffffffffffffffffffffffffffffffffff168152602001868152602001858152602001806020018473ffffffffffffffffffffffffffffffffffffffff168152602001838152602001828103825285818151815260200191508051906020019060200280838360008381101561374f578181015183820152602001613737565b604080517f08c379a000000000000000000000000000000000000000000000000000000000815260206004820152601760248201527f46697265426972645a61703a2021706174682073776170000000000000000000604482015290519081900360640190fd5b80600182510381518110613a5d57fe5b6020026020010151925050505b95945050505050565b600082821115613ae457604080517f08c379a000000000000000000000000000000000000000000000000000000000815260206004820152601e60248201527f536166654d6174683a207375627472616374696f6e206f766572666c6f770000604482015290519081900360640190fd5b50900390565b6000613af588612ec2565b613afe87612ec2565b6000808415613bff5760048054604080517ffbf4513500000000000000000000000000000000000000000000000000000000815273ffffffffffffffffffffffffffffffffffffffff8f8116948201949094528d841660248201528c84166044820152606481018c9052608481018b9052600160a4820181905260c482015289841660e4820152426101048201529051929091169163fbf4513591610124808201926060929091908290030181600087803b158015613bbc57600080fd5b505af1158015613bd0573d6000803e3d6000fd5b505050506040513d6060811015613be657600080fd5b5080516020820151604090920151945092509050613ce6565b600354604080517fe8e3370000000000000000000000000000000000000000000000000000000000815273ffffffffffffffffffffffffffffffffffffffff8d811660048301528c81166024830152604482018c9052606482018b905260016084830181905260a483015289811660c48301524260e48301529151919092169163e8e33700916101048083019260609291908290030181600087803b158015613ca757600080fd5b505af1158015613cbb573d6000803e3d6000fd5b505050506040513d6060811015613cd157600080fd5b50805160208201516040909201519450925090505b6000613cf28984613a73565b90508480613d195750613d166127106132d86008548c6132ec90919063ffffffff16565b81115b15613d2f578015613d2f57613d2f8b3383615372565b6000613d3b8984613a73565b90508580613d625750613d5f6127106132d86008548c6132ec90919063ffffffff16565b81115b15613d78578015613d7857613d788b3383615372565b5050505098975050505050505050565b60025460009073ffffffffffffffffffffffffffffffffffffffff86811691161415613dd957600254613dd29073ffffffffffffffffffffffffffffffffffffffff168486615372565b50826132e4565b73ffffffffffffffffffffffffffffffffffffffff8086166000908152600760209081526040808320600254909416835292815290829020805483518184028101840190945280845260609392830182828015613e6c57602002820191906000526020600020905b815473ffffffffffffffffffffffffffffffffffffffff168152600190910190602001808311613e41575b50505050509050606060008251111561407557600460009054906101000a900473ffffffffffffffffffffffffffffffffffffffff1673ffffffffffffffffffffffffffffffffffffffff16639c91fcb588886001868a426040518763ffffffff1660e01b8152600401808773ffffffffffffffffffffffffffffffffffffffff168152602001868152602001858152602001806020018473ffffffffffffffffffffffffffffffffffffffff168152602001838152602001828103825285818151815260200191508051906020019060200280838360005b83811015613f5d578181015183820152602001613f45565b50505050905001975050505050505050600060405180830381600087803b158015613f8757600080fd5b505af1158015613f9b573d6000803e3d6000fd5b505050506040513d6000823e601f3d9081017fffffffffffffffffffffffffffffffffffffffffffffffffffffffffffffffe01682016040526020811015613fe257600080fd5b810190808051604051939291908464010000000082111561400257600080fd5b90830190602082018581111561401757600080fd5b825186602082028301116401000000008211171561403457600080fd5b82525081516020918201928201910280838360005b83811015614061578181015183820152602001614049565b50505050905001604052505050905061423d565b73ffffffffffffffffffffffffffffffffffffffff8416156141d657604080516001808252818301909252906020808301908036833701905050915083826000815181106140bf57fe5b602002602001019073ffffffffffffffffffffffffffffffffffffffff16908173ffffffffffffffffffffffffffffffffffffffff1681525050600460009054906101000a900473ffffffffffffffffffffffffffffffffffffffff1673ffffffffffffffffffffffffffffffffffffffff16639c91fcb588886001868a426040518763ffffffff1660e01b8152600401808773ffffffffffffffffffffffffffffffffffffffff168152602001868152602001858152602001806020018473ffffffffffffffffffffffffffffffffffffffff1681526020018381526020018281038252858181518152602001915080519060200190602002808383600083811015613f5d578181015183820152602001613f45565b604080517f08c379a000000000000000000000000000000000000000000000000000000000815260206004820152601b60248201527f46697265426972645a61703a20217061746820546f6b656e424e420000000000604482015290519081900360640190fd5b8060018251038151811061424d57fe5b602002602001015192505050949350505050565b600080869050600260009054906101000a900473ffffffffffffffffffffffffffffffffffffffff1673ffffffffffffffffffffffffffffffffffffffff168773ffffffffffffffffffffffffffffffffffffffff16630dfe16816040518163ffffffff1660e01b815260040160206040518083038186803b1580156142e657600080fd5b505afa1580156142fa573d6000803e3d6000fd5b505050506040513d602081101561431057600080fd5b505173ffffffffffffffffffffffffffffffffffffffff1614806143e05750600254604080517fd21220a7000000000000000000000000000000000000000000000000000000008152905173ffffffffffffffffffffffffffffffffffffffff928316928a169163d21220a7916004808301926020929190829003018186803b15801561439c57600080fd5b505afa1580156143b0573d6000803e3d6000fd5b505050506040513d60208110156143c657600080fd5b505173ffffffffffffffffffffffffffffffffffffffff16145b15614958576000600260009054906101000a900473ffffffffffffffffffffffffffffffffffffffff1673ffffffffffffffffffffffffffffffffffffffff168873ffffffffffffffffffffffffffffffffffffffff16630dfe16816040518163ffffffff1660e01b815260040160206040518083038186803b15801561446657600080fd5b505afa15801561447a573d6000803e3d6000fd5b505050506040513d602081101561449057600080fd5b505173ffffffffffffffffffffffffffffffffffffffff1614614524578773ffffffffffffffffffffffffffffffffffffffff16630dfe16816040518163ffffffff1660e01b815260040160206040518083038186803b1580156144f357600080fd5b505afa158015614507573d6000803e3d6000fd5b505050506040513d602081101561451d57600080fd5b5051614597565b8773ffffffffffffffffffffffffffffffffffffffff1663d21220a76040518163ffffffff1660e01b815260040160206040518083038186803b15801561456a57600080fd5b505afa15801561457e573d6000803e3d6000fd5b505050506040513d602081101561459457600080fd5b50515b600554604080517fca22297900000000000000000000000000000000000000000000000000000000815273ffffffffffffffffffffffffffffffffffffffff8c81166004830152915193945060009384938493169163ca222979916024808301926060929190829003018186803b15801561461157600080fd5b505afa158015614625573d6000803e3d6000fd5b505050506040513d606081101561463b57600080fd5b8101908080519060200190929190805190602001909291908051906020019092919050505050915091506000600260009054906101000a900473ffffffffffffffffffffffffffffffffffffffff1673ffffffffffffffffffffffffffffffffffffffff168c73ffffffffffffffffffffffffffffffffffffffff16630dfe16816040518163ffffffff1660e01b815260040160206040518083038186803b1580156146e657600080fd5b505afa1580156146fa573d6000803e3d6000fd5b505050506040513d602081101561471057600080fd5b505173ffffffffffffffffffffffffffffffffffffffff1614614739578263ffffffff16614741565b8163ffffffff165b905061475260646132d88d846132ec565b9350505050600061476583833087615477565b9050868110156147d657604080517f08c379a000000000000000000000000000000000000000000000000000000000815260206004820181905260248201527f5a61703a20496e73756666696369656e74205265636569766520416d6f756e74604482015290519081900360640190fd5b60006147e28a84613a73565b9050600260009054906101000a900473ffffffffffffffffffffffffffffffffffffffff1673ffffffffffffffffffffffffffffffffffffffff1663d0e30db0826040518263ffffffff1660e01b81526004016000604051808303818588803b15801561484e57600080fd5b505af1158015614862573d6000803e3d6000fd5b505050505061494d85600260009054906101000a900473ffffffffffffffffffffffffffffffffffffffff168684868e600560009054906101000a900473ffffffffffffffffffffffffffffffffffffffff1673ffffffffffffffffffffffffffffffffffffffff1663e5e31b138d6040518263ffffffff1660e01b8152600401808273ffffffffffffffffffffffffffffffffffffffff16815260200191505060206040518083038186803b15801561491b57600080fd5b505afa15801561492f573d6000803e3d6000fd5b505050506040513d602081101561494557600080fd5b50518e613aea565b955050505050614bea565b60008773ffffffffffffffffffffffffffffffffffffffff16630dfe16816040518163ffffffff1660e01b815260040160206040518083038186803b1580156149a057600080fd5b505afa1580156149b4573d6000803e3d6000fd5b505050506040513d60208110156149ca57600080fd5b5051604080517fd21220a7000000000000000000000000000000000000000000000000000000008152905191925060009173ffffffffffffffffffffffffffffffffffffffff8b169163d21220a7916004808301926020929190829003018186803b158015614a3857600080fd5b505afa158015614a4c573d6000803e3d6000fd5b505050506040513d6020811015614a6257600080fd5b5051600554604080517fca22297900000000000000000000000000000000000000000000000000000000815273ffffffffffffffffffffffffffffffffffffffff8781166004830152915193945060009384938493169163ca222979916024808301926060929190829003018186803b158015614ade57600080fd5b505afa158015614af2573d6000803e3d6000fd5b505050506040513d6060811015614b0857600080fd5b505190506000614b2660646132d88e63ffffffff808716906132ec16565b9050614b358682306000615477565b9350614b4d85614b458e84613a73565b306000615477565b92505050614be385858585858e600560009054906101000a900473ffffffffffffffffffffffffffffffffffffffff1673ffffffffffffffffffffffffffffffffffffffff1663e5e31b138d6040518263ffffffff1660e01b8152600401808273ffffffffffffffffffffffffffffffffffffffff16815260200191505060206040518083038186803b15801561491b57600080fd5b9550505050505b5095945050505050565b73ffffffffffffffffffffffffffffffffffffffff8216614c7057614c198147614e78565b6040805147815273ffffffffffffffffffffffffffffffffffffffff83811660208301528251908516927f56c54ba9bd38d8fd62012e42c7ee564519b09763c426d331b3661b537ead19b2928290030190a2610ac0565b60008273ffffffffffffffffffffffffffffffffffffffff166370a08231306040518263ffffffff1660e01b8152600401808273ffffffffffffffffffffffffffffffffffffffff16815260200191505060206040518083038186803b158015614cd957600080fd5b505afa158015614ced573d6000803e3d6000fd5b505050506040513d6020811015614d0357600080fd5b5051604080517fa9059cbb00000000000000000000000000000000000000000000000000000000815273ffffffffffffffffffffffffffffffffffffffff85811660048301526024820184905291519293509085169163a9059cbb916044808201926020929091908290030181600087803b158015614d8157600080fd5b505af1158015614d95573d6000803e3d6000fd5b505050506040513d6020811015614dab57600080fd5b50506040805182815273ffffffffffffffffffffffffffffffffffffffff84811660208301528251908616927f56c54ba9bd38d8fd62012e42c7ee564519b09763c426d331b3661b537ead19b2928290030190a2505050565b60008282018381101561335f57604080517f08c379a000000000000000000000000000000000000000000000000000000000815260206004820152601b60248201527f536166654d6174683a206164646974696f6e206f766572666c6f770000000000604482015290519081900360640190fd5b6040805160008082526020820190925273ffffffffffffffffffffffffffffffffffffffff84169083906040518082805190602001908083835b60208310614eef57805182527fffffffffffffffffffffffffffffffffffffffffffffffffffffffffffffffe09092019160209182019101614eb2565b6001836020036101000a03801982511681845116808217855250505050505090500191505060006040518083038185875af1925050503d8060008114614f51576040519150601f19603f3d011682016040523d82523d6000602084013e614f56565b606091505b50509050806124a5576040517f08c379a0000000000000000000000000000000000000000000000000000000008152600401808060200182810382526023815260200180615cc76023913960400191505060405180910390fd5b6040805173ffffffffffffffffffffffffffffffffffffffff8416602482015260448082018490528251808303909101815260649091019091526020810180517bffffffffffffffffffffffffffffffffffffffffffffffffffffffff167fa9059cbb000000000000000000000000000000000000000000000000000000001790526124a59084905b606061509b826040518060400160405280602081526020017f5361666545524332303a206c6f772d6c6576656c2063616c6c206661696c65648152508573ffffffffffffffffffffffffffffffffffffffff166159269092919063ffffffff16565b8051909150156124a5578080602001905160208110156150ba57600080fd5b50516124a5576040517f08c379a000000000000000000000000000000000000000000000000000000000815260040180806020018281038252602a815260200180615cea602a913960400191505060405180910390fd5b8015806151bd5750604080517fdd62ed3e00000000000000000000000000000000000000000000000000000000815230600482015273ffffffffffffffffffffffffffffffffffffffff848116602483015291519185169163dd62ed3e91604480820192602092909190829003018186803b15801561518f57600080fd5b505afa1580156151a3573d6000803e3d6000fd5b505050506040513d60208110156151b957600080fd5b5051155b615212576040517f08c379a0000000000000000000000000000000000000000000000000000000008152600401808060200182810382526036815260200180615d146036913960400191505060405180910390fd5b6040805173ffffffffffffffffffffffffffffffffffffffff8416602482015260448082018490528251808303909101815260649091019091526020810180517bffffffffffffffffffffffffffffffffffffffffffffffffffffffff167f095ea7b3000000000000000000000000000000000000000000000000000000001790526124a5908490615039565b600060038211156152e2575080600160028204015b818110156152dc578091506002818285816152cb57fe5b0401816152d457fe5b0490506152b4565b506152ec565b81156152ec575060015b919050565b600080821161536157604080517f08c379a000000000000000000000000000000000000000000000000000000000815260206004820152601a60248201527f536166654d6174683a206469766973696f6e206279207a65726f000000000000604482015290519081900360640190fd5b81838161536a57fe5b049392505050565b8061537c576124a5565b60025473ffffffffffffffffffffffffffffffffffffffff8481169116141561545657600254604080517f2e1a7d4d00000000000000000000000000000000000000000000000000000000815260048101849052905173ffffffffffffffffffffffffffffffffffffffff90921691632e1a7d4d9160248082019260009290919082900301818387803b15801561541257600080fd5b505af1158015615426573d6000803e3d6000fd5b5050505073ffffffffffffffffffffffffffffffffffffffff82163014615451576154518282614e78565b6124a5565b6124a573ffffffffffffffffffffffffffffffffffffffff84168383614fb0565b60025460009073ffffffffffffffffffffffffffffffffffffffff8681169116141561556257600260009054906101000a900473ffffffffffffffffffffffffffffffffffffffff1673ffffffffffffffffffffffffffffffffffffffff1663d0e30db0856040518263ffffffff1660e01b81526004016000604051808303818588803b15801561550757600080fd5b505af115801561551b573d6000803e3d6000fd5b5050505073ffffffffffffffffffffffffffffffffffffffff841630149050613dd257600254613dd29073ffffffffffffffffffffffffffffffffffffffff168486614fb0565b60025473ffffffffffffffffffffffffffffffffffffffff90811660009081526007602090815260408083209389168352928152908290208054835181840281018401909452808452606093928301828280156155f557602002820191906000526020600020905b815473ffffffffffffffffffffffffffffffffffffffff1681526001909101906020018083116155ca575b50505050509050606060008251111561576457600460009054906101000a900473ffffffffffffffffffffffffffffffffffffffff1673ffffffffffffffffffffffffffffffffffffffff1663fde1adda87896001868a426040518763ffffffff1660e01b8152600401808673ffffffffffffffffffffffffffffffffffffffff168152602001858152602001806020018473ffffffffffffffffffffffffffffffffffffffff168152602001838152602001828103825285818151815260200191508051906020019060200280838360005b838110156156e05781810151838201526020016156c8565b5050505090500196505050505050506000604051808303818588803b15801561570857600080fd5b505af115801561571c573d6000803e3d6000fd5b50505050506040513d6000823e601f3d9081017fffffffffffffffffffffffffffffffffffffffffffffffffffffffffffffffe01682016040526020811015613fe257600080fd5b73ffffffffffffffffffffffffffffffffffffffff8416156158bf57604080516001808252818301909252906020808301908036833701905050915083826000815181106157ae57fe5b602002602001019073ffffffffffffffffffffffffffffffffffffffff16908173ffffffffffffffffffffffffffffffffffffffff1681525050600460009054906101000a900473ffffffffffffffffffffffffffffffffffffffff1673ffffffffffffffffffffffffffffffffffffffff1663fde1adda87896001868a426040518763ffffffff1660e01b8152600401808673ffffffffffffffffffffffffffffffffffffffff168152602001858152602001806020018473ffffffffffffffffffffffffffffffffffffffff16815260200183815260200182810382528581815181526020019150805190602001906020028083836000838110156156e05781810151838201526020016156c8565b604080517f08c379a000000000000000000000000000000000000000000000000000000000815260206004820152601b60248201527f46697265426972645a61703a20217061746820424e42546f6b656e0000000000604482015290519081900360640190fd5b6060615935848460008561593f565b90505b9392505050565b60608247101561599a576040517f08c379a0000000000000000000000000000000000000000000000000000000008152600401808060200182810382526026815260200180615c806026913960400191505060405180910390fd5b6159a385615afa565b615a0e57604080517f08c379a000000000000000000000000000000000000000000000000000000000815260206004820152601d60248201527f416464726573733a2063616c6c20746f206e6f6e2d636f6e7472616374000000604482015290519081900360640190fd5b600060608673ffffffffffffffffffffffffffffffffffffffff1685876040518082805190602001908083835b60208310615a7857805182527fffffffffffffffffffffffffffffffffffffffffffffffffffffffffffffffe09092019160209182019101615a3b565b6001836020036101000a03801982511681845116808217855250505050505090500191505060006040518083038185875af1925050503d8060008114615ada576040519150601f19603f3d011682016040523d82523d6000602084013e615adf565b606091505b5091509150615aef828286615b00565b979650505050505050565b3b151590565b60608315615b0f575081615938565b825115615b1f5782518084602001fd5b816040517f08c379a00000000000000000000000000000000000000000000000000000000081526004018080602001828103825283818151815260200191508051906020019080838360005b83811015615b83578181015183820152602001615b6b565b50505050905090810190601f168015615bb05780820380516001836020036101000a031916815260200191505b509250505060405180910390fd5b828054828255906000526020600020908101928215615c38579160200282015b82811115615c3857825182547fffffffffffffffffffffffff00000000000000000000000000000000000000001673ffffffffffffffffffffffffffffffffffffffff909116178255602090920191600190910190615bde565b50615c44929150615c48565b5090565b5b80821115615c445780547fffffffffffffffffffffffff0000000000000000000000000000000000000000168155600101615c4956fe416464726573733a20696e73756666696369656e742062616c616e636520666f722063616c6c536166654d6174683a206d756c7469706c69636174696f6e206f766572666c6f775472616e7366657248656c7065723a204554485f5452414e534645525f4641494c45445361666545524332303a204552433230206f7065726174696f6e20646964206e6f7420737563636565645361666545524332303a20617070726f76652066726f6d206e6f6e2d7a65726f20746f206e6f6e2d7a65726f20616c6c6f77616e6365a26469706673582212208113ba84821571cd263a8c59a223eff22efd3682a62da2d821a286538654efa664736f6c634300060c0033",
  "devdoc": {
    "kind": "dev",
    "methods": {},
    "version": 1
  },
  "userdoc": {
    "kind": "user",
    "methods": {},
    "version": 1
  },
  "storageLayout": {
    "storage": [
      {
        "astId": 1739,
        "contract": "contracts/FireBirdZap.sol:FireBirdZap",
        "label": "_status",
        "offset": 0,
        "slot": "0",
        "type": "t_uint256"
      },
      {
        "astId": 1790,
        "contract": "contracts/FireBirdZap.sol:FireBirdZap",
        "label": "governance",
        "offset": 0,
        "slot": "1",
        "type": "t_address"
      },
      {
        "astId": 1792,
        "contract": "contracts/FireBirdZap.sol:FireBirdZap",
        "label": "WBNB",
        "offset": 0,
        "slot": "2",
        "type": "t_address"
      },
      {
        "astId": 1800,
        "contract": "contracts/FireBirdZap.sol:FireBirdZap",
        "label": "uniRouter",
        "offset": 0,
        "slot": "3",
        "type": "t_contract(IUniswapV2Router)6427"
      },
      {
        "astId": 1802,
        "contract": "contracts/FireBirdZap.sol:FireBirdZap",
        "label": "fireBirdRouter",
        "offset": 0,
        "slot": "4",
        "type": "t_contract(IFireBirdRouter)5710"
      },
      {
        "astId": 1804,
        "contract": "contracts/FireBirdZap.sol:FireBirdZap",
        "label": "fireBirdFactory",
        "offset": 0,
        "slot": "5",
        "type": "t_contract(IFireBirdFactory)4781"
      },
      {
        "astId": 1806,
        "contract": "contracts/FireBirdZap.sol:FireBirdZap",
        "label": "fireBirdFormula",
        "offset": 0,
        "slot": "6",
        "type": "t_contract(IFireBirdFormula)5022"
      },
      {
        "astId": 1813,
        "contract": "contracts/FireBirdZap.sol:FireBirdZap",
        "label": "fireBirdPairs",
        "offset": 0,
        "slot": "7",
        "type": "t_mapping(t_address,t_mapping(t_address,t_array(t_address)dyn_storage))"
      },
      {
        "astId": 1816,
        "contract": "contracts/FireBirdZap.sol:FireBirdZap",
        "label": "maxResidual",
        "offset": 0,
        "slot": "8",
        "type": "t_uint256"
      },
      {
        "astId": 1819,
        "contract": "contracts/FireBirdZap.sol:FireBirdZap",
        "label": "tokensResidual",
        "offset": 0,
        "slot": "9",
        "type": "t_array(t_address)dyn_storage"
      }
    ],
    "types": {
      "t_address": {
        "encoding": "inplace",
        "label": "address",
        "numberOfBytes": "20"
      },
      "t_array(t_address)dyn_storage": {
        "base": "t_address",
        "encoding": "dynamic_array",
        "label": "address[]",
        "numberOfBytes": "32"
      },
      "t_contract(IFireBirdFactory)4781": {
        "encoding": "inplace",
        "label": "contract IFireBirdFactory",
        "numberOfBytes": "20"
      },
      "t_contract(IFireBirdFormula)5022": {
        "encoding": "inplace",
        "label": "contract IFireBirdFormula",
        "numberOfBytes": "20"
      },
      "t_contract(IFireBirdRouter)5710": {
        "encoding": "inplace",
        "label": "contract IFireBirdRouter",
        "numberOfBytes": "20"
      },
      "t_contract(IUniswapV2Router)6427": {
        "encoding": "inplace",
        "label": "contract IUniswapV2Router",
        "numberOfBytes": "20"
      },
      "t_mapping(t_address,t_array(t_address)dyn_storage)": {
        "encoding": "mapping",
        "key": "t_address",
        "label": "mapping(address => address[])",
        "numberOfBytes": "32",
        "value": "t_array(t_address)dyn_storage"
      },
      "t_mapping(t_address,t_mapping(t_address,t_array(t_address)dyn_storage))": {
        "encoding": "mapping",
        "key": "t_address",
        "label": "mapping(address => mapping(address => address[]))",
        "numberOfBytes": "32",
        "value": "t_mapping(t_address,t_array(t_address)dyn_storage)"
      },
      "t_uint256": {
        "encoding": "inplace",
        "label": "uint256",
        "numberOfBytes": "32"
      }
    }
  }
}