{
  "address": "0x9F43f3590540B45cF3247C05FF38130789f9a346",
  "abi": [
    {
      "inputs": [
        {
          "internalType": "uint256",
          "name": "a",
          "type": "uint256"
        },
        {
          "internalType": "uint256",
          "name": "b",
          "type": "uint256"
        }
      ],
      "name": "difference",
      "outputs": [
        {
          "internalType": "uint256",
          "name": "",
          "type": "uint256"
        }
      ],
      "stateMutability": "pure",
      "type": "function"
    },
    {
      "inputs": [
        {
          "internalType": "uint256",
          "name": "a",
          "type": "uint256"
        },
        {
          "internalType": "uint256",
          "name": "b",
          "type": "uint256"
        }
      ],
      "name": "within1",
      "outputs": [
        {
          "internalType": "bool",
          "name": "",
          "type": "bool"
        }
      ],
      "stateMutability": "pure",
      "type": "function"
    }
  ],
  "transactionHash": "0x14d39f954915a54b7a42ce816892519bbe5f28d8e041d203f56c4a7de42b2925",
  "args": [],
  "solcInputHash": "62812d29f709351baf601151a10eb8e0",
  "bytecode": "0x61011c610026600b82828239805160001a60731461001957fe5b30600052607381538281f3fe7300000000000000000000000000000000000000003014608060405260043610603d5760003560e01c806313a1ec75146042578063a95cb7f7146076575b600080fd5b606260048036036040811015605657600080fd5b508035906020013560a8565b604080519115158252519081900360200190f35b609660048036036040811015608a57600080fd5b508035906020013560bf565b60408051918252519081900360200190f35b6000600160b4848460d0565b111590505b92915050565b600060c9838360d0565b9392505050565b60008183111560e1575080820360b9565b50039056fea2646970667358221220d6b1faa5798c26f356103e022fed427f0fe833e5a9fbaaaea45e5581dc9c77bc64736f6c634300060c0033",
  "devdoc": {
    "kind": "dev",
    "methods": {
      "difference(uint256,uint256)": {
        "params": {
          "a": "uint256 to compare with",
          "b": "uint256 to compare with"
        },
        "returns": {
          "_0": "Difference between a and b"
        }
      },
      "within1(uint256,uint256)": {
        "params": {
          "a": "uint256 to compare with",
          "b": "uint256 to compare with"
        },
        "returns": {
          "_0": "True if the difference between a and b is less than 1 or equal,         otherwise return false"
        }
      }
    },
    "title": "MathUtils library",
    "version": 1
  },
  "userdoc": {
    "kind": "user",
    "methods": {
      "difference(uint256,uint256)": {
        "notice": "Calculates absolute difference between a and b"
      },
      "within1(uint256,uint256)": {
        "notice": "Compares a and b and returns true if the difference between a and b         is less than 1 or equal to each other."
      }
    },
    "notice": "A library to be used in conjunction with SafeMath. Contains functions for calculating differences between two uint256.",
    "version": 1
  },
  "storageLayout": {
    "storage": [],
    "types": null
  }
}