{
  "address": "0x1f8C7722C72e5A4E59A28071a6D26F2E7E7C9cda",
  "abi": [
    {
      "inputs": [
        {
          "internalType": "contract ISwap",
          "name": "pool",
          "type": "address"
        },
        {
          "internalType": "contract ISwap",
          "name": "basePool",
          "type": "address"
        },
        {
          "internalType": "uint256[]",
          "name": "meta_amounts",
          "type": "uint256[]"
        },
        {
          "internalType": "uint256[]",
          "name": "base_amounts",
          "type": "uint256[]"
        },
        {
          "internalType": "uint256",
          "name": "minToMint",
          "type": "uint256"
        },
        {
          "internalType": "uint256",
          "name": "deadline",
          "type": "uint256"
        }
      ],
      "name": "addLiquidity",
      "outputs": [
        {
          "internalType": "uint256",
          "name": "",
          "type": "uint256"
        }
      ],
      "stateMutability": "nonpayable",
      "type": "function"
    },
    {
      "inputs": [
        {
          "internalType": "contract ISwap",
          "name": "fromPool",
          "type": "address"
        },
        {
          "internalType": "contract ISwap",
          "name": "toPool",
          "type": "address"
        },
        {
          "internalType": "uint256",
          "name": "amount",
          "type": "uint256"
        }
      ],
      "name": "calculateConvert",
      "outputs": [
        {
          "internalType": "uint256",
          "name": "",
          "type": "uint256"
        }
      ],
      "stateMutability": "view",
      "type": "function"
    },
    {
      "inputs": [
        {
          "internalType": "contract ISwap",
          "name": "pool",
          "type": "address"
        },
        {
          "internalType": "contract ISwap",
          "name": "basePool",
          "type": "address"
        },
        {
          "internalType": "uint256",
          "name": "_token_amount",
          "type": "uint256"
        },
        {
          "internalType": "uint8",
          "name": "iBase",
          "type": "uint8"
        }
      ],
      "name": "calculateRemoveBaseLiquidityOneToken",
      "outputs": [
        {
          "internalType": "uint256",
          "name": "availableTokenAmount",
          "type": "uint256"
        }
      ],
      "stateMutability": "view",
      "type": "function"
    },
    {
      "inputs": [
        {
          "internalType": "contract ISwap",
          "name": "pool",
          "type": "address"
        },
        {
          "internalType": "contract ISwap",
          "name": "basePool",
          "type": "address"
        },
        {
          "internalType": "uint256",
          "name": "amount",
          "type": "uint256"
        }
      ],
      "name": "calculateRemoveLiquidity",
      "outputs": [
        {
          "internalType": "uint256[]",
          "name": "meta_amounts",
          "type": "uint256[]"
        },
        {
          "internalType": "uint256[]",
          "name": "base_amounts",
          "type": "uint256[]"
        }
      ],
      "stateMutability": "view",
      "type": "function"
    },
    {
      "inputs": [
        {
          "internalType": "contract ISwap",
          "name": "pool",
          "type": "address"
        },
        {
          "internalType": "contract ISwap",
          "name": "basePool",
          "type": "address"
        },
        {
          "internalType": "uint8",
          "name": "tokenIndexFrom",
          "type": "uint8"
        },
        {
          "internalType": "uint8",
          "name": "tokenIndexTo",
          "type": "uint8"
        },
        {
          "internalType": "uint256",
          "name": "dx",
          "type": "uint256"
        }
      ],
      "name": "calculateSwapFromBase",
      "outputs": [
        {
          "internalType": "uint256",
          "name": "",
          "type": "uint256"
        }
      ],
      "stateMutability": "view",
      "type": "function"
    },
    {
      "inputs": [
        {
          "internalType": "contract ISwap",
          "name": "pool",
          "type": "address"
        },
        {
          "internalType": "contract ISwap",
          "name": "basePool",
          "type": "address"
        },
        {
          "internalType": "uint8",
          "name": "tokenIndexFrom",
          "type": "uint8"
        },
        {
          "internalType": "uint8",
          "name": "tokenIndexTo",
          "type": "uint8"
        },
        {
          "internalType": "uint256",
          "name": "dx",
          "type": "uint256"
        }
      ],
      "name": "calculateSwapToBase",
      "outputs": [
        {
          "internalType": "uint256",
          "name": "",
          "type": "uint256"
        }
      ],
      "stateMutability": "view",
      "type": "function"
    },
    {
      "inputs": [
        {
          "internalType": "contract ISwap",
          "name": "pool",
          "type": "address"
        },
        {
          "internalType": "contract ISwap",
          "name": "basePool",
          "type": "address"
        },
        {
          "internalType": "uint256[]",
          "name": "meta_amounts",
          "type": "uint256[]"
        },
        {
          "internalType": "uint256[]",
          "name": "base_amounts",
          "type": "uint256[]"
        },
        {
          "internalType": "bool",
          "name": "is_deposit",
          "type": "bool"
        }
      ],
      "name": "calculateTokenAmount",
      "outputs": [
        {
          "internalType": "uint256",
          "name": "",
          "type": "uint256"
        }
      ],
      "stateMutability": "view",
      "type": "function"
    },
    {
      "inputs": [
        {
          "internalType": "contract ISwap",
          "name": "fromPool",
          "type": "address"
        },
        {
          "internalType": "contract ISwap",
          "name": "toPool",
          "type": "address"
        },
        {
          "internalType": "uint256",
          "name": "amount",
          "type": "uint256"
        },
        {
          "internalType": "uint256",
          "name": "minToMint",
          "type": "uint256"
        },
        {
          "internalType": "uint256",
          "name": "deadline",
          "type": "uint256"
        }
      ],
      "name": "convert",
      "outputs": [
        {
          "internalType": "uint256",
          "name": "",
          "type": "uint256"
        }
      ],
      "stateMutability": "nonpayable",
      "type": "function"
    },
    {
      "inputs": [
        {
          "internalType": "contract ISwap",
          "name": "pool",
          "type": "address"
        },
        {
          "internalType": "contract ISwap",
          "name": "basePool",
          "type": "address"
        },
        {
          "internalType": "uint256",
          "name": "_token_amount",
          "type": "uint256"
        },
        {
          "internalType": "uint8",
          "name": "i",
          "type": "uint8"
        },
        {
          "internalType": "uint256",
          "name": "_min_amount",
          "type": "uint256"
        },
        {
          "internalType": "uint256",
          "name": "deadline",
          "type": "uint256"
        }
      ],
      "name": "removeBaseLiquidityOneToken",
      "outputs": [
        {
          "internalType": "uint256",
          "name": "",
          "type": "uint256"
        }
      ],
      "stateMutability": "nonpayable",
      "type": "function"
    },
    {
      "inputs": [
        {
          "internalType": "contract ISwap",
          "name": "pool",
          "type": "address"
        },
        {
          "internalType": "contract ISwap",
          "name": "basePool",
          "type": "address"
        },
        {
          "internalType": "uint256",
          "name": "_amount",
          "type": "uint256"
        },
        {
          "internalType": "uint256[]",
          "name": "min_amounts_meta",
          "type": "uint256[]"
        },
        {
          "internalType": "uint256[]",
          "name": "min_amounts_base",
          "type": "uint256[]"
        },
        {
          "internalType": "uint256",
          "name": "deadline",
          "type": "uint256"
        }
      ],
      "name": "removeLiquidity",
      "outputs": [
        {
          "internalType": "uint256[]",
          "name": "amounts",
          "type": "uint256[]"
        },
        {
          "internalType": "uint256[]",
          "name": "base_amounts",
          "type": "uint256[]"
        }
      ],
      "stateMutability": "nonpayable",
      "type": "function"
    },
    {
      "inputs": [
        {
          "internalType": "contract ISwap",
          "name": "pool",
          "type": "address"
        },
        {
          "internalType": "contract ISwap",
          "name": "basePool",
          "type": "address"
        },
        {
          "internalType": "uint8",
          "name": "tokenIndexFrom",
          "type": "uint8"
        },
        {
          "internalType": "uint8",
          "name": "tokenIndexTo",
          "type": "uint8"
        },
        {
          "internalType": "uint256",
          "name": "dx",
          "type": "uint256"
        },
        {
          "internalType": "uint256",
          "name": "minDy",
          "type": "uint256"
        },
        {
          "internalType": "uint256",
          "name": "deadline",
          "type": "uint256"
        }
      ],
      "name": "swapFromBase",
      "outputs": [
        {
          "internalType": "uint256",
          "name": "",
          "type": "uint256"
        }
      ],
      "stateMutability": "nonpayable",
      "type": "function"
    },
    {
      "inputs": [
        {
          "internalType": "contract ISwap",
          "name": "pool",
          "type": "address"
        },
        {
          "internalType": "contract ISwap",
          "name": "basePool",
          "type": "address"
        },
        {
          "internalType": "uint8",
          "name": "tokenIndexFrom",
          "type": "uint8"
        },
        {
          "internalType": "uint8",
          "name": "tokenIndexTo",
          "type": "uint8"
        },
        {
          "internalType": "uint256",
          "name": "dx",
          "type": "uint256"
        },
        {
          "internalType": "uint256",
          "name": "minDy",
          "type": "uint256"
        },
        {
          "internalType": "uint256",
          "name": "deadline",
          "type": "uint256"
        }
      ],
      "name": "swapToBase",
      "outputs": [
        {
          "internalType": "uint256",
          "name": "",
          "type": "uint256"
        }
      ],
      "stateMutability": "nonpayable",
      "type": "function"
    }
  ],
  "transactionHash": "0x9b74ea6521d89c20c8a853e92c2317e817cdb883c750693c5744aa94572d3171",
  "args": [],
  "solcInputHash": "62812d29f709351baf601151a10eb8e0",
  "bytecode": "0x608060405234801561001057600080fd5b50615232806100206000396000f3fe608060405234801561001057600080fd5b50600436106100d45760003560e01c8063643abb86116100815780638a311c571161005b5780638a311c57146106ee578063998cae4714610744578063ff9693221461079c576100d4565b8063643abb861461050d57806377269e2914610550578063797018211461069f576100d4565b80633214b8c9116100b25780633214b8c91461040857806338c789731461045e57806354681c41146104c0576100d4565b80630c8b2216146100d95780630d6307eb146101b557806324a5bf2114610319575b600080fd5b61011c600480360360608110156100ef57600080fd5b5073ffffffffffffffffffffffffffffffffffffffff8135811691602081013590911690604001356107fe565b604051808060200180602001838103835285818151815260200191508051906020019060200280838360005b83811015610160578181015183820152602001610148565b50505050905001838103825284818151815260200191508051906020019060200280838360005b8381101561019f578181015183820152602001610187565b5050505090500194505050505060405180910390f35b610307600480360360c08110156101cb57600080fd5b73ffffffffffffffffffffffffffffffffffffffff823581169260208101359091169181019060608101604082013564010000000081111561020c57600080fd5b82018360208201111561021e57600080fd5b8035906020019184602083028401116401000000008311171561024057600080fd5b919080806020026020016040519081016040528093929190818152602001838360200280828437600092019190915250929594936020810193503591505064010000000081111561029057600080fd5b8201836020820111156102a257600080fd5b803590602001918460208302840111640100000000831117156102c457600080fd5b9190808060200260200160405190810160405280939291908181526020018383602002808284376000920191909152509295505082359350505060200135610ba1565b60408051918252519081900360200190f35b61011c600480360360c081101561032f57600080fd5b73ffffffffffffffffffffffffffffffffffffffff82358116926020810135909116916040820135919081019060808101606082013564010000000081111561037757600080fd5b82018360208201111561038957600080fd5b803590602001918460208302840111640100000000831117156103ab57600080fd5b9193909290916020810190356401000000008111156103c957600080fd5b8201836020820111156103db57600080fd5b803590602001918460208302840111640100000000831117156103fd57600080fd5b9193509150356113f6565b610307600480360360a081101561041e57600080fd5b5073ffffffffffffffffffffffffffffffffffffffff813581169160208101359091169060ff604082013581169160608101359091169060800135611f24565b610307600480360360e081101561047457600080fd5b5073ffffffffffffffffffffffffffffffffffffffff813581169160208101359091169060ff604082013581169160608101359091169060808101359060a08101359060c0013561213b565b610307600480360360808110156104d657600080fd5b50803573ffffffffffffffffffffffffffffffffffffffff908116916020810135909116906040810135906060013560ff16612728565b6103076004803603606081101561052357600080fd5b5073ffffffffffffffffffffffffffffffffffffffff813581169160208101359091169060400135612931565b610307600480360360a081101561056657600080fd5b73ffffffffffffffffffffffffffffffffffffffff82358116926020810135909116918101906060810160408201356401000000008111156105a757600080fd5b8201836020820111156105b957600080fd5b803590602001918460208302840111640100000000831117156105db57600080fd5b919080806020026020016040519081016040528093929190818152602001838360200280828437600092019190915250929594936020810193503591505064010000000081111561062b57600080fd5b82018360208201111561063d57600080fd5b8035906020019184602083028401116401000000008311171561065f57600080fd5b9190808060200260200160405190810160405280939291908181526020018383602002808284376000920191909152509295505050503515159050612db6565b610307600480360360a08110156106b557600080fd5b5073ffffffffffffffffffffffffffffffffffffffff81358116916020810135909116906040810135906060810135906080013561303a565b610307600480360360a081101561070457600080fd5b5073ffffffffffffffffffffffffffffffffffffffff813581169160208101359091169060ff604082013581169160608101359091169060800135613aa2565b610307600480360360c081101561075a57600080fd5b5073ffffffffffffffffffffffffffffffffffffffff813581169160208101359091169060408101359060ff6060820135169060808101359060a00135613df5565b610307600480360360e08110156107b257600080fd5b5073ffffffffffffffffffffffffffffffffffffffff813581169160208101359091169060ff604082013581169160608101359091169060808101359060a08101359060c00135614411565b606080600061080c85614911565b905060008673ffffffffffffffffffffffffffffffffffffffff166366c0bd24836040518263ffffffff1660e01b8152600401808273ffffffffffffffffffffffffffffffffffffffff16815260200191505060206040518083038186803b15801561087757600080fd5b505afa15801561088b573d6000803e3d6000fd5b505050506040513d60208110156108a157600080fd5b5051604080517f7c61e56100000000000000000000000000000000000000000000000000000000815230600482015260248101889052905191925073ffffffffffffffffffffffffffffffffffffffff891691637c61e56191604480820192600092909190829003018186803b15801561091a57600080fd5b505afa15801561092e573d6000803e3d6000fd5b505050506040513d6000823e601f3d9081017fffffffffffffffffffffffffffffffffffffffffffffffffffffffffffffffe0168201604052602081101561097557600080fd5b810190808051604051939291908464010000000082111561099557600080fd5b9083019060208201858111156109aa57600080fd5b82518660208202830111640100000000821117156109c757600080fd5b82525081516020918201928201910280838360005b838110156109f45781810151838201526020016109dc565b5050505090500160405250505093506000848260ff1681518110610a1457fe5b602002602001015190506000858360ff1681518110610a2f57fe5b6020908102919091010152604080517f7c61e56100000000000000000000000000000000000000000000000000000000815230600482015260248101839052905173ffffffffffffffffffffffffffffffffffffffff891691637c61e561916044808301926000929190829003018186803b158015610aad57600080fd5b505afa158015610ac1573d6000803e3d6000fd5b505050506040513d6000823e601f3d9081017fffffffffffffffffffffffffffffffffffffffffffffffffffffffffffffffe01682016040526020811015610b0857600080fd5b8101908080516040519392919084640100000000821115610b2857600080fd5b908301906020820185811115610b3d57600080fd5b8251866020820283011164010000000082111715610b5a57600080fd5b82525081516020918201928201910280838360005b83811015610b87578181015183820152602001610b6f565b505050509050016040525050509350505050935093915050565b600080610bad88614911565b90508673ffffffffffffffffffffffffffffffffffffffff16632f71b9126040518163ffffffff1660e01b815260040160206040518083038186803b158015610bf557600080fd5b505afa158015610c09573d6000803e3d6000fd5b505050506040513d6020811015610c1f57600080fd5b5051855114610c8f57604080517f08c379a000000000000000000000000000000000000000000000000000000000815260206004820152601960248201527f496e76616c6964206261736520746f6b656e206c656e67746800000000000000604482015290519081900360640190fd5b8773ffffffffffffffffffffffffffffffffffffffff16632f71b9126040518163ffffffff1660e01b815260040160206040518083038186803b158015610cd557600080fd5b505afa158015610ce9573d6000803e3d6000fd5b505050506040513d6020811015610cff57600080fd5b5051865114610d6f57604080517f08c379a000000000000000000000000000000000000000000000000000000000815260206004820152601960248201527f496e76616c6964206d65746120746f6b656e206c656e67746800000000000000604482015290519081900360640190fd5b6000805b86518160ff161015610f2d576000878260ff1681518110610d9057fe5b602002602001015190506000811115610f24576001925060008a73ffffffffffffffffffffffffffffffffffffffff166382b86600846040518263ffffffff1660e01b8152600401808260ff16815260200191505060206040518083038186803b158015610dfd57600080fd5b505afa158015610e11573d6000803e3d6000fd5b505050506040513d6020811015610e2757600080fd5b50519050610e4d73ffffffffffffffffffffffffffffffffffffffff8216333085614990565b60008173ffffffffffffffffffffffffffffffffffffffff166370a08231306040518263ffffffff1660e01b8152600401808273ffffffffffffffffffffffffffffffffffffffff16815260200191505060206040518083038186803b158015610eb657600080fd5b505afa158015610eca573d6000803e3d6000fd5b505050506040513d6020811015610ee057600080fd5b50519050610f0573ffffffffffffffffffffffffffffffffffffffff83168d83614a2b565b808a8560ff1681518110610f1557fe5b60200260200101818152505050505b50600101610d73565b508015611003578773ffffffffffffffffffffffffffffffffffffffff16634d49e87d876000876040518463ffffffff1660e01b81526004018080602001848152602001838152602001828103825285818151815260200191508051906020019060200280838360005b83811015610faf578181015183820152602001610f97565b50505050905001945050505050602060405180830381600087803b158015610fd657600080fd5b505af1158015610fea573d6000803e3d6000fd5b505050506040513d602081101561100057600080fd5b50505b60005b87518160ff1610156111d95760008a73ffffffffffffffffffffffffffffffffffffffff166382b86600836040518263ffffffff1660e01b8152600401808260ff16815260200191505060206040518083038186803b15801561106857600080fd5b505afa15801561107c573d6000803e3d6000fd5b505050506040513d602081101561109257600080fd5b505189519091506000908a9060ff85169081106110ab57fe5b602002602001015111156110fc576110fc33308b8560ff16815181106110cd57fe5b60200260200101518473ffffffffffffffffffffffffffffffffffffffff16614990909392919063ffffffff16565b60008173ffffffffffffffffffffffffffffffffffffffff166370a08231306040518263ffffffff1660e01b8152600401808273ffffffffffffffffffffffffffffffffffffffff16815260200191505060206040518083038186803b15801561116557600080fd5b505afa158015611179573d6000803e3d6000fd5b505050506040513d602081101561118f57600080fd5b505190506111b473ffffffffffffffffffffffffffffffffffffffff83168d83614a2b565b808a8460ff16815181106111c457fe5b60209081029190910101525050600101611006565b508873ffffffffffffffffffffffffffffffffffffffff16634d49e87d8887876040518463ffffffff1660e01b81526004018080602001848152602001838152602001828103825285818151815260200191508051906020019060200280838360005b8381101561125457818101518382015260200161123c565b50505050905001945050505050602060405180830381600087803b15801561127b57600080fd5b505af115801561128f573d6000803e3d6000fd5b505050506040513d60208110156112a557600080fd5b5050604080517f70a08231000000000000000000000000000000000000000000000000000000008152306004820152905160009173ffffffffffffffffffffffffffffffffffffffff8516916370a0823191602480820192602092909190829003018186803b15801561131757600080fd5b505afa15801561132b573d6000803e3d6000fd5b505050506040513d602081101561134157600080fd5b5051604080517fa9059cbb00000000000000000000000000000000000000000000000000000000815233600482015260248101839052905191925073ffffffffffffffffffffffffffffffffffffffff85169163a9059cbb916044808201926020929091908290030181600087803b1580156113bc57600080fd5b505af11580156113d0573d6000803e3d6000fd5b505050506040513d60208110156113e657600080fd5b50909a9950505050505050505050565b60608060006114048b614911565b905060006114118b614911565b604080517f23b872dd000000000000000000000000000000000000000000000000000000008152336004820152306024820152604481018d9052905191925073ffffffffffffffffffffffffffffffffffffffff8416916323b872dd916064808201926020929091908290030181600087803b15801561149057600080fd5b505af11580156114a4573d6000803e3d6000fd5b505050506040513d60208110156114ba57600080fd5b5050604080517f095ea7b300000000000000000000000000000000000000000000000000000000815273ffffffffffffffffffffffffffffffffffffffff8e81166004830152602482018d905291519184169163095ea7b3916044808201926020929091908290030181600087803b15801561153557600080fd5b505af1158015611549573d6000803e3d6000fd5b505050506040513d602081101561155f57600080fd5b50506040517f31cd52b0000000000000000000000000000000000000000000000000000000008152600481018b815260448201879052606060248301908152606483018b905273ffffffffffffffffffffffffffffffffffffffff8f16926331cd52b0928e928e928e928c929091608401856020860280828437600081840152601f19601f82011690508083019250505095505050505050600060405180830381600087803b15801561161157600080fd5b505af1158015611625573d6000803e3d6000fd5b505050506040513d6000823e601f3d9081017fffffffffffffffffffffffffffffffffffffffffffffffffffffffffffffffe0168201604052602081101561166c57600080fd5b810190808051604051939291908464010000000082111561168c57600080fd5b9083019060208201858111156116a157600080fd5b82518660208202830111640100000000821117156116be57600080fd5b82525081516020918201928201910280838360005b838110156116eb5781810151838201526020016116d3565b505050509050016040525050505060008173ffffffffffffffffffffffffffffffffffffffff166370a08231306040518263ffffffff1660e01b8152600401808273ffffffffffffffffffffffffffffffffffffffff16815260200191505060206040518083038186803b15801561176257600080fd5b505afa158015611776573d6000803e3d6000fd5b505050506040513d602081101561178c57600080fd5b5051604080517f095ea7b300000000000000000000000000000000000000000000000000000000815273ffffffffffffffffffffffffffffffffffffffff8f811660048301526024820184905291519293509084169163095ea7b3916044808201926020929091908290030181600087803b15801561180a57600080fd5b505af115801561181e573d6000803e3d6000fd5b505050506040513d602081101561183457600080fd5b50506040517f31cd52b00000000000000000000000000000000000000000000000000000000081526004810182815260448201889052606060248301908152606483018a905273ffffffffffffffffffffffffffffffffffffffff8f16926331cd52b09285928d928d928d929091608401856020860280828437600081840152601f19601f82011690508083019250505095505050505050600060405180830381600087803b1580156118e657600080fd5b505af11580156118fa573d6000803e3d6000fd5b505050506040513d6000823e601f3d9081017fffffffffffffffffffffffffffffffffffffffffffffffffffffffffffffffe0168201604052602081101561194157600080fd5b810190808051604051939291908464010000000082111561196157600080fd5b90830190602082018581111561197657600080fd5b825186602082028301116401000000008211171561199357600080fd5b82525081516020918201928201910280838360005b838110156119c05781810151838201526020016119a8565b50505050905001604052505050508c73ffffffffffffffffffffffffffffffffffffffff16632f71b9126040518163ffffffff1660e01b815260040160206040518083038186803b158015611a1457600080fd5b505afa158015611a28573d6000803e3d6000fd5b505050506040513d6020811015611a3e57600080fd5b505167ffffffffffffffff81118015611a5657600080fd5b50604051908082528060200260200182016040528015611a80578160200160208202803683370190505b50945060005b8d73ffffffffffffffffffffffffffffffffffffffff16632f71b9126040518163ffffffff1660e01b815260040160206040518083038186803b158015611acc57600080fd5b505afa158015611ae0573d6000803e3d6000fd5b505050506040513d6020811015611af657600080fd5b505160ff82161015611c875760008e73ffffffffffffffffffffffffffffffffffffffff166382b86600836040518263ffffffff1660e01b8152600401808260ff16815260200191505060206040518083038186803b158015611b5857600080fd5b505afa158015611b6c573d6000803e3d6000fd5b505050506040513d6020811015611b8257600080fd5b5051604080517f70a08231000000000000000000000000000000000000000000000000000000008152306004820152905191925073ffffffffffffffffffffffffffffffffffffffff8316916370a0823191602480820192602092909190829003018186803b158015611bf457600080fd5b505afa158015611c08573d6000803e3d6000fd5b505050506040513d6020811015611c1e57600080fd5b50518751889060ff8516908110611c3157fe5b602002602001018181525050611c7e33888460ff1681518110611c5057fe5b60200260200101518373ffffffffffffffffffffffffffffffffffffffff16614bbe9092919063ffffffff16565b50600101611a86565b508b73ffffffffffffffffffffffffffffffffffffffff16632f71b9126040518163ffffffff1660e01b815260040160206040518083038186803b158015611cce57600080fd5b505afa158015611ce2573d6000803e3d6000fd5b505050506040513d6020811015611cf857600080fd5b505167ffffffffffffffff81118015611d1057600080fd5b50604051908082528060200260200182016040528015611d3a578160200160208202803683370190505b50935060005b8c73ffffffffffffffffffffffffffffffffffffffff16632f71b9126040518163ffffffff1660e01b815260040160206040518083038186803b158015611d8657600080fd5b505afa158015611d9a573d6000803e3d6000fd5b505050506040513d6020811015611db057600080fd5b505160ff82161015611f135760008d73ffffffffffffffffffffffffffffffffffffffff166382b86600836040518263ffffffff1660e01b8152600401808260ff16815260200191505060206040518083038186803b158015611e1257600080fd5b505afa158015611e26573d6000803e3d6000fd5b505050506040513d6020811015611e3c57600080fd5b5051604080517f70a08231000000000000000000000000000000000000000000000000000000008152306004820152905191925073ffffffffffffffffffffffffffffffffffffffff8316916370a0823191602480820192602092909190829003018186803b158015611eae57600080fd5b505afa158015611ec2573d6000803e3d6000fd5b505050506040513d6020811015611ed857600080fd5b50518651879060ff8516908110611eeb57fe5b602002602001018181525050611f0a33878460ff1681518110611c5057fe5b50600101611d40565b505050509850989650505050505050565b600080611f3086614911565b905060008773ffffffffffffffffffffffffffffffffffffffff166366c0bd24836040518263ffffffff1660e01b8152600401808273ffffffffffffffffffffffffffffffffffffffff16815260200191505060206040518083038186803b158015611f9b57600080fd5b505afa158015611faf573d6000803e3d6000fd5b505050506040513d6020811015611fc557600080fd5b505190508360ff8083169088161461208457604080517fa95b089f00000000000000000000000000000000000000000000000000000000815260ff808a1660048301528416602482015260448101879052905173ffffffffffffffffffffffffffffffffffffffff8b169163a95b089f916064808301926020929190829003018186803b15801561205557600080fd5b505afa158015612069573d6000803e3d6000fd5b505050506040513d602081101561207f57600080fd5b505190505b604080517f98899f400000000000000000000000000000000000000000000000000000000081523060048201526024810183905260ff88166044820152905173ffffffffffffffffffffffffffffffffffffffff8a16916398899f40916064808301926020929190829003018186803b15801561210057600080fd5b505afa158015612114573d6000803e3d6000fd5b505050506040513d602081101561212a57600080fd5b505193505050505b95945050505050565b60008061214788614911565b905060008973ffffffffffffffffffffffffffffffffffffffff166366c0bd24836040518263ffffffff1660e01b8152600401808273ffffffffffffffffffffffffffffffffffffffff16815260200191505060206040518083038186803b1580156121b257600080fd5b505afa1580156121c6573d6000803e3d6000fd5b505050506040513d60208110156121dc57600080fd5b5051604080517f2f71b912000000000000000000000000000000000000000000000000000000008152905191925060609173ffffffffffffffffffffffffffffffffffffffff8c1691632f71b912916004808301926020929190829003018186803b15801561224a57600080fd5b505afa15801561225e573d6000803e3d6000fd5b505050506040513d602081101561227457600080fd5b505167ffffffffffffffff8111801561228c57600080fd5b506040519080825280602002602001820160405280156122b6578160200160208202803683370190505b50905086818a60ff16815181106122c957fe5b60200260200101818152505060008a73ffffffffffffffffffffffffffffffffffffffff166382b866008b6040518263ffffffff1660e01b8152600401808260ff16815260200191505060206040518083038186803b15801561232b57600080fd5b505afa15801561233f573d6000803e3d6000fd5b505050506040513d602081101561235557600080fd5b5051905061237b73ffffffffffffffffffffffffffffffffffffffff821633308b614990565b61239c73ffffffffffffffffffffffffffffffffffffffff82168c8a614c4b565b60008b73ffffffffffffffffffffffffffffffffffffffff16634d49e87d8460008a6040518463ffffffff1660e01b81526004018080602001848152602001838152602001828103825285818151815260200191508051906020019060200280838360005b83811015612419578181015183820152602001612401565b50505050905001945050505050602060405180830381600087803b15801561244057600080fd5b505af1158015612454573d6000803e3d6000fd5b505050506040513d602081101561246a57600080fd5b5051905060ff848116908b16146125d3578473ffffffffffffffffffffffffffffffffffffffff1663095ea7b38e836040518363ffffffff1660e01b8152600401808373ffffffffffffffffffffffffffffffffffffffff16815260200182815260200192505050602060405180830381600087803b1580156124ec57600080fd5b505af1158015612500573d6000803e3d6000fd5b505050506040513d602081101561251657600080fd5b5050604080517f9169558600000000000000000000000000000000000000000000000000000000815260ff80871660048301528c16602482015260448101839052606481018a905260848101899052905173ffffffffffffffffffffffffffffffffffffffff8f169163916955869160a48083019260209291908290030181600087803b1580156125a657600080fd5b505af11580156125ba573d6000803e3d6000fd5b505050506040513d60208110156125d057600080fd5b50505b60008d73ffffffffffffffffffffffffffffffffffffffff166382b866008c6040518263ffffffff1660e01b8152600401808260ff16815260200191505060206040518083038186803b15801561262957600080fd5b505afa15801561263d573d6000803e3d6000fd5b505050506040513d602081101561265357600080fd5b5051604080517f70a08231000000000000000000000000000000000000000000000000000000008152306004820152905191925060009173ffffffffffffffffffffffffffffffffffffffff8416916370a08231916024808301926020929190829003018186803b1580156126c757600080fd5b505afa1580156126db573d6000803e3d6000fd5b505050506040513d60208110156126f157600080fd5b5051905061271673ffffffffffffffffffffffffffffffffffffffff83163383614bbe565b9e9d5050505050505050505050505050565b60008061273485614911565b905060008673ffffffffffffffffffffffffffffffffffffffff166366c0bd24836040518263ffffffff1660e01b8152600401808273ffffffffffffffffffffffffffffffffffffffff16815260200191505060206040518083038186803b15801561279f57600080fd5b505afa1580156127b3573d6000803e3d6000fd5b505050506040513d60208110156127c957600080fd5b5051604080517f98899f400000000000000000000000000000000000000000000000000000000081523060048201526024810188905260ff83166044820152905191925060009173ffffffffffffffffffffffffffffffffffffffff8a16916398899f40916064808301926020929190829003018186803b15801561284d57600080fd5b505afa158015612861573d6000803e3d6000fd5b505050506040513d602081101561287757600080fd5b5051604080517f98899f400000000000000000000000000000000000000000000000000000000081523060048201526024810183905260ff88166044820152905191925073ffffffffffffffffffffffffffffffffffffffff8916916398899f4091606480820192602092909190829003018186803b1580156128f957600080fd5b505afa15801561290d573d6000803e3d6000fd5b505050506040513d602081101561292357600080fd5b505198975050505050505050565b6000808473ffffffffffffffffffffffffffffffffffffffff16632f71b9126040518163ffffffff1660e01b815260040160206040518083038186803b15801561297a57600080fd5b505afa15801561298e573d6000803e3d6000fd5b505050506040513d60208110156129a457600080fd5b5051604080517f7c61e56100000000000000000000000000000000000000000000000000000000815230600482015260248101869052905191925060609173ffffffffffffffffffffffffffffffffffffffff881691637c61e561916044808301926000929190829003018186803b158015612a1f57600080fd5b505afa158015612a33573d6000803e3d6000fd5b505050506040513d6000823e601f3d9081017fffffffffffffffffffffffffffffffffffffffffffffffffffffffffffffffe01682016040526020811015612a7a57600080fd5b8101908080516040519392919084640100000000821115612a9a57600080fd5b908301906020820185811115612aaf57600080fd5b8251866020820283011164010000000082111715612acc57600080fd5b82525081516020918201928201910280838360005b83811015612af9578181015183820152602001612ae1565b50505050905001604052505050905060608267ffffffffffffffff81118015612b2157600080fd5b50604051908082528060200260200182016040528015612b4b578160200160208202803683370190505b50905060005b838160ff161015612cbf5760008873ffffffffffffffffffffffffffffffffffffffff166382b86600836040518263ffffffff1660e01b8152600401808260ff16815260200191505060206040518083038186803b158015612bb257600080fd5b505afa158015612bc6573d6000803e3d6000fd5b505050506040513d6020811015612bdc57600080fd5b5051604080517f66c0bd2400000000000000000000000000000000000000000000000000000000815273ffffffffffffffffffffffffffffffffffffffff80841660048301529151929350600092918b16916366c0bd2491602480820192602092909190829003018186803b158015612c5457600080fd5b505afa158015612c68573d6000803e3d6000fd5b505050506040513d6020811015612c7e57600080fd5b5051855160ff918216925086918516908110612c9657fe5b6020026020010151848281518110612caa57fe5b60209081029190910101525050600101612b51565b506040517ff9273ffb000000000000000000000000000000000000000000000000000000008152306004820181815260016044840181905260606024850190815285516064860152855173ffffffffffffffffffffffffffffffffffffffff8c169563f9273ffb959488949390929091608401906020808701910280838360005b83811015612d58578181015183820152602001612d40565b5050505090500194505050505060206040518083038186803b158015612d7d57600080fd5b505afa158015612d91573d6000803e3d6000fd5b505050506040513d6020811015612da757600080fd5b505193505050505b9392505050565b600080612dc286614911565b905060008773ffffffffffffffffffffffffffffffffffffffff166366c0bd24836040518263ffffffff1660e01b8152600401808273ffffffffffffffffffffffffffffffffffffffff16815260200191505060206040518083038186803b158015612e2d57600080fd5b505afa158015612e41573d6000803e3d6000fd5b505050506040513d6020811015612e5757600080fd5b50516040517ff9273ffb0000000000000000000000000000000000000000000000000000000081523060048201818152871515604484015260606024840190815289516064850152895194955060009473ffffffffffffffffffffffffffffffffffffffff8d169463f9273ffb94938c938c9391929091608490910190602086810191028083838d5b83811015612ef8578181015183820152602001612ee0565b5050505090500194505050505060206040518083038186803b158015612f1d57600080fd5b505afa158015612f31573d6000803e3d6000fd5b505050506040513d6020811015612f4757600080fd5b505187519091508190889060ff8516908110612f5f57fe5b602002602001015101878360ff1681518110612f7757fe5b6020026020010181815250508873ffffffffffffffffffffffffffffffffffffffff1663f9273ffb3089886040518463ffffffff1660e01b8152600401808473ffffffffffffffffffffffffffffffffffffffff168152602001806020018315158152602001828103825284818151815260200191508051906020019060200280838360005b83811015613015578181015183820152602001612ffd565b5050505090500194505050505060206040518083038186803b15801561210057600080fd5b6000808673ffffffffffffffffffffffffffffffffffffffff16632f71b9126040518163ffffffff1660e01b815260040160206040518083038186803b15801561308357600080fd5b505afa158015613097573d6000803e3d6000fd5b505050506040513d60208110156130ad57600080fd5b5051604080517f2f71b912000000000000000000000000000000000000000000000000000000008152905191925060009173ffffffffffffffffffffffffffffffffffffffff891691632f71b912916004808301926020929190829003018186803b15801561311b57600080fd5b505afa15801561312f573d6000803e3d6000fd5b505050506040513d602081101561314557600080fd5b5051905073ffffffffffffffffffffffffffffffffffffffff88811690881614156131d157604080517f08c379a000000000000000000000000000000000000000000000000000000000815260206004820152601160248201527f66726f6d506f6f6c203d20746f506f6f6c000000000000000000000000000000604482015290519081900360640190fd5b80821461323f57604080517f08c379a000000000000000000000000000000000000000000000000000000000815260206004820152601460248201527f496e76616c696420746f6b656e206c656e677468000000000000000000000000604482015290519081900360640190fd5b600061324a89614911565b9050600061325789614911565b905060608467ffffffffffffffff8111801561327257600080fd5b5060405190808252806020026020018201604052801561329c578160200160208202803683370190505b50905060005b858160ff1610156133d75760008c73ffffffffffffffffffffffffffffffffffffffff166382b86600836040518263ffffffff1660e01b8152600401808260ff16815260200191505060206040518083038186803b15801561330357600080fd5b505afa158015613317573d6000803e3d6000fd5b505050506040513d602081101561332d57600080fd5b5051604080517f66c0bd2400000000000000000000000000000000000000000000000000000000815273ffffffffffffffffffffffffffffffffffffffff80841660048301529151929350908e16916366c0bd2491602480820192602092909190829003018186803b1580156133a257600080fd5b505afa1580156133b6573d6000803e3d6000fd5b505050506040513d60208110156133cc57600080fd5b5050506001016132a2565b50604080517f23b872dd000000000000000000000000000000000000000000000000000000008152336004820152306024820152604481018b9052905173ffffffffffffffffffffffffffffffffffffffff8516916323b872dd9160648083019260209291908290030181600087803b15801561345357600080fd5b505af1158015613467573d6000803e3d6000fd5b505050506040513d602081101561347d57600080fd5b5050604080517f095ea7b300000000000000000000000000000000000000000000000000000000815273ffffffffffffffffffffffffffffffffffffffff8d81166004830152602482018c905291519185169163095ea7b3916044808201926020929091908290030181600087803b1580156134f857600080fd5b505af115801561350c573d6000803e3d6000fd5b505050506040513d602081101561352257600080fd5b50506040517f31cd52b0000000000000000000000000000000000000000000000000000000008152600481018a81526044820189905260606024830190815283516064840152835173ffffffffffffffffffffffffffffffffffffffff8f16936331cd52b0938e9387938e93608401906020868101910280838360005b838110156135b757818101518382015260200161359f565b50505050905001945050505050600060405180830381600087803b1580156135de57600080fd5b505af11580156135f2573d6000803e3d6000fd5b505050506040513d6000823e601f3d9081017fffffffffffffffffffffffffffffffffffffffffffffffffffffffffffffffe0168201604052602081101561363957600080fd5b810190808051604051939291908464010000000082111561365957600080fd5b90830190602082018581111561366e57600080fd5b825186602082028301116401000000008211171561368b57600080fd5b82525081516020918201928201910280838360005b838110156136b85781810151838201526020016136a0565b505050509050016040525050505060608467ffffffffffffffff811180156136df57600080fd5b50604051908082528060200260200182016040528015613709578160200160208202803683370190505b50905060005b858160ff1610156138825760008c73ffffffffffffffffffffffffffffffffffffffff166382b86600836040518263ffffffff1660e01b8152600401808260ff16815260200191505060206040518083038186803b15801561377057600080fd5b505afa158015613784573d6000803e3d6000fd5b505050506040513d602081101561379a57600080fd5b5051604080517f70a08231000000000000000000000000000000000000000000000000000000008152306004820152905191925060009173ffffffffffffffffffffffffffffffffffffffff8416916370a08231916024808301926020929190829003018186803b15801561380e57600080fd5b505afa158015613822573d6000803e3d6000fd5b505050506040513d602081101561383857600080fd5b5051905061385d73ffffffffffffffffffffffffffffffffffffffff83168f83614a2b565b80848460ff168151811061386d57fe5b6020908102919091010152505060010161370f565b508a73ffffffffffffffffffffffffffffffffffffffff16634d49e87d828b8b6040518463ffffffff1660e01b81526004018080602001848152602001838152602001828103825285818151815260200191508051906020019060200280838360005b838110156138fd5781810151838201526020016138e5565b50505050905001945050505050602060405180830381600087803b15801561392457600080fd5b505af1158015613938573d6000803e3d6000fd5b505050506040513d602081101561394e57600080fd5b5050604080517f70a08231000000000000000000000000000000000000000000000000000000008152306004820152905160009173ffffffffffffffffffffffffffffffffffffffff8616916370a0823191602480820192602092909190829003018186803b1580156139c057600080fd5b505afa1580156139d4573d6000803e3d6000fd5b505050506040513d60208110156139ea57600080fd5b5051604080517fa9059cbb00000000000000000000000000000000000000000000000000000000815233600482015260248101839052905191925073ffffffffffffffffffffffffffffffffffffffff86169163a9059cbb916044808201926020929091908290030181600087803b158015613a6557600080fd5b505af1158015613a79573d6000803e3d6000fd5b505050506040513d6020811015613a8f57600080fd5b50909d9c50505050505050505050505050565b600080613aae86614911565b905060008773ffffffffffffffffffffffffffffffffffffffff166366c0bd24836040518263ffffffff1660e01b8152600401808273ffffffffffffffffffffffffffffffffffffffff16815260200191505060206040518083038186803b158015613b1957600080fd5b505afa158015613b2d573d6000803e3d6000fd5b505050506040513d6020811015613b4357600080fd5b5051604080517f2f71b912000000000000000000000000000000000000000000000000000000008152905191925060609173ffffffffffffffffffffffffffffffffffffffff8a1691632f71b912916004808301926020929190829003018186803b158015613bb157600080fd5b505afa158015613bc5573d6000803e3d6000fd5b505050506040513d6020811015613bdb57600080fd5b505167ffffffffffffffff81118015613bf357600080fd5b50604051908082528060200260200182016040528015613c1d578160200160208202803683370190505b50905084818860ff1681518110613c3057fe5b60200260200101818152505060008873ffffffffffffffffffffffffffffffffffffffff1663f9273ffb308460016040518463ffffffff1660e01b8152600401808473ffffffffffffffffffffffffffffffffffffffff168152602001806020018315158152602001828103825284818151815260200191508051906020019060200280838360005b83811015613cd1578181015183820152602001613cb9565b5050505090500194505050505060206040518083038186803b158015613cf657600080fd5b505afa158015613d0a573d6000803e3d6000fd5b505050506040513d6020811015613d2057600080fd5b5051905060ff8381169088161415613d3d57935061213292505050565b604080517fa95b089f00000000000000000000000000000000000000000000000000000000815260ff80861660048301528916602482015260448101839052905173ffffffffffffffffffffffffffffffffffffffff8c169163a95b089f916064808301926020929190829003018186803b158015613dbb57600080fd5b505afa158015613dcf573d6000803e3d6000fd5b505050506040513d6020811015613de557600080fd5b50519a9950505050505050505050565b600080613e0188614911565b90506000613e0e88614911565b905060008973ffffffffffffffffffffffffffffffffffffffff166366c0bd24836040518263ffffffff1660e01b8152600401808273ffffffffffffffffffffffffffffffffffffffff16815260200191505060206040518083038186803b158015613e7957600080fd5b505afa158015613e8d573d6000803e3d6000fd5b505050506040513d6020811015613ea357600080fd5b5051604080517f23b872dd000000000000000000000000000000000000000000000000000000008152336004820152306024820152604481018b9052905191925073ffffffffffffffffffffffffffffffffffffffff8516916323b872dd916064808201926020929091908290030181600087803b158015613f2457600080fd5b505af1158015613f38573d6000803e3d6000fd5b505050506040513d6020811015613f4e57600080fd5b5050604080517f095ea7b300000000000000000000000000000000000000000000000000000000815273ffffffffffffffffffffffffffffffffffffffff8c81166004830152602482018b905291519185169163095ea7b3916044808201926020929091908290030181600087803b158015613fc957600080fd5b505af1158015613fdd573d6000803e3d6000fd5b505050506040513d6020811015613ff357600080fd5b5050604080517f3e3a1560000000000000000000000000000000000000000000000000000000008152600481018a905260ff8316602482015260006044820181905260648201889052915173ffffffffffffffffffffffffffffffffffffffff8d1692633e3a156092608480820193602093909283900390910190829087803b15801561407f57600080fd5b505af1158015614093573d6000803e3d6000fd5b505050506040513d60208110156140a957600080fd5b5050604080517f70a08231000000000000000000000000000000000000000000000000000000008152306004820152905160009173ffffffffffffffffffffffffffffffffffffffff8516916370a0823191602480820192602092909190829003018186803b15801561411b57600080fd5b505afa15801561412f573d6000803e3d6000fd5b505050506040513d602081101561414557600080fd5b5051604080517f095ea7b300000000000000000000000000000000000000000000000000000000815273ffffffffffffffffffffffffffffffffffffffff8d811660048301526024820184905291519293509085169163095ea7b3916044808201926020929091908290030181600087803b1580156141c357600080fd5b505af11580156141d7573d6000803e3d6000fd5b505050506040513d60208110156141ed57600080fd5b5050604080517f3e3a15600000000000000000000000000000000000000000000000000000000081526004810183905260ff8a1660248201526044810189905260648101889052905173ffffffffffffffffffffffffffffffffffffffff8c1691633e3a15609160848083019260209291908290030181600087803b15801561427557600080fd5b505af1158015614289573d6000803e3d6000fd5b505050506040513d602081101561429f57600080fd5b5050604080517f82b8660000000000000000000000000000000000000000000000000000000000815260ff8a166004820152905160009173ffffffffffffffffffffffffffffffffffffffff8d16916382b8660091602480820192602092909190829003018186803b15801561431457600080fd5b505afa158015614328573d6000803e3d6000fd5b505050506040513d602081101561433e57600080fd5b5051604080517f70a08231000000000000000000000000000000000000000000000000000000008152306004820152905191925060009173ffffffffffffffffffffffffffffffffffffffff8416916370a08231916024808301926020929190829003018186803b1580156143b257600080fd5b505afa1580156143c6573d6000803e3d6000fd5b505050506040513d60208110156143dc57600080fd5b5051905061440173ffffffffffffffffffffffffffffffffffffffff83163383614bbe565b9c9b505050505050505050505050565b60008061441d88614911565b905060008973ffffffffffffffffffffffffffffffffffffffff166366c0bd24836040518263ffffffff1660e01b8152600401808273ffffffffffffffffffffffffffffffffffffffff16815260200191505060206040518083038186803b15801561448857600080fd5b505afa15801561449c573d6000803e3d6000fd5b505050506040513d60208110156144b257600080fd5b5051604080517f82b8660000000000000000000000000000000000000000000000000000000000815260ff8b166004820152905191925060009173ffffffffffffffffffffffffffffffffffffffff8d16916382b86600916024808301926020929190829003018186803b15801561452957600080fd5b505afa15801561453d573d6000803e3d6000fd5b505050506040513d602081101561455357600080fd5b5051905061457973ffffffffffffffffffffffffffffffffffffffff821633308a614990565b8660ff838116908b1614614651576145a873ffffffffffffffffffffffffffffffffffffffff83168d8a614c4b565b8b73ffffffffffffffffffffffffffffffffffffffff1663916955868b858b60008b6040518663ffffffff1660e01b8152600401808660ff1681526020018560ff16815260200184815260200183815260200182815260200195505050505050602060405180830381600087803b15801561462257600080fd5b505af1158015614636573d6000803e3d6000fd5b505050506040513d602081101561464c57600080fd5b505190505b8373ffffffffffffffffffffffffffffffffffffffff1663095ea7b38c836040518363ffffffff1660e01b8152600401808373ffffffffffffffffffffffffffffffffffffffff16815260200182815260200192505050602060405180830381600087803b1580156146c257600080fd5b505af11580156146d6573d6000803e3d6000fd5b505050506040513d60208110156146ec57600080fd5b5050604080517f3e3a15600000000000000000000000000000000000000000000000000000000081526004810183905260ff8b1660248201526044810189905260648101889052905173ffffffffffffffffffffffffffffffffffffffff8d1691633e3a15609160848083019260209291908290030181600087803b15801561477457600080fd5b505af1158015614788573d6000803e3d6000fd5b505050506040513d602081101561479e57600080fd5b5050604080517f82b8660000000000000000000000000000000000000000000000000000000000815260ff8b166004820152905160009173ffffffffffffffffffffffffffffffffffffffff8e16916382b8660091602480820192602092909190829003018186803b15801561481357600080fd5b505afa158015614827573d6000803e3d6000fd5b505050506040513d602081101561483d57600080fd5b5051604080517f70a08231000000000000000000000000000000000000000000000000000000008152306004820152905191925060009173ffffffffffffffffffffffffffffffffffffffff8416916370a08231916024808301926020929190829003018186803b1580156148b157600080fd5b505afa1580156148c5573d6000803e3d6000fd5b505050506040513d60208110156148db57600080fd5b5051905061490073ffffffffffffffffffffffffffffffffffffffff83163383614bbe565b9d9c50505050505050505050505050565b60008173ffffffffffffffffffffffffffffffffffffffff16635fd65f0f6040518163ffffffff1660e01b81526004016101006040518083038186803b15801561495a57600080fd5b505afa15801561496e573d6000803e3d6000fd5b505050506040513d61010081101561498557600080fd5b5060e0015192915050565b6040805173ffffffffffffffffffffffffffffffffffffffff80861660248301528416604482015260648082018490528251808303909101815260849091019091526020810180517bffffffffffffffffffffffffffffffffffffffffffffffffffffffff167f23b872dd00000000000000000000000000000000000000000000000000000000179052614a25908590614d94565b50505050565b801580614ad75750604080517fdd62ed3e00000000000000000000000000000000000000000000000000000000815230600482015273ffffffffffffffffffffffffffffffffffffffff848116602483015291519185169163dd62ed3e91604480820192602092909190829003018186803b158015614aa957600080fd5b505afa158015614abd573d6000803e3d6000fd5b505050506040513d6020811015614ad357600080fd5b5051155b614b2c576040517f08c379a00000000000000000000000000000000000000000000000000000000081526004018080602001828103825260368152602001806151c76036913960400191505060405180910390fd5b6040805173ffffffffffffffffffffffffffffffffffffffff8416602482015260448082018490528251808303909101815260649091019091526020810180517bffffffffffffffffffffffffffffffffffffffffffffffffffffffff167f095ea7b300000000000000000000000000000000000000000000000000000000179052614bb9908490614d94565b505050565b6040805173ffffffffffffffffffffffffffffffffffffffff8416602482015260448082018490528251808303909101815260649091019091526020810180517bffffffffffffffffffffffffffffffffffffffffffffffffffffffff167fa9059cbb00000000000000000000000000000000000000000000000000000000179052614bb9908490614d94565b6000614d08828573ffffffffffffffffffffffffffffffffffffffff1663dd62ed3e30876040518363ffffffff1660e01b8152600401808373ffffffffffffffffffffffffffffffffffffffff1681526020018273ffffffffffffffffffffffffffffffffffffffff1681526020019250505060206040518083038186803b158015614cd657600080fd5b505afa158015614cea573d6000803e3d6000fd5b505050506040513d6020811015614d0057600080fd5b505190614e6c565b6040805173ffffffffffffffffffffffffffffffffffffffff8616602482015260448082018490528251808303909101815260649091019091526020810180517bffffffffffffffffffffffffffffffffffffffffffffffffffffffff167f095ea7b300000000000000000000000000000000000000000000000000000000179052909150614a259085905b6060614df6826040518060400160405280602081526020017f5361666545524332303a206c6f772d6c6576656c2063616c6c206661696c65648152508573ffffffffffffffffffffffffffffffffffffffff16614ee09092919063ffffffff16565b805190915015614bb957808060200190516020811015614e1557600080fd5b5051614bb9576040517f08c379a000000000000000000000000000000000000000000000000000000000815260040180806020018281038252602a81526020018061519d602a913960400191505060405180910390fd5b600082820183811015612daf57604080517f08c379a000000000000000000000000000000000000000000000000000000000815260206004820152601b60248201527f536166654d6174683a206164646974696f6e206f766572666c6f770000000000604482015290519081900360640190fd5b6060614eef8484600085614ef7565b949350505050565b606082471015614f52576040517f08c379a00000000000000000000000000000000000000000000000000000000081526004018080602001828103825260268152602001806151776026913960400191505060405180910390fd5b614f5b856150b2565b614fc657604080517f08c379a000000000000000000000000000000000000000000000000000000000815260206004820152601d60248201527f416464726573733a2063616c6c20746f206e6f6e2d636f6e7472616374000000604482015290519081900360640190fd5b600060608673ffffffffffffffffffffffffffffffffffffffff1685876040518082805190602001908083835b6020831061503057805182527fffffffffffffffffffffffffffffffffffffffffffffffffffffffffffffffe09092019160209182019101614ff3565b6001836020036101000a03801982511681845116808217855250505050505090500191505060006040518083038185875af1925050503d8060008114615092576040519150601f19603f3d011682016040523d82523d6000602084013e615097565b606091505b50915091506150a78282866150b8565b979650505050505050565b3b151590565b606083156150c7575081612daf565b8251156150d75782518084602001fd5b816040517f08c379a00000000000000000000000000000000000000000000000000000000081526004018080602001828103825283818151815260200191508051906020019080838360005b8381101561513b578181015183820152602001615123565b50505050905090810190601f1680156151685780820380516001836020036101000a031916815260200191505b509250505060405180910390fdfe416464726573733a20696e73756666696369656e742062616c616e636520666f722063616c6c5361666545524332303a204552433230206f7065726174696f6e20646964206e6f7420737563636565645361666545524332303a20617070726f76652066726f6d206e6f6e2d7a65726f20746f206e6f6e2d7a65726f20616c6c6f77616e6365a2646970667358221220e713059556275680e616c3367eff7a8cf7645bdc5d1d304a1504c7055457bb0464736f6c634300060c0033",
  "devdoc": {
    "kind": "dev",
    "methods": {},
    "version": 1
  },
  "userdoc": {
    "kind": "user",
    "methods": {},
    "version": 1
  },
  "storageLayout": {
    "storage": [],
    "types": null
  }
}