{
  "address": "0xF5d8af516D6668A25faa0cC869329EbE09E928CA",
  "abi": [
    {
      "inputs": [],
      "name": "create",
      "outputs": [
        {
          "internalType": "address",
          "name": "",
          "type": "address"
        }
      ],
      "stateMutability": "nonpayable",
      "type": "function"
    },
    {
      "inputs": [
        {
          "internalType": "address",
          "name": "poolAddress",
          "type": "address"
        },
        {
          "internalType": "address",
          "name": "pair",
          "type": "address"
        },
        {
          "internalType": "address",
          "name": "rewardToken",
          "type": "address"
        },
        {
          "internalType": "address",
          "name": "timelock",
          "type": "address"
        },
        {
          "internalType": "address",
          "name": "stakePoolRewardFund",
          "type": "address"
        },
        {
          "internalType": "bytes",
          "name": "data",
          "type": "bytes"
        }
      ],
      "name": "initialize",
      "outputs": [],
      "stateMutability": "nonpayable",
      "type": "function"
    },
    {
      "inputs": [],
      "name": "version",
      "outputs": [
        {
          "internalType": "uint256",
          "name": "",
          "type": "uint256"
        }
      ],
      "stateMutability": "view",
      "type": "function"
    }
  ],
  "transactionHash": "0xc2c9fa5dffc33c37a3b5f03c17942629a99da054f24cd02bfb6e34a8431b96b5",
  "args": [],
  "solcInputHash": "c28cb5271196bace7e8af8d0cd8648a7",
  "bytecode": "0x6080604052610bb960005534801561001657600080fd5b50613c1f806100266000396000f3fe608060405234801561001057600080fd5b50600436106100415760003560e01c806301f79fb61461004657806354fd4d501461005b578063efc81a8c14610079575b600080fd5b610059610054366004610250565b61008e565b005b6100636101d3565b6040516100709190610479565b60405180910390f35b6100816101d9565b604051610070919061039d565b86600061009d83850185610311565b90508173ffffffffffffffffffffffffffffffffffffffff1663c0eac9ea88836000015184602001518560400151866060015187608001518860a001518960c001518a60e001516040518a63ffffffff1660e01b8152600401610108999897969594939291906103e4565b600060405180830381600087803b15801561012257600080fd5b505af1158015610136573d6000803e3d6000fd5b505050506101008101516040517f358394d800000000000000000000000000000000000000000000000000000000815273ffffffffffffffffffffffffffffffffffffffff84169163358394d891610196918c918a908c90600401610441565b600060405180830381600087803b1580156101b057600080fd5b505af11580156101c4573d6000803e3d6000fd5b50505050505050505050505050565b60005481565b600080336000546040516101ec9061021a565b6101f79291906103be565b604051809103906000f080158015610213573d6000803e3d6000fd5b5091505090565b613743806104a783390190565b803573ffffffffffffffffffffffffffffffffffffffff8116811461024b57600080fd5b919050565b600080600080600080600060c0888a03121561026a578283fd5b61027388610227565b965061028160208901610227565b955061028f60408901610227565b945061029d60608901610227565b93506102ab60808901610227565b925060a088013567ffffffffffffffff808211156102c7578384fd5b818a0191508a601f8301126102da578384fd5b8135818111156102e8578485fd5b8b60208285010111156102f9578485fd5b60208301945080935050505092959891949750929550565b6000610120808385031215610324578182fd5b61032d81610482565b905061033883610227565b815261034660208401610227565b602082015260408301356040820152606083013560608201526080830135608082015260a083013560a082015260c083013560c082015260e083013560e08201526101008084013581830152508091505092915050565b73ffffffffffffffffffffffffffffffffffffffff91909116815260200190565b73ffffffffffffffffffffffffffffffffffffffff929092168252602082015260400190565b73ffffffffffffffffffffffffffffffffffffffff998a16815297891660208901529590971660408701526060860193909352608085019190915260a084015260c083015260e08201929092526101008101919091526101200190565b73ffffffffffffffffffffffffffffffffffffffff948516815260208101939093529083166040830152909116606082015260800190565b90815260200190565b60405181810167ffffffffffffffff8111828210171561049e57fe5b60405291905056fe60806040526203f4806008556001600955600a805460ff1916905534801561002657600080fd5b506040516137433803806137438339818101604052604081101561004957600080fd5b508051602090910151600680546001600160a01b039093166001600160a01b03199384161790556005805490921633179091556000556136b58061008e6000396000f3fe608060405234801561001057600080fd5b50600436106102415760003560e01c806372aa0a6011610145578063c012c42e116100bd578063e2589d381161008c578063efe2226611610071578063efe222661461080c578063f36c0a7214610814578063f77c47911461081c57610241565b8063e2589d38146107c8578063e9fad8ee1461080457610241565b8063c012c42e1461071d578063c0eac9ea1461074f578063d33219b4146107b8578063db2e21bc146107c057610241565b806393ae1d1f11610114578063b69ef8a8116100f9578063b69ef8a8146106d1578063b88a802f146106d9578063be615335146106e157610241565b806393ae1d1f14610694578063a694fc3a146106b457610241565b806372aa0a601461056e57806376d743fe1461060c5780638583f6a51461063857806385cc179e1461067457610241565b806343768649116101d8578063597293f3116101a757806364467bbe1161018c57806364467bbe1461050a5780636bb987fe1461052a5780636d3c6d921461053257610241565b8063597293f31461049557806360d47088146104d757610241565b806343768649146104215780634bf692061461042957806351ed6a301461045c57806354fd4d501461048d57610241565b80632e1a7d4d116102145780632e1a7d4d1461033f5780633468a5b81461035e578063358394d8146103a5578063362a3fad146103ee57610241565b806317837baa146102465780631959a002146102605780631e9183fa146102ac57806329d79588146102d8575b600080fd5b61024e610824565b60408051918252519081900360200190f35b6102936004803603602081101561027657600080fd5b503573ffffffffffffffffffffffffffffffffffffffff1661082a565b6040805192835260208301919091528051918290030190f35b61024e600480360360608110156102c257600080fd5b5060ff8135169060208101359060400135610843565b610314600480360360408110156102ee57600080fd5b50803560ff16906020013573ffffffffffffffffffffffffffffffffffffffff166108d6565b6040805195865260208601949094528484019290925260608401526080830152519081900360a00190f35b61035c6004803603602081101561035557600080fd5b5035610936565b005b6103916004803603602081101561037457600080fd5b503573ffffffffffffffffffffffffffffffffffffffff16610a17565b604080519115158252519081900360200190f35b61035c600480360360808110156103bb57600080fd5b5073ffffffffffffffffffffffffffffffffffffffff813581169160208101359160408201358116916060013516610a9f565b61035c6004803603602081101561040457600080fd5b503573ffffffffffffffffffffffffffffffffffffffff16610bee565b61024e610c19565b61035c6004803603602081101561043f57600080fd5b503573ffffffffffffffffffffffffffffffffffffffff16610c1f565b610464610dae565b6040805173ffffffffffffffffffffffffffffffffffffffff9092168252519081900360200190f35b61024e610dca565b61024e600480360360608110156104ab57600080fd5b5060ff8135169073ffffffffffffffffffffffffffffffffffffffff6020820135169060400135610dd0565b61024e600480360360208110156104ed57600080fd5b503573ffffffffffffffffffffffffffffffffffffffff16610ec5565b61035c6004803603602081101561052057600080fd5b503560ff16610ef7565b61024e611077565b61035c6004803603604081101561054857600080fd5b50803560ff16906020013573ffffffffffffffffffffffffffffffffffffffff1661107d565b61058b6004803603602081101561058457600080fd5b5035611562565b6040805173ffffffffffffffffffffffffffffffffffffffff9e8f1681529c8e1660208e01529a909c168b8b015260608b019890985260808a019690965260a089019490945260c088019290925260e08701526101008601526101208501526101408401526101608301526101808201929092529051908190036101a00190f35b61035c6004803603606081101561062257600080fd5b5060ff81351690602081013590604001356115f5565b61035c6004803603604081101561064e57600080fd5b50803560ff16906020013573ffffffffffffffffffffffffffffffffffffffff166117db565b61035c6004803603602081101561068a57600080fd5b503560ff16611a93565b61024e600480360360208110156106aa57600080fd5b503560ff16611bd5565b61035c600480360360208110156106ca57600080fd5b5035611beb565b61024e611c8f565b61035c611c95565b61024e600480360360408110156106f757600080fd5b50803560ff16906020013573ffffffffffffffffffffffffffffffffffffffff16611ca0565b61024e6004803603608081101561073357600080fd5b5060ff8135169060208101359060408101359060600135611e74565b61035c600480360361012081101561076657600080fd5b5073ffffffffffffffffffffffffffffffffffffffff813581169160208101358216916040820135169060608101359060808101359060a08101359060c08101359060e0810135906101000135611f82565b610464612634565b61035c612650565b61035c600480360360408110156107de57600080fd5b50803560ff16906020013573ffffffffffffffffffffffffffffffffffffffff1661284e565b61035c612b06565b610464612b1f565b61035c612b3b565b610464612b64565b60085481565b6001602052600090815260409020805460069091015482565b60008060028560ff168154811061085657fe5b90600052602060002090600d0201905060008160060154905081600301548510806108845750816005015485115b15610894576000925050506108cf565b60006108a287878785611e74565b83549091506108c990889073ffffffffffffffffffffffffffffffffffffffff1683610dd0565b93505050505b9392505050565b73ffffffffffffffffffffffffffffffffffffffff166000908152600160208181526040808420805460ff909616855292830182528084205460038401835281852054600485018452828620546005909501909352932054939492939092565b6009546001146109a757604080517f08c379a000000000000000000000000000000000000000000000000000000000815260206004820152601160248201527f5374616b65506f6f6c3a204c4f434b4544000000000000000000000000000000604482015290519081900360640190fd5b60006009556109b581612b80565b6003546109d99073ffffffffffffffffffffffffffffffffffffffff163383612d04565b60408051828152905133917f884edad9ce6fa2440d8a54cc123490eb96d2768479d49ff9c7366125a9424364919081900360200190a2506001600955565b6000805b60025460ff82161015610a9457600060028260ff1681548110610a3a57fe5b60009182526020909120600d90910201805490915073ffffffffffffffffffffffffffffffffffffffff85811691161415610a8b5760058101546203138001431015610a8b57600092505050610a9a565b50600101610a1b565b50600190505b919050565b600a5460ff1615610afb576040517f08c379a00000000000000000000000000000000000000000000000000000000081526004018080602001828103825260248152602001806134c26024913960400191505060405180910390fd5b62278d006008541115610b59576040517f08c379a00000000000000000000000000000000000000000000000000000000081526004018080602001828103825260288152602001806134e66028913960400191505060405180910390fd5b6003805473ffffffffffffffffffffffffffffffffffffffff9586167fffffffffffffffffffffffff000000000000000000000000000000000000000091821617909155600893909355600480549285169284169290921790915560058054919093169116179055600a80547fffffffffffffffffffffffffffffffffffffffffffffffffffffffffffffff00166001179055565b60025460005b8160ff168160ff161015610c1457610c0c818461107d565b600101610bf4565b505050565b60025490565b600954600114610c9057604080517f08c379a000000000000000000000000000000000000000000000000000000000815260206004820152601160248201527f5374616b65506f6f6c3a204c4f434b4544000000000000000000000000000000604482015290519081900360640190fd5b6000600955600654604080517f393a7484000000000000000000000000000000000000000000000000000000008152336004820152905173ffffffffffffffffffffffffffffffffffffffff9092169163393a748491602480820192602092909190829003018186803b158015610d0657600080fd5b505afa158015610d1a573d6000803e3d6000fd5b505050506040513d6020811015610d3057600080fd5b5051610d9d57604080517f08c379a000000000000000000000000000000000000000000000000000000000815260206004820152601960248201527f5374616b65506f6f6c3a20496e76616c69642073656e64657200000000000000604482015290519081900360640190fd5b610da681612ed9565b506001600955565b60035473ffffffffffffffffffffffffffffffffffffffff1681565b60005481565b60008060028560ff1681548110610de357fe5b60009182526020909120600d90910201600181015490915073ffffffffffffffffffffffffffffffffffffffff1680610e205783925050506108cf565b8073ffffffffffffffffffffffffffffffffffffffff16632e81056686866040518363ffffffff1660e01b8152600401808373ffffffffffffffffffffffffffffffffffffffff1681526020018281526020019250505060206040518083038186803b158015610e8f57600080fd5b505afa158015610ea3573d6000803e3d6000fd5b505050506040513d6020811015610eb957600080fd5b50519695505050505050565b60085473ffffffffffffffffffffffffffffffffffffffff821660009081526001602052604090206006015401919050565b600954600114610f6857604080517f08c379a000000000000000000000000000000000000000000000000000000000815260206004820152601160248201527f5374616b65506f6f6c3a204c4f434b4544000000000000000000000000000000604482015290519081900360640190fd5b600060095560055473ffffffffffffffffffffffffffffffffffffffff163314610ff357604080517f08c379a000000000000000000000000000000000000000000000000000000000815260206004820152601460248201527f5374616b65506f6f6c3a202174696d656c6f636b000000000000000000000000604482015290519081900360640190fd5b600060028260ff168154811061100557fe5b90600052602060002090600d0201905061101e82611a93565b4360058201819055600060068301819055604080519283526020830191909152805160ff8516927fd50c9d621671c3fc38b7813912936d3cee3f956bdbf5f6c61b5091f2ff2b0fd592908290030190a250506001600955565b61708081565b61108682611a93565b73ffffffffffffffffffffffffffffffffffffffff811660009081526001602052604081206002805491929160ff86169081106110bf57fe5b600091825260208083206007600d909302019182015460ff881684526001860190915260408320548554929450909291611118919061111290670de0b6b3a76400009061110c90876130f1565b90613164565b906131e5565b600884015490915080156112aa5783600a01544311156111ad5760ff871660009081526005860160209081526040808320546004890190925282205461115d916131e5565b905080156111a75761116f838261325c565b60ff89166000908152600588016020526040902054909350611191908261325c565b60ff891660009081526005880160205260409020555b506112aa565b81156112095760006111c4606461110c85856130f1565b90506111d083826131e5565b60ff891660009081526004880160205260409020549093506111f2908261325c565b60ff89166000908152600488016020526040902055505b6009840154438110156112a857600b85015460009061124a9061110c61122f43866131e5565b60ff8d16600090815260048c016020526040902054906130f1565b60ff8a166000908152600589016020526040902054909150808211156112a557600061127683836131e5565b9050611282828261325c565b60ff8c16600090815260058b0160205260409020556112a1868261325c565b9550505b50505b505b81156115595760ff871660009081526003860160205260409020546112cf908361325c565b60ff88166000908152600387016020526040902055600c8401546112f3908361325c565b600c850155845461131290670de0b6b3a76400009061110c90866130f1565b60ff8816600090815260018701602090815260408083209390935560028801905290812054611341908461325c565b60ff89166000908152600288016020908152604080832084905588546004805483517f70a0823100000000000000000000000000000000000000000000000000000000815273ffffffffffffffffffffffffffffffffffffffff91821692810192909252925195965091169384926370a082319260248082019391829003018186803b1580156113d057600080fd5b505afa1580156113e4573d6000803e3d6000fd5b505050506040513d60208110156113fa57600080fd5b5051905080156115555760ff8a16600090815260028901602052604081208190556114268b8486610dd0565b905060008282116114375781611439565b825b60048054604080517fd1660f9900000000000000000000000000000000000000000000000000000000815273ffffffffffffffffffffffffffffffffffffffff898116948201949094528f8416602482015260448101859052905193945091169163d1660f999160648082019260009290919082900301818387803b1580156114c157600080fd5b505af11580156114d5573d6000803e3d6000fd5b505050508a73ffffffffffffffffffffffffffffffffffffffff168473ffffffffffffffffffffffffffffffffffffffff168d60ff167f16dc511f817964d1eb39e0c3e84ce317f07b5b12cdfa1f8c2f179a08836af51a88868660405180848152602001838152602001828152602001935050505060405180910390a450505b5050505b50505050505050565b6002818154811061157257600080fd5b60009182526020909120600d9091020180546001820154600283015460038401546004850154600586015460068701546007880154600889015460098a0154600a8b0154600b8c0154600c909c015473ffffffffffffffffffffffffffffffffffffffff9b8c169d50998b169b9a9098169996989597949693959294919390928d565b60095460011461166657604080517f08c379a000000000000000000000000000000000000000000000000000000000815260206004820152601160248201527f5374616b65506f6f6c3a204c4f434b4544000000000000000000000000000000604482015290519081900360640190fd5b600060095560055473ffffffffffffffffffffffffffffffffffffffff1633146116f157604080517f08c379a000000000000000000000000000000000000000000000000000000000815260206004820152601460248201527f5374616b65506f6f6c3a202174696d656c6f636b000000000000000000000000604482015290519081900360640190fd5b600060028460ff168154811061170357fe5b90600052602060002090600d02019050806005015443111580156117275750824311155b61177c576040517f08c379a00000000000000000000000000000000000000000000000000000000081526004018080602001828103825260278152602001806135356027913960400191505060405180910390fd5b61178584611a93565b60058101839055600681018290556040805184815260208101849052815160ff8716927fd50c9d621671c3fc38b7813912936d3cee3f956bdbf5f6c61b5091f2ff2b0fd5928290030190a2505060016009555050565b60095460011461184c57604080517f08c379a000000000000000000000000000000000000000000000000000000000815260206004820152601160248201527f5374616b65506f6f6c3a204c4f434b4544000000000000000000000000000000604482015290519081900360640190fd5b600060095560055473ffffffffffffffffffffffffffffffffffffffff1633146118d757604080517f08c379a000000000000000000000000000000000000000000000000000000000815260206004820152601460248201527f5374616b65506f6f6c3a202174696d656c6f636b000000000000000000000000604482015290519081900360640190fd5b600654604080517fbd5b622a00000000000000000000000000000000000000000000000000000000815273ffffffffffffffffffffffffffffffffffffffff84811660048301529151919092169163bd5b622a916024808301926020929190829003018186803b15801561194a57600080fd5b505afa15801561195e573d6000803e3d6000fd5b505050506040513d602081101561197457600080fd5b50516119cb576040517f08c379a00000000000000000000000000000000000000000000000000000000081526004018080602001828103825260218152602001806135d16021913960400191505060405180910390fd5b600060028360ff16815481106119dd57fe5b60009182526020909120600d909102016001810180547fffffffffffffffffffffffff00000000000000000000000000000000000000001673ffffffffffffffffffffffffffffffffffffffff85161790559050611a3a83611a93565b6040805173ffffffffffffffffffffffffffffffffffffffff84168152905160ff8516917fe6b2c8a01867d369cd4952ca70fea492ef433a6ff31b8c8d15c4781f136e60ed919081900360200190a25050600160095550565b600060028260ff1681548110611aa557fe5b90600052602060002090600d020190506000816005015490506000814311611acd5743611acf565b815b600484015490915080821115611bce57600354604080517f70a08231000000000000000000000000000000000000000000000000000000008152306004820152905160009273ffffffffffffffffffffffffffffffffffffffff16916370a08231916024808301926020929190829003018186803b158015611b5057600080fd5b505afa158015611b64573d6000803e3d6000fd5b505050506040513d6020811015611b7a57600080fd5b505190508015611bc5576000611bac8261110c670de0b6b3a7640000611ba68b888a8d60060154611e74565b906130f1565b6007870154909150611bbe908261325c565b6007870155505b50600484018290555b5050505050565b6000611be5824343600101610843565b92915050565b600954600114611c5c57604080517f08c379a000000000000000000000000000000000000000000000000000000000815260206004820152601160248201527f5374616b65506f6f6c3a204c4f434b4544000000000000000000000000000000604482015290519081900360640190fd5b6000600955600354611c869073ffffffffffffffffffffffffffffffffffffffff163330846132d0565b610da633612ed9565b60075481565b611c9e33610bee565b565b73ffffffffffffffffffffffffffffffffffffffff811660009081526001602052604081206002805483919060ff8716908110611cd957fe5b600091825260208083206007600d9093020191820154600354604080517f70a08231000000000000000000000000000000000000000000000000000000008152306004820152905194965091949373ffffffffffffffffffffffffffffffffffffffff909116926370a082319260248082019391829003018186803b158015611d6157600080fd5b505afa158015611d75573d6000803e3d6000fd5b505050506040513d6020811015611d8b57600080fd5b505160058401549091506000438210611da45743611da6565b815b60048601549091508082118015611dbc57508315155b15611df3576000611de38561110c670de0b6b3a7640000611ba68f87898e60060154611e74565b9050611def868261325c565b9550505b60ff8a16600090815260018801602090815260408083205460028b019092528220548954611e3e929161111291611e3890670de0b6b3a76400009061110c908d6130f1565b9061325c565b8754909150611e65908c9073ffffffffffffffffffffffffffffffffffffffff1683610dd0565b9b9a5050505050505050505050565b60008060028660ff1681548110611e8757fe5b60009182526020909120600d90910201600281015490915073ffffffffffffffffffffffffffffffffffffffff1680611ed157611ec884611ba687896131e5565b92505050611f7a565b8073ffffffffffffffffffffffffffffffffffffffff16629fc047836003015484600501548989896040518663ffffffff1660e01b8152600401808681526020018581526020018481526020018381526020018281526020019550505050505060206040518083038186803b158015611f4957600080fd5b505afa158015611f5d573d6000803e3d6000fd5b505050506040513d6020811015611f7357600080fd5b5051925050505b949350505050565b600954600114611ff357604080517f08c379a000000000000000000000000000000000000000000000000000000000815260206004820152601160248201527f5374616b65506f6f6c3a204c4f434b4544000000000000000000000000000000604482015290519081900360640190fd5b600060095560055473ffffffffffffffffffffffffffffffffffffffff16331461207e57604080517f08c379a000000000000000000000000000000000000000000000000000000000815260206004820152601460248201527f5374616b65506f6f6c3a202174696d656c6f636b000000000000000000000000604482015290519081900360640190fd5b600254601010156120da576040517f08c379a00000000000000000000000000000000000000000000000000000000081526004018080602001828103825260228152602001806134a06022913960400191505060405180910390fd5b600654604080517fbd5b622a00000000000000000000000000000000000000000000000000000000815273ffffffffffffffffffffffffffffffffffffffff8b811660048301529151919092169163bd5b622a916024808301926020929190829003018186803b15801561214d57600080fd5b505afa158015612161573d6000803e3d6000fd5b505050506040513d602081101561217757600080fd5b50516121ce576040517f08c379a00000000000000000000000000000000000000000000000000000000081526004018080602001828103825260218152602001806135d16021913960400191505060405180910390fd5b600654604080517fa5120bd500000000000000000000000000000000000000000000000000000000815273ffffffffffffffffffffffffffffffffffffffff8a811660048301529151919092169163a5120bd5916024808301926020929190829003018186803b15801561224157600080fd5b505afa158015612255573d6000803e3d6000fd5b505050506040513d602081101561226b57600080fd5b50516122c2576040517f08c379a00000000000000000000000000000000000000000000000000000000081526004018080602001828103825260248152602001806135f26024913960400191505060405180910390fd5b8082111561231b576040517f08c379a000000000000000000000000000000000000000000000000000000000815260040180806020018281038252602e8152602001806135a3602e913960400191505060405180910390fd5b854311612328578561232a565b435b9550848610612384576040517f08c379a000000000000000000000000000000000000000000000000000000000815260040180806020018281038252602781526020018061350e6027913960400191505060405180910390fd5b60648311156123de576040517f08c379a00000000000000000000000000000000000000000000000000000000081526004018080602001828103825260248152602001806136166024913960400191505060405180910390fd5b6123e6612b3b565b6002604051806101a001604052808b73ffffffffffffffffffffffffffffffffffffffff1681526020018a73ffffffffffffffffffffffffffffffffffffffff1681526020018973ffffffffffffffffffffffffffffffffffffffff168152602001888152602001888152602001878152602001868152602001600081526020018581526020018481526020018381526020018484038152602001600081525090806001815401808255809150506001900390600052602060002090600d020160009091909190915060008201518160000160006101000a81548173ffffffffffffffffffffffffffffffffffffffff021916908373ffffffffffffffffffffffffffffffffffffffff16021790555060208201518160010160006101000a81548173ffffffffffffffffffffffffffffffffffffffff021916908373ffffffffffffffffffffffffffffffffffffffff16021790555060408201518160020160006101000a81548173ffffffffffffffffffffffffffffffffffffffff021916908373ffffffffffffffffffffffffffffffffffffffff160217905550606082015181600301556080820151816004015560a0820151816005015560c0820151816006015560e082015181600701556101008201518160080155610120820151816009015561014082015181600a015561016082015181600b015561018082015181600c015550506001600280549050037fa2c202ffa25e71dc0d2875a9b67a9e2572541a0a246c21d72355cca968fd4be160405160405180910390a25050600160095550505050505050565b60055473ffffffffffffffffffffffffffffffffffffffff1681565b6009546001146126c157604080517f08c379a000000000000000000000000000000000000000000000000000000000815260206004820152601160248201527f5374616b65506f6f6c3a204c4f434b4544000000000000000000000000000000604482015290519081900360640190fd5b6000600955600654604080517fea74109e000000000000000000000000000000000000000000000000000000008152306004820152905173ffffffffffffffffffffffffffffffffffffffff9092169163ea74109e91602480820192602092909190829003018186803b15801561273757600080fd5b505afa15801561274b573d6000803e3d6000fd5b505050506040513d602081101561276157600080fd5b50516127b8576040517f08c379a000000000000000000000000000000000000000000000000000000000815260040180806020018281038252602681526020018061357d6026913960400191505060405180910390fd5b33600090815260016020526040902080546007546127d690826131e5565b600755600082556003546128019073ffffffffffffffffffffffffffffffffffffffff163383612d04565b60025460005b8160ff168160ff1610156128435760ff811660009081526001808601602090815260408084208490556002880190915282209190915501612807565b505060016009555050565b6009546001146128bf57604080517f08c379a000000000000000000000000000000000000000000000000000000000815260206004820152601160248201527f5374616b65506f6f6c3a204c4f434b4544000000000000000000000000000000604482015290519081900360640190fd5b600060095560055473ffffffffffffffffffffffffffffffffffffffff16331461294a57604080517f08c379a000000000000000000000000000000000000000000000000000000000815260206004820152601460248201527f5374616b65506f6f6c3a202174696d656c6f636b000000000000000000000000604482015290519081900360640190fd5b600654604080517fa5120bd500000000000000000000000000000000000000000000000000000000815273ffffffffffffffffffffffffffffffffffffffff84811660048301529151919092169163a5120bd5916024808301926020929190829003018186803b1580156129bd57600080fd5b505afa1580156129d1573d6000803e3d6000fd5b505050506040513d60208110156129e757600080fd5b5051612a3e576040517f08c379a00000000000000000000000000000000000000000000000000000000081526004018080602001828103825260248152602001806135f26024913960400191505060405180910390fd5b600060028360ff1681548110612a5057fe5b60009182526020909120600d909102016002810180547fffffffffffffffffffffffff00000000000000000000000000000000000000001673ffffffffffffffffffffffffffffffffffffffff85161790559050612aad83611a93565b6040805173ffffffffffffffffffffffffffffffffffffffff84168152905160ff8516917fa5e6b0a10fde1bb3c6184cb03bd87ce234e172121088195454746cf4a2e8094d919081900360200190a25050600160095550565b33600090815260016020526040902054611c9e90610936565b60045473ffffffffffffffffffffffffffffffffffffffff1681565b60025460005b8160ff168160ff161015612b6057612b5881611a93565b600101612b41565b5050565b60065473ffffffffffffffffffffffffffffffffffffffff1681565b3360009081526001602052604090208054821115612be9576040517f08c379a000000000000000000000000000000000000000000000000000000000815260040180806020018281038252602281526020018061363a6022913960400191505060405180910390fd5b6008546006820154612bfa9161325c565b421015612c6857604080517f08c379a000000000000000000000000000000000000000000000000000000000815260206004820152601160248201527f5374616b65506f6f6c3a2066726f7a656e000000000000000000000000000000604482015290519081900360640190fd5b612c7133610bee565b600754612c7e90836131e5565b6007558054612c8d90836131e5565b815560025460005b8160ff168160ff161015612cfe57612cde670de0b6b3a764000061110c60028460ff1681548110612cc257fe5b600091825260209091206007600d9092020101548654906130f1565b60ff82166000908152600180860160205260409091209190915501612c95565b50505050565b6040805173ffffffffffffffffffffffffffffffffffffffff8481166024830152604480830185905283518084039091018152606490920183526020820180517bffffffffffffffffffffffffffffffffffffffffffffffffffffffff167fa9059cbb000000000000000000000000000000000000000000000000000000001781529251825160009485949389169392918291908083835b60208310612dd957805182527fffffffffffffffffffffffffffffffffffffffffffffffffffffffffffffffe09092019160209182019101612d9c565b6001836020036101000a0380198251168184511680821785525050505050509050019150506000604051808303816000865af19150503d8060008114612e3b576040519150601f19603f3d011682016040523d82523d6000602084013e612e40565b606091505b5091509150818015612e6e575080511580612e6e5750808060200190516020811015612e6b57600080fd5b50515b611bce57604080517f08c379a000000000000000000000000000000000000000000000000000000000815260206004820152601f60248201527f5472616e7366657248656c7065723a205452414e534645525f4641494c454400604482015290519081900360640190fd5b600754600354604080517f70a082310000000000000000000000000000000000000000000000000000000081523060048201529051600093612f8893909273ffffffffffffffffffffffffffffffffffffffff909116916370a0823191602480820192602092909190829003018186803b158015612f5657600080fd5b505afa158015612f6a573d6000803e3d6000fd5b505050506040513d6020811015612f8057600080fd5b5051906131e5565b905060008111612ff957604080517f08c379a000000000000000000000000000000000000000000000000000000000815260206004820152601a60248201527f5374616b65506f6f6c3a20496e76616c69642062616c616e6365000000000000604482015290519081900360640190fd5b600754613006908261325c565b60075573ffffffffffffffffffffffffffffffffffffffff8216600090815260016020526040902061303783610bee565b8054613043908361325c565b815560025460005b8160ff168160ff16101561309857613078670de0b6b3a764000061110c60028460ff1681548110612cc257fe5b60ff8216600090815260018086016020526040909120919091550161304b565b5042600683015560408051848152905173ffffffffffffffffffffffffffffffffffffffff8616917fe1fffcc4923d04b559f4d29a8bfc6cda04eb5b0d3c460751c2402c5c5cc9109c919081900360200190a250505050565b60008261310057506000611be5565b8282028284828161310d57fe5b04146108cf576040517f08c379a000000000000000000000000000000000000000000000000000000000815260040180806020018281038252602181526020018061355c6021913960400191505060405180910390fd5b60008082116131d457604080517f08c379a000000000000000000000000000000000000000000000000000000000815260206004820152601a60248201527f536166654d6174683a206469766973696f6e206279207a65726f000000000000604482015290519081900360640190fd5b8183816131dd57fe5b049392505050565b60008282111561325657604080517f08c379a000000000000000000000000000000000000000000000000000000000815260206004820152601e60248201527f536166654d6174683a207375627472616374696f6e206f766572666c6f770000604482015290519081900360640190fd5b50900390565b6000828201838110156108cf57604080517f08c379a000000000000000000000000000000000000000000000000000000000815260206004820152601b60248201527f536166654d6174683a206164646974696f6e206f766572666c6f770000000000604482015290519081900360640190fd5b6040805173ffffffffffffffffffffffffffffffffffffffff85811660248301528481166044830152606480830185905283518084039091018152608490920183526020820180517bffffffffffffffffffffffffffffffffffffffffffffffffffffffff167f23b872dd00000000000000000000000000000000000000000000000000000000178152925182516000948594938a169392918291908083835b602083106133ad57805182527fffffffffffffffffffffffffffffffffffffffffffffffffffffffffffffffe09092019160209182019101613370565b6001836020036101000a0380198251168184511680821785525050505050509050019150506000604051808303816000865af19150503d806000811461340f576040519150601f19603f3d011682016040523d82523d6000602084013e613414565b606091505b5091509150818015613442575080511580613442575080806020019051602081101561343f57600080fd5b50515b613497576040517f08c379a000000000000000000000000000000000000000000000000000000000815260040180806020018281038252602481526020018061365c6024913960400191505060405180910390fd5b50505050505056fe5374616b65506f6f6c3a2052657761726420706f6f6c206c656e677468203e2031365374616b65506f6f6c3a20496e697469616c697a65206d7573742062652066616c73652e5374616b65506f6f6c3a20756e7374616b696e6746726f7a656e54696d65203e20333020646179735374616b65506f6f6c3a207374617274426c6f636b203e3d20656e64526577617264426c6f636b5374616b65506f6f6c3a20626c6f636b4e756d626572203e20656e64526577617264426c6f636b536166654d6174683a206d756c7469706c69636174696f6e206f766572666c6f775374616b65506f6f6c3a204e6f7420616c6c6f7720656d657267656e637957697468647261775374616b65506f6f6c3a20737461727456657374696e67426c6f636b203e20656e6456657374696e67426c6f636b5374616b65506f6f6c3a20496e76616c69642072657761726420726562617365725374616b65506f6f6c3a20496e76616c696420726577617264206d756c7469706c6965725374616b65506f6f6c3a20696e76616c6964206c6f636b52657761726450657263656e745374616b65506f6f6c3a20696e76616c696420776974686472617720616d6f756e745472616e7366657248656c7065723a205452414e534645525f46524f4d5f4641494c4544a2646970667358221220adb5cc0b2b8d14b00d586400499545a9bd3960043ce0d32d596ccfbb8ad19ae864736f6c63430007060033a2646970667358221220155504c59fdc25c076f2c4cac1bfe9c904e42d9a54ea874b03fdc3d0e657225264736f6c63430007060033",
  "devdoc": {
    "kind": "dev",
    "methods": {},
    "version": 1
  },
  "userdoc": {
    "kind": "user",
    "methods": {},
    "version": 1
  },
  "storageLayout": {
    "storage": [
      {
        "astId": 11127,
        "contract": "contracts/StakePoolCreator.sol:StakePoolCreator",
        "label": "version",
        "offset": 0,
        "slot": "0",
        "type": "t_uint256"
      }
    ],
    "types": {
      "t_uint256": {
        "encoding": "inplace",
        "label": "uint256",
        "numberOfBytes": "32"
      }
    }
  }
}