{
  "address": "0x44219f1532dbC3Ee31A9f65aC31F66F813b7c763",
  "abi": [
    {
      "inputs": [
        {
          "internalType": "contract IERC20[]",
          "name": "_pooledTokens",
          "type": "address[]"
        },
        {
          "internalType": "uint8[]",
          "name": "decimals",
          "type": "uint8[]"
        },
        {
          "internalType": "string",
          "name": "lpTokenName",
          "type": "string"
        },
        {
          "internalType": "string",
          "name": "lpTokenSymbol",
          "type": "string"
        },
        {
          "internalType": "uint256",
          "name": "_a",
          "type": "uint256"
        },
        {
          "internalType": "uint256",
          "name": "_fee",
          "type": "uint256"
        },
        {
          "internalType": "uint256",
          "name": "_adminFee",
          "type": "uint256"
        },
        {
          "internalType": "uint256",
          "name": "_withdrawFee",
          "type": "uint256"
        },
        {
          "internalType": "address",
          "name": "timeLock",
          "type": "address"
        }
      ],
      "name": "create",
      "outputs": [
        {
          "internalType": "address",
          "name": "",
          "type": "address"
        }
      ],
      "stateMutability": "nonpayable",
      "type": "function"
    }
  ],
  "transactionHash": "0x5f259ba2cf48d41aceb007d50d2927c649cebcf6ac2d87030c67edbbd00582bc",
  "args": [],
  "solcInputHash": "62812d29f709351baf601151a10eb8e0",
  "bytecode": "0x608060405234801561001057600080fd5b50615f1a806100206000396000f3fe608060405234801561001057600080fd5b506004361061002b5760003560e01c80639dd3d9fd14610030575b600080fd5b610293600480360361012081101561004757600080fd5b81019060208101813564010000000081111561006257600080fd5b82018360208201111561007457600080fd5b8035906020019184602083028401116401000000008311171561009657600080fd5b91908080602002602001604051908101604052809392919081815260200183836020028082843760009201919091525092959493602081019350359150506401000000008111156100e657600080fd5b8201836020820111156100f857600080fd5b8035906020019184602083028401116401000000008311171561011a57600080fd5b919080806020026020016040519081016040528093929190818152602001838360200280828437600092019190915250929594936020810193503591505064010000000081111561016a57600080fd5b82018360208201111561017c57600080fd5b8035906020019184600183028401116401000000008311171561019e57600080fd5b91908080601f01602080910402602001604051908101604052809392919081815260200183838082843760009201919091525092959493602081019350359150506401000000008111156101f157600080fd5b82018360208201111561020357600080fd5b8035906020019184600183028401116401000000008311171561022557600080fd5b91908080601f016020809104026020016040519081016040528093929190818152602001838380828437600092019190915250929550508235935050506020810135906040810135906060810135906080013573ffffffffffffffffffffffffffffffffffffffff166102bc565b6040805173ffffffffffffffffffffffffffffffffffffffff9092168252519081900360200190f35b6000806040516102cb90610578565b604051809103906000f0801580156102e7573d6000803e3d6000fd5b5090508073ffffffffffffffffffffffffffffffffffffffff1663df3ed68d8c8c8c8c8c8c8c8c336040518a63ffffffff1660e01b815260040180806020018060200180602001806020018a81526020018981526020018881526020018781526020018673ffffffffffffffffffffffffffffffffffffffff16815260200185810385528e818151815260200191508051906020019060200280838360005b8381101561039e578181015183820152602001610386565b5050505090500185810384528d818151815260200191508051906020019060200280838360005b838110156103dd5781810151838201526020016103c5565b5050505090500185810383528c818151815260200191508051906020019080838360005b83811015610419578181015183820152602001610401565b50505050905090810190601f1680156104465780820380516001836020036101000a031916815260200191505b5085810382528b5181528b516020918201918d019080838360005b83811015610479578181015183820152602001610461565b50505050905090810190601f1680156104a65780820380516001836020036101000a031916815260200191505b509d5050505050505050505050505050600060405180830381600087803b1580156104d057600080fd5b505af11580156104e4573d6000803e3d6000fd5b505050508073ffffffffffffffffffffffffffffffffffffffff1663f2fde38b846040518263ffffffff1660e01b8152600401808273ffffffffffffffffffffffffffffffffffffffff168152602001915050600060405180830381600087803b15801561055157600080fd5b505af1158015610565573d6000803e3d6000fd5b50929d9c50505050505050505050505050565b61595f806105868339019056fe60806040526010805460ff60a01b191690553480156200001e57600080fd5b5060006200002b6200008c565b600080546001600160a01b0319166001600160a01b0383169081178255604051929350917f8be0079c531659141344cd1fd0a4f28419497f9722a3daafe3b4186f6b6457e0908290a3506000805460ff60a01b191690556001805562000090565b3390565b6158bf80620000a06000396000f3fe60806040523480156200001157600080fd5b50600436106200031b5760003560e01c80638456cb5911620001ad578063c00c125c11620000f9578063da7a77be11620000a5578063ef0a712f116200007b578063ef0a712f1462000bff578063f2fde38b1462000c1f578063f9273ffb1462000c55576200031b565b8063da7a77be146200094d578063df3ed68d1462000983578063e25aa5fa1462000bf5576200031b565b8063c4db7fa011620000db578063c4db7fa0146200092f578063d41f65681462000939578063d46300fd1462000943576200031b565b8063c00c125c14620008e9578063c45a01551462000925576200031b565b806391695586116200015957806398899f40116200013b57806398899f401462000851578063a95b089f1462000896578063ac5bf26314620008c9576200031b565b80639169558614620007ef57806391ceb3eb146200082e576200031b565b806389c06568116200018f57806389c0656814620007bb5780638beb60b614620007c55780638da5cb5b14620007e5576200031b565b80638456cb59146200073557806384cdd9bc146200073f576200031b565b80634a1b0d57116200026d5780635fd65f0f1162000219578063715018a611620001fb578063715018a614620006a35780637c61e56114620006ad57806382b8660014620006e9576200031b565b80635fd65f0f14620005f657806366c0bd241462000657576200031b565b8063593d132c116200024f578063593d132c146200057c5780635bb4780814620005a25780635c975abb14620005d8576200031b565b80634a1b0d5714620004ca5780634d49e87d1462000500576200031b565b80632f71b91211620002cd57806334e1990711620002af57806334e19907146200046b5780633e3a1560146200048b5780633f4ba83a14620004c0576200031b565b80632f71b91214620003e457806331cd52b014620003ee576200031b565b80630419b45a11620003035780630419b45a14620003c45780630ba8195914620003d057806318f52ce214620003da576200031b565b8062113e081462000320578063029a326b146200037c575b600080fd5b6200032a62000cea565b60408051602080825283518183015283519192839290830191858101910280838360005b83811015620003685781810151838201526020016200034e565b505050509050019250505060405180910390f35b620003b2600480360360208110156200039457600080fd5b503573ffffffffffffffffffffffffffffffffffffffff1662000d47565b60408051918252519081900360200190f35b620003ce62000d6f565b005b620003b262000ecd565b6200032a62000f55565b620003b262001080565b6200032a600480360360608110156200040657600080fd5b813591908101906040810160208201356401000000008111156200042957600080fd5b8201836020820111156200043c57600080fd5b803590602001918460208302840111640100000000831117156200045f57600080fd5b91935091503562001086565b620003ce600480360360208110156200048357600080fd5b503562001300565b620003b260048036036080811015620004a357600080fd5b5080359060ff602082013516906040810135906060013562001420565b620003ce62001641565b620003b260048036036020811015620004e257600080fd5b503573ffffffffffffffffffffffffffffffffffffffff16620016fa565b620003b2600480360360608110156200051857600080fd5b8101906020810181356401000000008111156200053457600080fd5b8201836020820111156200054757600080fd5b803590602001918460208302840111640100000000831117156200056a57600080fd5b919350915080359060200135620017ba565b620003ce600480360360408110156200059457600080fd5b5080359060200135620019ae565b620003ce60048036036020811015620005ba57600080fd5b503573ffffffffffffffffffffffffffffffffffffffff1662001af2565b620005e262001be6565b604080519115158252519081900360200190f35b6200060062001c07565b604080519889526020890197909752878701959095526060870193909352608086019190915260a085015260c084015273ffffffffffffffffffffffffffffffffffffffff1660e083015251908190036101000190f35b6200068d600480360360208110156200066f57600080fd5b503573ffffffffffffffffffffffffffffffffffffffff1662001c38565b6040805160ff9092168252519081900360200190f35b620003ce62001cfa565b6200032a60048036036040811015620006c557600080fd5b5073ffffffffffffffffffffffffffffffffffffffff813516906020013562001e16565b6200070c600480360360208110156200070157600080fd5b503560ff1662001f9f565b6040805173ffffffffffffffffffffffffffffffffffffffff9092168252519081900360200190f35b620003ce62002050565b620003b2600480360360608110156200075757600080fd5b8101906020810181356401000000008111156200077357600080fd5b8201836020820111156200078657600080fd5b80359060200191846020830284011164010000000083111715620007a957600080fd5b91935091508035906020013562002107565b6200032a620022fb565b620003ce60048036036020811015620007dd57600080fd5b50356200236e565b6200070c6200248e565b620003b2600480360360a08110156200080757600080fd5b5060ff813581169160208101359091169060408101359060608101359060800135620024aa565b620003b2600480360360208110156200084657600080fd5b503560ff16620026d4565b620003b2600480360360608110156200086957600080fd5b50803573ffffffffffffffffffffffffffffffffffffffff16906020810135906040013560ff166200276f565b620003b260048036036060811015620008ae57600080fd5b5060ff8135811691602081013590911690604001356200283c565b620003ce60048036036020811015620008e157600080fd5b5035620028f0565b620003ce600480360360408110156200090157600080fd5b5073ffffffffffffffffffffffffffffffffffffffff813516906020013562002a10565b6200070c62002b26565b620003ce62002b42565b6200032a62002c76565b620003b262002cd1565b620003b2600480360360208110156200096557600080fd5b503573ffffffffffffffffffffffffffffffffffffffff1662002d26565b620003ce60048036036101208110156200099c57600080fd5b810190602081018135640100000000811115620009b857600080fd5b820183602082011115620009cb57600080fd5b80359060200191846020830284011164010000000083111715620009ee57600080fd5b919080806020026020016040519081016040528093929190818152602001838360200280828437600092019190915250929594936020810193503591505064010000000081111562000a3f57600080fd5b82018360208201111562000a5257600080fd5b8035906020019184602083028401116401000000008311171562000a7557600080fd5b919080806020026020016040519081016040528093929190818152602001838360200280828437600092019190915250929594936020810193503591505064010000000081111562000ac657600080fd5b82018360208201111562000ad957600080fd5b8035906020019184600183028401116401000000008311171562000afc57600080fd5b91908080601f016020809104026020016040519081016040528093929190818152602001838380828437600092019190915250929594936020810193503591505064010000000081111562000b5057600080fd5b82018360208201111562000b6357600080fd5b8035906020019184600183028401116401000000008311171562000b8657600080fd5b91908080601f016020809104026020016040519081016040528093929190818152602001838380828437600092019190915250929550508235935050506020810135906040810135906060810135906080013573ffffffffffffffffffffffffffffffffffffffff1662002db2565b620003b26200378c565b620003b26004803603602081101562000c1757600080fd5b5035620037e1565b620003ce6004803603602081101562000c3757600080fd5b503573ffffffffffffffffffffffffffffffffffffffff166200383e565b620003b26004803603606081101562000c6d57600080fd5b73ffffffffffffffffffffffffffffffffffffffff823516919081019060408101602082013564010000000081111562000ca657600080fd5b82018360208201111562000cb957600080fd5b8035906020019184602083028401116401000000008311171562000cdc57600080fd5b9193509150351515620039e6565b60606002600a0180548060200260200160405190810160405280929190818152602001828054801562000d3d57602002820191906000526020600020905b81548152602001906001019080831162000d28575b5050505050905090565b73ffffffffffffffffffffffffffffffffffffffff166000908152600e602052604090205490565b601054604080517f017e7e58000000000000000000000000000000000000000000000000000000008152905160009273ffffffffffffffffffffffffffffffffffffffff169163017e7e58916004808301926020929190829003018186803b15801562000ddb57600080fd5b505afa15801562000df0573d6000803e3d6000fd5b505050506040513d602081101562000e0757600080fd5b5051905073ffffffffffffffffffffffffffffffffffffffff81161562000eca57604080517f24c5c7510000000000000000000000000000000000000000000000000000000081526002600482015273ffffffffffffffffffffffffffffffffffffffff831660248201529051736829DFb55A4F1997B74c4E30C93040A29F4c1ef5916324c5c751916044808301926000929190829003018186803b15801562000eb057600080fd5b505af415801562000ec5573d6000803e3d6000fd5b505050505b50565b60006002736829DFb55A4F1997B74c4E30C93040A29F4c1ef563c9b64dcb90916040518263ffffffff1660e01b81526004018082815260200191505060206040518083038186803b15801562000f2257600080fd5b505af415801562000f37573d6000803e3d6000fd5b505050506040513d602081101562000f4e57600080fd5b5051905090565b6060600062000f6362001080565b90508067ffffffffffffffff8111801562000f7d57600080fd5b5060405190808252806020026020018201604052801562000fa8578160200160208202803683370190505b50915060005b818110156200107b57604080517f7d04816000000000000000000000000000000000000000000000000000000000815260026004820152602481018390529051736829DFb55A4F1997B74c4E30C93040A29F4c1ef591637d048160916044808301926020929190829003018186803b1580156200102a57600080fd5b505af41580156200103f573d6000803e3d6000fd5b505050506040513d60208110156200105657600080fd5b505183518490839081106200106757fe5b602090810291909101015260010162000fae565b505090565b600a5490565b606060026001541415620010fb57604080517f08c379a000000000000000000000000000000000000000000000000000000000815260206004820152601f60248201527f5265656e7472616e637947756172643a207265656e7472616e742063616c6c00604482015290519081900360640190fd5b600260015581428110156200117157604080517f08c379a000000000000000000000000000000000000000000000000000000000815260206004820152601060248201527f446561646c696e65206e6f74206d657400000000000000000000000000000000604482015290519081900360640190fd5b6002736829DFb55A4F1997B74c4E30C93040A29F4c1ef56373fd6b3e90918888886040518563ffffffff1660e01b815260040180858152602001848152602001806020018281038252848482818152602001925060200280828437600081840152601f19601f8201169050808301925050509550505050505060006040518083038186803b1580156200120357600080fd5b505af415801562001218573d6000803e3d6000fd5b505050506040513d6000823e601f3d9081017fffffffffffffffffffffffffffffffffffffffffffffffffffffffffffffffe016820160405260208110156200126057600080fd5b81019080805160405193929190846401000000008211156200128157600080fd5b9083019060208201858111156200129757600080fd5b8251866020820283011164010000000082111715620012b557600080fd5b82525081516020918201928201910280838360005b83811015620012e4578181015183820152602001620012ca565b5050505090500160405250505091505060018055949350505050565b6200130a62003ad1565b73ffffffffffffffffffffffffffffffffffffffff166200132a6200248e565b73ffffffffffffffffffffffffffffffffffffffff1614620013ad57604080517f08c379a000000000000000000000000000000000000000000000000000000000815260206004820181905260248201527f4f776e61626c653a2063616c6c6572206973206e6f7420746865206f776e6572604482015290519081900360640190fd5b604080517f467e186c00000000000000000000000000000000000000000000000000000000815260026004820152602481018390529051736829DFb55A4F1997B74c4E30C93040A29F4c1ef59163467e186c916044808301926000929190829003018186803b15801562000eb057600080fd5b6000600260015414156200149557604080517f08c379a000000000000000000000000000000000000000000000000000000000815260206004820152601f60248201527f5265656e7472616e637947756172643a207265656e7472616e742063616c6c00604482015290519081900360640190fd5b6002600155620014a462001be6565b156200151157604080517f08c379a000000000000000000000000000000000000000000000000000000000815260206004820152601060248201527f5061757361626c653a2070617573656400000000000000000000000000000000604482015290519081900360640190fd5b81804211156200158257604080517f08c379a000000000000000000000000000000000000000000000000000000000815260206004820152601060248201527f446561646c696e65206e6f74206d657400000000000000000000000000000000604482015290519081900360640190fd5b604080517fe7a4db81000000000000000000000000000000000000000000000000000000008152600260048201526024810188905260ff87166044820152606481018690529051736829DFb55A4F1997B74c4E30C93040A29F4c1ef59163e7a4db81916084808301926020929190829003018186803b1580156200160557600080fd5b505af41580156200161a573d6000803e3d6000fd5b505050506040513d60208110156200163157600080fd5b5051600180559695505050505050565b6200164b62003ad1565b73ffffffffffffffffffffffffffffffffffffffff166200166b6200248e565b73ffffffffffffffffffffffffffffffffffffffff1614620016ee57604080517f08c379a000000000000000000000000000000000000000000000000000000000815260206004820181905260248201527f4f776e61626c653a2063616c6c6572206973206e6f7420746865206f776e6572604482015290519081900360640190fd5b620016f862003ad5565b565b604080517f968e55940000000000000000000000000000000000000000000000000000000081526002600482015273ffffffffffffffffffffffffffffffffffffffff831660248201529051600091736829DFb55A4F1997B74c4E30C93040A29F4c1ef59163968e559491604480820192602092909190829003018186803b1580156200178657600080fd5b505af41580156200179b573d6000803e3d6000fd5b505050506040513d6020811015620017b257600080fd5b505192915050565b6000600260015414156200182f57604080517f08c379a000000000000000000000000000000000000000000000000000000000815260206004820152601f60248201527f5265656e7472616e637947756172643a207265656e7472616e742063616c6c00604482015290519081900360640190fd5b60026001556200183e62001be6565b15620018ab57604080517f08c379a000000000000000000000000000000000000000000000000000000000815260206004820152601060248201527f5061757361626c653a2070617573656400000000000000000000000000000000604482015290519081900360640190fd5b81804211156200191c57604080517f08c379a000000000000000000000000000000000000000000000000000000000815260206004820152601060248201527f446561646c696e65206e6f74206d657400000000000000000000000000000000604482015290519081900360640190fd5b6002736829DFb55A4F1997B74c4E30C93040A29F4c1ef56340370edf90918888886040518563ffffffff1660e01b815260040180858152602001806020018381526020018281038252858582818152602001925060200280828437600081840152601f19601f8201169050808301925050509550505050505060206040518083038186803b1580156200160557600080fd5b620019b862003ad1565b73ffffffffffffffffffffffffffffffffffffffff16620019d86200248e565b73ffffffffffffffffffffffffffffffffffffffff161462001a5b57604080517f08c379a000000000000000000000000000000000000000000000000000000000815260206004820181905260248201527f4f776e61626c653a2063616c6c6572206973206e6f7420746865206f776e6572604482015290519081900360640190fd5b604080517f58fdd79b0000000000000000000000000000000000000000000000000000000081526002600482015260248101849052604481018390529051736829DFb55A4F1997B74c4E30C93040A29F4c1ef5916358fdd79b916064808301926000929190829003018186803b15801562001ad557600080fd5b505af415801562001aea573d6000803e3d6000fd5b505050505050565b62001afc62003ad1565b73ffffffffffffffffffffffffffffffffffffffff1662001b1c6200248e565b73ffffffffffffffffffffffffffffffffffffffff161462001b9f57604080517f08c379a000000000000000000000000000000000000000000000000000000000815260206004820181905260248201527f4f776e61626c653a2063616c6c6572206973206e6f7420746865206f776e6572604482015290519081900360640190fd5b601080547fffffffffffffffffffffffff00000000000000000000000000000000000000001673ffffffffffffffffffffffffffffffffffffffff92909216919091179055565b60005474010000000000000000000000000000000000000000900460ff1690565b60025460035460045460055460065460075460085460095473ffffffffffffffffffffffffffffffffffffffff1688565b73ffffffffffffffffffffffffffffffffffffffff81166000818152600f6020526040812054909160ff9091169062001c718262001f9f565b73ffffffffffffffffffffffffffffffffffffffff161462001cf457604080517f08c379a000000000000000000000000000000000000000000000000000000000815260206004820152601460248201527f546f6b656e20646f6573206e6f74206578697374000000000000000000000000604482015290519081900360640190fd5b92915050565b62001d0462003ad1565b73ffffffffffffffffffffffffffffffffffffffff1662001d246200248e565b73ffffffffffffffffffffffffffffffffffffffff161462001da757604080517f08c379a000000000000000000000000000000000000000000000000000000000815260206004820181905260248201527f4f776e61626c653a2063616c6c6572206973206e6f7420746865206f776e6572604482015290519081900360640190fd5b6000805460405173ffffffffffffffffffffffffffffffffffffffff909116907f8be0079c531659141344cd1fd0a4f28419497f9722a3daafe3b4186f6b6457e0908390a3600080547fffffffffffffffffffffffff0000000000000000000000000000000000000000169055565b604080517ff967a81f0000000000000000000000000000000000000000000000000000000081526002600482015273ffffffffffffffffffffffffffffffffffffffff84166024820152604481018390529051606091736829DFb55A4F1997B74c4E30C93040A29F4c1ef59163f967a81f91606480820192600092909190829003018186803b15801562001ea957600080fd5b505af415801562001ebe573d6000803e3d6000fd5b505050506040513d6000823e601f3d9081017fffffffffffffffffffffffffffffffffffffffffffffffffffffffffffffffe0168201604052602081101562001f0657600080fd5b810190808051604051939291908464010000000082111562001f2757600080fd5b90830190602082018581111562001f3d57600080fd5b825186602082028301116401000000008211171562001f5b57600080fd5b82525081516020918201928201910280838360005b8381101562001f8a57818101518382015260200162001f70565b50505050905001604052505050905092915050565b600a5460009060ff8316106200201657604080517f08c379a000000000000000000000000000000000000000000000000000000000815260206004820152600c60248201527f4f7574206f662072616e67650000000000000000000000000000000000000000604482015290519081900360640190fd5b600a805460ff84169081106200202857fe5b60009182526020909120015473ffffffffffffffffffffffffffffffffffffffff1692915050565b6200205a62003ad1565b73ffffffffffffffffffffffffffffffffffffffff166200207a6200248e565b73ffffffffffffffffffffffffffffffffffffffff1614620020fd57604080517f08c379a000000000000000000000000000000000000000000000000000000000815260206004820181905260248201527f4f776e61626c653a2063616c6c6572206973206e6f7420746865206f776e6572604482015290519081900360640190fd5b620016f862003bc8565b6000600260015414156200217c57604080517f08c379a000000000000000000000000000000000000000000000000000000000815260206004820152601f60248201527f5265656e7472616e637947756172643a207265656e7472616e742063616c6c00604482015290519081900360640190fd5b60026001556200218b62001be6565b15620021f857604080517f08c379a000000000000000000000000000000000000000000000000000000000815260206004820152601060248201527f5061757361626c653a2070617573656400000000000000000000000000000000604482015290519081900360640190fd5b81804211156200226957604080517f08c379a000000000000000000000000000000000000000000000000000000000815260206004820152601060248201527f446561646c696e65206e6f74206d657400000000000000000000000000000000604482015290519081900360640190fd5b6002736829DFb55A4F1997B74c4E30C93040A29F4c1ef56341b91c2690918888886040518563ffffffff1660e01b815260040180858152602001806020018381526020018281038252858582818152602001925060200280828437600081840152601f19601f8201169050808301925050509550505050505060206040518083038186803b1580156200160557600080fd5b6060600260080180548060200260200160405190810160405280929190818152602001828054801562000d3d57602002820191906000526020600020905b815473ffffffffffffffffffffffffffffffffffffffff16815260019091019060200180831162002339575050505050905090565b6200237862003ad1565b73ffffffffffffffffffffffffffffffffffffffff16620023986200248e565b73ffffffffffffffffffffffffffffffffffffffff16146200241b57604080517f08c379a000000000000000000000000000000000000000000000000000000000815260206004820181905260248201527f4f776e61626c653a2063616c6c6572206973206e6f7420746865206f776e6572604482015290519081900360640190fd5b604080517f7046727600000000000000000000000000000000000000000000000000000000815260026004820152602481018390529051736829DFb55A4F1997B74c4E30C93040A29F4c1ef5916370467276916044808301926000929190829003018186803b15801562000eb057600080fd5b60005473ffffffffffffffffffffffffffffffffffffffff1690565b6000600260015414156200251f57604080517f08c379a000000000000000000000000000000000000000000000000000000000815260206004820152601f60248201527f5265656e7472616e637947756172643a207265656e7472616e742063616c6c00604482015290519081900360640190fd5b60026001556200252e62001be6565b156200259b57604080517f08c379a000000000000000000000000000000000000000000000000000000000815260206004820152601060248201527f5061757361626c653a2070617573656400000000000000000000000000000000604482015290519081900360640190fd5b81804211156200260c57604080517f08c379a000000000000000000000000000000000000000000000000000000000815260206004820152601060248201527f446561646c696e65206e6f74206d657400000000000000000000000000000000604482015290519081900360640190fd5b604080517fa5397b220000000000000000000000000000000000000000000000000000000081526002600482015260ff808a1660248301528816604482015260648101879052608481018690529051736829DFb55A4F1997B74c4E30C93040A29F4c1ef59163a5397b229160a4808301926020929190829003018186803b1580156200269757600080fd5b505af4158015620026ac573d6000803e3d6000fd5b505050506040513d6020811015620026c357600080fd5b505160018055979650505050505050565b600a5460009060ff8316106200274b57604080517f08c379a000000000000000000000000000000000000000000000000000000000815260206004820152601260248201527f496e646578206f7574206f662072616e67650000000000000000000000000000604482015290519081900360640190fd5b600c805460ff84169081106200275d57fe5b90600052602060002001549050919050565b604080517fe4a9a0da0000000000000000000000000000000000000000000000000000000081526002600482015273ffffffffffffffffffffffffffffffffffffffff851660248201526044810184905260ff831660648201528151600092736829DFb55A4F1997B74c4E30C93040A29F4c1ef59263e4a9a0da9260848083019392829003018186803b1580156200280657600080fd5b505af41580156200281b573d6000803e3d6000fd5b505050506040513d60408110156200283257600080fd5b5051949350505050565b604080517f4b23603c0000000000000000000000000000000000000000000000000000000081526002600482015260ff808616602483015284166044820152606481018390529051600091736829DFb55A4F1997B74c4E30C93040A29F4c1ef591634b23603c91608480820192602092909190829003018186803b158015620028c457600080fd5b505af4158015620028d9573d6000803e3d6000fd5b505050506040513d60208110156200283257600080fd5b620028fa62003ad1565b73ffffffffffffffffffffffffffffffffffffffff166200291a6200248e565b73ffffffffffffffffffffffffffffffffffffffff16146200299d57604080517f08c379a000000000000000000000000000000000000000000000000000000000815260206004820181905260248201527f4f776e61626c653a2063616c6c6572206973206e6f7420746865206f776e6572604482015290519081900360640190fd5b604080517f8ab7697e00000000000000000000000000000000000000000000000000000000815260026004820152602481018390529051736829DFb55A4F1997B74c4E30C93040A29F4c1ef591638ab7697e916044808301926000929190829003018186803b15801562000eb057600080fd5b60095473ffffffffffffffffffffffffffffffffffffffff16331462002a9757604080517f08c379a000000000000000000000000000000000000000000000000000000000815260206004820152601b60248201527f4f6e6c792063616c6c61626c6520627920706f6f6c20746f6b656e0000000000604482015290519081900360640190fd5b604080517fe9252d460000000000000000000000000000000000000000000000000000000081526002600482015273ffffffffffffffffffffffffffffffffffffffff84166024820152604481018390529051736829DFb55A4F1997B74c4E30C93040A29F4c1ef59163e9252d46916064808301926000929190829003018186803b15801562001ad557600080fd5b60105473ffffffffffffffffffffffffffffffffffffffff1681565b62002b4c62003ad1565b73ffffffffffffffffffffffffffffffffffffffff1662002b6c6200248e565b73ffffffffffffffffffffffffffffffffffffffff161462002bef57604080517f08c379a000000000000000000000000000000000000000000000000000000000815260206004820181905260248201527f4f776e61626c653a2063616c6c6572206973206e6f7420746865206f776e6572604482015290519081900360640190fd5b604080517ff14e211e000000000000000000000000000000000000000000000000000000008152600260048201529051736829DFb55A4F1997B74c4E30C93040A29F4c1ef59163f14e211e916024808301926000929190829003018186803b15801562002c5b57600080fd5b505af415801562002c70573d6000803e3d6000fd5b50505050565b6060600260090180548060200260200160405190810160405280929190818152602001828054801562000d3d576020028201919060005260206000209081548152602001906001019080831162000d28575050505050905090565b60006002736829DFb55A4F1997B74c4E30C93040A29F4c1ef563b0a14cfc90916040518263ffffffff1660e01b81526004018082815260200191505060206040518083038186803b15801562000f2257600080fd5b604080517fe8c47a540000000000000000000000000000000000000000000000000000000081526002600482015273ffffffffffffffffffffffffffffffffffffffff831660248201529051600091736829DFb55A4F1997B74c4E30C93040A29F4c1ef59163e8c47a5491604480820192602092909190829003018186803b1580156200178657600080fd5b60105474010000000000000000000000000000000000000000900460ff161562002e3d57604080517f08c379a000000000000000000000000000000000000000000000000000000000815260206004820152601f60248201527f537761703a20496e697469616c697a65206d7573742062652066616c73652e00604482015290519081900360640190fd5b600189511162002eae57604080517f08c379a000000000000000000000000000000000000000000000000000000000815260206004820152601960248201527f5f706f6f6c6564546f6b656e732e6c656e677468203c3d203100000000000000604482015290519081900360640190fd5b60208951111562002f2057604080517f08c379a000000000000000000000000000000000000000000000000000000000815260206004820152601960248201527f5f706f6f6c6564546f6b656e732e6c656e677468203e20333200000000000000604482015290519081900360640190fd5b875189511462002f9157604080517f08c379a000000000000000000000000000000000000000000000000000000000815260206004820152601f60248201527f5f706f6f6c6564546f6b656e7320646563696d616c73206d69736d6174636800604482015290519081900360640190fd5b6060885167ffffffffffffffff8111801562002fac57600080fd5b5060405190808252806020026020018201604052801562002fd7578160200160208202803683370190505b50905060005b8a518160ff161015620033205760ff8116156200310e57600f60008c8360ff16815181106200300857fe5b60209081029190910181015173ffffffffffffffffffffffffffffffffffffffff1682528101919091526040016000205460ff16158015620030a257508a8160ff16815181106200305557fe5b602002602001015173ffffffffffffffffffffffffffffffffffffffff168b6000815181106200308157fe5b602002602001015173ffffffffffffffffffffffffffffffffffffffff1614155b6200310e57604080517f08c379a000000000000000000000000000000000000000000000000000000000815260206004820152601060248201527f4475706c696361746520746f6b656e7300000000000000000000000000000000604482015290519081900360640190fd5b600073ffffffffffffffffffffffffffffffffffffffff168b8260ff16815181106200313657fe5b602002602001015173ffffffffffffffffffffffffffffffffffffffff161415620031c257604080517f08c379a000000000000000000000000000000000000000000000000000000000815260206004820152601d60248201527f546865203020616464726573732069736e277420616e204552432d3230000000604482015290519081900360640190fd5b601260ff168a8260ff1681518110620031d757fe5b602002602001015160ff1611156200325057604080517f08c379a000000000000000000000000000000000000000000000000000000000815260206004820152601a60248201527f546f6b656e20646563696d616c732065786365656473206d6178000000000000604482015290519081900360640190fd5b620032838a8260ff16815181106200326457fe5b602002602001015160ff16601260ff1662003ca990919063ffffffff16565b600a0a828260ff16815181106200329657fe5b60200260200101818152505080600f60008d8460ff1681518110620032b757fe5b60209081029190910181015173ffffffffffffffffffffffffffffffffffffffff16825281019190915260400160002080547fffffffffffffffffffffffffffffffffffffffffffffffffffffffffffffff001660ff9290921691909117905560010162002fdd565b50620f424086106200339357604080517f08c379a000000000000000000000000000000000000000000000000000000000815260206004820152601260248201527f5f612065786365656473206d6178696d756d0000000000000000000000000000604482015290519081900360640190fd5b6305f5e1008511156200340757604080517f08c379a000000000000000000000000000000000000000000000000000000000815260206004820152601460248201527f5f6665652065786365656473206d6178696d756d000000000000000000000000604482015290519081900360640190fd5b6402540be4008411156200347c57604080517f08c379a000000000000000000000000000000000000000000000000000000000815260206004820152601960248201527f5f61646d696e4665652065786365656473206d6178696d756d00000000000000604482015290519081900360640190fd5b6305f5e100831115620034f057604080517f08c379a000000000000000000000000000000000000000000000000000000000815260206004820152601c60248201527f5f77697468647261774665652065786365656473206d6178696d756d00000000604482015290519081900360640190fd5b87876012604051620035029062003da0565b60ff82166040820152606080825284519082015283518190602080830191608084019188019080838360005b83811015620035485781810151838201526020016200352e565b50505050905090810190601f168015620035765780820380516001836020036101000a031916815260200191505b50838103825285518152855160209182019187019080838360005b83811015620035ab57818101518382015260200162003591565b50505050905090810190601f168015620035d95780820380516001836020036101000a031916815260200191505b5095505050505050604051809103906000f080158015620035fe573d6000803e3d6000fd5b50600980547fffffffffffffffffffffffff00000000000000000000000000000000000000001673ffffffffffffffffffffffffffffffffffffffff9290921691909117905589516200365990600a9060208d019062003dae565b5080516200366f90600b90602084019062003e3d565b50895167ffffffffffffffff811180156200368957600080fd5b50604051908082528060200260200182016040528015620036b4578160200160208202803683370190505b508051620036cb91600c9160209091019062003e3d565b50620036d986606462003d21565b600255620036e986606462003d21565b6003555060006004819055600555600693909355600791909155600855601080547fffffffffffffffffffffff00ffffffffffffffffffffffffffffffffffffffff73ffffffffffffffffffffffffffffffffffffffff9093167fffffffffffffffffffffffff00000000000000000000000000000000000000009091161791909116740100000000000000000000000000000000000000001790555050505050565b60006002736829DFb55A4F1997B74c4E30C93040A29F4c1ef56371906c2c90916040518263ffffffff1660e01b81526004018082815260200191505060206040518083038186803b15801562000f2257600080fd5b60006002736829DFb55A4F1997B74c4E30C93040A29F4c1ef5637d0481609091846040518363ffffffff1660e01b8152600401808381526020018281526020019250505060206040518083038186803b1580156200178657600080fd5b6200384862003ad1565b73ffffffffffffffffffffffffffffffffffffffff16620038686200248e565b73ffffffffffffffffffffffffffffffffffffffff1614620038eb57604080517f08c379a000000000000000000000000000000000000000000000000000000000815260206004820181905260248201527f4f776e61626c653a2063616c6c6572206973206e6f7420746865206f776e6572604482015290519081900360640190fd5b73ffffffffffffffffffffffffffffffffffffffff811662003959576040517f08c379a0000000000000000000000000000000000000000000000000000000008152600401808060200182810382526026815260200180620058436026913960400191505060405180910390fd5b6000805460405173ffffffffffffffffffffffffffffffffffffffff808516939216917f8be0079c531659141344cd1fd0a4f28419497f9722a3daafe3b4186f6b6457e091a3600080547fffffffffffffffffffffffff00000000000000000000000000000000000000001673ffffffffffffffffffffffffffffffffffffffff92909216919091179055565b60006002736829DFb55A4F1997B74c4E30C93040A29F4c1ef5635e58579c9091878787876040518663ffffffff1660e01b8152600401808681526020018573ffffffffffffffffffffffffffffffffffffffff1681526020018060200183151581526020018281038252858582818152602001925060200280828437600081840152601f19601f820116905080830192505050965050505050505060206040518083038186803b15801562003a9a57600080fd5b505af415801562003aaf573d6000803e3d6000fd5b505050506040513d602081101562003ac657600080fd5b505195945050505050565b3390565b62003adf62001be6565b62003b4b57604080517f08c379a000000000000000000000000000000000000000000000000000000000815260206004820152601460248201527f5061757361626c653a206e6f7420706175736564000000000000000000000000604482015290519081900360640190fd5b600080547fffffffffffffffffffffff00ffffffffffffffffffffffffffffffffffffffff1690557f5db9ee0a495bf2e6ff9c91a7834c1ba4fdd244a5e8aa4e537bd38aeae4b073aa62003b9e62003ad1565b6040805173ffffffffffffffffffffffffffffffffffffffff9092168252519081900360200190a1565b62003bd262001be6565b1562003c3f57604080517f08c379a000000000000000000000000000000000000000000000000000000000815260206004820152601060248201527f5061757361626c653a2070617573656400000000000000000000000000000000604482015290519081900360640190fd5b600080547fffffffffffffffffffffff00ffffffffffffffffffffffffffffffffffffffff16740100000000000000000000000000000000000000001790557f62e78cea01bee320cd4e420270b5ea74000d11b0c9f74754ebdbfc544b05a25862003b9e62003ad1565b60008282111562003d1b57604080517f08c379a000000000000000000000000000000000000000000000000000000000815260206004820152601e60248201527f536166654d6174683a207375627472616374696f6e206f766572666c6f770000604482015290519081900360640190fd5b50900390565b60008262003d325750600062001cf4565b8282028284828162003d4057fe5b041462003d99576040517f08c379a0000000000000000000000000000000000000000000000000000000008152600401808060200182810382526021815260200180620058696021913960400191505060405180910390fd5b9392505050565b6119698062003eda83390190565b82805482825590600052602060002090810192821562003e2b579160200282015b8281111562003e2b57825182547fffffffffffffffffffffffff00000000000000000000000000000000000000001673ffffffffffffffffffffffffffffffffffffffff90911617825560209092019160019091019062003dcf565b5062003e3992915062003e89565b5090565b82805482825590600052602060002090810192821562003e7b579160200282015b8281111562003e7b57825182559160200191906001019062003e5e565b5062003e3992915062003ec2565b5b8082111562003e395780547fffffffffffffffffffffffff000000000000000000000000000000000000000016815560010162003e8a565b5b8082111562003e39576000815560010162003ec356fe60806040523480156200001157600080fd5b506040516200196938038062001969833981810160405260608110156200003757600080fd5b81019080805160405193929190846401000000008211156200005857600080fd5b9083019060208201858111156200006e57600080fd5b82516401000000008111828201881017156200008957600080fd5b82525081516020918201929091019080838360005b83811015620000b85781810151838201526020016200009e565b50505050905090810190601f168015620000e65780820380516001836020036101000a031916815260200191505b50604052602001805160405193929190846401000000008211156200010a57600080fd5b9083019060208201858111156200012057600080fd5b82516401000000008111828201881017156200013b57600080fd5b82525081516020918201929091019080838360005b838110156200016a57818101518382015260200162000150565b50505050905090810190601f168015620001985780820380516001836020036101000a031916815260200191505b5060405260209081015185519093508592508491620001bd916003918501906200029e565b508051620001d39060049060208401906200029e565b50506005805460ff19166012179055506000620001ef62000284565b60058054610100600160a81b0319166101006001600160a01b03841690810291909117909155604051919250906000907f8be0079c531659141344cd1fd0a4f28419497f9722a3daafe3b4186f6b6457e0908290a350620002508162000288565b6200025a62000284565b600680546001600160a01b0319166001600160a01b0392909216919091179055506200033a915050565b3390565b6005805460ff191660ff92909216919091179055565b828054600181600116156101000203166002900490600052602060002090601f016020900481019282601f10620002e157805160ff191683800117855562000311565b8280016001018555821562000311579182015b8281111562000311578251825591602001919060010190620002f4565b506200031f92915062000323565b5090565b5b808211156200031f576000815560010162000324565b61161f806200034a6000396000f3fe608060405234801561001057600080fd5b50600436106101365760003560e01c8063715018a6116100b257806395d89b4111610081578063a9059cbb11610066578063a9059cbb146103ff578063dd62ed3e14610438578063f2fde38b1461047357610136565b806395d89b41146103be578063a457c2d7146103c657610136565b8063715018a61461034457806379cc67901461034c5780638119c065146103855780638da5cb5b146103b657610136565b8063313ce5671161010957806340c10f19116100ee57806340c10f19146102b957806342966c68146102f457806370a082311461031157610136565b8063313ce56714610262578063395093511461028057610136565b806306fdde031461013b578063095ea7b3146101b857806318160ddd1461020557806323b872dd1461021f575b600080fd5b6101436104a6565b6040805160208082528351818301528351919283929083019185019080838360005b8381101561017d578181015183820152602001610165565b50505050905090810190601f1680156101aa5780820380516001836020036101000a031916815260200191505b509250505060405180910390f35b6101f1600480360360408110156101ce57600080fd5b5073ffffffffffffffffffffffffffffffffffffffff813516906020013561055a565b604080519115158252519081900360200190f35b61020d610577565b60408051918252519081900360200190f35b6101f16004803603606081101561023557600080fd5b5073ffffffffffffffffffffffffffffffffffffffff81358116916020810135909116906040013561057d565b61026a61061e565b6040805160ff9092168252519081900360200190f35b6101f16004803603604081101561029657600080fd5b5073ffffffffffffffffffffffffffffffffffffffff8135169060200135610627565b6102f2600480360360408110156102cf57600080fd5b5073ffffffffffffffffffffffffffffffffffffffff8135169060200135610682565b005b6102f26004803603602081101561030a57600080fd5b50356107a4565b61020d6004803603602081101561032757600080fd5b503573ffffffffffffffffffffffffffffffffffffffff166107b8565b6102f26107e0565b6102f26004803603604081101561036257600080fd5b5073ffffffffffffffffffffffffffffffffffffffff81351690602001356108fc565b61038d610956565b6040805173ffffffffffffffffffffffffffffffffffffffff9092168252519081900360200190f35b61038d610972565b610143610993565b6101f1600480360360408110156103dc57600080fd5b5073ffffffffffffffffffffffffffffffffffffffff8135169060200135610a12565b6101f16004803603604081101561041557600080fd5b5073ffffffffffffffffffffffffffffffffffffffff8135169060200135610a87565b61020d6004803603604081101561044e57600080fd5b5073ffffffffffffffffffffffffffffffffffffffff81358116916020013516610a9b565b6102f26004803603602081101561048957600080fd5b503573ffffffffffffffffffffffffffffffffffffffff16610ad3565b60038054604080516020601f60027fffffffffffffffffffffffffffffffffffffffffffffffffffffffffffffffff6101006001881615020190951694909404938401819004810282018101909252828152606093909290918301828280156105505780601f1061052557610100808354040283529160200191610550565b820191906000526020600020905b81548152906001019060200180831161053357829003601f168201915b5050505050905090565b600061056e610567610c7f565b8484610c83565b50600192915050565b60025490565b600061058a848484610dca565b61061484610596610c7f565b61060f8560405180606001604052806028815260200161150f6028913973ffffffffffffffffffffffffffffffffffffffff8a166000908152600160205260408120906105e1610c7f565b73ffffffffffffffffffffffffffffffffffffffff1681526020810191909152604001600020549190610f9a565b610c83565b5060019392505050565b60055460ff1690565b600061056e610634610c7f565b8461060f8560016000610645610c7f565b73ffffffffffffffffffffffffffffffffffffffff908116825260208083019390935260409182016000908120918c16815292529020549061104b565b61068a610c7f565b73ffffffffffffffffffffffffffffffffffffffff166106a8610972565b73ffffffffffffffffffffffffffffffffffffffff161461072a57604080517f08c379a000000000000000000000000000000000000000000000000000000000815260206004820181905260248201527f4f776e61626c653a2063616c6c6572206973206e6f7420746865206f776e6572604482015290519081900360640190fd5b8061079657604080517f08c379a000000000000000000000000000000000000000000000000000000000815260206004820152600b60248201527f616d6f756e74203d3d2030000000000000000000000000000000000000000000604482015290519081900360640190fd5b6107a082826110c6565b5050565b6107b56107af610c7f565b826111f7565b50565b73ffffffffffffffffffffffffffffffffffffffff1660009081526020819052604090205490565b6107e8610c7f565b73ffffffffffffffffffffffffffffffffffffffff16610806610972565b73ffffffffffffffffffffffffffffffffffffffff161461088857604080517f08c379a000000000000000000000000000000000000000000000000000000000815260206004820181905260248201527f4f776e61626c653a2063616c6c6572206973206e6f7420746865206f776e6572604482015290519081900360640190fd5b600554604051600091610100900473ffffffffffffffffffffffffffffffffffffffff16907f8be0079c531659141344cd1fd0a4f28419497f9722a3daafe3b4186f6b6457e0908390a3600580547fffffffffffffffffffffff0000000000000000000000000000000000000000ff169055565b6000610933826040518060600160405280602481526020016115376024913961092c86610927610c7f565b610a9b565b9190610f9a565b905061094783610941610c7f565b83610c83565b61095183836111f7565b505050565b60065473ffffffffffffffffffffffffffffffffffffffff1681565b600554610100900473ffffffffffffffffffffffffffffffffffffffff1690565b60048054604080516020601f60027fffffffffffffffffffffffffffffffffffffffffffffffffffffffffffffffff6101006001881615020190951694909404938401819004810282018101909252828152606093909290918301828280156105505780601f1061052557610100808354040283529160200191610550565b600061056e610a1f610c7f565b8461060f856040518060600160405280602581526020016115c56025913960016000610a49610c7f565b73ffffffffffffffffffffffffffffffffffffffff908116825260208083019390935260409182016000908120918d16815292529020549190610f9a565b600061056e610a94610c7f565b8484610dca565b73ffffffffffffffffffffffffffffffffffffffff918216600090815260016020908152604080832093909416825291909152205490565b610adb610c7f565b73ffffffffffffffffffffffffffffffffffffffff16610af9610972565b73ffffffffffffffffffffffffffffffffffffffff1614610b7b57604080517f08c379a000000000000000000000000000000000000000000000000000000000815260206004820181905260248201527f4f776e61626c653a2063616c6c6572206973206e6f7420746865206f776e6572604482015290519081900360640190fd5b73ffffffffffffffffffffffffffffffffffffffff8116610be7576040517f08c379a00000000000000000000000000000000000000000000000000000000081526004018080602001828103825260268152602001806114a16026913960400191505060405180910390fd5b60055460405173ffffffffffffffffffffffffffffffffffffffff80841692610100900416907f8be0079c531659141344cd1fd0a4f28419497f9722a3daafe3b4186f6b6457e090600090a36005805473ffffffffffffffffffffffffffffffffffffffff909216610100027fffffffffffffffffffffff0000000000000000000000000000000000000000ff909216919091179055565b3390565b73ffffffffffffffffffffffffffffffffffffffff8316610cef576040517f08c379a00000000000000000000000000000000000000000000000000000000081526004018080602001828103825260248152602001806115a16024913960400191505060405180910390fd5b73ffffffffffffffffffffffffffffffffffffffff8216610d5b576040517f08c379a00000000000000000000000000000000000000000000000000000000081526004018080602001828103825260228152602001806114c76022913960400191505060405180910390fd5b73ffffffffffffffffffffffffffffffffffffffff808416600081815260016020908152604080832094871680845294825291829020859055815185815291517f8c5be1e5ebec7d5bd14f71427d1e84f3dd0314c0f7b2291e5b200ac8c7c3b9259281900390910190a3505050565b73ffffffffffffffffffffffffffffffffffffffff8316610e36576040517f08c379a000000000000000000000000000000000000000000000000000000000815260040180806020018281038252602581526020018061157c6025913960400191505060405180910390fd5b73ffffffffffffffffffffffffffffffffffffffff8216610ea2576040517f08c379a000000000000000000000000000000000000000000000000000000000815260040180806020018281038252602381526020018061145c6023913960400191505060405180910390fd5b610ead838383611341565b610ef7816040518060600160405280602681526020016114e96026913973ffffffffffffffffffffffffffffffffffffffff86166000908152602081905260409020549190610f9a565b73ffffffffffffffffffffffffffffffffffffffff8085166000908152602081905260408082209390935590841681522054610f33908261104b565b73ffffffffffffffffffffffffffffffffffffffff8084166000818152602081815260409182902094909455805185815290519193928716927fddf252ad1be2c89b69c2b068fc378daa952ba7f163c4a11628f55a4df523b3ef92918290030190a3505050565b60008184841115611043576040517f08c379a00000000000000000000000000000000000000000000000000000000081526004018080602001828103825283818151815260200191508051906020019080838360005b83811015611008578181015183820152602001610ff0565b50505050905090810190601f1680156110355780820380516001836020036101000a031916815260200191505b509250505060405180910390fd5b505050900390565b6000828201838110156110bf57604080517f08c379a000000000000000000000000000000000000000000000000000000000815260206004820152601b60248201527f536166654d6174683a206164646974696f6e206f766572666c6f770000000000604482015290519081900360640190fd5b9392505050565b73ffffffffffffffffffffffffffffffffffffffff821661114857604080517f08c379a000000000000000000000000000000000000000000000000000000000815260206004820152601f60248201527f45524332303a206d696e7420746f20746865207a65726f206164647265737300604482015290519081900360640190fd5b61115460008383611341565b600254611161908261104b565b60025573ffffffffffffffffffffffffffffffffffffffff8216600090815260208190526040902054611194908261104b565b73ffffffffffffffffffffffffffffffffffffffff83166000818152602081815260408083209490945583518581529351929391927fddf252ad1be2c89b69c2b068fc378daa952ba7f163c4a11628f55a4df523b3ef9281900390910190a35050565b73ffffffffffffffffffffffffffffffffffffffff8216611263576040517f08c379a000000000000000000000000000000000000000000000000000000000815260040180806020018281038252602181526020018061155b6021913960400191505060405180910390fd5b61126f82600083611341565b6112b98160405180606001604052806022815260200161147f6022913973ffffffffffffffffffffffffffffffffffffffff85166000908152602081905260409020549190610f9a565b73ffffffffffffffffffffffffffffffffffffffff83166000908152602081905260409020556002546112ec90826113e4565b60025560408051828152905160009173ffffffffffffffffffffffffffffffffffffffff8516917fddf252ad1be2c89b69c2b068fc378daa952ba7f163c4a11628f55a4df523b3ef9181900360200190a35050565b61134c838383610951565b600654604080517fc00c125c00000000000000000000000000000000000000000000000000000000815273ffffffffffffffffffffffffffffffffffffffff8581166004830152602482018590529151919092169163c00c125c91604480830192600092919082900301818387803b1580156113c757600080fd5b505af11580156113db573d6000803e3d6000fd5b50505050505050565b60008282111561145557604080517f08c379a000000000000000000000000000000000000000000000000000000000815260206004820152601e60248201527f536166654d6174683a207375627472616374696f6e206f766572666c6f770000604482015290519081900360640190fd5b5090039056fe45524332303a207472616e7366657220746f20746865207a65726f206164647265737345524332303a206275726e20616d6f756e7420657863656564732062616c616e63654f776e61626c653a206e6577206f776e657220697320746865207a65726f206164647265737345524332303a20617070726f766520746f20746865207a65726f206164647265737345524332303a207472616e7366657220616d6f756e7420657863656564732062616c616e636545524332303a207472616e7366657220616d6f756e74206578636565647320616c6c6f77616e636545524332303a206275726e20616d6f756e74206578636565647320616c6c6f77616e636545524332303a206275726e2066726f6d20746865207a65726f206164647265737345524332303a207472616e736665722066726f6d20746865207a65726f206164647265737345524332303a20617070726f76652066726f6d20746865207a65726f206164647265737345524332303a2064656372656173656420616c6c6f77616e63652062656c6f77207a65726fa2646970667358221220fec5a448efb70dce0a391362014c6c6f0f4d591bd9f39b0785f7762c2144f3c964736f6c634300060c00334f776e61626c653a206e6577206f776e657220697320746865207a65726f2061646472657373536166654d6174683a206d756c7469706c69636174696f6e206f766572666c6f77a264697066735822122024be09d058a140221e41a852eca7ab86552e6996688a82f0c81862f13a0590ac64736f6c634300060c0033a2646970667358221220618c370452607a17600f114c75a554e65315d545314f306799e6f5ac6563833964736f6c634300060c0033",
  "deployedBytecode": "0x608060405234801561001057600080fd5b506004361061002b5760003560e01c80639dd3d9fd14610030575b600080fd5b610293600480360361012081101561004757600080fd5b81019060208101813564010000000081111561006257600080fd5b82018360208201111561007457600080fd5b8035906020019184602083028401116401000000008311171561009657600080fd5b91908080602002602001604051908101604052809392919081815260200183836020028082843760009201919091525092959493602081019350359150506401000000008111156100e657600080fd5b8201836020820111156100f857600080fd5b8035906020019184602083028401116401000000008311171561011a57600080fd5b919080806020026020016040519081016040528093929190818152602001838360200280828437600092019190915250929594936020810193503591505064010000000081111561016a57600080fd5b82018360208201111561017c57600080fd5b8035906020019184600183028401116401000000008311171561019e57600080fd5b91908080601f01602080910402602001604051908101604052809392919081815260200183838082843760009201919091525092959493602081019350359150506401000000008111156101f157600080fd5b82018360208201111561020357600080fd5b8035906020019184600183028401116401000000008311171561022557600080fd5b91908080601f016020809104026020016040519081016040528093929190818152602001838380828437600092019190915250929550508235935050506020810135906040810135906060810135906080013573ffffffffffffffffffffffffffffffffffffffff166102bc565b6040805173ffffffffffffffffffffffffffffffffffffffff9092168252519081900360200190f35b6000806040516102cb90610578565b604051809103906000f0801580156102e7573d6000803e3d6000fd5b5090508073ffffffffffffffffffffffffffffffffffffffff1663df3ed68d8c8c8c8c8c8c8c8c336040518a63ffffffff1660e01b815260040180806020018060200180602001806020018a81526020018981526020018881526020018781526020018673ffffffffffffffffffffffffffffffffffffffff16815260200185810385528e818151815260200191508051906020019060200280838360005b8381101561039e578181015183820152602001610386565b5050505090500185810384528d818151815260200191508051906020019060200280838360005b838110156103dd5781810151838201526020016103c5565b5050505090500185810383528c818151815260200191508051906020019080838360005b83811015610419578181015183820152602001610401565b50505050905090810190601f1680156104465780820380516001836020036101000a031916815260200191505b5085810382528b5181528b516020918201918d019080838360005b83811015610479578181015183820152602001610461565b50505050905090810190601f1680156104a65780820380516001836020036101000a031916815260200191505b509d5050505050505050505050505050600060405180830381600087803b1580156104d057600080fd5b505af11580156104e4573d6000803e3d6000fd5b505050508073ffffffffffffffffffffffffffffffffffffffff1663f2fde38b846040518263ffffffff1660e01b8152600401808273ffffffffffffffffffffffffffffffffffffffff168152602001915050600060405180830381600087803b15801561055157600080fd5b505af1158015610565573d6000803e3d6000fd5b50929d9c50505050505050505050505050565b61595f806105868339019056fe60806040526010805460ff60a01b191690553480156200001e57600080fd5b5060006200002b6200008c565b600080546001600160a01b0319166001600160a01b0383169081178255604051929350917f8be0079c531659141344cd1fd0a4f28419497f9722a3daafe3b4186f6b6457e0908290a3506000805460ff60a01b191690556001805562000090565b3390565b6158bf80620000a06000396000f3fe60806040523480156200001157600080fd5b50600436106200031b5760003560e01c80638456cb5911620001ad578063c00c125c11620000f9578063da7a77be11620000a5578063ef0a712f116200007b578063ef0a712f1462000bff578063f2fde38b1462000c1f578063f9273ffb1462000c55576200031b565b8063da7a77be146200094d578063df3ed68d1462000983578063e25aa5fa1462000bf5576200031b565b8063c4db7fa011620000db578063c4db7fa0146200092f578063d41f65681462000939578063d46300fd1462000943576200031b565b8063c00c125c14620008e9578063c45a01551462000925576200031b565b806391695586116200015957806398899f40116200013b57806398899f401462000851578063a95b089f1462000896578063ac5bf26314620008c9576200031b565b80639169558614620007ef57806391ceb3eb146200082e576200031b565b806389c06568116200018f57806389c0656814620007bb5780638beb60b614620007c55780638da5cb5b14620007e5576200031b565b80638456cb59146200073557806384cdd9bc146200073f576200031b565b80634a1b0d57116200026d5780635fd65f0f1162000219578063715018a611620001fb578063715018a614620006a35780637c61e56114620006ad57806382b8660014620006e9576200031b565b80635fd65f0f14620005f657806366c0bd241462000657576200031b565b8063593d132c116200024f578063593d132c146200057c5780635bb4780814620005a25780635c975abb14620005d8576200031b565b80634a1b0d5714620004ca5780634d49e87d1462000500576200031b565b80632f71b91211620002cd57806334e1990711620002af57806334e19907146200046b5780633e3a1560146200048b5780633f4ba83a14620004c0576200031b565b80632f71b91214620003e457806331cd52b014620003ee576200031b565b80630419b45a11620003035780630419b45a14620003c45780630ba8195914620003d057806318f52ce214620003da576200031b565b8062113e081462000320578063029a326b146200037c575b600080fd5b6200032a62000cea565b60408051602080825283518183015283519192839290830191858101910280838360005b83811015620003685781810151838201526020016200034e565b505050509050019250505060405180910390f35b620003b2600480360360208110156200039457600080fd5b503573ffffffffffffffffffffffffffffffffffffffff1662000d47565b60408051918252519081900360200190f35b620003ce62000d6f565b005b620003b262000ecd565b6200032a62000f55565b620003b262001080565b6200032a600480360360608110156200040657600080fd5b813591908101906040810160208201356401000000008111156200042957600080fd5b8201836020820111156200043c57600080fd5b803590602001918460208302840111640100000000831117156200045f57600080fd5b91935091503562001086565b620003ce600480360360208110156200048357600080fd5b503562001300565b620003b260048036036080811015620004a357600080fd5b5080359060ff602082013516906040810135906060013562001420565b620003ce62001641565b620003b260048036036020811015620004e257600080fd5b503573ffffffffffffffffffffffffffffffffffffffff16620016fa565b620003b2600480360360608110156200051857600080fd5b8101906020810181356401000000008111156200053457600080fd5b8201836020820111156200054757600080fd5b803590602001918460208302840111640100000000831117156200056a57600080fd5b919350915080359060200135620017ba565b620003ce600480360360408110156200059457600080fd5b5080359060200135620019ae565b620003ce60048036036020811015620005ba57600080fd5b503573ffffffffffffffffffffffffffffffffffffffff1662001af2565b620005e262001be6565b604080519115158252519081900360200190f35b6200060062001c07565b604080519889526020890197909752878701959095526060870193909352608086019190915260a085015260c084015273ffffffffffffffffffffffffffffffffffffffff1660e083015251908190036101000190f35b6200068d600480360360208110156200066f57600080fd5b503573ffffffffffffffffffffffffffffffffffffffff1662001c38565b6040805160ff9092168252519081900360200190f35b620003ce62001cfa565b6200032a60048036036040811015620006c557600080fd5b5073ffffffffffffffffffffffffffffffffffffffff813516906020013562001e16565b6200070c600480360360208110156200070157600080fd5b503560ff1662001f9f565b6040805173ffffffffffffffffffffffffffffffffffffffff9092168252519081900360200190f35b620003ce62002050565b620003b2600480360360608110156200075757600080fd5b8101906020810181356401000000008111156200077357600080fd5b8201836020820111156200078657600080fd5b80359060200191846020830284011164010000000083111715620007a957600080fd5b91935091508035906020013562002107565b6200032a620022fb565b620003ce60048036036020811015620007dd57600080fd5b50356200236e565b6200070c6200248e565b620003b2600480360360a08110156200080757600080fd5b5060ff813581169160208101359091169060408101359060608101359060800135620024aa565b620003b2600480360360208110156200084657600080fd5b503560ff16620026d4565b620003b2600480360360608110156200086957600080fd5b50803573ffffffffffffffffffffffffffffffffffffffff16906020810135906040013560ff166200276f565b620003b260048036036060811015620008ae57600080fd5b5060ff8135811691602081013590911690604001356200283c565b620003ce60048036036020811015620008e157600080fd5b5035620028f0565b620003ce600480360360408110156200090157600080fd5b5073ffffffffffffffffffffffffffffffffffffffff813516906020013562002a10565b6200070c62002b26565b620003ce62002b42565b6200032a62002c76565b620003b262002cd1565b620003b2600480360360208110156200096557600080fd5b503573ffffffffffffffffffffffffffffffffffffffff1662002d26565b620003ce60048036036101208110156200099c57600080fd5b810190602081018135640100000000811115620009b857600080fd5b820183602082011115620009cb57600080fd5b80359060200191846020830284011164010000000083111715620009ee57600080fd5b919080806020026020016040519081016040528093929190818152602001838360200280828437600092019190915250929594936020810193503591505064010000000081111562000a3f57600080fd5b82018360208201111562000a5257600080fd5b8035906020019184602083028401116401000000008311171562000a7557600080fd5b919080806020026020016040519081016040528093929190818152602001838360200280828437600092019190915250929594936020810193503591505064010000000081111562000ac657600080fd5b82018360208201111562000ad957600080fd5b8035906020019184600183028401116401000000008311171562000afc57600080fd5b91908080601f016020809104026020016040519081016040528093929190818152602001838380828437600092019190915250929594936020810193503591505064010000000081111562000b5057600080fd5b82018360208201111562000b6357600080fd5b8035906020019184600183028401116401000000008311171562000b8657600080fd5b91908080601f016020809104026020016040519081016040528093929190818152602001838380828437600092019190915250929550508235935050506020810135906040810135906060810135906080013573ffffffffffffffffffffffffffffffffffffffff1662002db2565b620003b26200378c565b620003b26004803603602081101562000c1757600080fd5b5035620037e1565b620003ce6004803603602081101562000c3757600080fd5b503573ffffffffffffffffffffffffffffffffffffffff166200383e565b620003b26004803603606081101562000c6d57600080fd5b73ffffffffffffffffffffffffffffffffffffffff823516919081019060408101602082013564010000000081111562000ca657600080fd5b82018360208201111562000cb957600080fd5b8035906020019184602083028401116401000000008311171562000cdc57600080fd5b9193509150351515620039e6565b60606002600a0180548060200260200160405190810160405280929190818152602001828054801562000d3d57602002820191906000526020600020905b81548152602001906001019080831162000d28575b5050505050905090565b73ffffffffffffffffffffffffffffffffffffffff166000908152600e602052604090205490565b601054604080517f017e7e58000000000000000000000000000000000000000000000000000000008152905160009273ffffffffffffffffffffffffffffffffffffffff169163017e7e58916004808301926020929190829003018186803b15801562000ddb57600080fd5b505afa15801562000df0573d6000803e3d6000fd5b505050506040513d602081101562000e0757600080fd5b5051905073ffffffffffffffffffffffffffffffffffffffff81161562000eca57604080517f24c5c7510000000000000000000000000000000000000000000000000000000081526002600482015273ffffffffffffffffffffffffffffffffffffffff83166024820152905173__$ba915c0b31ae0775f7b2dbb35feeac279e$__916324c5c751916044808301926000929190829003018186803b15801562000eb057600080fd5b505af415801562000ec5573d6000803e3d6000fd5b505050505b50565b6000600273__$ba915c0b31ae0775f7b2dbb35feeac279e$__63c9b64dcb90916040518263ffffffff1660e01b81526004018082815260200191505060206040518083038186803b15801562000f2257600080fd5b505af415801562000f37573d6000803e3d6000fd5b505050506040513d602081101562000f4e57600080fd5b5051905090565b6060600062000f6362001080565b90508067ffffffffffffffff8111801562000f7d57600080fd5b5060405190808252806020026020018201604052801562000fa8578160200160208202803683370190505b50915060005b818110156200107b57604080517f7d0481600000000000000000000000000000000000000000000000000000000081526002600482015260248101839052905173__$ba915c0b31ae0775f7b2dbb35feeac279e$__91637d048160916044808301926020929190829003018186803b1580156200102a57600080fd5b505af41580156200103f573d6000803e3d6000fd5b505050506040513d60208110156200105657600080fd5b505183518490839081106200106757fe5b602090810291909101015260010162000fae565b505090565b600a5490565b606060026001541415620010fb57604080517f08c379a000000000000000000000000000000000000000000000000000000000815260206004820152601f60248201527f5265656e7472616e637947756172643a207265656e7472616e742063616c6c00604482015290519081900360640190fd5b600260015581428110156200117157604080517f08c379a000000000000000000000000000000000000000000000000000000000815260206004820152601060248201527f446561646c696e65206e6f74206d657400000000000000000000000000000000604482015290519081900360640190fd5b600273__$ba915c0b31ae0775f7b2dbb35feeac279e$__6373fd6b3e90918888886040518563ffffffff1660e01b815260040180858152602001848152602001806020018281038252848482818152602001925060200280828437600081840152601f19601f8201169050808301925050509550505050505060006040518083038186803b1580156200120357600080fd5b505af415801562001218573d6000803e3d6000fd5b505050506040513d6000823e601f3d9081017fffffffffffffffffffffffffffffffffffffffffffffffffffffffffffffffe016820160405260208110156200126057600080fd5b81019080805160405193929190846401000000008211156200128157600080fd5b9083019060208201858111156200129757600080fd5b8251866020820283011164010000000082111715620012b557600080fd5b82525081516020918201928201910280838360005b83811015620012e4578181015183820152602001620012ca565b5050505090500160405250505091505060018055949350505050565b6200130a62003ad1565b73ffffffffffffffffffffffffffffffffffffffff166200132a6200248e565b73ffffffffffffffffffffffffffffffffffffffff1614620013ad57604080517f08c379a000000000000000000000000000000000000000000000000000000000815260206004820181905260248201527f4f776e61626c653a2063616c6c6572206973206e6f7420746865206f776e6572604482015290519081900360640190fd5b604080517f467e186c0000000000000000000000000000000000000000000000000000000081526002600482015260248101839052905173__$ba915c0b31ae0775f7b2dbb35feeac279e$__9163467e186c916044808301926000929190829003018186803b15801562000eb057600080fd5b6000600260015414156200149557604080517f08c379a000000000000000000000000000000000000000000000000000000000815260206004820152601f60248201527f5265656e7472616e637947756172643a207265656e7472616e742063616c6c00604482015290519081900360640190fd5b6002600155620014a462001be6565b156200151157604080517f08c379a000000000000000000000000000000000000000000000000000000000815260206004820152601060248201527f5061757361626c653a2070617573656400000000000000000000000000000000604482015290519081900360640190fd5b81804211156200158257604080517f08c379a000000000000000000000000000000000000000000000000000000000815260206004820152601060248201527f446561646c696e65206e6f74206d657400000000000000000000000000000000604482015290519081900360640190fd5b604080517fe7a4db81000000000000000000000000000000000000000000000000000000008152600260048201526024810188905260ff8716604482015260648101869052905173__$ba915c0b31ae0775f7b2dbb35feeac279e$__9163e7a4db81916084808301926020929190829003018186803b1580156200160557600080fd5b505af41580156200161a573d6000803e3d6000fd5b505050506040513d60208110156200163157600080fd5b5051600180559695505050505050565b6200164b62003ad1565b73ffffffffffffffffffffffffffffffffffffffff166200166b6200248e565b73ffffffffffffffffffffffffffffffffffffffff1614620016ee57604080517f08c379a000000000000000000000000000000000000000000000000000000000815260206004820181905260248201527f4f776e61626c653a2063616c6c6572206973206e6f7420746865206f776e6572604482015290519081900360640190fd5b620016f862003ad5565b565b604080517f968e55940000000000000000000000000000000000000000000000000000000081526002600482015273ffffffffffffffffffffffffffffffffffffffff83166024820152905160009173__$ba915c0b31ae0775f7b2dbb35feeac279e$__9163968e559491604480820192602092909190829003018186803b1580156200178657600080fd5b505af41580156200179b573d6000803e3d6000fd5b505050506040513d6020811015620017b257600080fd5b505192915050565b6000600260015414156200182f57604080517f08c379a000000000000000000000000000000000000000000000000000000000815260206004820152601f60248201527f5265656e7472616e637947756172643a207265656e7472616e742063616c6c00604482015290519081900360640190fd5b60026001556200183e62001be6565b15620018ab57604080517f08c379a000000000000000000000000000000000000000000000000000000000815260206004820152601060248201527f5061757361626c653a2070617573656400000000000000000000000000000000604482015290519081900360640190fd5b81804211156200191c57604080517f08c379a000000000000000000000000000000000000000000000000000000000815260206004820152601060248201527f446561646c696e65206e6f74206d657400000000000000000000000000000000604482015290519081900360640190fd5b600273__$ba915c0b31ae0775f7b2dbb35feeac279e$__6340370edf90918888886040518563ffffffff1660e01b815260040180858152602001806020018381526020018281038252858582818152602001925060200280828437600081840152601f19601f8201169050808301925050509550505050505060206040518083038186803b1580156200160557600080fd5b620019b862003ad1565b73ffffffffffffffffffffffffffffffffffffffff16620019d86200248e565b73ffffffffffffffffffffffffffffffffffffffff161462001a5b57604080517f08c379a000000000000000000000000000000000000000000000000000000000815260206004820181905260248201527f4f776e61626c653a2063616c6c6572206973206e6f7420746865206f776e6572604482015290519081900360640190fd5b604080517f58fdd79b000000000000000000000000000000000000000000000000000000008152600260048201526024810184905260448101839052905173__$ba915c0b31ae0775f7b2dbb35feeac279e$__916358fdd79b916064808301926000929190829003018186803b15801562001ad557600080fd5b505af415801562001aea573d6000803e3d6000fd5b505050505050565b62001afc62003ad1565b73ffffffffffffffffffffffffffffffffffffffff1662001b1c6200248e565b73ffffffffffffffffffffffffffffffffffffffff161462001b9f57604080517f08c379a000000000000000000000000000000000000000000000000000000000815260206004820181905260248201527f4f776e61626c653a2063616c6c6572206973206e6f7420746865206f776e6572604482015290519081900360640190fd5b601080547fffffffffffffffffffffffff00000000000000000000000000000000000000001673ffffffffffffffffffffffffffffffffffffffff92909216919091179055565b60005474010000000000000000000000000000000000000000900460ff1690565b60025460035460045460055460065460075460085460095473ffffffffffffffffffffffffffffffffffffffff1688565b73ffffffffffffffffffffffffffffffffffffffff81166000818152600f6020526040812054909160ff9091169062001c718262001f9f565b73ffffffffffffffffffffffffffffffffffffffff161462001cf457604080517f08c379a000000000000000000000000000000000000000000000000000000000815260206004820152601460248201527f546f6b656e20646f6573206e6f74206578697374000000000000000000000000604482015290519081900360640190fd5b92915050565b62001d0462003ad1565b73ffffffffffffffffffffffffffffffffffffffff1662001d246200248e565b73ffffffffffffffffffffffffffffffffffffffff161462001da757604080517f08c379a000000000000000000000000000000000000000000000000000000000815260206004820181905260248201527f4f776e61626c653a2063616c6c6572206973206e6f7420746865206f776e6572604482015290519081900360640190fd5b6000805460405173ffffffffffffffffffffffffffffffffffffffff909116907f8be0079c531659141344cd1fd0a4f28419497f9722a3daafe3b4186f6b6457e0908390a3600080547fffffffffffffffffffffffff0000000000000000000000000000000000000000169055565b604080517ff967a81f0000000000000000000000000000000000000000000000000000000081526002600482015273ffffffffffffffffffffffffffffffffffffffff8416602482015260448101839052905160609173__$ba915c0b31ae0775f7b2dbb35feeac279e$__9163f967a81f91606480820192600092909190829003018186803b15801562001ea957600080fd5b505af415801562001ebe573d6000803e3d6000fd5b505050506040513d6000823e601f3d9081017fffffffffffffffffffffffffffffffffffffffffffffffffffffffffffffffe0168201604052602081101562001f0657600080fd5b810190808051604051939291908464010000000082111562001f2757600080fd5b90830190602082018581111562001f3d57600080fd5b825186602082028301116401000000008211171562001f5b57600080fd5b82525081516020918201928201910280838360005b8381101562001f8a57818101518382015260200162001f70565b50505050905001604052505050905092915050565b600a5460009060ff8316106200201657604080517f08c379a000000000000000000000000000000000000000000000000000000000815260206004820152600c60248201527f4f7574206f662072616e67650000000000000000000000000000000000000000604482015290519081900360640190fd5b600a805460ff84169081106200202857fe5b60009182526020909120015473ffffffffffffffffffffffffffffffffffffffff1692915050565b6200205a62003ad1565b73ffffffffffffffffffffffffffffffffffffffff166200207a6200248e565b73ffffffffffffffffffffffffffffffffffffffff1614620020fd57604080517f08c379a000000000000000000000000000000000000000000000000000000000815260206004820181905260248201527f4f776e61626c653a2063616c6c6572206973206e6f7420746865206f776e6572604482015290519081900360640190fd5b620016f862003bc8565b6000600260015414156200217c57604080517f08c379a000000000000000000000000000000000000000000000000000000000815260206004820152601f60248201527f5265656e7472616e637947756172643a207265656e7472616e742063616c6c00604482015290519081900360640190fd5b60026001556200218b62001be6565b15620021f857604080517f08c379a000000000000000000000000000000000000000000000000000000000815260206004820152601060248201527f5061757361626c653a2070617573656400000000000000000000000000000000604482015290519081900360640190fd5b81804211156200226957604080517f08c379a000000000000000000000000000000000000000000000000000000000815260206004820152601060248201527f446561646c696e65206e6f74206d657400000000000000000000000000000000604482015290519081900360640190fd5b600273__$ba915c0b31ae0775f7b2dbb35feeac279e$__6341b91c2690918888886040518563ffffffff1660e01b815260040180858152602001806020018381526020018281038252858582818152602001925060200280828437600081840152601f19601f8201169050808301925050509550505050505060206040518083038186803b1580156200160557600080fd5b6060600260080180548060200260200160405190810160405280929190818152602001828054801562000d3d57602002820191906000526020600020905b815473ffffffffffffffffffffffffffffffffffffffff16815260019091019060200180831162002339575050505050905090565b6200237862003ad1565b73ffffffffffffffffffffffffffffffffffffffff16620023986200248e565b73ffffffffffffffffffffffffffffffffffffffff16146200241b57604080517f08c379a000000000000000000000000000000000000000000000000000000000815260206004820181905260248201527f4f776e61626c653a2063616c6c6572206973206e6f7420746865206f776e6572604482015290519081900360640190fd5b604080517f704672760000000000000000000000000000000000000000000000000000000081526002600482015260248101839052905173__$ba915c0b31ae0775f7b2dbb35feeac279e$__916370467276916044808301926000929190829003018186803b15801562000eb057600080fd5b60005473ffffffffffffffffffffffffffffffffffffffff1690565b6000600260015414156200251f57604080517f08c379a000000000000000000000000000000000000000000000000000000000815260206004820152601f60248201527f5265656e7472616e637947756172643a207265656e7472616e742063616c6c00604482015290519081900360640190fd5b60026001556200252e62001be6565b156200259b57604080517f08c379a000000000000000000000000000000000000000000000000000000000815260206004820152601060248201527f5061757361626c653a2070617573656400000000000000000000000000000000604482015290519081900360640190fd5b81804211156200260c57604080517f08c379a000000000000000000000000000000000000000000000000000000000815260206004820152601060248201527f446561646c696e65206e6f74206d657400000000000000000000000000000000604482015290519081900360640190fd5b604080517fa5397b220000000000000000000000000000000000000000000000000000000081526002600482015260ff808a166024830152881660448201526064810187905260848101869052905173__$ba915c0b31ae0775f7b2dbb35feeac279e$__9163a5397b229160a4808301926020929190829003018186803b1580156200269757600080fd5b505af4158015620026ac573d6000803e3d6000fd5b505050506040513d6020811015620026c357600080fd5b505160018055979650505050505050565b600a5460009060ff8316106200274b57604080517f08c379a000000000000000000000000000000000000000000000000000000000815260206004820152601260248201527f496e646578206f7574206f662072616e67650000000000000000000000000000604482015290519081900360640190fd5b600c805460ff84169081106200275d57fe5b90600052602060002001549050919050565b604080517fe4a9a0da0000000000000000000000000000000000000000000000000000000081526002600482015273ffffffffffffffffffffffffffffffffffffffff851660248201526044810184905260ff83166064820152815160009273__$ba915c0b31ae0775f7b2dbb35feeac279e$__9263e4a9a0da9260848083019392829003018186803b1580156200280657600080fd5b505af41580156200281b573d6000803e3d6000fd5b505050506040513d60408110156200283257600080fd5b5051949350505050565b604080517f4b23603c0000000000000000000000000000000000000000000000000000000081526002600482015260ff80861660248301528416604482015260648101839052905160009173__$ba915c0b31ae0775f7b2dbb35feeac279e$__91634b23603c91608480820192602092909190829003018186803b158015620028c457600080fd5b505af4158015620028d9573d6000803e3d6000fd5b505050506040513d60208110156200283257600080fd5b620028fa62003ad1565b73ffffffffffffffffffffffffffffffffffffffff166200291a6200248e565b73ffffffffffffffffffffffffffffffffffffffff16146200299d57604080517f08c379a000000000000000000000000000000000000000000000000000000000815260206004820181905260248201527f4f776e61626c653a2063616c6c6572206973206e6f7420746865206f776e6572604482015290519081900360640190fd5b604080517f8ab7697e0000000000000000000000000000000000000000000000000000000081526002600482015260248101839052905173__$ba915c0b31ae0775f7b2dbb35feeac279e$__91638ab7697e916044808301926000929190829003018186803b15801562000eb057600080fd5b60095473ffffffffffffffffffffffffffffffffffffffff16331462002a9757604080517f08c379a000000000000000000000000000000000000000000000000000000000815260206004820152601b60248201527f4f6e6c792063616c6c61626c6520627920706f6f6c20746f6b656e0000000000604482015290519081900360640190fd5b604080517fe9252d460000000000000000000000000000000000000000000000000000000081526002600482015273ffffffffffffffffffffffffffffffffffffffff8416602482015260448101839052905173__$ba915c0b31ae0775f7b2dbb35feeac279e$__9163e9252d46916064808301926000929190829003018186803b15801562001ad557600080fd5b60105473ffffffffffffffffffffffffffffffffffffffff1681565b62002b4c62003ad1565b73ffffffffffffffffffffffffffffffffffffffff1662002b6c6200248e565b73ffffffffffffffffffffffffffffffffffffffff161462002bef57604080517f08c379a000000000000000000000000000000000000000000000000000000000815260206004820181905260248201527f4f776e61626c653a2063616c6c6572206973206e6f7420746865206f776e6572604482015290519081900360640190fd5b604080517ff14e211e00000000000000000000000000000000000000000000000000000000815260026004820152905173__$ba915c0b31ae0775f7b2dbb35feeac279e$__9163f14e211e916024808301926000929190829003018186803b15801562002c5b57600080fd5b505af415801562002c70573d6000803e3d6000fd5b50505050565b6060600260090180548060200260200160405190810160405280929190818152602001828054801562000d3d576020028201919060005260206000209081548152602001906001019080831162000d28575050505050905090565b6000600273__$ba915c0b31ae0775f7b2dbb35feeac279e$__63b0a14cfc90916040518263ffffffff1660e01b81526004018082815260200191505060206040518083038186803b15801562000f2257600080fd5b604080517fe8c47a540000000000000000000000000000000000000000000000000000000081526002600482015273ffffffffffffffffffffffffffffffffffffffff83166024820152905160009173__$ba915c0b31ae0775f7b2dbb35feeac279e$__9163e8c47a5491604480820192602092909190829003018186803b1580156200178657600080fd5b60105474010000000000000000000000000000000000000000900460ff161562002e3d57604080517f08c379a000000000000000000000000000000000000000000000000000000000815260206004820152601f60248201527f537761703a20496e697469616c697a65206d7573742062652066616c73652e00604482015290519081900360640190fd5b600189511162002eae57604080517f08c379a000000000000000000000000000000000000000000000000000000000815260206004820152601960248201527f5f706f6f6c6564546f6b656e732e6c656e677468203c3d203100000000000000604482015290519081900360640190fd5b60208951111562002f2057604080517f08c379a000000000000000000000000000000000000000000000000000000000815260206004820152601960248201527f5f706f6f6c6564546f6b656e732e6c656e677468203e20333200000000000000604482015290519081900360640190fd5b875189511462002f9157604080517f08c379a000000000000000000000000000000000000000000000000000000000815260206004820152601f60248201527f5f706f6f6c6564546f6b656e7320646563696d616c73206d69736d6174636800604482015290519081900360640190fd5b6060885167ffffffffffffffff8111801562002fac57600080fd5b5060405190808252806020026020018201604052801562002fd7578160200160208202803683370190505b50905060005b8a518160ff161015620033205760ff8116156200310e57600f60008c8360ff16815181106200300857fe5b60209081029190910181015173ffffffffffffffffffffffffffffffffffffffff1682528101919091526040016000205460ff16158015620030a257508a8160ff16815181106200305557fe5b602002602001015173ffffffffffffffffffffffffffffffffffffffff168b6000815181106200308157fe5b602002602001015173ffffffffffffffffffffffffffffffffffffffff1614155b6200310e57604080517f08c379a000000000000000000000000000000000000000000000000000000000815260206004820152601060248201527f4475706c696361746520746f6b656e7300000000000000000000000000000000604482015290519081900360640190fd5b600073ffffffffffffffffffffffffffffffffffffffff168b8260ff16815181106200313657fe5b602002602001015173ffffffffffffffffffffffffffffffffffffffff161415620031c257604080517f08c379a000000000000000000000000000000000000000000000000000000000815260206004820152601d60248201527f546865203020616464726573732069736e277420616e204552432d3230000000604482015290519081900360640190fd5b601260ff168a8260ff1681518110620031d757fe5b602002602001015160ff1611156200325057604080517f08c379a000000000000000000000000000000000000000000000000000000000815260206004820152601a60248201527f546f6b656e20646563696d616c732065786365656473206d6178000000000000604482015290519081900360640190fd5b620032838a8260ff16815181106200326457fe5b602002602001015160ff16601260ff1662003ca990919063ffffffff16565b600a0a828260ff16815181106200329657fe5b60200260200101818152505080600f60008d8460ff1681518110620032b757fe5b60209081029190910181015173ffffffffffffffffffffffffffffffffffffffff16825281019190915260400160002080547fffffffffffffffffffffffffffffffffffffffffffffffffffffffffffffff001660ff9290921691909117905560010162002fdd565b50620f424086106200339357604080517f08c379a000000000000000000000000000000000000000000000000000000000815260206004820152601260248201527f5f612065786365656473206d6178696d756d0000000000000000000000000000604482015290519081900360640190fd5b6305f5e1008511156200340757604080517f08c379a000000000000000000000000000000000000000000000000000000000815260206004820152601460248201527f5f6665652065786365656473206d6178696d756d000000000000000000000000604482015290519081900360640190fd5b6402540be4008411156200347c57604080517f08c379a000000000000000000000000000000000000000000000000000000000815260206004820152601960248201527f5f61646d696e4665652065786365656473206d6178696d756d00000000000000604482015290519081900360640190fd5b6305f5e100831115620034f057604080517f08c379a000000000000000000000000000000000000000000000000000000000815260206004820152601c60248201527f5f77697468647261774665652065786365656473206d6178696d756d00000000604482015290519081900360640190fd5b87876012604051620035029062003da0565b60ff82166040820152606080825284519082015283518190602080830191608084019188019080838360005b83811015620035485781810151838201526020016200352e565b50505050905090810190601f168015620035765780820380516001836020036101000a031916815260200191505b50838103825285518152855160209182019187019080838360005b83811015620035ab57818101518382015260200162003591565b50505050905090810190601f168015620035d95780820380516001836020036101000a031916815260200191505b5095505050505050604051809103906000f080158015620035fe573d6000803e3d6000fd5b50600980547fffffffffffffffffffffffff00000000000000000000000000000000000000001673ffffffffffffffffffffffffffffffffffffffff9290921691909117905589516200365990600a9060208d019062003dae565b5080516200366f90600b90602084019062003e3d565b50895167ffffffffffffffff811180156200368957600080fd5b50604051908082528060200260200182016040528015620036b4578160200160208202803683370190505b508051620036cb91600c9160209091019062003e3d565b50620036d986606462003d21565b600255620036e986606462003d21565b6003555060006004819055600555600693909355600791909155600855601080547fffffffffffffffffffffff00ffffffffffffffffffffffffffffffffffffffff73ffffffffffffffffffffffffffffffffffffffff9093167fffffffffffffffffffffffff00000000000000000000000000000000000000009091161791909116740100000000000000000000000000000000000000001790555050505050565b6000600273__$ba915c0b31ae0775f7b2dbb35feeac279e$__6371906c2c90916040518263ffffffff1660e01b81526004018082815260200191505060206040518083038186803b15801562000f2257600080fd5b6000600273__$ba915c0b31ae0775f7b2dbb35feeac279e$__637d0481609091846040518363ffffffff1660e01b8152600401808381526020018281526020019250505060206040518083038186803b1580156200178657600080fd5b6200384862003ad1565b73ffffffffffffffffffffffffffffffffffffffff16620038686200248e565b73ffffffffffffffffffffffffffffffffffffffff1614620038eb57604080517f08c379a000000000000000000000000000000000000000000000000000000000815260206004820181905260248201527f4f776e61626c653a2063616c6c6572206973206e6f7420746865206f776e6572604482015290519081900360640190fd5b73ffffffffffffffffffffffffffffffffffffffff811662003959576040517f08c379a0000000000000000000000000000000000000000000000000000000008152600401808060200182810382526026815260200180620058436026913960400191505060405180910390fd5b6000805460405173ffffffffffffffffffffffffffffffffffffffff808516939216917f8be0079c531659141344cd1fd0a4f28419497f9722a3daafe3b4186f6b6457e091a3600080547fffffffffffffffffffffffff00000000000000000000000000000000000000001673ffffffffffffffffffffffffffffffffffffffff92909216919091179055565b6000600273__$ba915c0b31ae0775f7b2dbb35feeac279e$__635e58579c9091878787876040518663ffffffff1660e01b8152600401808681526020018573ffffffffffffffffffffffffffffffffffffffff1681526020018060200183151581526020018281038252858582818152602001925060200280828437600081840152601f19601f820116905080830192505050965050505050505060206040518083038186803b15801562003a9a57600080fd5b505af415801562003aaf573d6000803e3d6000fd5b505050506040513d602081101562003ac657600080fd5b505195945050505050565b3390565b62003adf62001be6565b62003b4b57604080517f08c379a000000000000000000000000000000000000000000000000000000000815260206004820152601460248201527f5061757361626c653a206e6f7420706175736564000000000000000000000000604482015290519081900360640190fd5b600080547fffffffffffffffffffffff00ffffffffffffffffffffffffffffffffffffffff1690557f5db9ee0a495bf2e6ff9c91a7834c1ba4fdd244a5e8aa4e537bd38aeae4b073aa62003b9e62003ad1565b6040805173ffffffffffffffffffffffffffffffffffffffff9092168252519081900360200190a1565b62003bd262001be6565b1562003c3f57604080517f08c379a000000000000000000000000000000000000000000000000000000000815260206004820152601060248201527f5061757361626c653a2070617573656400000000000000000000000000000000604482015290519081900360640190fd5b600080547fffffffffffffffffffffff00ffffffffffffffffffffffffffffffffffffffff16740100000000000000000000000000000000000000001790557f62e78cea01bee320cd4e420270b5ea74000d11b0c9f74754ebdbfc544b05a25862003b9e62003ad1565b60008282111562003d1b57604080517f08c379a000000000000000000000000000000000000000000000000000000000815260206004820152601e60248201527f536166654d6174683a207375627472616374696f6e206f766572666c6f770000604482015290519081900360640190fd5b50900390565b60008262003d325750600062001cf4565b8282028284828162003d4057fe5b041462003d99576040517f08c379a0000000000000000000000000000000000000000000000000000000008152600401808060200182810382526021815260200180620058696021913960400191505060405180910390fd5b9392505050565b6119698062003eda83390190565b82805482825590600052602060002090810192821562003e2b579160200282015b8281111562003e2b57825182547fffffffffffffffffffffffff00000000000000000000000000000000000000001673ffffffffffffffffffffffffffffffffffffffff90911617825560209092019160019091019062003dcf565b5062003e3992915062003e89565b5090565b82805482825590600052602060002090810192821562003e7b579160200282015b8281111562003e7b57825182559160200191906001019062003e5e565b5062003e3992915062003ec2565b5b8082111562003e395780547fffffffffffffffffffffffff000000000000000000000000000000000000000016815560010162003e8a565b5b8082111562003e39576000815560010162003ec356fe60806040523480156200001157600080fd5b506040516200196938038062001969833981810160405260608110156200003757600080fd5b81019080805160405193929190846401000000008211156200005857600080fd5b9083019060208201858111156200006e57600080fd5b82516401000000008111828201881017156200008957600080fd5b82525081516020918201929091019080838360005b83811015620000b85781810151838201526020016200009e565b50505050905090810190601f168015620000e65780820380516001836020036101000a031916815260200191505b50604052602001805160405193929190846401000000008211156200010a57600080fd5b9083019060208201858111156200012057600080fd5b82516401000000008111828201881017156200013b57600080fd5b82525081516020918201929091019080838360005b838110156200016a57818101518382015260200162000150565b50505050905090810190601f168015620001985780820380516001836020036101000a031916815260200191505b5060405260209081015185519093508592508491620001bd916003918501906200029e565b508051620001d39060049060208401906200029e565b50506005805460ff19166012179055506000620001ef62000284565b60058054610100600160a81b0319166101006001600160a01b03841690810291909117909155604051919250906000907f8be0079c531659141344cd1fd0a4f28419497f9722a3daafe3b4186f6b6457e0908290a350620002508162000288565b6200025a62000284565b600680546001600160a01b0319166001600160a01b0392909216919091179055506200033a915050565b3390565b6005805460ff191660ff92909216919091179055565b828054600181600116156101000203166002900490600052602060002090601f016020900481019282601f10620002e157805160ff191683800117855562000311565b8280016001018555821562000311579182015b8281111562000311578251825591602001919060010190620002f4565b506200031f92915062000323565b5090565b5b808211156200031f576000815560010162000324565b61161f806200034a6000396000f3fe608060405234801561001057600080fd5b50600436106101365760003560e01c8063715018a6116100b257806395d89b4111610081578063a9059cbb11610066578063a9059cbb146103ff578063dd62ed3e14610438578063f2fde38b1461047357610136565b806395d89b41146103be578063a457c2d7146103c657610136565b8063715018a61461034457806379cc67901461034c5780638119c065146103855780638da5cb5b146103b657610136565b8063313ce5671161010957806340c10f19116100ee57806340c10f19146102b957806342966c68146102f457806370a082311461031157610136565b8063313ce56714610262578063395093511461028057610136565b806306fdde031461013b578063095ea7b3146101b857806318160ddd1461020557806323b872dd1461021f575b600080fd5b6101436104a6565b6040805160208082528351818301528351919283929083019185019080838360005b8381101561017d578181015183820152602001610165565b50505050905090810190601f1680156101aa5780820380516001836020036101000a031916815260200191505b509250505060405180910390f35b6101f1600480360360408110156101ce57600080fd5b5073ffffffffffffffffffffffffffffffffffffffff813516906020013561055a565b604080519115158252519081900360200190f35b61020d610577565b60408051918252519081900360200190f35b6101f16004803603606081101561023557600080fd5b5073ffffffffffffffffffffffffffffffffffffffff81358116916020810135909116906040013561057d565b61026a61061e565b6040805160ff9092168252519081900360200190f35b6101f16004803603604081101561029657600080fd5b5073ffffffffffffffffffffffffffffffffffffffff8135169060200135610627565b6102f2600480360360408110156102cf57600080fd5b5073ffffffffffffffffffffffffffffffffffffffff8135169060200135610682565b005b6102f26004803603602081101561030a57600080fd5b50356107a4565b61020d6004803603602081101561032757600080fd5b503573ffffffffffffffffffffffffffffffffffffffff166107b8565b6102f26107e0565b6102f26004803603604081101561036257600080fd5b5073ffffffffffffffffffffffffffffffffffffffff81351690602001356108fc565b61038d610956565b6040805173ffffffffffffffffffffffffffffffffffffffff9092168252519081900360200190f35b61038d610972565b610143610993565b6101f1600480360360408110156103dc57600080fd5b5073ffffffffffffffffffffffffffffffffffffffff8135169060200135610a12565b6101f16004803603604081101561041557600080fd5b5073ffffffffffffffffffffffffffffffffffffffff8135169060200135610a87565b61020d6004803603604081101561044e57600080fd5b5073ffffffffffffffffffffffffffffffffffffffff81358116916020013516610a9b565b6102f26004803603602081101561048957600080fd5b503573ffffffffffffffffffffffffffffffffffffffff16610ad3565b60038054604080516020601f60027fffffffffffffffffffffffffffffffffffffffffffffffffffffffffffffffff6101006001881615020190951694909404938401819004810282018101909252828152606093909290918301828280156105505780601f1061052557610100808354040283529160200191610550565b820191906000526020600020905b81548152906001019060200180831161053357829003601f168201915b5050505050905090565b600061056e610567610c7f565b8484610c83565b50600192915050565b60025490565b600061058a848484610dca565b61061484610596610c7f565b61060f8560405180606001604052806028815260200161150f6028913973ffffffffffffffffffffffffffffffffffffffff8a166000908152600160205260408120906105e1610c7f565b73ffffffffffffffffffffffffffffffffffffffff1681526020810191909152604001600020549190610f9a565b610c83565b5060019392505050565b60055460ff1690565b600061056e610634610c7f565b8461060f8560016000610645610c7f565b73ffffffffffffffffffffffffffffffffffffffff908116825260208083019390935260409182016000908120918c16815292529020549061104b565b61068a610c7f565b73ffffffffffffffffffffffffffffffffffffffff166106a8610972565b73ffffffffffffffffffffffffffffffffffffffff161461072a57604080517f08c379a000000000000000000000000000000000000000000000000000000000815260206004820181905260248201527f4f776e61626c653a2063616c6c6572206973206e6f7420746865206f776e6572604482015290519081900360640190fd5b8061079657604080517f08c379a000000000000000000000000000000000000000000000000000000000815260206004820152600b60248201527f616d6f756e74203d3d2030000000000000000000000000000000000000000000604482015290519081900360640190fd5b6107a082826110c6565b5050565b6107b56107af610c7f565b826111f7565b50565b73ffffffffffffffffffffffffffffffffffffffff1660009081526020819052604090205490565b6107e8610c7f565b73ffffffffffffffffffffffffffffffffffffffff16610806610972565b73ffffffffffffffffffffffffffffffffffffffff161461088857604080517f08c379a000000000000000000000000000000000000000000000000000000000815260206004820181905260248201527f4f776e61626c653a2063616c6c6572206973206e6f7420746865206f776e6572604482015290519081900360640190fd5b600554604051600091610100900473ffffffffffffffffffffffffffffffffffffffff16907f8be0079c531659141344cd1fd0a4f28419497f9722a3daafe3b4186f6b6457e0908390a3600580547fffffffffffffffffffffff0000000000000000000000000000000000000000ff169055565b6000610933826040518060600160405280602481526020016115376024913961092c86610927610c7f565b610a9b565b9190610f9a565b905061094783610941610c7f565b83610c83565b61095183836111f7565b505050565b60065473ffffffffffffffffffffffffffffffffffffffff1681565b600554610100900473ffffffffffffffffffffffffffffffffffffffff1690565b60048054604080516020601f60027fffffffffffffffffffffffffffffffffffffffffffffffffffffffffffffffff6101006001881615020190951694909404938401819004810282018101909252828152606093909290918301828280156105505780601f1061052557610100808354040283529160200191610550565b600061056e610a1f610c7f565b8461060f856040518060600160405280602581526020016115c56025913960016000610a49610c7f565b73ffffffffffffffffffffffffffffffffffffffff908116825260208083019390935260409182016000908120918d16815292529020549190610f9a565b600061056e610a94610c7f565b8484610dca565b73ffffffffffffffffffffffffffffffffffffffff918216600090815260016020908152604080832093909416825291909152205490565b610adb610c7f565b73ffffffffffffffffffffffffffffffffffffffff16610af9610972565b73ffffffffffffffffffffffffffffffffffffffff1614610b7b57604080517f08c379a000000000000000000000000000000000000000000000000000000000815260206004820181905260248201527f4f776e61626c653a2063616c6c6572206973206e6f7420746865206f776e6572604482015290519081900360640190fd5b73ffffffffffffffffffffffffffffffffffffffff8116610be7576040517f08c379a00000000000000000000000000000000000000000000000000000000081526004018080602001828103825260268152602001806114a16026913960400191505060405180910390fd5b60055460405173ffffffffffffffffffffffffffffffffffffffff80841692610100900416907f8be0079c531659141344cd1fd0a4f28419497f9722a3daafe3b4186f6b6457e090600090a36005805473ffffffffffffffffffffffffffffffffffffffff909216610100027fffffffffffffffffffffff0000000000000000000000000000000000000000ff909216919091179055565b3390565b73ffffffffffffffffffffffffffffffffffffffff8316610cef576040517f08c379a00000000000000000000000000000000000000000000000000000000081526004018080602001828103825260248152602001806115a16024913960400191505060405180910390fd5b73ffffffffffffffffffffffffffffffffffffffff8216610d5b576040517f08c379a00000000000000000000000000000000000000000000000000000000081526004018080602001828103825260228152602001806114c76022913960400191505060405180910390fd5b73ffffffffffffffffffffffffffffffffffffffff808416600081815260016020908152604080832094871680845294825291829020859055815185815291517f8c5be1e5ebec7d5bd14f71427d1e84f3dd0314c0f7b2291e5b200ac8c7c3b9259281900390910190a3505050565b73ffffffffffffffffffffffffffffffffffffffff8316610e36576040517f08c379a000000000000000000000000000000000000000000000000000000000815260040180806020018281038252602581526020018061157c6025913960400191505060405180910390fd5b73ffffffffffffffffffffffffffffffffffffffff8216610ea2576040517f08c379a000000000000000000000000000000000000000000000000000000000815260040180806020018281038252602381526020018061145c6023913960400191505060405180910390fd5b610ead838383611341565b610ef7816040518060600160405280602681526020016114e96026913973ffffffffffffffffffffffffffffffffffffffff86166000908152602081905260409020549190610f9a565b73ffffffffffffffffffffffffffffffffffffffff8085166000908152602081905260408082209390935590841681522054610f33908261104b565b73ffffffffffffffffffffffffffffffffffffffff8084166000818152602081815260409182902094909455805185815290519193928716927fddf252ad1be2c89b69c2b068fc378daa952ba7f163c4a11628f55a4df523b3ef92918290030190a3505050565b60008184841115611043576040517f08c379a00000000000000000000000000000000000000000000000000000000081526004018080602001828103825283818151815260200191508051906020019080838360005b83811015611008578181015183820152602001610ff0565b50505050905090810190601f1680156110355780820380516001836020036101000a031916815260200191505b509250505060405180910390fd5b505050900390565b6000828201838110156110bf57604080517f08c379a000000000000000000000000000000000000000000000000000000000815260206004820152601b60248201527f536166654d6174683a206164646974696f6e206f766572666c6f770000000000604482015290519081900360640190fd5b9392505050565b73ffffffffffffffffffffffffffffffffffffffff821661114857604080517f08c379a000000000000000000000000000000000000000000000000000000000815260206004820152601f60248201527f45524332303a206d696e7420746f20746865207a65726f206164647265737300604482015290519081900360640190fd5b61115460008383611341565b600254611161908261104b565b60025573ffffffffffffffffffffffffffffffffffffffff8216600090815260208190526040902054611194908261104b565b73ffffffffffffffffffffffffffffffffffffffff83166000818152602081815260408083209490945583518581529351929391927fddf252ad1be2c89b69c2b068fc378daa952ba7f163c4a11628f55a4df523b3ef9281900390910190a35050565b73ffffffffffffffffffffffffffffffffffffffff8216611263576040517f08c379a000000000000000000000000000000000000000000000000000000000815260040180806020018281038252602181526020018061155b6021913960400191505060405180910390fd5b61126f82600083611341565b6112b98160405180606001604052806022815260200161147f6022913973ffffffffffffffffffffffffffffffffffffffff85166000908152602081905260409020549190610f9a565b73ffffffffffffffffffffffffffffffffffffffff83166000908152602081905260409020556002546112ec90826113e4565b60025560408051828152905160009173ffffffffffffffffffffffffffffffffffffffff8516917fddf252ad1be2c89b69c2b068fc378daa952ba7f163c4a11628f55a4df523b3ef9181900360200190a35050565b61134c838383610951565b600654604080517fc00c125c00000000000000000000000000000000000000000000000000000000815273ffffffffffffffffffffffffffffffffffffffff8581166004830152602482018590529151919092169163c00c125c91604480830192600092919082900301818387803b1580156113c757600080fd5b505af11580156113db573d6000803e3d6000fd5b50505050505050565b60008282111561145557604080517f08c379a000000000000000000000000000000000000000000000000000000000815260206004820152601e60248201527f536166654d6174683a207375627472616374696f6e206f766572666c6f770000604482015290519081900360640190fd5b5090039056fe45524332303a207472616e7366657220746f20746865207a65726f206164647265737345524332303a206275726e20616d6f756e7420657863656564732062616c616e63654f776e61626c653a206e6577206f776e657220697320746865207a65726f206164647265737345524332303a20617070726f766520746f20746865207a65726f206164647265737345524332303a207472616e7366657220616d6f756e7420657863656564732062616c616e636545524332303a207472616e7366657220616d6f756e74206578636565647320616c6c6f77616e636545524332303a206275726e20616d6f756e74206578636565647320616c6c6f77616e636545524332303a206275726e2066726f6d20746865207a65726f206164647265737345524332303a207472616e736665722066726f6d20746865207a65726f206164647265737345524332303a20617070726f76652066726f6d20746865207a65726f206164647265737345524332303a2064656372656173656420616c6c6f77616e63652062656c6f77207a65726fa2646970667358221220fec5a448efb70dce0a391362014c6c6f0f4d591bd9f39b0785f7762c2144f3c964736f6c634300060c00334f776e61626c653a206e6577206f776e657220697320746865207a65726f2061646472657373536166654d6174683a206d756c7469706c69636174696f6e206f766572666c6f77a264697066735822122024be09d058a140221e41a852eca7ab86552e6996688a82f0c81862f13a0590ac64736f6c634300060c0033a2646970667358221220618c370452607a17600f114c75a554e65315d545314f306799e6f5ac6563833964736f6c634300060c0033",
  "libraries": {
    "SwapUtils": "0x6829DFb55A4F1997B74c4E30C93040A29F4c1ef5"
  },
  "devdoc": {
    "kind": "dev",
    "methods": {},
    "version": 1
  },
  "userdoc": {
    "kind": "user",
    "methods": {},
    "version": 1
  },
  "storageLayout": {
    "storage": [],
    "types": null
  }
}