{
  "address": "0x5De74546d3B86C8Df7FEEc30253865e1149818C8",
  "abi": [
    {
      "inputs": [],
      "stateMutability": "nonpayable",
      "type": "constructor"
    },
    {
      "inputs": [
        {
          "internalType": "uint256",
          "name": "reserve0",
          "type": "uint256"
        },
        {
          "internalType": "uint256",
          "name": "reserve1",
          "type": "uint256"
        },
        {
          "internalType": "uint256",
          "name": "balance0Adjusted",
          "type": "uint256"
        },
        {
          "internalType": "uint256",
          "name": "balance1Adjusted",
          "type": "uint256"
        },
        {
          "internalType": "uint32",
          "name": "tokenWeight0",
          "type": "uint32"
        }
      ],
      "name": "ensureConstantValue",
      "outputs": [
        {
          "internalType": "bool",
          "name": "",
          "type": "bool"
        }
      ],
      "stateMutability": "view",
      "type": "function"
    },
    {
      "inputs": [
        {
          "internalType": "uint256",
          "name": "amountOut",
          "type": "uint256"
        },
        {
          "internalType": "uint256",
          "name": "reserveIn",
          "type": "uint256"
        },
        {
          "internalType": "uint256",
          "name": "reserveOut",
          "type": "uint256"
        },
        {
          "internalType": "uint32",
          "name": "tokenWeightIn",
          "type": "uint32"
        },
        {
          "internalType": "uint32",
          "name": "tokenWeightOut",
          "type": "uint32"
        },
        {
          "internalType": "uint32",
          "name": "swapFee",
          "type": "uint32"
        }
      ],
      "name": "getAmountIn",
      "outputs": [
        {
          "internalType": "uint256",
          "name": "amountIn",
          "type": "uint256"
        }
      ],
      "stateMutability": "view",
      "type": "function"
    },
    {
      "inputs": [
        {
          "internalType": "uint256",
          "name": "amountIn",
          "type": "uint256"
        },
        {
          "internalType": "uint256",
          "name": "reserveIn",
          "type": "uint256"
        },
        {
          "internalType": "uint256",
          "name": "reserveOut",
          "type": "uint256"
        },
        {
          "internalType": "uint32",
          "name": "tokenWeightIn",
          "type": "uint32"
        },
        {
          "internalType": "uint32",
          "name": "tokenWeightOut",
          "type": "uint32"
        },
        {
          "internalType": "uint32",
          "name": "swapFee",
          "type": "uint32"
        }
      ],
      "name": "getAmountOut",
      "outputs": [
        {
          "internalType": "uint256",
          "name": "amountOut",
          "type": "uint256"
        }
      ],
      "stateMutability": "view",
      "type": "function"
    },
    {
      "inputs": [
        {
          "internalType": "address",
          "name": "tokenIn",
          "type": "address"
        },
        {
          "internalType": "address",
          "name": "tokenOut",
          "type": "address"
        },
        {
          "internalType": "uint256",
          "name": "amountOut",
          "type": "uint256"
        },
        {
          "internalType": "address[]",
          "name": "path",
          "type": "address[]"
        }
      ],
      "name": "getAmountsIn",
      "outputs": [
        {
          "internalType": "uint256[]",
          "name": "amounts",
          "type": "uint256[]"
        }
      ],
      "stateMutability": "view",
      "type": "function"
    },
    {
      "inputs": [
        {
          "internalType": "address",
          "name": "tokenIn",
          "type": "address"
        },
        {
          "internalType": "address",
          "name": "tokenOut",
          "type": "address"
        },
        {
          "internalType": "uint256",
          "name": "amountIn",
          "type": "uint256"
        },
        {
          "internalType": "address[]",
          "name": "path",
          "type": "address[]"
        }
      ],
      "name": "getAmountsOut",
      "outputs": [
        {
          "internalType": "uint256[]",
          "name": "amounts",
          "type": "uint256[]"
        }
      ],
      "stateMutability": "view",
      "type": "function"
    },
    {
      "inputs": [
        {
          "internalType": "address",
          "name": "factory",
          "type": "address"
        },
        {
          "internalType": "address",
          "name": "tokenIn",
          "type": "address"
        },
        {
          "internalType": "address",
          "name": "tokenOut",
          "type": "address"
        },
        {
          "internalType": "uint256",
          "name": "amountOut",
          "type": "uint256"
        },
        {
          "internalType": "address[]",
          "name": "path",
          "type": "address[]"
        }
      ],
      "name": "getFactoryAmountsIn",
      "outputs": [
        {
          "internalType": "uint256[]",
          "name": "amounts",
          "type": "uint256[]"
        }
      ],
      "stateMutability": "view",
      "type": "function"
    },
    {
      "inputs": [
        {
          "internalType": "address",
          "name": "factory",
          "type": "address"
        },
        {
          "internalType": "address",
          "name": "tokenIn",
          "type": "address"
        },
        {
          "internalType": "address",
          "name": "tokenOut",
          "type": "address"
        },
        {
          "internalType": "uint256",
          "name": "amountIn",
          "type": "uint256"
        },
        {
          "internalType": "address[]",
          "name": "path",
          "type": "address[]"
        }
      ],
      "name": "getFactoryAmountsOut",
      "outputs": [
        {
          "internalType": "uint256[]",
          "name": "amounts",
          "type": "uint256[]"
        }
      ],
      "stateMutability": "view",
      "type": "function"
    },
    {
      "inputs": [
        {
          "internalType": "address",
          "name": "factory",
          "type": "address"
        },
        {
          "internalType": "address",
          "name": "pair",
          "type": "address"
        },
        {
          "internalType": "address",
          "name": "tokenA",
          "type": "address"
        }
      ],
      "name": "getFactoryReserveAndWeights",
      "outputs": [
        {
          "internalType": "address",
          "name": "tokenB",
          "type": "address"
        },
        {
          "internalType": "uint256",
          "name": "reserveA",
          "type": "uint256"
        },
        {
          "internalType": "uint256",
          "name": "reserveB",
          "type": "uint256"
        },
        {
          "internalType": "uint32",
          "name": "tokenWeightA",
          "type": "uint32"
        },
        {
          "internalType": "uint32",
          "name": "tokenWeightB",
          "type": "uint32"
        },
        {
          "internalType": "uint32",
          "name": "swapFee",
          "type": "uint32"
        }
      ],
      "stateMutability": "view",
      "type": "function"
    },
    {
      "inputs": [
        {
          "internalType": "address",
          "name": "factory",
          "type": "address"
        },
        {
          "internalType": "address",
          "name": "pair",
          "type": "address"
        }
      ],
      "name": "getFactoryWeightsAndSwapFee",
      "outputs": [
        {
          "internalType": "uint32",
          "name": "tokenWeight0",
          "type": "uint32"
        },
        {
          "internalType": "uint32",
          "name": "tokenWeight1",
          "type": "uint32"
        },
        {
          "internalType": "uint32",
          "name": "swapFee",
          "type": "uint32"
        }
      ],
      "stateMutability": "view",
      "type": "function"
    },
    {
      "inputs": [
        {
          "internalType": "address",
          "name": "pair",
          "type": "address"
        },
        {
          "internalType": "address",
          "name": "tokenA",
          "type": "address"
        }
      ],
      "name": "getOtherToken",
      "outputs": [
        {
          "internalType": "address",
          "name": "tokenB",
          "type": "address"
        }
      ],
      "stateMutability": "view",
      "type": "function"
    },
    {
      "inputs": [
        {
          "internalType": "address",
          "name": "pair",
          "type": "address"
        },
        {
          "internalType": "address",
          "name": "tokenIn",
          "type": "address"
        },
        {
          "internalType": "uint256",
          "name": "amountOut",
          "type": "uint256"
        }
      ],
      "name": "getPairAmountIn",
      "outputs": [
        {
          "internalType": "uint256",
          "name": "amountIn",
          "type": "uint256"
        }
      ],
      "stateMutability": "view",
      "type": "function"
    },
    {
      "inputs": [
        {
          "internalType": "address",
          "name": "pair",
          "type": "address"
        },
        {
          "internalType": "address",
          "name": "tokenIn",
          "type": "address"
        },
        {
          "internalType": "uint256",
          "name": "amountIn",
          "type": "uint256"
        }
      ],
      "name": "getPairAmountOut",
      "outputs": [
        {
          "internalType": "uint256",
          "name": "amountOut",
          "type": "uint256"
        }
      ],
      "stateMutability": "view",
      "type": "function"
    },
    {
      "inputs": [
        {
          "internalType": "address",
          "name": "pair",
          "type": "address"
        },
        {
          "internalType": "address",
          "name": "tokenA",
          "type": "address"
        }
      ],
      "name": "getReserveAndWeights",
      "outputs": [
        {
          "internalType": "address",
          "name": "tokenB",
          "type": "address"
        },
        {
          "internalType": "uint256",
          "name": "reserveA",
          "type": "uint256"
        },
        {
          "internalType": "uint256",
          "name": "reserveB",
          "type": "uint256"
        },
        {
          "internalType": "uint32",
          "name": "tokenWeightA",
          "type": "uint32"
        },
        {
          "internalType": "uint32",
          "name": "tokenWeightB",
          "type": "uint32"
        },
        {
          "internalType": "uint32",
          "name": "swapFee",
          "type": "uint32"
        }
      ],
      "stateMutability": "view",
      "type": "function"
    },
    {
      "inputs": [
        {
          "internalType": "address",
          "name": "pair",
          "type": "address"
        },
        {
          "internalType": "address",
          "name": "tokenA",
          "type": "address"
        },
        {
          "internalType": "address",
          "name": "tokenB",
          "type": "address"
        }
      ],
      "name": "getReserves",
      "outputs": [
        {
          "internalType": "uint256",
          "name": "reserveA",
          "type": "uint256"
        },
        {
          "internalType": "uint256",
          "name": "reserveB",
          "type": "uint256"
        }
      ],
      "stateMutability": "view",
      "type": "function"
    },
    {
      "inputs": [
        {
          "internalType": "address",
          "name": "pair",
          "type": "address"
        }
      ],
      "name": "getWeightsAndSwapFee",
      "outputs": [
        {
          "internalType": "uint32",
          "name": "tokenWeight0",
          "type": "uint32"
        },
        {
          "internalType": "uint32",
          "name": "tokenWeight1",
          "type": "uint32"
        },
        {
          "internalType": "uint32",
          "name": "swapFee",
          "type": "uint32"
        }
      ],
      "stateMutability": "view",
      "type": "function"
    },
    {
      "inputs": [
        {
          "internalType": "uint256",
          "name": "totalLiquidity",
          "type": "uint256"
        },
        {
          "internalType": "uint112",
          "name": "reserve0",
          "type": "uint112"
        },
        {
          "internalType": "uint112",
          "name": "reserve1",
          "type": "uint112"
        },
        {
          "internalType": "uint32",
          "name": "tokenWeight0",
          "type": "uint32"
        },
        {
          "internalType": "uint32",
          "name": "tokenWeight1",
          "type": "uint32"
        },
        {
          "internalType": "uint112",
          "name": "collectedFee0",
          "type": "uint112"
        },
        {
          "internalType": "uint112",
          "name": "collectedFee1",
          "type": "uint112"
        }
      ],
      "name": "mintLiquidityFee",
      "outputs": [
        {
          "internalType": "uint256",
          "name": "amount",
          "type": "uint256"
        }
      ],
      "stateMutability": "view",
      "type": "function"
    },
    {
      "inputs": [
        {
          "internalType": "uint256",
          "name": "amountA",
          "type": "uint256"
        },
        {
          "internalType": "uint256",
          "name": "reserveA",
          "type": "uint256"
        },
        {
          "internalType": "uint256",
          "name": "reserveB",
          "type": "uint256"
        }
      ],
      "name": "quote",
      "outputs": [
        {
          "internalType": "uint256",
          "name": "amountB",
          "type": "uint256"
        }
      ],
      "stateMutability": "pure",
      "type": "function"
    },
    {
      "inputs": [
        {
          "internalType": "address",
          "name": "tokenA",
          "type": "address"
        },
        {
          "internalType": "address",
          "name": "tokenB",
          "type": "address"
        }
      ],
      "name": "sortTokens",
      "outputs": [
        {
          "internalType": "address",
          "name": "token0",
          "type": "address"
        },
        {
          "internalType": "address",
          "name": "token1",
          "type": "address"
        }
      ],
      "stateMutability": "pure",
      "type": "function"
    }
  ],
  "transactionHash": "0x4aae94fe5d18a6855d8c6ce5508b7b0f749117cd95c5af25cbccefa9f96940ce",
  "args": [],
  "solcInputHash": "7cb2737c702c255f664bde8e7a9f4354",
  "bytecode": "0x60806040523480156200001157600080fd5b506200001c62000022565b6200074d565b6001641c35fedd1560601b036020556001646c3390ecc9605e1b036021556001640cf801476160611b0360225560016431bdb23e1d605f1b0360235560016502fb1d8fe083605b1b0360245560016505b771955b37605a1b036025556001650af67a93bb5160591b0360265560016515060c256cb360581b036027556001651428a2f98d7360581b036028556001654d515663970960561b03602955600165944620b0e70f60551b03602a55600166011c592761c66760541b03602b5560016602214d10d014eb60531b03602c55600166020ade36b7dbef60531b03602d5560016603eab73b3bbfe360521b03602e556001660782ee3593f6d760511b03602f556001661ccf4b44bb4821604f1b0360305560016606e7f88ad8a77760511b0360315560016669f3d1c921891d604d1b03603255600166cb2ff529eb71e5604c1b03603355600166c2d415c3db974b604c1b0360345560016702eb40f9f620fda7604a1b0360355560016705990681d961a1eb60491b03603655600167055e12902701414760491b0360375560016714962dee9dc9764160471b0360385560016704ef57b9b560fab560491b0360395560016712ed7b32a58f552b60471b03603a556001679131271922eaa60760441b03603b556001678b380f3558668c4760441b03603c556001680215f77c045fbe885760421b03603d556001600160831b03603e556001670f577eded5773a1160471b03603f556001680eb5ec597592befbf5603f1b036040556001681c35fedd14b861eb05603e1b036041556001683619c87664579bc94b603d1b0360425560016867c00a3b07ffc01fd7603c1b03604355600168c6f6c8f8739773a7a5603b1b03604455600168bec763f8209b7a72b1603b1b0360455560016902dbb8caad9b7097b91b60391b03604655600169057b3d49dda84556d6f760381b03604755600169054183095b2c8ececf3160381b036048556001690a14517cc6b9457111ef60371b0360495560016913545598e5c23276ccf160361b03604a556001692511882c39c3adea96ff60351b03604b55600169471649d87199aa99075760341b03604c557004429a21a029d4c1457cfbffffffffffff604d55700415bc6d6fb7dd71af2cb3ffffffffffff604e557003eab73b3bbfe282243ce1ffffffffffff604f557003c1771ac9fb6b4c18e229ffffffffffff605055700399e96897690418f785257fffffffffff605155700373fc456c53bb779bf0ea9fffffffffff60525570034f9e8e490c48e67e6ab8bfffffffffff60535570032cbfd4a7adc790560b3337ffffffffff60545570030b50570f6e5d2acca94613ffffffffff6055557002eb40f9f620fda6b56c2861ffffffffff6056557002cc8340ecb0d0f520a6af58ffffffffff6057557002af09481380a0a35cf1ba02ffffffffff605855700292c5bdd3b92ec810287b1b3fffffffff605955700277abdcdab07d5a77ac6d6b9fffffffff605a5570025daf6654b1eaa55fd64df5efffffffff605b55700244c49c648baa98192dce88b7ffffffff605c5570022ce03cd5619a311b2471268bffffffff605d55700215f77c045fbe885654a44a0fffffffff605e556001600160811b03605f557001eaefdbdaaee7421fc4d3ede5ffffffff6060557001d6bd8b2eb257df7e8ca57b09bfffffff6061557001c35fedd14b861eb0443f7f133fffffff6062557001b0ce43b322bcde4a56e8ada5afffffff60635570019f0028ec1fff007f5a195a39dfffffff60645570018ded91f0e72ee74f49b15ba527ffffff60655570017d8ec7f04136f4e5615fd41a63ffffff60665570016ddc6556cdb84bdc8d12d22e6fffffff60675570015ecf52776a1155b5bd8395814f7fffff60685570015060c256cb23b3b3cc3754cf40ffffff6069557001428a2f98d728ae223ddab715be3fffff606a5570013545598e5c23276ccf0ede68034fffff606b557001288c4161ce1d6f54b7f61081194fffff606c5570011c592761c666aa641d5a01a40f17ffff606d55700110a688680a7530515f3e6e6cfdcdffff606e557001056f1b5bedf75c6bcb2ce8aed428ffff606f556ffaadceceeff8a0890f3875f008277fff6070556ff05dc6b27edad306388a600f6ba0bfff6071556fe67a5a25da41063de1495d5b18cdbfff6072556fdcff115b14eedde6fc3aa5353f2e4fff6073556fd3e7a3924312399f9aae2e0f868f8fff6074556fcb2ff529eb71e41582cccd5a1ee26fff6075556fc2d415c3db974ab32a51840c0b67edff6076556fbad03e7d883f69ad5b0a186184e06bff6077556fb320d03b2c343d4829abd6075f0cc5ff6078556fabc25204e02828d73c6e80bcdb1a95bf6079556fa4b16f74ee4bb2040a1ec6c15fbbf2df607a556f9deaf736ac1f569deb1b5ae3f36c130f607b556f976bd9952c7aa957f5937d790ef65037607c556f9131271922eaa6064b73a22d0bd4f2bf607d556f8b380f3558668c46c91c49a2f8e967b9607e556f857ddf0117efa215952912839f6473e6607f55565b613638806200075d6000396000f3fe608060405234801561001057600080fd5b50600436106101365760003560e01c80638888a737116100b2578063b19210b011610081578063b3923a9911610066578063b3923a9914610788578063ca22297914610825578063d69109371461085857610136565b8063b19210b0146106fc578063b33d96b01461074357610136565b80638888a737146105925780638fabd82d146105d557806392aec23c14610672578063ad615dec146106d357610136565b80635bff1d9211610109578063671a11b5116100ee578063671a11b51461045757806367f84adc1461049e57806379c91b371461054357610136565b80635bff1d92146103755780636350d7741461040257610136565b8063119220a51461013b5780632bb66e1d146102305780633274946114610293578063544caa56146102f1575b600080fd5b6101e0600480360360a081101561015157600080fd5b73ffffffffffffffffffffffffffffffffffffffff823581169260208101358216926040820135909216916060820135919081019060a0810160808201356401000000008111156101a157600080fd5b8201836020820111156101b357600080fd5b803590602001918460208302840111640100000000831117156101d557600080fd5b5090925090506108bc565b60408051602080825283518183015283519192839290830191858101910280838360005b8381101561021c578181015183820152602001610204565b505050509050019250505060405180910390f35b61026b6004803603604081101561024657600080fd5b5073ffffffffffffffffffffffffffffffffffffffff81358116916020013516610abd565b6040805163ffffffff9485168152928416602084015292168183015290519081900360600190f35b6102d8600480360360608110156102a957600080fd5b5073ffffffffffffffffffffffffffffffffffffffff8135811691602081013582169160409091013516610b6e565b6040805192835260208301919091528051918290030190f35b61032c6004803603604081101561030757600080fd5b5073ffffffffffffffffffffffffffffffffffffffff81358116916020013516610c4c565b604051808373ffffffffffffffffffffffffffffffffffffffff1681526020018273ffffffffffffffffffffffffffffffffffffffff1681526020019250505060405180910390f35b6103b06004803603604081101561038b57600080fd5b5073ffffffffffffffffffffffffffffffffffffffff81358116916020013516610d9f565b6040805173ffffffffffffffffffffffffffffffffffffffff909716875260208701959095528585019390935263ffffffff9182166060860152811660808501521660a0830152519081900360c00190f35b6104456004803603606081101561041857600080fd5b5073ffffffffffffffffffffffffffffffffffffffff813581169160208101359091169060400135610fb3565b60408051918252519081900360200190f35b610445600480360360c081101561046d57600080fd5b5080359060208101359060408101359063ffffffff6060820135811691608081013582169160a09091013516610ff0565b6101e0600480360360a08110156104b457600080fd5b73ffffffffffffffffffffffffffffffffffffffff823581169260208101358216926040820135909216916060820135919081019060a08101608082013564010000000081111561050457600080fd5b82018360208201111561051657600080fd5b8035906020019184602083028401116401000000008311171561053857600080fd5b509092509050611175565b61057e600480360360a081101561055957600080fd5b508035906020810135906040810135906060810135906080013563ffffffff1661136a565b604080519115158252519081900360200190f35b610445600480360360608110156105a857600080fd5b5073ffffffffffffffffffffffffffffffffffffffff81358116916020810135909116906040013561146e565b6101e0600480360360808110156105eb57600080fd5b73ffffffffffffffffffffffffffffffffffffffff82358116926020810135909116916040820135919081019060808101606082013564010000000081111561063357600080fd5b82018360208201111561064557600080fd5b8035906020019184602083028401116401000000008311171561066757600080fd5b50909250905061149d565b610445600480360360e081101561068857600080fd5b508035906dffffffffffffffffffffffffffff6020820135811691604081013582169163ffffffff606083013581169260808101359091169160a082013581169160c001351661168a565b610445600480360360608110156106e957600080fd5b5080359060208101359060400135611787565b610445600480360360c081101561071257600080fd5b5080359060208101359060408101359063ffffffff6060820135811691608081013582169160a09091013516611861565b6103b06004803603606081101561075957600080fd5b5073ffffffffffffffffffffffffffffffffffffffff8135811691602081013582169160409091013516611a09565b6101e06004803603608081101561079e57600080fd5b73ffffffffffffffffffffffffffffffffffffffff8235811692602081013590911691604082013591908101906080810160608201356401000000008111156107e657600080fd5b8201836020820111156107f857600080fd5b8035906020019184602083028401116401000000008311171561081a57600080fd5b509092509050611c20565b61026b6004803603602081101561083b57600080fd5b503573ffffffffffffffffffffffffffffffffffffffff16611e02565b6108936004803603604081101561086e57600080fd5b5073ffffffffffffffffffffffffffffffffffffffff81358116916020013516611ff9565b6040805173ffffffffffffffffffffffffffffffffffffffff9092168252519081900360200190f35b60608161092a57604080517f08c379a000000000000000000000000000000000000000000000000000000000815260206004820152601d60248201527f4669726542697264466f726d756c613a20494e56414c49445f50415448000000604482015290519081900360640190fd5b6001820167ffffffffffffffff8111801561094457600080fd5b5060405190808252806020026020018201604052801561096e578160200160208202803683370190505b509050838160008151811061097f57fe5b60209081029190910101528560005b83811015610a2d576000806000806000806109d28f8c8c8a8181106109af57fe5b9050602002013573ffffffffffffffffffffffffffffffffffffffff168a611a09565b9550955095509550955095506109ff8988815181106109ed57fe5b60200260200101518686868686610ff0565b898860010181518110610a0e57fe5b602090810291909101015250939550506001909301925061098e915050565b508573ffffffffffffffffffffffffffffffffffffffff168173ffffffffffffffffffffffffffffffffffffffff1614610ab2576040517f08c379a00000000000000000000000000000000000000000000000000000000081526004018080602001828103825260278152602001806135686027913960400191505060405180910390fd5b509695505050505050565b60008060008473ffffffffffffffffffffffffffffffffffffffff1663ca222979856040518263ffffffff1660e01b8152600401808273ffffffffffffffffffffffffffffffffffffffff16815260200191505060606040518083038186803b158015610b2957600080fd5b505afa158015610b3d573d6000803e3d6000fd5b505050506040513d6060811015610b5357600080fd5b50805160208201516040909201519097919650945092505050565b6000806000610b7d8585610c4c565b5090506000808773ffffffffffffffffffffffffffffffffffffffff16630902f1ac6040518163ffffffff1660e01b815260040160606040518083038186803b158015610bc957600080fd5b505afa158015610bdd573d6000803e3d6000fd5b505050506040513d6060811015610bf357600080fd5b5080516020909101516dffffffffffffffffffffffffffff918216935016905073ffffffffffffffffffffffffffffffffffffffff87811690841614610c3a578082610c3d565b81815b90999098509650505050505050565b6000808273ffffffffffffffffffffffffffffffffffffffff168473ffffffffffffffffffffffffffffffffffffffff161415610cd4576040517f08c379a00000000000000000000000000000000000000000000000000000000081526004018080602001828103825260248152602001806135b96024913960400191505060405180910390fd5b8273ffffffffffffffffffffffffffffffffffffffff168473ffffffffffffffffffffffffffffffffffffffff1610610d0e578284610d11565b83835b909250905073ffffffffffffffffffffffffffffffffffffffff8216610d9857604080517f08c379a000000000000000000000000000000000000000000000000000000000815260206004820152601d60248201527f4669726542697264466f726d756c613a205a45524f5f41444452455353000000604482015290519081900360640190fd5b9250929050565b60008060008060008060008873ffffffffffffffffffffffffffffffffffffffff16630dfe16816040518163ffffffff1660e01b815260040160206040518083038186803b158015610df057600080fd5b505afa158015610e04573d6000803e3d6000fd5b505050506040513d6020811015610e1a57600080fd5b5051604080517f0902f1ac0000000000000000000000000000000000000000000000000000000081529051919250600091829173ffffffffffffffffffffffffffffffffffffffff8d1691630902f1ac91600480820192606092909190829003018186803b158015610e8b57600080fd5b505afa158015610e9f573d6000803e3d6000fd5b505050506040513d6060811015610eb557600080fd5b5080516020909101516dffffffffffffffffffffffffffff9182169350169050600080610ee18d611e02565b9750909250905073ffffffffffffffffffffffffffffffffffffffff8c81169086161415610f90578c73ffffffffffffffffffffffffffffffffffffffff1663d21220a76040518163ffffffff1660e01b815260040160206040518083038186803b158015610f4f57600080fd5b505afa158015610f63573d6000803e3d6000fd5b505050506040513d6020811015610f7957600080fd5b50519a509298509096509450925085858585610fa4565b939950909750909550909350915085848684865b50505050509295509295509295565b6000806000806000806000610fc88a8a610d9f565b955095509550955095509550610fe2888587858786611861565b9a9950505050505050505050565b600080871161104a576040517f08c379a000000000000000000000000000000000000000000000000000000000815260040180806020018281038252602a81526020018061358f602a913960400191505060405180910390fd5b60008611801561105a5750600085115b6110af576040517f08c379a00000000000000000000000000000000000000000000000000000000081526004018080602001828103825260278152602001806135416027913960400191505060405180910390fd5b60006110c98863ffffffff61271086900381169061213616565b90508363ffffffff168563ffffffff16141561110f576110f5816110ef89612710612136565b906121c2565b6110ff8783612136565b8161110657fe5b0491505061116b565b60008080611123846110ef8c612710612136565b905061113c816111358c612710612136565b8a8a612234565b9093509150600061114d8a85612136565b905060ff83168a901b848183038161116157fe5b0496505050505050505b9695505050505050565b6060816111e357604080517f08c379a000000000000000000000000000000000000000000000000000000000815260206004820152601d60248201527f4669726542697264466f726d756c613a20494e56414c49445f50415448000000604482015290519081900360640190fd5b6001820167ffffffffffffffff811180156111fd57600080fd5b50604051908082528060200260200182016040528015611227578160200160208202803683370190505b509050838160018351038151811061123b57fe5b602090810291909101015284825b80156112e55760008060008060008061126b8f8c8c60018b038181106109af57fe5b95509550955095509550955061129889888151811061128657fe5b60200260200101518587858786611861565b8960018903815181106112a757fe5b602090810291909101015250939550507fffffffffffffffffffffffffffffffffffffffffffffffffffffffffffffffff9093019250611249915050565b508673ffffffffffffffffffffffffffffffffffffffff168173ffffffffffffffffffffffffffffffffffffffff1614610ab2576040517f08c379a00000000000000000000000000000000000000000000000000000000081526004018080602001828103825260268152602001806135dd6026913960400191505060405180910390fd5b60008163ffffffff1660321415611398576113858686612136565b61138f8585612136565b10159050611465565b8584101580156113a85750848310155b156113b557506001611465565b8584111580156113c55750848311155b156113d257506000611465565b81606481900360008080808b8a10611413576113f18b8a876032612234565b90945060ff1692506114068a8d886032612234565b90925060ff16905061143e565b6114208c8b886032612234565b90945060ff169250611435898c876032612234565b90925060ff1690505b600081841061144d578161144f565b835b918290039290921c92039290921c111593505050505b95945050505050565b60008060008060008060006114838a8a610d9f565b955095509550955095509550610fe2888686868686610ff0565b60608161150b57604080517f08c379a000000000000000000000000000000000000000000000000000000000815260206004820152601d60248201527f4669726542697264466f726d756c613a20494e56414c49445f50415448000000604482015290519081900360640190fd5b6001820167ffffffffffffffff8111801561152557600080fd5b5060405190808252806020026020018201604052801561154f578160200160208202803683370190505b509050838160008151811061156057fe5b60209081029190910101528560005b838110156115fb576000806000806000806115b28b8b8981811061158f57fe5b9050602002013573ffffffffffffffffffffffffffffffffffffffff1689610d9f565b9550955095509550955095506115cd8988815181106109ed57fe5b8988600101815181106115dc57fe5b602090810291909101015250939550506001909301925061156f915050565b508573ffffffffffffffffffffffffffffffffffffffff168173ffffffffffffffffffffffffffffffffffffffff1614611680576040517f08c379a00000000000000000000000000000000000000000000000000000000081526004018080602001828103825260278152602001806135686027913960400191505060405180910390fd5b5095945050505050565b60006dffffffffffffffffffffffffffff83161561170b576000806116de6116c56dffffffffffffffffffffffffffff878116908c166121c2565b8a6dffffffffffffffffffffffffffff16896064612234565b90925060ff1690506117068a611700836116f88387612136565b87911c6121c2565b9061239b565b925050505b6dffffffffffffffffffffffffffff82161561177c5760008061175d6117446dffffffffffffffffffffffffffff868116908b166121c2565b896dffffffffffffffffffffffffffff16886064612234565b90925060ff1690506117778a611700836116f88387612136565b925050505b979650505050505050565b60008084116117e1576040517f08c379a000000000000000000000000000000000000000000000000000000000815260040180806020018281038252602481526020018061351d6024913960400191505060405180910390fd5b6000831180156117f15750600082115b611846576040517f08c379a00000000000000000000000000000000000000000000000000000000081526004018080602001828103825260278152602001806135416027913960400191505060405180910390fd5b826118518584612136565b8161185857fe5b04949350505050565b60008087116118bb576040517f08c379a000000000000000000000000000000000000000000000000000000000815260040180806020018281038252602b8152602001806134f2602b913960400191505060405180910390fd5b6000861180156118cb5750600085115b611920576040517f08c379a00000000000000000000000000000000000000000000000000000000081526004018080602001828103825260278152602001806135416027913960400191505060405180910390fd5b8263ffffffff168463ffffffff16141561199157600061194c612710611946898b612136565b90612136565b90506000611971846127100363ffffffff166119468b8a61239b90919063ffffffff16565b9050611988600182848161198157fe5b04906121c2565b9250505061116b565b6000808061199f888b61239b565b90506119ad8882888a612234565b909350915060006119c08a612710612136565b905060006119ce8286612136565b905060ff841682811b906119f89060019063ffffffff6127108c90031690848603901c8161198157fe5b9d9c50505050505050505050505050565b60008060008060008060008873ffffffffffffffffffffffffffffffffffffffff16630dfe16816040518163ffffffff1660e01b815260040160206040518083038186803b158015611a5a57600080fd5b505afa158015611a6e573d6000803e3d6000fd5b505050506040513d6020811015611a8457600080fd5b5051604080517f0902f1ac0000000000000000000000000000000000000000000000000000000081529051919250600091829173ffffffffffffffffffffffffffffffffffffffff8d1691630902f1ac91600480820192606092909190829003018186803b158015611af557600080fd5b505afa158015611b09573d6000803e3d6000fd5b505050506040513d6060811015611b1f57600080fd5b5080516020909101516dffffffffffffffffffffffffffff9182169350169050600080611b4c8e8e610abd565b9750909250905073ffffffffffffffffffffffffffffffffffffffff8c81169086161415611bfb578c73ffffffffffffffffffffffffffffffffffffffff1663d21220a76040518163ffffffff1660e01b815260040160206040518083038186803b158015611bba57600080fd5b505afa158015611bce573d6000803e3d6000fd5b505050506040513d6020811015611be457600080fd5b50519a509298509096509450925085858585611c0f565b939950909750909550909350915085848684865b505050505093975093979195509350565b606081611c8e57604080517f08c379a000000000000000000000000000000000000000000000000000000000815260206004820152601d60248201527f4669726542697264466f726d756c613a20494e56414c49445f50415448000000604482015290519081900360640190fd5b6001820167ffffffffffffffff81118015611ca857600080fd5b50604051908082528060200260200182016040528015611cd2578160200160208202803683370190505b5090508381600183510381518110611ce657fe5b602090810291909101015284825b8015611d7d57600080600080600080611d158b8b60018a0381811061158f57fe5b955095509550955095509550611d3089888151811061128657fe5b896001890381518110611d3f57fe5b602090810291909101015250939550507fffffffffffffffffffffffffffffffffffffffffffffffffffffffffffffffff9093019250611cf4915050565b508673ffffffffffffffffffffffffffffffffffffffff168173ffffffffffffffffffffffffffffffffffffffff1614611680576040517f08c379a00000000000000000000000000000000000000000000000000000000081526004018080602001828103825260268152602001806135dd6026913960400191505060405180910390fd5b60008060008373ffffffffffffffffffffffffffffffffffffffff166332bfe4696040518163ffffffff1660e01b8152600401604080518083038186803b158015611e4c57600080fd5b505afa925050508015611e7857506040513d6040811015611e6c57600080fd5b50805160209091015160015b611f6f57611e8461340f565b80611e8f5750611f2e565b806040517f08c379a00000000000000000000000000000000000000000000000000000000081526004018080602001828103825283818151815260200191508051906020019080838360005b83811015611ef3578181015183820152602001611edb565b50505050905090810190601f168015611f205780820380516001836020036101000a031916815260200191505b509250505060405180910390fd5b3d808015611f58576040519150601f19603f3d011682016040523d82523d6000602084013e611f5d565b606091505b50603280601993509350935050611ff2565b81818773ffffffffffffffffffffffffffffffffffffffff1663d4cadf686040518163ffffffff1660e01b815260040160206040518083038186803b158015611fb757600080fd5b505afa158015611fcb573d6000803e3d6000fd5b505050506040513d6020811015611fe157600080fd5b505191965094509250611ff2915050565b9193909250565b6000808373ffffffffffffffffffffffffffffffffffffffff16630dfe16816040518163ffffffff1660e01b815260040160206040518083038186803b15801561204257600080fd5b505afa158015612056573d6000803e3d6000fd5b505050506040513d602081101561206c57600080fd5b5051604080517fd21220a7000000000000000000000000000000000000000000000000000000008152905191925060009173ffffffffffffffffffffffffffffffffffffffff87169163d21220a7916004808301926020929190829003018186803b1580156120da57600080fd5b505afa1580156120ee573d6000803e3d6000fd5b505050506040513d602081101561210457600080fd5b5051905073ffffffffffffffffffffffffffffffffffffffff8281169085161461212e5781611465565b949350505050565b60008115806121515750508082028282828161214e57fe5b04145b6121bc57604080517f08c379a000000000000000000000000000000000000000000000000000000000815260206004820152601460248201527f64732d6d6174682d6d756c2d6f766572666c6f77000000000000000000000000604482015290519081900360640190fd5b92915050565b808201828110156121bc57604080517f08c379a000000000000000000000000000000000000000000000000000000000815260206004820152601460248201527f64732d6d6174682d6164642d6f766572666c6f77000000000000000000000000604482015290519081900360640190fd5b600080848610156122a657604080517f08c379a000000000000000000000000000000000000000000000000000000000815260206004820152601b60248201527f6e6f7420737570706f7274205f626173654e203c205f62617365440000000000604482015290519081900360640190fd5b70020000000000000000000000000000000086106122c357600080fd5b600080866f800000000000000000000000000000008902816122e157fe5b04905070015bf0a8b1457695355fb8ac404e7a79e381101561230d576123068161240d565b9150612319565b61231681612987565b91505b60008563ffffffff168763ffffffff1684028161233257fe5b0490507008000000000000000000000000000000008110156123655761235781612ab7565b607f94509450505050612392565b600061237082612f7e565b905061238581607f0360ff1683901c8261300e565b9550935061239292505050565b94509492505050565b808203828111156121bc57604080517f08c379a000000000000000000000000000000000000000000000000000000000815260206004820152601560248201527f64732d6d6174682d7375622d756e646572666c6f770000000000000000000000604482015290519081900360640190fd5b6000808080806fd3094c70f034de4b96ff7d5b6f99fcd8861061246e576f40000000000000000000000000000000840193506fd3094c70f034de4b96ff7d5b6f99fcd86f8000000000000000000000000000000087028161246a57fe5b0495505b6fa45af1e1f40c333b3de1db4dd55f29a786106124c9576f20000000000000000000000000000000840193506fa45af1e1f40c333b3de1db4dd55f29a76f800000000000000000000000000000008702816124c557fe5b0495505b6f910b022db7ae67ce76b441c27035c6a18610612524576f10000000000000000000000000000000840193506f910b022db7ae67ce76b441c27035c6a16f8000000000000000000000000000000087028161252057fe5b0495505b6f88415abbe9a76bead8d00cf112e4d4a8861061257f576f08000000000000000000000000000000840193506f88415abbe9a76bead8d00cf112e4d4a86f8000000000000000000000000000000087028161257b57fe5b0495505b6f84102b00893f64c705e841d5d4064bd386106125da576f04000000000000000000000000000000840193506f84102b00893f64c705e841d5d4064bd36f800000000000000000000000000000008702816125d657fe5b0495505b6f8204055aaef1c8bd5c3259f4822735a28610612635576f02000000000000000000000000000000840193506f8204055aaef1c8bd5c3259f4822735a26f8000000000000000000000000000000087028161263157fe5b0495505b6f810100ab00222d861931c15e39b44e998610612690576f01000000000000000000000000000000840193506f810100ab00222d861931c15e39b44e996f8000000000000000000000000000000087028161268c57fe5b0495505b6f808040155aabbbe9451521693554f73386106126ea576e800000000000000000000000000000840193506f808040155aabbbe9451521693554f7336f800000000000000000000000000000008702816126e657fe5b0495505b7fffffffffffffffffffffffffffffffff80000000000000000000000000000000860192508291506f80000000000000000000000000000000828002049050700100000000000000000000000000000000838103830204840193506f800000000000000000000000000000008183028161276057fe5b049150700200000000000000000000000000000000836faaaaaaaaaaaaaaaaaaaaaaaaaaaaaaaa0383028161279157fe5b04840193506f80000000000000000000000000000000818302816127b157fe5b049150700300000000000000000000000000000000836f99999999999999999999999999999999038302816127e257fe5b04840193506f800000000000000000000000000000008183028161280257fe5b049150700400000000000000000000000000000000836f924924924924924924924924924924920383028161283357fe5b04840193506f800000000000000000000000000000008183028161285357fe5b049150700500000000000000000000000000000000836f8e38e38e38e38e38e38e38e38e38e38e0383028161288457fe5b04840193506f80000000000000000000000000000000818302816128a457fe5b049150700600000000000000000000000000000000836f8ba2e8ba2e8ba2e8ba2e8ba2e8ba2e8b038302816128d557fe5b04840193506f80000000000000000000000000000000818302816128f557fe5b049150700700000000000000000000000000000000836f89d89d89d89d89d89d89d89d89d89d890383028161292657fe5b04840193506f800000000000000000000000000000008183028161294657fe5b049150700800000000000000000000000000000000836f888888888888888888888888888888880383028161297757fe5b049390930193505050505b919050565b60008070010000000000000000000000000000000083106129dc5760006129bf6f8000000000000000000000000000000085046133a8565b60ff1693841c936f80000000000000000000000000000000029150505b6f80000000000000000000000000000000831115612a8b57607f5b60ff811615612a89576f800000000000000000000000000000008480020493507001000000000000000000000000000000008410612a6257600193841c9360ff7fffffffffffffffffffffffffffffffffffffffffffffffffffffffffffffffff8301161b91909101905b7fffffffffffffffffffffffffffffffffffffffffffffffffffffffffffffffff016129f7565b505b6f05b9de1d10bf4103d647b0955897ba806f03f80fe03f80fe03f80fe03f80fe03f88202049392505050565b6000670168244fdac780006f800000000000000000000000000000006f0fffffffffffffffffffffffffffffff84168080028290048082028390048083028490049485026710e1b3be415a00009092026705a0913f6b1e000091909102010192909181830204905080664807432bc1800002830192506f8000000000000000000000000000000082820281612b4857fe5b04905080660c0135dca0400002830192506f8000000000000000000000000000000082820281612b7457fe5b049050806601b707b1cdc00002830192506f8000000000000000000000000000000082820281612ba057fe5b049050806536e0f639b80002830192506f8000000000000000000000000000000082820281612bcb57fe5b04905080650618fee9f80002830192506f8000000000000000000000000000000082820281612bf657fe5b04905080649c197dcc0002830192506f8000000000000000000000000000000082820281612c2057fe5b04905080640e30dce40002830192506f8000000000000000000000000000000082820281612c4a57fe5b0490508064012ebd130002830192506f8000000000000000000000000000000082820281612c7457fe5b049050806317499f0002830192506f8000000000000000000000000000000082820281612c9d57fe5b049050806301a9d48002830192506f8000000000000000000000000000000082820281612cc657fe5b04905080621c638002830192506f8000000000000000000000000000000082820281612cee57fe5b049050806201c63802830192506f8000000000000000000000000000000082820281612d1657fe5b04905080611ab802830192506f8000000000000000000000000000000082820281612d3d57fe5b0490508061017c02830192506f8000000000000000000000000000000082820281612d6457fe5b04905080601402830192506f8000000000000000000000000000000082820281612d8a57fe5b6721c3677c82b400009190049384010482016f80000000000000000000000000000000019290506f10000000000000000000000000000000851615612df35770018ebef9eac820ae8682b9793ac6d1e7767001c3d6a24ed82218787d624d3e5eba95f984020492505b6f20000000000000000000000000000000851615612e35577001368b2fc6f9609fe7aceb46aa619baed470018ebef9eac820ae8682b9793ac6d1e77884020492505b6f40000000000000000000000000000000851615612e76576fbc5ab1b16779be3575bd8f0520a9f21f7001368b2fc6f9609fe7aceb46aa619baed584020492505b6f80000000000000000000000000000000851615612eb6576f454aaa8efe072e7f6ddbab84b40a55c96fbc5ab1b16779be3575bd8f0520a9f21e84020492505b700100000000000000000000000000000000851615612ef7576f0960aadc109e7a3bf4578099615711ea6f454aaa8efe072e7f6ddbab84b40a55c584020492505b700200000000000000000000000000000000851615612f37576e2bf84208204f5977f9a8cf01fdce3d6f0960aadc109e7a3bf4578099615711d784020492505b700400000000000000000000000000000000851615612f75576d03c6ab775dd0b95b4cbee7e65d116e2bf84208204f5977f9a8cf01fdc30784020492505b50909392505050565b60006020607f5b8060ff168260010160ff161015612fcd576000600260ff848401160490508460008260ff1660808110612fb457fe5b015410612fc357809250612fc7565b8091505b50612f85565b8360008260ff1660808110612fde57fe5b015410612fee5791506129829050565b8360008360ff1660808110612fff57fe5b01541061013657509050612982565b60008083905060008360ff16858302901c9150816f03442c4e6074a82f1797f72ac000000002810190508360ff16858302901c9150816f0116b96f757c380fb287fd0e4000000002810190508360ff16858302901c9150816e45ae5bdd5f0e03eca1ff439000000002810190508360ff16858302901c9150816e0defabf91302cd95b9ffda5000000002810190508360ff16858302901c9150816e02529ca9832b22439efff9b800000002810190508360ff16858302901c9150816d54f1cf12bd04e516b6da8800000002810190508360ff16858302901c9150816d0a9e39e257a09ca2d6db5100000002810190508360ff16858302901c9150816d012e066e7b839fa050c30900000002810190508360ff16858302901c9150816c1e33d7d926c329a1ad1a80000002810190508360ff16858302901c9150816c02bee513bdb4a6b19b5f80000002810190508360ff16858302901c9150816b3a9316fa79b88eccf2a0000002810190508360ff16858302901c9150816b048177ebe1fa81237520000002810190508360ff16858302901c9150816a5263fe90242dcbacf0000002810190508360ff16858302901c9150816a057e22099c030d9410000002810190508360ff16858302901c9150816957e22099c030d941000002810190508360ff16858302901c91508169052b6b5456997631000002810190508360ff16858302901c915081684985f67696bf74800002810190508360ff16858302901c9150816803dea12ea99e49800002810190508360ff16858302901c9150816731880f2214b6e00002810190508360ff16858302901c91508167025bcff56eb3600002810190508360ff16858302901c915081661b722e10ab100002810190508360ff16858302901c9150816601317c7007700002810190508360ff16858302901c915081650cba84aafa0002810190508360ff16858302901c9150816482573a0a0002810190508360ff16858302901c9150816405035ad90002810190508360ff16858302901c915081632f881b0002810190508360ff16858302901c9150816301b2934002810190508360ff16858302901c915081620efc4002810190508360ff16858302901c915081617fe002810190508360ff16858302901c91508161042002810190508360ff16858302901c915081602102810190508360ff16858302901c915081600102810190508360ff166001901b856f0688589cc0e9505e2f2fee5580000000838161339c57fe5b04010195945050505050565b6000806101008310156133d0575b60018311156133cb57600192831c92016133b6565b6121bc565b60805b60ff81161561340257600160ff82161b84106133f75760ff81169390931c92908117905b60011c607f166133d3565b5092915050565b60e01c90565b600060443d101561341f576134ee565b600481823e6308c379a06134338251613409565b1461343d576134ee565b6040517ffffffffffffffffffffffffffffffffffffffffffffffffffffffffffffffffc3d016004823e80513d67ffffffffffffffff816024840111818411171561348b57505050506134ee565b828401925082519150808211156134a557505050506134ee565b503d830160208284010111156134bd575050506134ee565b601f017fffffffffffffffffffffffffffffffffffffffffffffffffffffffffffffffe01681016020016040529150505b9056fe4669726542697264466f726d756c613a20494e53554646494349454e545f4f55545055545f414d4f554e544669726542697264466f726d756c613a20494e53554646494349454e545f414d4f554e544669726542697264466f726d756c613a20494e53554646494349454e545f4c49515549444954594669726542697264466f726d756c613a20494e56414c49445f544f4b454e5f4f55545f504154484669726542697264466f726d756c613a20494e53554646494349454e545f494e5055545f414d4f554e544669726542697264466f726d756c613a204944454e544943414c5f4144445245535345534669726542697264466f726d756c613a20494e56414c49445f544f4b454e5f494e5f50415448a264697066735822122059b8f5ee1c8bf78997382fd95152643a1f79a10ccd9cc11ea48b66e8d3400be664736f6c63430007060033",
  "devdoc": {
    "kind": "dev",
    "methods": {
      "getAmountIn(uint256,uint256,uint256,uint32,uint32,uint32)": {
        "details": "given an output amount of an asset and pair reserves, returns a required input amount of the other asset Formula: return = reserveIn * ( (reserveOut / (reserveOut - amountOut)) ^ (tokenWeightOut / tokenWeightIn) - 1) * (10000/ (10000 - swapFee)",
        "params": {
          "amountOut": "target reserve amount",
          "reserveIn": "source reserve balance",
          "reserveOut": "target reserve balance",
          "swapFee": "swap fee of the conversion",
          "tokenWeightIn": "source reserve weight, represented in ppm (2-98)",
          "tokenWeightOut": "target reserve weight, represented in ppm (2-98)"
        },
        "returns": {
          "amountIn": "amountIn"
        }
      },
      "getAmountOut(uint256,uint256,uint256,uint32,uint32,uint32)": {
        "details": "given an input amount of an asset and pair reserves, returns the maximum output amount of the other asset, Formula: return = reserveOut * (1 - (reserveIn / (reserveIn + amountIn * (10000 - swapFee))) ^ (tokenWeightIn / tokenWeightOut))",
        "params": {
          "amountIn": "source reserve amount",
          "reserveIn": "source reserve balance",
          "reserveOut": "target reserve balance",
          "swapFee": "swap fee of the conversion",
          "tokenWeightIn": "source reserve weight, represented in ppm (2-98)",
          "tokenWeightOut": "target reserve weight, represented in ppm (2-98)"
        },
        "returns": {
          "amountOut": "amountOut"
        }
      }
    },
    "version": 1
  },
  "userdoc": {
    "kind": "user",
    "methods": {},
    "version": 1
  },
  "storageLayout": {
    "storage": [
      {
        "astId": 1828,
        "contract": "contracts/FireBirdFormula.sol:FireBirdFormula",
        "label": "maxExpArray",
        "offset": 0,
        "slot": "0",
        "type": "t_array(t_uint256)128_storage"
      }
    ],
    "types": {
      "t_array(t_uint256)128_storage": {
        "base": "t_uint256",
        "encoding": "inplace",
        "label": "uint256[128]",
        "numberOfBytes": "4096"
      },
      "t_uint256": {
        "encoding": "inplace",
        "label": "uint256",
        "numberOfBytes": "32"
      }
    }
  }
}