{
  "address": "0x259cAc19fBd749bcAB76012f220d4ee95A3631DA",
  "abi": [
    {
      "anonymous": false,
      "inputs": [
        {
          "indexed": true,
          "internalType": "uint256",
          "name": "amount",
          "type": "uint256"
        }
      ],
      "name": "SetFeeAmount",
      "type": "event"
    },
    {
      "anonymous": false,
      "inputs": [
        {
          "indexed": true,
          "internalType": "address",
          "name": "feeTo",
          "type": "address"
        }
      ],
      "name": "SetFeeTo",
      "type": "event"
    },
    {
      "anonymous": false,
      "inputs": [
        {
          "indexed": true,
          "internalType": "address",
          "name": "token",
          "type": "address"
        }
      ],
      "name": "SetFeeToken",
      "type": "event"
    },
    {
      "anonymous": false,
      "inputs": [
        {
          "indexed": false,
          "internalType": "contract IERC20[]",
          "name": "pooledTokens",
          "type": "address[]"
        },
        {
          "indexed": true,
          "internalType": "address",
          "name": "swap",
          "type": "address"
        },
        {
          "indexed": false,
          "internalType": "uint256",
          "name": "length",
          "type": "uint256"
        }
      ],
      "name": "SwapCreated",
      "type": "event"
    },
    {
      "inputs": [
        {
          "internalType": "uint256",
          "name": "",
          "type": "uint256"
        }
      ],
      "name": "allPools",
      "outputs": [
        {
          "internalType": "address",
          "name": "",
          "type": "address"
        }
      ],
      "stateMutability": "view",
      "type": "function"
    },
    {
      "inputs": [],
      "name": "allPoolsLength",
      "outputs": [
        {
          "internalType": "uint256",
          "name": "",
          "type": "uint256"
        }
      ],
      "stateMutability": "view",
      "type": "function"
    },
    {
      "inputs": [
        {
          "internalType": "contract IERC20[]",
          "name": "_pooledTokens",
          "type": "address[]"
        },
        {
          "internalType": "uint8[]",
          "name": "decimals",
          "type": "uint8[]"
        },
        {
          "internalType": "string",
          "name": "lpTokenName",
          "type": "string"
        },
        {
          "internalType": "string",
          "name": "lpTokenSymbol",
          "type": "string"
        },
        {
          "internalType": "uint256",
          "name": "_a",
          "type": "uint256"
        },
        {
          "internalType": "uint256",
          "name": "_fee",
          "type": "uint256"
        },
        {
          "internalType": "uint256",
          "name": "_adminFee",
          "type": "uint256"
        },
        {
          "internalType": "uint256",
          "name": "_withdrawFee",
          "type": "uint256"
        },
        {
          "internalType": "uint256",
          "name": "delayTimeLock",
          "type": "uint256"
        }
      ],
      "name": "createPool",
      "outputs": [
        {
          "internalType": "address",
          "name": "",
          "type": "address"
        }
      ],
      "stateMutability": "nonpayable",
      "type": "function"
    },
    {
      "inputs": [
        {
          "internalType": "contract IERC20[]",
          "name": "_pooledTokens",
          "type": "address[]"
        },
        {
          "internalType": "uint8[]",
          "name": "decimals",
          "type": "uint8[]"
        },
        {
          "internalType": "string",
          "name": "lpTokenName",
          "type": "string"
        },
        {
          "internalType": "string",
          "name": "lpTokenSymbol",
          "type": "string"
        },
        {
          "internalType": "uint256",
          "name": "_a",
          "type": "uint256"
        },
        {
          "internalType": "uint256",
          "name": "_fee",
          "type": "uint256"
        },
        {
          "internalType": "uint256",
          "name": "_adminFee",
          "type": "uint256"
        },
        {
          "internalType": "uint256",
          "name": "_withdrawFee",
          "type": "uint256"
        },
        {
          "internalType": "address",
          "name": "timeLock",
          "type": "address"
        }
      ],
      "name": "createPoolInternal",
      "outputs": [
        {
          "internalType": "address",
          "name": "",
          "type": "address"
        }
      ],
      "stateMutability": "nonpayable",
      "type": "function"
    },
    {
      "inputs": [],
      "name": "feeAmount",
      "outputs": [
        {
          "internalType": "uint256",
          "name": "",
          "type": "uint256"
        }
      ],
      "stateMutability": "view",
      "type": "function"
    },
    {
      "inputs": [],
      "name": "feeTo",
      "outputs": [
        {
          "internalType": "address",
          "name": "",
          "type": "address"
        }
      ],
      "stateMutability": "view",
      "type": "function"
    },
    {
      "inputs": [],
      "name": "feeToSetter",
      "outputs": [
        {
          "internalType": "address",
          "name": "",
          "type": "address"
        }
      ],
      "stateMutability": "view",
      "type": "function"
    },
    {
      "inputs": [],
      "name": "feeToken",
      "outputs": [
        {
          "internalType": "address",
          "name": "",
          "type": "address"
        }
      ],
      "stateMutability": "view",
      "type": "function"
    },
    {
      "inputs": [
        {
          "internalType": "address",
          "name": "_feeToSetter",
          "type": "address"
        },
        {
          "internalType": "contract ISwapCreator",
          "name": "_swapCreator",
          "type": "address"
        }
      ],
      "name": "initialize",
      "outputs": [],
      "stateMutability": "nonpayable",
      "type": "function"
    },
    {
      "inputs": [
        {
          "internalType": "address",
          "name": "b",
          "type": "address"
        }
      ],
      "name": "isPool",
      "outputs": [
        {
          "internalType": "bool",
          "name": "",
          "type": "bool"
        }
      ],
      "stateMutability": "view",
      "type": "function"
    },
    {
      "inputs": [
        {
          "internalType": "address",
          "name": "b",
          "type": "address"
        }
      ],
      "name": "isTimelock",
      "outputs": [
        {
          "internalType": "bool",
          "name": "",
          "type": "bool"
        }
      ],
      "stateMutability": "view",
      "type": "function"
    },
    {
      "inputs": [
        {
          "internalType": "uint256",
          "name": "_feeAmount",
          "type": "uint256"
        }
      ],
      "name": "setFeeAmount",
      "outputs": [],
      "stateMutability": "nonpayable",
      "type": "function"
    },
    {
      "inputs": [
        {
          "internalType": "address",
          "name": "_feeTo",
          "type": "address"
        }
      ],
      "name": "setFeeTo",
      "outputs": [],
      "stateMutability": "nonpayable",
      "type": "function"
    },
    {
      "inputs": [
        {
          "internalType": "address",
          "name": "_feeToSetter",
          "type": "address"
        }
      ],
      "name": "setFeeToSetter",
      "outputs": [],
      "stateMutability": "nonpayable",
      "type": "function"
    },
    {
      "inputs": [
        {
          "internalType": "address",
          "name": "_token",
          "type": "address"
        }
      ],
      "name": "setFeeToken",
      "outputs": [],
      "stateMutability": "nonpayable",
      "type": "function"
    },
    {
      "inputs": [
        {
          "internalType": "contract ISwapCreator",
          "name": "_swapCreator",
          "type": "address"
        }
      ],
      "name": "setSwapCreator",
      "outputs": [],
      "stateMutability": "nonpayable",
      "type": "function"
    },
    {
      "inputs": [],
      "name": "swapCreator",
      "outputs": [
        {
          "internalType": "contract ISwapCreator",
          "name": "",
          "type": "address"
        }
      ],
      "stateMutability": "view",
      "type": "function"
    }
  ],
  "transactionHash": "0x9ecc8055c1a38b6f5e66d24d6a6305fd9ccfa08c6c2625c789b6edf933eb40c7",
  "args": [],
  "solcInputHash": "de4b5c98aaefeaf0642d1549f17f4799",
  "bytecode": "0x60806040526007805460ff60a01b1916905534801561001d57600080fd5b506136a78061002d6000396000f3fe608060405234801561001057600080fd5b506004361061011b5760003560e01c8063647846a5116100b2578063a2e74af611610081578063d7d3ba3411610066578063d7d3ba341461078a578063efde4e64146107bd578063f46901ed146107c55761011b565b8063a2e74af61461074f578063bb08e673146107825761011b565b8063647846a5146106dd57806369e15404146106e55780636b392680146106ff5780639e93963c1461071c5761011b565b806341d1de97116100ee57806341d1de97146103f1578063485cc9551461040e578063541b3983146104495780635b16ebb7146106965761011b565b8063017e7e581461012057806304b723cd14610151578063094b7415146103b457806315cce224146103bc575b600080fd5b6101286107f8565b6040805173ffffffffffffffffffffffffffffffffffffffff9092168252519081900360200190f35b610128600480360361012081101561016857600080fd5b81019060208101813564010000000081111561018357600080fd5b82018360208201111561019557600080fd5b803590602001918460208302840111640100000000831117156101b757600080fd5b919080806020026020016040519081016040528093929190818152602001838360200280828437600092019190915250929594936020810193503591505064010000000081111561020757600080fd5b82018360208201111561021957600080fd5b8035906020019184602083028401116401000000008311171561023b57600080fd5b919080806020026020016040519081016040528093929190818152602001838360200280828437600092019190915250929594936020810193503591505064010000000081111561028b57600080fd5b82018360208201111561029d57600080fd5b803590602001918460018302840111640100000000831117156102bf57600080fd5b91908080601f016020809104026020016040519081016040528093929190818152602001838380828437600092019190915250929594936020810193503591505064010000000081111561031257600080fd5b82018360208201111561032457600080fd5b8035906020019184600183028401116401000000008311171561034657600080fd5b91908080601f016020809104026020016040519081016040528093929190818152602001838380828437600092019190915250929550508235935050506020810135906040810135906060810135906080013573ffffffffffffffffffffffffffffffffffffffff16610814565b610128610c40565b6103ef600480360360208110156103d257600080fd5b503573ffffffffffffffffffffffffffffffffffffffff16610c5c565b005b6101286004803603602081101561040757600080fd5b5035610d51565b6103ef6004803603604081101561042457600080fd5b5073ffffffffffffffffffffffffffffffffffffffff81358116916020013516610d85565b610128600480360361012081101561046057600080fd5b81019060208101813564010000000081111561047b57600080fd5b82018360208201111561048d57600080fd5b803590602001918460208302840111640100000000831117156104af57600080fd5b91908080602002602001604051908101604052809392919081815260200183836020028082843760009201919091525092959493602081019350359150506401000000008111156104ff57600080fd5b82018360208201111561051157600080fd5b8035906020019184602083028401116401000000008311171561053357600080fd5b919080806020026020016040519081016040528093929190818152602001838360200280828437600092019190915250929594936020810193503591505064010000000081111561058357600080fd5b82018360208201111561059557600080fd5b803590602001918460018302840111640100000000831117156105b757600080fd5b91908080601f016020809104026020016040519081016040528093929190818152602001838380828437600092019190915250929594936020810193503591505064010000000081111561060a57600080fd5b82018360208201111561061c57600080fd5b8035906020019184600183028401116401000000008311171561063e57600080fd5b91908080601f0160208091040260200160405190810160405280939291908181526020018383808284376000920191909152509295505082359350505060208101359060408101359060608101359060800135610e9e565b6106c9600480360360208110156106ac57600080fd5b503573ffffffffffffffffffffffffffffffffffffffff16610fc8565b604080519115158252519081900360200190f35b610128610ff3565b6106ed61100f565b60408051918252519081900360200190f35b6103ef6004803603602081101561071557600080fd5b5035611015565b6106c96004803603602081101561073257600080fd5b503573ffffffffffffffffffffffffffffffffffffffff166110ce565b6103ef6004803603602081101561076557600080fd5b503573ffffffffffffffffffffffffffffffffffffffff166110f9565b6101286111c6565b6103ef600480360360208110156107a057600080fd5b503573ffffffffffffffffffffffffffffffffffffffff166111e2565b6106ed6112af565b6103ef600480360360208110156107db57600080fd5b503573ffffffffffffffffffffffffffffffffffffffff166112b5565b60005473ffffffffffffffffffffffffffffffffffffffff1681565b6000805473ffffffffffffffffffffffffffffffffffffffff1615801590610853575060025473ffffffffffffffffffffffffffffffffffffffff1615155b801561086157506000600354115b15610897576000546003546002546108979273ffffffffffffffffffffffffffffffffffffffff918216923392909116906113a8565b6000600760009054906101000a900473ffffffffffffffffffffffffffffffffffffffff1673ffffffffffffffffffffffffffffffffffffffff16639dd3d9fd8c8c8c8c8c8c8c8c8c6040518a63ffffffff1660e01b815260040180806020018060200180602001806020018a81526020018981526020018881526020018781526020018673ffffffffffffffffffffffffffffffffffffffff16815260200185810385528e818151815260200191508051906020019060200280838360005b8381101561096f578181015183820152602001610957565b5050505090500185810384528d818151815260200191508051906020019060200280838360005b838110156109ae578181015183820152602001610996565b5050505090500185810383528c818151815260200191508051906020019080838360005b838110156109ea5781810151838201526020016109d2565b50505050905090810190601f168015610a175780820380516001836020036101000a031916815260200191505b5085810382528b5181528b516020918201918d019080838360005b83811015610a4a578181015183820152602001610a32565b50505050905090810190601f168015610a775780820380516001836020036101000a031916815260200191505b509d5050505050505050505050505050602060405180830381600087803b158015610aa157600080fd5b505af1158015610ab5573d6000803e3d6000fd5b505050506040513d6020811015610acb57600080fd5b810190808051906020019092919050505090506004819080600181540180825580915050600190039060005260206000200160009091909190916101000a81548173ffffffffffffffffffffffffffffffffffffffff021916908373ffffffffffffffffffffffffffffffffffffffff1602179055506001600560008373ffffffffffffffffffffffffffffffffffffffff1673ffffffffffffffffffffffffffffffffffffffff16815260200190815260200160002060006101000a81548160ff0219169083151502179055508073ffffffffffffffffffffffffffffffffffffffff167f8fda8d9c5bfffaab5916d8100abc6eafd9b7d4dae8328a5e6a8e05d21a93fa888c6004805490506040518080602001838152602001828103825284818151815260200191508051906020019060200280838360005b83811015610c1e578181015183820152602001610c06565b50505050905001935050505060405180910390a29a9950505050505050505050565b60015473ffffffffffffffffffffffffffffffffffffffff1681565b60015473ffffffffffffffffffffffffffffffffffffffff163314610ce257604080517f08c379a000000000000000000000000000000000000000000000000000000000815260206004820152600e60248201527f464c503a20464f5242494444454e000000000000000000000000000000000000604482015290519081900360640190fd5b600280547fffffffffffffffffffffffff00000000000000000000000000000000000000001673ffffffffffffffffffffffffffffffffffffffff83169081179091556040517f0842bcbb92ca6d47ae89816778a843992dff9b876fad009865e1c5df73d46d1f90600090a250565b60048181548110610d5e57fe5b60009182526020909120015473ffffffffffffffffffffffffffffffffffffffff16905081565b60075474010000000000000000000000000000000000000000900460ff1615610e0f57604080517f08c379a000000000000000000000000000000000000000000000000000000000815260206004820152601e60248201527f537461626c6553776170466163746f72793a20696e697469616c697a65640000604482015290519081900360640190fd5b600180547fffffffffffffffffffffffff000000000000000000000000000000000000000090811673ffffffffffffffffffffffffffffffffffffffff948516179091556007805474010000000000000000000000000000000000000000921692909316919091177fffffffffffffffffffffff00ffffffffffffffffffffffffffffffffffffffff16179055565b600080604051610ead906117b8565b604051809103906000f080158015610ec9573d6000803e3d6000fd5b5090506000610edf8c8c8c8c8c8c8c8c8a610814565b90508173ffffffffffffffffffffffffffffffffffffffff1663cd6dc68733866040518363ffffffff1660e01b8152600401808373ffffffffffffffffffffffffffffffffffffffff16815260200182815260200192505050600060405180830381600087803b158015610f5257600080fd5b505af1158015610f66573d6000803e3d6000fd5b50505073ffffffffffffffffffffffffffffffffffffffff909216600090815260066020526040902080547fffffffffffffffffffffffffffffffffffffffffffffffffffffffffffffff001660011790559150509998505050505050505050565b73ffffffffffffffffffffffffffffffffffffffff1660009081526005602052604090205460ff1690565b60025473ffffffffffffffffffffffffffffffffffffffff1681565b60035481565b60015473ffffffffffffffffffffffffffffffffffffffff16331461109b57604080517f08c379a000000000000000000000000000000000000000000000000000000000815260206004820152600e60248201527f464c503a20464f5242494444454e000000000000000000000000000000000000604482015290519081900360640190fd5b600381905560405181907fd854f702b4e23ab27557a75b5b4e72066f8ab6929930f813720339c72eaa8b6390600090a250565b73ffffffffffffffffffffffffffffffffffffffff1660009081526006602052604090205460ff1690565b60015473ffffffffffffffffffffffffffffffffffffffff16331461117f57604080517f08c379a000000000000000000000000000000000000000000000000000000000815260206004820152600e60248201527f464c503a20464f5242494444454e000000000000000000000000000000000000604482015290519081900360640190fd5b600180547fffffffffffffffffffffffff00000000000000000000000000000000000000001673ffffffffffffffffffffffffffffffffffffffff92909216919091179055565b60075473ffffffffffffffffffffffffffffffffffffffff1681565b60015473ffffffffffffffffffffffffffffffffffffffff16331461126857604080517f08c379a000000000000000000000000000000000000000000000000000000000815260206004820152600e60248201527f464c503a20464f5242494444454e000000000000000000000000000000000000604482015290519081900360640190fd5b600780547fffffffffffffffffffffffff00000000000000000000000000000000000000001673ffffffffffffffffffffffffffffffffffffffff92909216919091179055565b60045490565b60015473ffffffffffffffffffffffffffffffffffffffff16331461133b57604080517f08c379a000000000000000000000000000000000000000000000000000000000815260206004820152600e60248201527f464c503a20464f5242494444454e000000000000000000000000000000000000604482015290519081900360640190fd5b600080547fffffffffffffffffffffffff00000000000000000000000000000000000000001673ffffffffffffffffffffffffffffffffffffffff8316908117825560405190917ff6b59ffc88fbb27f33470b919e00b41139ee340eb349521f0cbbc1504ce29c3e91a250565b6040805173ffffffffffffffffffffffffffffffffffffffff80861660248301528416604482015260648082018490528251808303909101815260849091019091526020810180517bffffffffffffffffffffffffffffffffffffffffffffffffffffffff167f23b872dd0000000000000000000000000000000000000000000000000000000017905261143d908590611443565b50505050565b60606114a5826040518060400160405280602081526020017f5361666545524332303a206c6f772d6c6576656c2063616c6c206661696c65648152508573ffffffffffffffffffffffffffffffffffffffff166115209092919063ffffffff16565b80519091501561151b578080602001905160208110156114c457600080fd5b505161151b576040517f08c379a000000000000000000000000000000000000000000000000000000000815260040180806020018281038252602a815260200180613648602a913960400191505060405180910390fd5b505050565b606061152f8484600085611539565b90505b9392505050565b606082471015611594576040517f08c379a00000000000000000000000000000000000000000000000000000000081526004018080602001828103825260268152602001806136226026913960400191505060405180910390fd5b61159d856116f4565b61160857604080517f08c379a000000000000000000000000000000000000000000000000000000000815260206004820152601d60248201527f416464726573733a2063616c6c20746f206e6f6e2d636f6e7472616374000000604482015290519081900360640190fd5b600060608673ffffffffffffffffffffffffffffffffffffffff1685876040518082805190602001908083835b6020831061167257805182527fffffffffffffffffffffffffffffffffffffffffffffffffffffffffffffffe09092019160209182019101611635565b6001836020036101000a03801982511681845116808217855250505050505090500191505060006040518083038185875af1925050503d80600081146116d4576040519150601f19603f3d011682016040523d82523d6000602084013e6116d9565b606091505b50915091506116e98282866116fa565b979650505050505050565b3b151590565b60608315611709575081611532565b8251156117195782518084602001fd5b816040517f08c379a00000000000000000000000000000000000000000000000000000000081526004018080602001828103825283818151815260200191508051906020019080838360005b8381101561177d578181015183820152602001611765565b50505050905090810190601f1680156117aa5780820380516001836020036101000a031916815260200191505b509250505060405180910390fd5b611e5c806117c68339019056fe608060405234801561001057600080fd5b506003805460ff19908116909155600080549091169055611e26806100366000396000f3fe6080604052600436106100ec5760003560e01c80636fc1f57e1161008a578063cd6dc68711610059578063cd6dc6871461069e578063e177246e146106e4578063f2b065371461070e578063f851a44014610738576100f3565b80636fc1f57e146106365780637d645fab1461065f578063b1b43ae514610674578063c1a287e214610689576100f3565b80633a66f901116100c65780633a66f901146103135780634dd18bf514610483578063591fcdfe146104c35780636a42b8f814610621576100f3565b80630825f38f146100f85780630e18b681146102be57806326782247146102d5576100f3565b366100f357005b600080fd5b610249600480360360a081101561010e57600080fd5b73ffffffffffffffffffffffffffffffffffffffff8235169160208101359181019060608101604082013564010000000081111561014b57600080fd5b82018360208201111561015d57600080fd5b8035906020019184600183028401116401000000008311171561017f57600080fd5b91908080601f01602080910402602001604051908101604052809392919081815260200183838082843760009201919091525092959493602081019350359150506401000000008111156101d257600080fd5b8201836020820111156101e457600080fd5b8035906020019184600183028401116401000000008311171561020657600080fd5b91908080601f016020809104026020016040519081016040528093929190818152602001838380828437600092019190915250929550509135925061074d915050565b6040805160208082528351818301528351919283929083019185019080838360005b8381101561028357818101518382015260200161026b565b50505050905090810190601f1680156102b05780820380516001836020036101000a031916815260200191505b509250505060405180910390f35b3480156102ca57600080fd5b506102d3610d95565b005b3480156102e157600080fd5b506102ea610ea4565b6040805173ffffffffffffffffffffffffffffffffffffffff9092168252519081900360200190f35b34801561031f57600080fd5b50610471600480360360a081101561033657600080fd5b73ffffffffffffffffffffffffffffffffffffffff8235169160208101359181019060608101604082013564010000000081111561037357600080fd5b82018360208201111561038557600080fd5b803590602001918460018302840111640100000000831117156103a757600080fd5b91908080601f01602080910402602001604051908101604052809392919081815260200183838082843760009201919091525092959493602081019350359150506401000000008111156103fa57600080fd5b82018360208201111561040c57600080fd5b8035906020019184600183028401116401000000008311171561042e57600080fd5b91908080601f0160208091040260200160405190810160405280939291908181526020018383808284376000920191909152509295505091359250610ec0915050565b60408051918252519081900360200190f35b34801561048f57600080fd5b506102d3600480360360208110156104a657600080fd5b503573ffffffffffffffffffffffffffffffffffffffff16611222565b3480156104cf57600080fd5b506102d3600480360360a08110156104e657600080fd5b73ffffffffffffffffffffffffffffffffffffffff8235169160208101359181019060608101604082013564010000000081111561052357600080fd5b82018360208201111561053557600080fd5b8035906020019184600183028401116401000000008311171561055757600080fd5b91908080601f01602080910402602001604051908101604052809392919081815260200183838082843760009201919091525092959493602081019350359150506401000000008111156105aa57600080fd5b8201836020820111156105bc57600080fd5b803590602001918460018302840111640100000000831117156105de57600080fd5b91908080601f01602080910402602001604051908101604052809392919081815260200183838082843760009201919091525092955050913592506113a0915050565b34801561062d57600080fd5b50610471611693565b34801561064257600080fd5b5061064b611699565b604080519115158252519081900360200190f35b34801561066b57600080fd5b506104716116a2565b34801561068057600080fd5b506104716116a9565b34801561069557600080fd5b506104716116b0565b3480156106aa57600080fd5b506102d3600480360360408110156106c157600080fd5b5073ffffffffffffffffffffffffffffffffffffffff81351690602001356116b7565b3480156106f057600080fd5b506102d36004803603602081101561070757600080fd5b503561189f565b34801561071a57600080fd5b5061064b6004803603602081101561073157600080fd5b50356119e2565b34801561074457600080fd5b506102ea6119f7565b600054606090610100900473ffffffffffffffffffffffffffffffffffffffff1633146107c5576040517f08c379a0000000000000000000000000000000000000000000000000000000008152600401808060200182810382526038815260200180611a986038913960400191505060405180910390fd5b60008686868686604051602001808673ffffffffffffffffffffffffffffffffffffffff1681526020018581526020018060200180602001848152602001838103835286818151815260200191508051906020019080838360005b83811015610838578181015183820152602001610820565b50505050905090810190601f1680156108655780820380516001836020036101000a031916815260200191505b50838103825285518152855160209182019187019080838360005b83811015610898578181015183820152602001610880565b50505050905090810190601f1680156108c55780820380516001836020036101000a031916815260200191505b50604080517fffffffffffffffffffffffffffffffffffffffffffffffffffffffffffffffe081840301815291815281516020928301206000818152600490935291205490995060ff16975061096e9650505050505050576040517f08c379a000000000000000000000000000000000000000000000000000000000815260040180806020018281038252603d815260200180611c57603d913960400191505060405180910390fd5b82610977611a18565b10156109ce576040517f08c379a0000000000000000000000000000000000000000000000000000000008152600401808060200182810382526045815260200180611b6b6045913960600191505060405180910390fd5b6109db8362127500611a1c565b6109e3611a18565b1115610a3a576040517f08c379a0000000000000000000000000000000000000000000000000000000008152600401808060200182810382526033815260200180611b386033913960400191505060405180910390fd5b600081815260046020526040902080547fffffffffffffffffffffffffffffffffffffffffffffffffffffffffffffff001690558451606090610a7e575083610b34565b85805190602001208560405160200180837bffffffffffffffffffffffffffffffffffffffffffffffffffffffff1916815260040182805190602001908083835b60208310610afc57805182527fffffffffffffffffffffffffffffffffffffffffffffffffffffffffffffffe09092019160209182019101610abf565b6001836020036101000a0380198251168184511680821785525050505050509050019250505060405160208183030381529060405290505b600060608973ffffffffffffffffffffffffffffffffffffffff1689846040518082805190602001908083835b60208310610b9e57805182527fffffffffffffffffffffffffffffffffffffffffffffffffffffffffffffffe09092019160209182019101610b61565b6001836020036101000a03801982511681845116808217855250505050505090500191505060006040518083038185875af1925050503d8060008114610c00576040519150601f19603f3d011682016040523d82523d6000602084013e610c05565b606091505b509150915081610c60576040517f08c379a000000000000000000000000000000000000000000000000000000000815260040180806020018281038252603d815260200180611d3a603d913960400191505060405180910390fd5b8973ffffffffffffffffffffffffffffffffffffffff16847fa560e3198060a2f10670c1ec5b403077ea6ae93ca8de1c32b451dc1a943cd6e78b8b8b8b604051808581526020018060200180602001848152602001838103835286818151815260200191508051906020019080838360005b83811015610cea578181015183820152602001610cd2565b50505050905090810190601f168015610d175780820380516001836020036101000a031916815260200191505b50838103825285518152855160209182019187019080838360005b83811015610d4a578181015183820152602001610d32565b50505050905090810190601f168015610d775780820380516001836020036101000a031916815260200191505b50965050505050505060405180910390a39998505050505050505050565b60015473ffffffffffffffffffffffffffffffffffffffff163314610e05576040517f08c379a0000000000000000000000000000000000000000000000000000000008152600401808060200182810382526038815260200180611c946038913960400191505060405180910390fd5b600080546101003381027fffffffffffffffffffffff0000000000000000000000000000000000000000ff90921691909117808355600180547fffffffffffffffffffffffff000000000000000000000000000000000000000016905560405191900473ffffffffffffffffffffffffffffffffffffffff16917f71614071b88dee5e0b2ae578a9dd7b2ebbe9ae832ba419dc0242cd065a290b6c91a2565b60015473ffffffffffffffffffffffffffffffffffffffff1681565b60008054610100900473ffffffffffffffffffffffffffffffffffffffff163314610f36576040517f08c379a0000000000000000000000000000000000000000000000000000000008152600401808060200182810382526036815260200180611d046036913960400191505060405180910390fd5b610f4a600254610f44611a18565b90611a1c565b821015610fa2576040517f08c379a0000000000000000000000000000000000000000000000000000000008152600401808060200182810382526049815260200180611d776049913960600191505060405180910390fd5b60008686868686604051602001808673ffffffffffffffffffffffffffffffffffffffff1681526020018581526020018060200180602001848152602001838103835286818151815260200191508051906020019080838360005b83811015611015578181015183820152602001610ffd565b50505050905090810190601f1680156110425780820380516001836020036101000a031916815260200191505b50838103825285518152855160209182019187019080838360005b8381101561107557818101518382015260200161105d565b50505050905090810190601f1680156110a25780820380516001836020036101000a031916815260200191505b5097505050505050505060405160208183030381529060405280519060200120905060016004600083815260200190815260200160002060006101000a81548160ff0219169083151502179055508673ffffffffffffffffffffffffffffffffffffffff16817f76e2796dc3a81d57b0e8504b647febcbeeb5f4af818e164f11eef8131a6a763f88888888604051808581526020018060200180602001848152602001838103835286818151815260200191508051906020019080838360005b8381101561117a578181015183820152602001611162565b50505050905090810190601f1680156111a75780820380516001836020036101000a031916815260200191505b50838103825285518152855160209182019187019080838360005b838110156111da5781810151838201526020016111c2565b50505050905090810190601f1680156112075780820380516001836020036101000a031916815260200191505b50965050505050505060405180910390a39695505050505050565b60035460ff161561128a57333014611285576040517f08c379a0000000000000000000000000000000000000000000000000000000008152600401808060200182810382526038815260200180611ccc6038913960400191505060405180910390fd5b61132b565b600054610100900473ffffffffffffffffffffffffffffffffffffffff1633146112ff576040517f08c379a000000000000000000000000000000000000000000000000000000000815260040180806020018281038252603b815260200180611be4603b913960400191505060405180910390fd5b600380547fffffffffffffffffffffffffffffffffffffffffffffffffffffffffffffff001660011790555b600180547fffffffffffffffffffffffff00000000000000000000000000000000000000001673ffffffffffffffffffffffffffffffffffffffff83811691909117918290556040519116907f69d78e38a01985fbb1462961809b4b2d65531bc93b2b94037f3334b82ca4a75690600090a250565b600054610100900473ffffffffffffffffffffffffffffffffffffffff163314611415576040517f08c379a0000000000000000000000000000000000000000000000000000000008152600401808060200182810382526037815260200180611ad06037913960400191505060405180910390fd5b60008585858585604051602001808673ffffffffffffffffffffffffffffffffffffffff1681526020018581526020018060200180602001848152602001838103835286818151815260200191508051906020019080838360005b83811015611488578181015183820152602001611470565b50505050905090810190601f1680156114b55780820380516001836020036101000a031916815260200191505b50838103825285518152855160209182019187019080838360005b838110156114e85781810151838201526020016114d0565b50505050905090810190601f1680156115155780820380516001836020036101000a031916815260200191505b5097505050505050505060405160208183030381529060405280519060200120905060006004600083815260200190815260200160002060006101000a81548160ff0219169083151502179055508573ffffffffffffffffffffffffffffffffffffffff16817f2fffc091a501fd91bfbff27141450d3acb40fb8e6d8382b243ec7a812a3aaf8787878787604051808581526020018060200180602001848152602001838103835286818151815260200191508051906020019080838360005b838110156115ed5781810151838201526020016115d5565b50505050905090810190601f16801561161a5780820380516001836020036101000a031916815260200191505b50838103825285518152855160209182019187019080838360005b8381101561164d578181015183820152602001611635565b50505050905090810190601f16801561167a5780820380516001836020036101000a031916815260200191505b50965050505050505060405180910390a3505050505050565b60025481565b60035460ff1681565b62278d0081565b6201518081565b6212750081565b60005460ff1615611713576040517f08c379a0000000000000000000000000000000000000000000000000000000008152600401808060200182810382526031815260200180611b076031913960400191505060405180910390fd5b6201518081101561176f576040517f08c379a0000000000000000000000000000000000000000000000000000000008152600401808060200182810382526034815260200180611bb06034913960400191505060405180910390fd5b62278d008111156117cb576040517f08c379a0000000000000000000000000000000000000000000000000000000008152600401808060200182810382526038815260200180611c1f6038913960400191505060405180910390fd5b60028190556000805460017fffffffffffffffffffffff0000000000000000000000000000000000000000ff90911661010073ffffffffffffffffffffffffffffffffffffffff8681168202929092177fffffffffffffffffffffffffffffffffffffffffffffffffffffffffffffff00169290921780845560405192900416917f71614071b88dee5e0b2ae578a9dd7b2ebbe9ae832ba419dc0242cd065a290b6c91a26002546040517f948b1f6a42ee138b7e34058ba85a37f716d55ff25ff05a763f15bed6a04c8d2c90600090a25050565b3330146118f7576040517f08c379a0000000000000000000000000000000000000000000000000000000008152600401808060200182810382526031815260200180611dc06031913960400191505060405180910390fd5b62015180811015611953576040517f08c379a0000000000000000000000000000000000000000000000000000000008152600401808060200182810382526034815260200180611bb06034913960400191505060405180910390fd5b62278d008111156119af576040517f08c379a0000000000000000000000000000000000000000000000000000000008152600401808060200182810382526038815260200180611c1f6038913960400191505060405180910390fd5b600281905560405181907f948b1f6a42ee138b7e34058ba85a37f716d55ff25ff05a763f15bed6a04c8d2c90600090a250565b60046020526000908152604090205460ff1681565b600054610100900473ffffffffffffffffffffffffffffffffffffffff1681565b4290565b600082820183811015611a9057604080517f08c379a000000000000000000000000000000000000000000000000000000000815260206004820152601b60248201527f536166654d6174683a206164646974696f6e206f766572666c6f770000000000604482015290519081900360640190fd5b939250505056fe54696d656c6f636b3a3a657865637574655472616e73616374696f6e3a2043616c6c206d75737420636f6d652066726f6d2061646d696e2e54696d656c6f636b3a3a63616e63656c5472616e73616374696f6e3a2043616c6c206d75737420636f6d652066726f6d2061646d696e2e54696d656c6f636b3a3a636f6e7374727563746f723a20496e697469616c697a6564206d7573742062652066616c73652e54696d656c6f636b3a3a657865637574655472616e73616374696f6e3a205472616e73616374696f6e206973207374616c652e54696d656c6f636b3a3a657865637574655472616e73616374696f6e3a205472616e73616374696f6e206861736e2774207375727061737365642074696d65206c6f636b2e54696d656c6f636b3a3a73657444656c61793a2044656c6179206d75737420657863656564206d696e696d756d2064656c61792e54696d656c6f636b3a3a73657450656e64696e6741646d696e3a2046697273742063616c6c206d75737420636f6d652066726f6d2061646d696e2e54696d656c6f636b3a3a73657444656c61793a2044656c6179206d757374206e6f7420657863656564206d6178696d756d2064656c61792e54696d656c6f636b3a3a657865637574655472616e73616374696f6e3a205472616e73616374696f6e206861736e2774206265656e207175657565642e54696d656c6f636b3a3a61636365707441646d696e3a2043616c6c206d75737420636f6d652066726f6d2070656e64696e6741646d696e2e54696d656c6f636b3a3a73657450656e64696e6741646d696e3a2043616c6c206d75737420636f6d652066726f6d2054696d656c6f636b2e54696d656c6f636b3a3a71756575655472616e73616374696f6e3a2043616c6c206d75737420636f6d652066726f6d2061646d696e2e54696d656c6f636b3a3a657865637574655472616e73616374696f6e3a205472616e73616374696f6e20657865637574696f6e2072657665727465642e54696d656c6f636b3a3a71756575655472616e73616374696f6e3a20457374696d6174656420657865637574696f6e20626c6f636b206d75737420736174697366792064656c61792e54696d656c6f636b3a3a73657444656c61793a2043616c6c206d75737420636f6d652066726f6d2054696d656c6f636b2ea2646970667358221220cfaf683ead4f258434d45bf5eaf0e2ba0af7a3198155307607476b12e9da68fa64736f6c634300060c0033416464726573733a20696e73756666696369656e742062616c616e636520666f722063616c6c5361666545524332303a204552433230206f7065726174696f6e20646964206e6f742073756363656564a2646970667358221220db771a40806167d1ef4b9ada219de8ad1d99d685d63b0ee846c0f1aea8d86d5964736f6c634300060c0033",
  "devdoc": {
    "kind": "dev",
    "methods": {},
    "version": 1
  },
  "userdoc": {
    "kind": "user",
    "methods": {},
    "version": 1
  },
  "storageLayout": {
    "storage": [
      {
        "astId": 7011,
        "contract": "contracts/stableSwap/StableSwapFactory.sol:StableSwapFactory",
        "label": "feeTo",
        "offset": 0,
        "slot": "0",
        "type": "t_address"
      },
      {
        "astId": 7014,
        "contract": "contracts/stableSwap/StableSwapFactory.sol:StableSwapFactory",
        "label": "feeToSetter",
        "offset": 0,
        "slot": "1",
        "type": "t_address"
      },
      {
        "astId": 7016,
        "contract": "contracts/stableSwap/StableSwapFactory.sol:StableSwapFactory",
        "label": "feeToken",
        "offset": 0,
        "slot": "2",
        "type": "t_address"
      },
      {
        "astId": 7018,
        "contract": "contracts/stableSwap/StableSwapFactory.sol:StableSwapFactory",
        "label": "feeAmount",
        "offset": 0,
        "slot": "3",
        "type": "t_uint256"
      },
      {
        "astId": 7022,
        "contract": "contracts/stableSwap/StableSwapFactory.sol:StableSwapFactory",
        "label": "allPools",
        "offset": 0,
        "slot": "4",
        "type": "t_array(t_address)dyn_storage"
      },
      {
        "astId": 7026,
        "contract": "contracts/stableSwap/StableSwapFactory.sol:StableSwapFactory",
        "label": "_pools",
        "offset": 0,
        "slot": "5",
        "type": "t_mapping(t_address,t_bool)"
      },
      {
        "astId": 7030,
        "contract": "contracts/stableSwap/StableSwapFactory.sol:StableSwapFactory",
        "label": "_timelocks",
        "offset": 0,
        "slot": "6",
        "type": "t_mapping(t_address,t_bool)"
      },
      {
        "astId": 7032,
        "contract": "contracts/stableSwap/StableSwapFactory.sol:StableSwapFactory",
        "label": "swapCreator",
        "offset": 0,
        "slot": "7",
        "type": "t_contract(ISwapCreator)6073"
      },
      {
        "astId": 7035,
        "contract": "contracts/stableSwap/StableSwapFactory.sol:StableSwapFactory",
        "label": "_initialized",
        "offset": 20,
        "slot": "7",
        "type": "t_bool"
      }
    ],
    "types": {
      "t_address": {
        "encoding": "inplace",
        "label": "address",
        "numberOfBytes": "20"
      },
      "t_array(t_address)dyn_storage": {
        "base": "t_address",
        "encoding": "dynamic_array",
        "label": "address[]",
        "numberOfBytes": "32"
      },
      "t_bool": {
        "encoding": "inplace",
        "label": "bool",
        "numberOfBytes": "1"
      },
      "t_contract(ISwapCreator)6073": {
        "encoding": "inplace",
        "label": "contract ISwapCreator",
        "numberOfBytes": "20"
      },
      "t_mapping(t_address,t_bool)": {
        "encoding": "mapping",
        "key": "t_address",
        "label": "mapping(address => bool)",
        "numberOfBytes": "32",
        "value": "t_bool"
      },
      "t_uint256": {
        "encoding": "inplace",
        "label": "uint256",
        "numberOfBytes": "32"
      }
    }
  }
}