{
  "address": "0x171eFC0e8a5C1C8B2D458E098Ee6f0746Fc547fC",
  "abi": [
    {
      "anonymous": false,
      "inputs": [
        {
          "indexed": true,
          "internalType": "address",
          "name": "provider",
          "type": "address"
        },
        {
          "indexed": false,
          "internalType": "uint256[]",
          "name": "tokenAmounts",
          "type": "uint256[]"
        },
        {
          "indexed": false,
          "internalType": "uint256[]",
          "name": "fees",
          "type": "uint256[]"
        },
        {
          "indexed": false,
          "internalType": "uint256",
          "name": "invariant",
          "type": "uint256"
        },
        {
          "indexed": false,
          "internalType": "uint256",
          "name": "lpTokenSupply",
          "type": "uint256"
        }
      ],
      "name": "AddLiquidity",
      "type": "event"
    },
    {
      "anonymous": false,
      "inputs": [
        {
          "indexed": false,
          "internalType": "address",
          "name": "token",
          "type": "address"
        },
        {
          "indexed": false,
          "internalType": "uint256",
          "name": "amount",
          "type": "uint256"
        }
      ],
      "name": "CollectProtocolFee",
      "type": "event"
    },
    {
      "anonymous": false,
      "inputs": [
        {
          "indexed": false,
          "internalType": "uint256",
          "name": "newAdminFee",
          "type": "uint256"
        }
      ],
      "name": "NewAdminFee",
      "type": "event"
    },
    {
      "anonymous": false,
      "inputs": [
        {
          "indexed": false,
          "internalType": "uint256",
          "name": "newSwapFee",
          "type": "uint256"
        }
      ],
      "name": "NewSwapFee",
      "type": "event"
    },
    {
      "anonymous": false,
      "inputs": [
        {
          "indexed": false,
          "internalType": "uint256",
          "name": "newWithdrawFee",
          "type": "uint256"
        }
      ],
      "name": "NewWithdrawFee",
      "type": "event"
    },
    {
      "anonymous": false,
      "inputs": [
        {
          "indexed": false,
          "internalType": "uint256",
          "name": "oldA",
          "type": "uint256"
        },
        {
          "indexed": false,
          "internalType": "uint256",
          "name": "newA",
          "type": "uint256"
        },
        {
          "indexed": false,
          "internalType": "uint256",
          "name": "initialTime",
          "type": "uint256"
        },
        {
          "indexed": false,
          "internalType": "uint256",
          "name": "futureTime",
          "type": "uint256"
        }
      ],
      "name": "RampA",
      "type": "event"
    },
    {
      "anonymous": false,
      "inputs": [
        {
          "indexed": true,
          "internalType": "address",
          "name": "provider",
          "type": "address"
        },
        {
          "indexed": false,
          "internalType": "uint256[]",
          "name": "tokenAmounts",
          "type": "uint256[]"
        },
        {
          "indexed": false,
          "internalType": "uint256",
          "name": "lpTokenSupply",
          "type": "uint256"
        }
      ],
      "name": "RemoveLiquidity",
      "type": "event"
    },
    {
      "anonymous": false,
      "inputs": [
        {
          "indexed": true,
          "internalType": "address",
          "name": "provider",
          "type": "address"
        },
        {
          "indexed": false,
          "internalType": "uint256[]",
          "name": "tokenAmounts",
          "type": "uint256[]"
        },
        {
          "indexed": false,
          "internalType": "uint256[]",
          "name": "fees",
          "type": "uint256[]"
        },
        {
          "indexed": false,
          "internalType": "uint256",
          "name": "invariant",
          "type": "uint256"
        },
        {
          "indexed": false,
          "internalType": "uint256",
          "name": "lpTokenSupply",
          "type": "uint256"
        }
      ],
      "name": "RemoveLiquidityImbalance",
      "type": "event"
    },
    {
      "anonymous": false,
      "inputs": [
        {
          "indexed": true,
          "internalType": "address",
          "name": "provider",
          "type": "address"
        },
        {
          "indexed": false,
          "internalType": "uint256",
          "name": "lpTokenAmount",
          "type": "uint256"
        },
        {
          "indexed": false,
          "internalType": "uint256",
          "name": "lpTokenSupply",
          "type": "uint256"
        },
        {
          "indexed": false,
          "internalType": "uint256",
          "name": "boughtId",
          "type": "uint256"
        },
        {
          "indexed": false,
          "internalType": "uint256",
          "name": "tokensBought",
          "type": "uint256"
        }
      ],
      "name": "RemoveLiquidityOne",
      "type": "event"
    },
    {
      "anonymous": false,
      "inputs": [
        {
          "indexed": false,
          "internalType": "uint256",
          "name": "currentA",
          "type": "uint256"
        },
        {
          "indexed": false,
          "internalType": "uint256",
          "name": "time",
          "type": "uint256"
        }
      ],
      "name": "StopRampA",
      "type": "event"
    },
    {
      "anonymous": false,
      "inputs": [
        {
          "indexed": true,
          "internalType": "address",
          "name": "buyer",
          "type": "address"
        },
        {
          "indexed": false,
          "internalType": "uint256",
          "name": "tokensSold",
          "type": "uint256"
        },
        {
          "indexed": false,
          "internalType": "uint256",
          "name": "tokensBought",
          "type": "uint256"
        },
        {
          "indexed": false,
          "internalType": "uint128",
          "name": "soldId",
          "type": "uint128"
        },
        {
          "indexed": false,
          "internalType": "uint128",
          "name": "boughtId",
          "type": "uint128"
        }
      ],
      "name": "TokenSwap",
      "type": "event"
    },
    {
      "inputs": [],
      "name": "A_PRECISION",
      "outputs": [
        {
          "internalType": "uint256",
          "name": "",
          "type": "uint256"
        }
      ],
      "stateMutability": "view",
      "type": "function"
    },
    {
      "inputs": [],
      "name": "MAX_A",
      "outputs": [
        {
          "internalType": "uint256",
          "name": "",
          "type": "uint256"
        }
      ],
      "stateMutability": "view",
      "type": "function"
    },
    {
      "inputs": [],
      "name": "MAX_ADMIN_FEE",
      "outputs": [
        {
          "internalType": "uint256",
          "name": "",
          "type": "uint256"
        }
      ],
      "stateMutability": "view",
      "type": "function"
    },
    {
      "inputs": [],
      "name": "MAX_SWAP_FEE",
      "outputs": [
        {
          "internalType": "uint256",
          "name": "",
          "type": "uint256"
        }
      ],
      "stateMutability": "view",
      "type": "function"
    },
    {
      "inputs": [],
      "name": "MAX_WITHDRAW_FEE",
      "outputs": [
        {
          "internalType": "uint256",
          "name": "",
          "type": "uint256"
        }
      ],
      "stateMutability": "view",
      "type": "function"
    },
    {
      "inputs": [],
      "name": "POOL_PRECISION_DECIMALS",
      "outputs": [
        {
          "internalType": "uint8",
          "name": "",
          "type": "uint8"
        }
      ],
      "stateMutability": "view",
      "type": "function"
    }
  ],
  "transactionHash": "0x005511cd346bb57d1d725be8f33035e1b0933e798a3e14d95183e41c1ef392f9",
  "args": [],
  "solcInputHash": "de4b5c98aaefeaf0642d1549f17f4799",
  "bytecode": "0x615231610026600b82828239805160001a60731461001957fe5b30600052607381538281f3fe73000000000000000000000000000000000000000030146080604052600436106101ce5760003560e01c8063968e559411610103578063e4a9a0da116100a1578063e9252d461161007b578063e9252d4614610813578063f14e211e1461085f578063f3de036214610889578063f967a81f14610891576101ce565b8063e4a9a0da1461073a578063e7a4db811461079b578063e8c47a54146107da576101ce565b8063b0a14cfc116100dd578063b0a14cfc146106f8578063c9b64dcb14610715578063d011f91814610732578063d4b0de2f146106f0576101ce565b8063968e55941461066e578063a5397b22146106a7578063ab3d8544146106f0576101ce565b806358fdd79b1161017057806371906c2c1161014a57806371906c2c1461052557806373fd6b3e146105425780637d0481601461061b5780638ab7697e1461063e576101ce565b806358fdd79b1461042b5780635e58579c1461046157806370467276146104f5576101ce565b806340370edf116101ac57806340370edf1461025357806341b91c261461030c578063467e186c146103c55780634b23603c146103f5576101ce565b80630296ab50146101d357806324c5c751146101f15780633969841514610239575b600080fd5b6101db6108d0565b6040805160ff9092168252519081900360200190f35b8180156101fd57600080fd5b506102376004803603604081101561021457600080fd5b508035906020013573ffffffffffffffffffffffffffffffffffffffff166108d5565b005b610241610a5c565b60408051918252519081900360200190f35b81801561025f57600080fd5b506102416004803603606081101561027657600080fd5b8135919081019060408101602082013564010000000081111561029857600080fd5b8201836020820111156102aa57600080fd5b803590602001918460208302840111640100000000831117156102cc57600080fd5b9190808060200260200160405190810160405280939291908181526020018383602002808284376000920191909152509295505091359250610a63915050565b81801561031857600080fd5b506102416004803603606081101561032f57600080fd5b8135919081019060408101602082013564010000000081111561035157600080fd5b82018360208201111561036357600080fd5b8035906020019184602083028401116401000000008311171561038557600080fd5b919080806020026020016040519081016040528093929190818152602001838360200280828437600092019190915250929550509135925061162d915050565b8180156103d157600080fd5b50610237600480360360408110156103e857600080fd5b5080359060200135611eb0565b6102416004803603608081101561040b57600080fd5b5080359060ff602082013581169160408101359091169060600135611f61565b81801561043757600080fd5b506102376004803603606081101561044e57600080fd5b5080359060208101359060400135611f79565b6102416004803603608081101561047757600080fd5b81359173ffffffffffffffffffffffffffffffffffffffff602082013516918101906060810160408201356401000000008111156104b457600080fd5b8201836020820111156104c657600080fd5b803590602001918460208302840111640100000000831117156104e857600080fd5b9193509150351515612273565b81801561050157600080fd5b506102376004803603604081101561051857600080fd5b5080359060200135612510565b6102416004803603602081101561053b57600080fd5b50356125c2565b81801561054e57600080fd5b506105cb6004803603606081101561056557600080fd5b81359160208101359181019060608101604082013564010000000081111561058c57600080fd5b82018360208201111561059e57600080fd5b803590602001918460208302840111640100000000831117156105c057600080fd5b509092509050612740565b60408051602080825283518183015283519192839290830191858101910280838360005b838110156106075781810151838201526020016105ef565b505050509050019250505060405180910390f35b6102416004803603604081101561063157600080fd5b5080359060200135612b9a565b81801561064a57600080fd5b506102376004803603604081101561066157600080fd5b5080359060200135612c44565b6102416004803603604081101561068457600080fd5b508035906020013573ffffffffffffffffffffffffffffffffffffffff16612cf5565b8180156106b357600080fd5b50610241600480360360a08110156106ca57600080fd5b5080359060ff602082013581169160408101359091169060608101359060800135612dc3565b6102416131c1565b6102416004803603602081101561070e57600080fd5b50356131c9565b6102416004803603602081101561072b57600080fd5b50356131d4565b6102416131df565b6107826004803603608081101561075057600080fd5b50803590602081013573ffffffffffffffffffffffffffffffffffffffff16906040810135906060013560ff166131e4565b6040805192835260208301919091528051918290030190f35b8180156107a757600080fd5b50610241600480360360808110156107be57600080fd5b5080359060208101359060ff604082013516906060013561326e565b610241600480360360408110156107f057600080fd5b508035906020013573ffffffffffffffffffffffffffffffffffffffff16613665565b81801561081f57600080fd5b506102376004803603606081101561083657600080fd5b5080359073ffffffffffffffffffffffffffffffffffffffff6020820135169060400135613691565b81801561086b57600080fd5b506102376004803603602081101561088257600080fd5b503561369c565b610241613773565b6105cb600480360360608110156108a757600080fd5b5080359073ffffffffffffffffffffffffffffffffffffffff602082013516906040013561377c565b601281565b60005b6008830154811015610a575760008360080182815481106108f557fe5b6000918252602082200154600a8601805473ffffffffffffffffffffffffffffffffffffffff90921693506109d2918590811061092e57fe5b90600052602060002001548373ffffffffffffffffffffffffffffffffffffffff166370a08231306040518263ffffffff1660e01b8152600401808273ffffffffffffffffffffffffffffffffffffffff16815260200191505060206040518083038186803b1580156109a057600080fd5b505afa1580156109b4573d6000803e3d6000fd5b505050506040513d60208110156109ca57600080fd5b505190613789565b90508015610a4d576109fb73ffffffffffffffffffffffffffffffffffffffff83168583613800565b6040805173ffffffffffffffffffffffffffffffffffffffff841681526020810183905281517fee3859efa95e525bc2bcb149b51b60a8bb4e89c647392d9d4112e03c3e73bdd6929181900390910190a15b50506001016108d8565b505050565b620f424081565b6008830154825160009114610ad957604080517f08c379a000000000000000000000000000000000000000000000000000000000815260206004820181905260248201527f416d6f756e7473206d757374206d6174636820706f6f6c656420746f6b656e73604482015290519081900360640190fd5b600884015460609067ffffffffffffffff81118015610af757600080fd5b50604051908082528060200260200182016040528015610b21578160200160208202803683370190505b509050610b2c6150d6565b5060408051608081018252600080825260208083018290528284018290526060830191909152600788015483517f18160ddd0000000000000000000000000000000000000000000000000000000081529351929373ffffffffffffffffffffffffffffffffffffffff9091169283926318160ddd9260048082019391829003018186803b158015610bbc57600080fd5b505afa158015610bd0573d6000803e3d6000fd5b505050506040513d6020811015610be657600080fd5b505115610bf957610bf68761388d565b82525b606087600a01805480602002602001604051908101604052809291908181526020018280548015610c4957602002820191906000526020600020905b815481526020019060010190808311610c35575b5050505050905060005b6008890154811015610f83578273ffffffffffffffffffffffffffffffffffffffff166318160ddd6040518163ffffffff1660e01b815260040160206040518083038186803b158015610ca557600080fd5b505afa158015610cb9573d6000803e3d6000fd5b505050506040513d6020811015610ccf57600080fd5b5051151580610cf157506000888281518110610ce757fe5b6020026020010151115b610d5c57604080517f08c379a000000000000000000000000000000000000000000000000000000000815260206004820152601e60248201527f4d75737420737570706c7920616c6c20746f6b656e7320696e20706f6f6c0000604482015290519081900360640190fd5b878181518110610d6857fe5b6020026020010151600014610f25576000896008018281548110610d8857fe5b60009182526020918290200154604080517f70a08231000000000000000000000000000000000000000000000000000000008152306004820152905173ffffffffffffffffffffffffffffffffffffffff909216926370a0823192602480840193829003018186803b158015610dfd57600080fd5b505afa158015610e11573d6000803e3d6000fd5b505050506040513d6020811015610e2757600080fd5b50518951909150610e8390339030908c9086908110610e4257fe5b60200260200101518d6008018681548110610e5957fe5b60009182526020909120015473ffffffffffffffffffffffffffffffffffffffff169291906138a4565b610f0b818b6008018481548110610e9657fe5b60009182526020918290200154604080517f70a08231000000000000000000000000000000000000000000000000000000008152306004820152905173ffffffffffffffffffffffffffffffffffffffff909216926370a0823192602480840193829003018186803b1580156109a057600080fd5b898381518110610f1757fe5b602002602001018181525050505b610f64888281518110610f3457fe5b60200260200101518a600a018381548110610f4b57fe5b906000526020600020015461393f90919063ffffffff16565b828281518110610f7057fe5b6020908102919091010152600101610c53565b50610f8d886139b3565b6060840152610fa9610f9f8983613a48565b8460600151613aa6565b6020840181905283511061101e57604080517f08c379a000000000000000000000000000000000000000000000000000000000815260206004820152601160248201527f442073686f756c6420696e637265617365000000000000000000000000000000604482015290519081900360640190fd5b82602001518360400181815250508173ffffffffffffffffffffffffffffffffffffffff166318160ddd6040518163ffffffff1660e01b815260040160206040518083038186803b15801561107257600080fd5b505afa158015611086573d6000803e3d6000fd5b505050506040513d602081101561109c57600080fd5b50511561129f5760006110ae89613ca7565b905060005b60088a015481101561127c5760006110ff86600001516110f98d600a0185815481106110db57fe5b90600052602060002001548960200151613cd490919063ffffffff16565b90613d47565b90506111ac6402540be4006110f98373217C0546083Da133F736478417CAaf2813831c3963a95cb7f7909189888151811061113657fe5b60200260200101516040518363ffffffff1660e01b8152600401808381526020018281526020019250505060206040518083038186803b15801561117957600080fd5b505af415801561118d573d6000803e3d6000fd5b505050506040513d60208110156111a357600080fd5b50518690613cd4565b8783815181106111b857fe5b60200260200101818152505061121c6111fa6402540be4006110f98e600501548b87815181106111e457fe5b6020026020010151613cd490919063ffffffff16565b85848151811061120657fe5b602002602001015161378990919063ffffffff16565b8b600a01838154811061122b57fe5b906000526020600020018190555061125c87838151811061124857fe5b602002602001015185848151811061120657fe5b84838151811061126857fe5b6020908102919091010152506001016110b3565b5061129461128a8a84613a48565b8560600151613aa6565b6040850152506112b6565b80516112b490600a8a019060208401906150fe565b505b60008273ffffffffffffffffffffffffffffffffffffffff166318160ddd6040518163ffffffff1660e01b815260040160206040518083038186803b1580156112fe57600080fd5b505afa158015611312573d6000803e3d6000fd5b505050506040513d602081101561132857600080fd5b5051611339575060208301516113cf565b6113cc84600001516110f98573ffffffffffffffffffffffffffffffffffffffff166318160ddd6040518163ffffffff1660e01b815260040160206040518083038186803b15801561138a57600080fd5b505afa15801561139e573d6000803e3d6000fd5b505050506040513d60208110156113b457600080fd5b5051875160408901516113c691613789565b90613cd4565b90505b8681101561143e57604080517f08c379a000000000000000000000000000000000000000000000000000000000815260206004820152601b60248201527f436f756c646e2774206d696e74206d696e207265717565737465640000000000604482015290519081900360640190fd5b604080517f40c10f1900000000000000000000000000000000000000000000000000000000815233600482015260248101839052905173ffffffffffffffffffffffffffffffffffffffff8516916340c10f1991604480830192600092919082900301818387803b1580156114b257600080fd5b505af11580156114c6573d6000803e3d6000fd5b505050503373ffffffffffffffffffffffffffffffffffffffff167f189c623b666b1b45b83d7178f39b8c087cb09774317ca2f53c2d3c3726f222a2898787602001518773ffffffffffffffffffffffffffffffffffffffff166318160ddd6040518163ffffffff1660e01b815260040160206040518083038186803b15801561154f57600080fd5b505afa158015611563573d6000803e3d6000fd5b505050506040513d602081101561157957600080fd5b5051604080519081018390526060810182905260808082528551908201528451819060208281019160a0840191898101910280838360005b838110156115c95781810151838201526020016115b1565b50505050905001838103825286818151815260200191508051906020019060200280838360005b838110156116085781810151838201526020016115f0565b50505050905001965050505050505060405180910390a29450505050505b9392505050565b60088301548251600091146116a357604080517f08c379a000000000000000000000000000000000000000000000000000000000815260206004820181905260248201527f416d6f756e74732073686f756c64206d6174636820706f6f6c20746f6b656e73604482015290519081900360640190fd5b6007840154604080517f70a08231000000000000000000000000000000000000000000000000000000008152336004820152905173ffffffffffffffffffffffffffffffffffffffff909216916370a0823191602480820192602092909190829003018186803b15801561171657600080fd5b505afa15801561172a573d6000803e3d6000fd5b505050506040513d602081101561174057600080fd5b5051821180159061175057508115155b6117bb57604080517f08c379a000000000000000000000000000000000000000000000000000000000815260206004820152600d60248201527f3e4c502e62616c616e63654f6600000000000000000000000000000000000000604482015290519081900360640190fd5b6117c36150d6565b60405180608001604052806000815260200160008152602001600081526020016000815250905060008560070160009054906101000a900473ffffffffffffffffffffffffffffffffffffffff1673ffffffffffffffffffffffffffffffffffffffff166318160ddd6040518163ffffffff1660e01b815260040160206040518083038186803b15801561185657600080fd5b505afa15801561186a573d6000803e3d6000fd5b505050506040513d602081101561188057600080fd5b50519050600061188f87613ca7565b9050606087600a018054806020026020016040519081016040528092919081815260200182805480156118e157602002820191906000526020600020905b8154815260200190600101908083116118cd575b505050505090506118f1886139b3565b606085015261190261128a89613dc8565b845260005b60088901548110156119855761196688828151811061192257fe5b60200260200101516040518060600160405280602381526020016151d96023913984848151811061194f57fe5b6020026020010151613e769092919063ffffffff16565b82828151811061197257fe5b6020908102919091010152600101611907565b5061199361128a8983613a48565b6020850152600888015460609067ffffffffffffffff811180156119b657600080fd5b506040519080825280602002602001820160405280156119e0578160200160208202803683370190505b50905060005b60088a0154811015611b82576000611a2c87600001516110f98d600a018581548110611a0e57fe5b90600052602060002001548a60200151613cd490919063ffffffff16565b905060008173217C0546083Da133F736478417CAaf2813831c3963a95cb7f79091878681518110611a5957fe5b60200260200101516040518363ffffffff1660e01b8152600401808381526020018281526020019250505060206040518083038186803b158015611a9c57600080fd5b505af4158015611ab0573d6000803e3d6000fd5b505050506040513d6020811015611ac657600080fd5b50519050611add6402540be4006110f98884613cd4565b848481518110611ae957fe5b602002602001018181525050611b21611b156402540be4006110f98f600501548888815181106111e457fe5b86858151811061120657fe5b8c600a018481548110611b3057fe5b9060005260206000200181905550611b61848481518110611b4d57fe5b602002602001015186858151811061120657fe5b858481518110611b6d57fe5b602090810291909101015250506001016119e6565b50611b9a611b908a84613a48565b8660600151613aa6565b604086018190528551600091611bbc91906110f99088906113c6908490613789565b905080611c2a57604080517f08c379a000000000000000000000000000000000000000000000000000000000815260206004820152601b60248201527f4275726e7420616d6f756e742063616e6e6f74206265207a65726f0000000000604482015290519081900360640190fd5b611c5a611c46611c3a8c33612cf5565b6402540be40090613789565b6110f96402540be4006113c685600161393f565b905087811115611ccb57604080517f08c379a000000000000000000000000000000000000000000000000000000000815260206004820152601b60248201527f746f6b656e416d6f756e74203e206d61784275726e416d6f756e740000000000604482015290519081900360640190fd5b60078a0154604080517f79cc679000000000000000000000000000000000000000000000000000000000815233600482015260248101849052905173ffffffffffffffffffffffffffffffffffffffff909216916379cc67909160448082019260009290919082900301818387803b158015611d4657600080fd5b505af1158015611d5a573d6000803e3d6000fd5b5050505060005b60088b0154811015611dc557611dbd338b8381518110611d7d57fe5b60200260200101518d6008018481548110611d9457fe5b60009182526020909120015473ffffffffffffffffffffffffffffffffffffffff169190613800565b600101611d61565b50602086015133907f3631c28b1f9dd213e0319fb167b554d76b6c283a41143eb400a0d1adb1af1755908b908590611dfd8a87613789565b604051808060200180602001858152602001848152602001838103835287818151815260200191508051906020019060200280838360005b83811015611e4d578181015183820152602001611e35565b50505050905001838103825286818151815260200191508051906020019060200280838360005b83811015611e8c578181015183820152602001611e74565b50505050905001965050505050505060405180910390a29998505050505050505050565b6305f5e100811115611f2357604080517f08c379a000000000000000000000000000000000000000000000000000000000815260206004820152600f60248201527f46656520697320746f6f20686967680000000000000000000000000000000000604482015290519081900360640190fd5b600482018190556040805182815290517fd88ea5155021c6f8dafa1a741e173f595cdf77ce7c17d43342131d7f06afdfe59181900360200190a15050565b6000611f6f85858585613f27565b5095945050505050565b6002830154611f8b906201518061393f565b421015611ff957604080517f08c379a000000000000000000000000000000000000000000000000000000000815260206004820152601f60248201527f57616974203120646179206265666f7265207374617274696e672072616d7000604482015290519081900360640190fd5b612006426212750061393f565b81101561207457604080517f08c379a000000000000000000000000000000000000000000000000000000000815260206004820152601660248201527f496e73756666696369656e742072616d702074696d6500000000000000000000604482015290519081900360640190fd5b6000821180156120865750620f424082105b6120f157604080517f08c379a000000000000000000000000000000000000000000000000000000000815260206004820181905260248201527f667574757265415f206d757374206265203e203020616e64203c204d41585f41604482015290519081900360640190fd5b60006120fc846139b3565b9050600061210b846064613cd4565b9050818110156121935781612121826002613cd4565b101561218e57604080517f08c379a000000000000000000000000000000000000000000000000000000000815260206004820152601560248201527f667574757265415f20697320746f6f20736d616c6c0000000000000000000000604482015290519081900360640190fd5b61220c565b61219e826002613cd4565b81111561220c57604080517f08c379a000000000000000000000000000000000000000000000000000000000815260206004820152601560248201527f667574757265415f20697320746f6f206c617267650000000000000000000000604482015290519081900360640190fd5b8185556001850181905542600286018190556003860184905560408051848152602081018490528082019290925260608201859052517fa2b71ec6df949300b59aab36b55e189697b750119dd349fcfa8c0f779e83c2549181900360800190a15050505050565b600885015460009081612285886139b3565b905060006122ee6122e88a8b600a018054806020026020016040519081016040528092919081815260200182805480156122de57602002820191906000526020600020905b8154815260200190600101908083116122ca575b5050505050613a48565b83613aa6565b9050606089600a0180548060200260200160405190810160405280929190818152602001828054801561234057602002820191906000526020600020905b81548152602001906001019080831161232c575b5050505050905060005b848110156124095786156123ad5761239089898381811061236757fe5b9050602002013583838151811061237a57fe5b602002602001015161393f90919063ffffffff16565b82828151811061239c57fe5b602002602001018181525050612401565b6123e88989838181106123bc57fe5b905060200201356040518060600160405280602381526020016151d96023913984848151811061194f57fe5b8282815181106123f457fe5b6020026020010181815250505b60010161234a565b50600061241f6124198c84613a48565b85613aa6565b905060008b60070160009054906101000a900473ffffffffffffffffffffffffffffffffffffffff1673ffffffffffffffffffffffffffffffffffffffff166318160ddd6040518163ffffffff1660e01b815260040160206040518083038186803b15801561248d57600080fd5b505afa1580156124a1573d6000803e3d6000fd5b505050506040513d60208110156124b757600080fd5b5051905087156124e0576124d3846110f9836113c68684613789565b9650505050505050612507565b6124d36124f0611c3a8e8e612cf5565b6110f96402540be4006113c688838783838b613789565b95945050505050565b6402540be40081111561258457604080517f08c379a000000000000000000000000000000000000000000000000000000000815260206004820152600f60248201527f46656520697320746f6f20686967680000000000000000000000000000000000604482015290519081900360640190fd5b600582018190556040805182815290517fab599d640ca80cde2b09b128a4154a8dfe608cb80f4c9399c8b954b01fd35f389181900360200190a15050565b6000806125df6125d184613dc8565b6125da856139b3565b613aa6565b905060008360070160009054906101000a900473ffffffffffffffffffffffffffffffffffffffff1673ffffffffffffffffffffffffffffffffffffffff166318160ddd6040518163ffffffff1660e01b815260040160206040518083038186803b15801561264d57600080fd5b505afa158015612661573d6000803e3d6000fd5b505050506040513d602081101561267757600080fd5b5051905080156127345761272b816110f98660070160009054906101000a900473ffffffffffffffffffffffffffffffffffffffff1673ffffffffffffffffffffffffffffffffffffffff1663313ce5676040518163ffffffff1660e01b815260040160206040518083038186803b1580156126f257600080fd5b505afa158015612706573d6000803e3d6000fd5b505050506040513d602081101561271c57600080fd5b5051859060ff16600a0a613cd4565b9250505061273b565b6000925050505b919050565b6007840154604080517f70a08231000000000000000000000000000000000000000000000000000000008152336004820152905160609273ffffffffffffffffffffffffffffffffffffffff169182916370a0823191602480820192602092909190829003018186803b1580156127b657600080fd5b505afa1580156127ca573d6000803e3d6000fd5b505050506040513d60208110156127e057600080fd5b505185111561285057604080517f08c379a000000000000000000000000000000000000000000000000000000000815260206004820152600d60248201527f3e4c502e62616c616e63654f6600000000000000000000000000000000000000604482015290519081900360640190fd5b600886015483146128c257604080517f08c379a000000000000000000000000000000000000000000000000000000000815260206004820181905260248201527f6d696e416d6f756e7473206d757374206d6174636820706f6f6c546f6b656e73604482015290519081900360640190fd5b60606128cf87338861408b565b905060005b81518110156129fc578585828181106128e957fe5b905060200201358282815181106128fc57fe5b6020026020010151101561297157604080517f08c379a000000000000000000000000000000000000000000000000000000000815260206004820152601a60248201527f616d6f756e74735b695d203c206d696e416d6f756e74735b695d000000000000604482015290519081900360640190fd5b6129b082828151811061298057fe5b602002602001015189600a01838154811061299757fe5b906000526020600020015461378990919063ffffffff16565b88600a0182815481106129bf57fe5b90600052602060002001819055506129f4338383815181106129dd57fe5b60200260200101518a6008018481548110611d9457fe5b6001016128d4565b50604080517f79cc679000000000000000000000000000000000000000000000000000000000815233600482015260248101889052905173ffffffffffffffffffffffffffffffffffffffff8416916379cc679091604480830192600092919082900301818387803b158015612a7157600080fd5b505af1158015612a85573d6000803e3d6000fd5b505050503373ffffffffffffffffffffffffffffffffffffffff167f88d38ed598fdd809c2bf01ee49cd24b7fdabf379a83d29567952b60324d58cef828473ffffffffffffffffffffffffffffffffffffffff166318160ddd6040518163ffffffff1660e01b815260040160206040518083038186803b158015612b0857600080fd5b505afa158015612b1c573d6000803e3d6000fd5b505050506040513d6020811015612b3257600080fd5b50516040805160208181018490528282528451928201929092528351909182916060830191868101910280838360005b83811015612b7a578181015183820152602001612b62565b50505050905001935050505060405180910390a29150505b949350505050565b60088201546000908210612c0f57604080517f08c379a000000000000000000000000000000000000000000000000000000000815260206004820152601860248201527f546f6b656e20696e646578206f7574206f662072616e67650000000000000000604482015290519081900360640190fd5b612c3b83600a018381548110612c2157fe5b9060005260206000200154846008018481548110610e9657fe5b90505b92915050565b6305f5e100811115612cb757604080517f08c379a000000000000000000000000000000000000000000000000000000000815260206004820152600f60248201527f46656520697320746f6f20686967680000000000000000000000000000000000604482015290519081900360640190fd5b600682018190556040805182815290517fd5fe46099fa396290a7f57e36c3c3c8774e2562c18ed5d1dcc0fa75071e03f1d9181900360200190a15050565b73ffffffffffffffffffffffffffffffffffffffff81166000908152600b830160205260408120548190612d2c906224ea0061393f565b905042811115612db9576000612d428242613789565b9050612db06402540be4006110f96224ea006110f9856113c68b600c0160008c73ffffffffffffffffffffffffffffffffffffffff1673ffffffffffffffffffffffffffffffffffffffff168152602001908152602001600020548c60060154613cd490919063ffffffff16565b92505050612c3e565b5060009392505050565b600080866008018660ff1681548110612dd857fe5b60009182526020918290200154604080517f70a08231000000000000000000000000000000000000000000000000000000008152336004820152905173ffffffffffffffffffffffffffffffffffffffff909216935083926370a0823192602480840193829003018186803b158015612e5057600080fd5b505afa158015612e64573d6000803e3d6000fd5b505050506040513d6020811015612e7a57600080fd5b5051841115612eea57604080517f08c379a000000000000000000000000000000000000000000000000000000000815260206004820152601d60248201527f43616e6e6f742073776170206d6f7265207468616e20796f75206f776e000000604482015290519081900360640190fd5b6000808273ffffffffffffffffffffffffffffffffffffffff166370a08231306040518263ffffffff1660e01b8152600401808273ffffffffffffffffffffffffffffffffffffffff16815260200191505060206040518083038186803b158015612f5457600080fd5b505afa158015612f68573d6000803e3d6000fd5b505050506040513d6020811015612f7e57600080fd5b50519050612fa473ffffffffffffffffffffffffffffffffffffffff84163330896138a4565b61300f818473ffffffffffffffffffffffffffffffffffffffff166370a08231306040518263ffffffff1660e01b8152600401808273ffffffffffffffffffffffffffffffffffffffff16815260200191505060206040518083038186803b1580156109a057600080fd5b9150506000806130218a8a8a86613f27565b915091508582101561309457604080517f08c379a000000000000000000000000000000000000000000000000000000000815260206004820181905260248201527f53776170206469646e277420726573756c7420696e206d696e20746f6b656e73604482015290519081900360640190fd5b60006130d68b6009018a60ff16815481106130ab57fe5b90600052602060002001546110f96402540be4006110f98f6005015487613cd490919063ffffffff16565b90506130ee848c600a018c60ff1681548110610f4b57fe5b8b600a018b60ff168154811061310057fe5b906000526020600020018190555061312e81613128858e600a018d60ff168154811061299757fe5b90613789565b8b600a018a60ff168154811061314057fe5b906000526020600020018190555061316533848d6008018c60ff1681548110611d9457fe5b604080518581526020810185905260ff808d16828401528b166060820152905133917fc6c1e0630dbe9130cc068028486c0d118ddcea348550819defd5cb8c257f8a38919081900360800190a250909998505050505050505050565b6305f5e10081565b6000612c3e8261426f565b6000612c3e826139b3565b606481565b6000806000806131f588868861427f565b8092508193505050600061323e836131288b6009018960ff168154811061321857fe5b90600052602060002001546110f9866132308f613dc8565b8c60ff168151811061120657fe5b90506132606402540be4006110f9613259611c3a8d8d612cf5565b8690613cd4565b999098509650505050505050565b6007840154604080517f18160ddd000000000000000000000000000000000000000000000000000000008152905160009273ffffffffffffffffffffffffffffffffffffffff1691839183916318160ddd916004808301926020929190829003018186803b1580156132df57600080fd5b505afa1580156132f3573d6000803e3d6000fd5b505050506040513d602081101561330957600080fd5b50516008880154604080517f70a082310000000000000000000000000000000000000000000000000000000081523360048201529051929350909173ffffffffffffffffffffffffffffffffffffffff8516916370a08231916024808301926020929190829003018186803b15801561338157600080fd5b505afa158015613395573d6000803e3d6000fd5b505050506040513d60208110156133ab57600080fd5b505187111561341b57604080517f08c379a000000000000000000000000000000000000000000000000000000000815260206004820152600d60248201527f3e4c502e62616c616e63654f6600000000000000000000000000000000000000604482015290519081900360640190fd5b808660ff161061348c57604080517f08c379a000000000000000000000000000000000000000000000000000000000815260206004820152600f60248201527f546f6b656e206e6f7420666f756e640000000000000000000000000000000000604482015290519081900360640190fd5b60008061349b8a338b8b6131e4565b925090508681101561350e57604080517f08c379a000000000000000000000000000000000000000000000000000000000815260206004820152600e60248201527f6479203c206d696e416d6f756e74000000000000000000000000000000000000604482015290519081900360640190fd5b61354d61353b6135346402540be4006110f98e6005015487613cd490919063ffffffff16565b839061393f565b8b600a018a60ff168154811061299757fe5b8a600a018960ff168154811061355f57fe5b6000918252602082200191909155604080517f79cc6790000000000000000000000000000000000000000000000000000000008152336004820152602481018c9052905173ffffffffffffffffffffffffffffffffffffffff8816926379cc6790926044808201939182900301818387803b1580156135dd57600080fd5b505af11580156135f1573d6000803e3d6000fd5b5050505061360c33828c6008018b60ff1681548110611d9457fe5b604080518a81526020810186905260ff8a168183015260608101839052905133917f43fb02998f4e03da2e0e6fff53fdbf0c40a9f45f145dc377fc30615d7d7a8a64919081900360800190a29998505050505050505050565b73ffffffffffffffffffffffffffffffffffffffff166000908152600b91909101602052604090205490565b610a5783838361462a565b4281600301541161370e57604080517f08c379a000000000000000000000000000000000000000000000000000000000815260206004820152601760248201527f52616d7020697320616c72656164792073746f70706564000000000000000000604482015290519081900360640190fd5b6000613719826139b3565b8083556001830181905542600284018190556003840181905560408051838152602081019290925280519293507f46e22fb3709ad289f62ce63d469248536dbc78d82b84a3d7e74ad606dc20193892918290030190a15050565b6402540be40081565b6060612b9284848461408b565b6000828211156137fa57604080517f08c379a000000000000000000000000000000000000000000000000000000000815260206004820152601e60248201527f536166654d6174683a207375627472616374696f6e206f766572666c6f770000604482015290519081900360640190fd5b50900390565b6040805173ffffffffffffffffffffffffffffffffffffffff8416602482015260448082018490528251808303909101815260649091019091526020810180517bffffffffffffffffffffffffffffffffffffffffffffffffffffffff167fa9059cbb00000000000000000000000000000000000000000000000000000000179052610a579084906147da565b6000612c3e61389b83613dc8565b6125da846139b3565b6040805173ffffffffffffffffffffffffffffffffffffffff80861660248301528416604482015260648082018490528251808303909101815260849091019091526020810180517bffffffffffffffffffffffffffffffffffffffffffffffffffffffff167f23b872dd000000000000000000000000000000000000000000000000000000001790526139399085906147da565b50505050565b600082820183811015612c3b57604080517f08c379a000000000000000000000000000000000000000000000000000000000815260206004820152601b60248201527f536166654d6174683a206164646974696f6e206f766572666c6f770000000000604482015290519081900360640190fd5b600381015460018201546000919042821115613a3f576002840154845480831115613a1157613a066139ff6139e88685613789565b6110f96139f54287613789565b6113c68887613789565b829061393f565b94505050505061273b565b613a06613a38613a218685613789565b6110f9613a2e4287613789565b6113c68689613789565b8290613789565b915061273b9050565b6060612c3b8284600901805480602002602001604051908101604052809291908181526020018280548015613a9c57602002820191906000526020600020905b815481526020019060010190808311613a88575b50505050506148b2565b815160009081805b82811015613ae657613adc868281518110613ac557fe5b60200260200101518361393f90919063ffffffff16565b9150600101613aae565b5080613af757600092505050612c3e565b60008181613b058786613cd4565b905060005b610100811015613c3f578260005b87811015613b4757613b3d613b33898d84815181106111e457fe5b6110f98488613cd4565b9150600101613b18565b509293508392613b9b613b7b613b62836113c68b600161393f565b613b7560646110f9896113c68a84613789565b9061393f565b6110f9866113c6613b8c868d613cd4565b613b7560646110f98b8f613cd4565b93508373217C0546083Da133F736478417CAaf2813831c396313a1ec759091876040518363ffffffff1660e01b8152600401808381526020018281526020019250505060206040518083038186803b158015613bf657600080fd5b505af4158015613c0a573d6000803e3d6000fd5b505050506040513d6020811015613c2057600080fd5b505115613c365783975050505050505050612c3e565b50600101613b0a565b50604080517f08c379a000000000000000000000000000000000000000000000000000000000815260206004820152601360248201527f4420646f6573206e6f7420636f6e766572676500000000000000000000000000604482015290519081900360640190fd5b6008810154600090612c3e90613cc5906004906113c6906001613789565b600884015460048501546110f9915b600082613ce357506000612c3e565b82820282848281613cf057fe5b0414612c3b576040517f08c379a000000000000000000000000000000000000000000000000000000000815260040180806020018281038252602181526020018061518e6021913960400191505060405180910390fd5b6000808211613db757604080517f08c379a000000000000000000000000000000000000000000000000000000000815260206004820152601a60248201527f536166654d6174683a206469766973696f6e206279207a65726f000000000000604482015290519081900360640190fd5b818381613dc057fe5b049392505050565b6060612c3e82600a01805480602002602001604051908101604052809291908181526020018280548015613e1b57602002820191906000526020600020905b815481526020019060010190808311613e07575b505050505083600901805480602002602001604051908101604052809291908181526020018280548015613a9c5760200282019190600052602060002090815481526020019060010190808311613a885750505050506148b2565b60008184841115613f1f576040517f08c379a00000000000000000000000000000000000000000000000000000000081526004018080602001828103825283818151815260200191508051906020019080838360005b83811015613ee4578181015183820152602001613ecc565b50505050905090810190601f168015613f115780820380516001836020036101000a031916815260200191505b509250505060405180910390fd5b505050900390565b6000806060613f3587613dc8565b905080518660ff16108015613f4d575080518560ff16105b613fb857604080517f08c379a000000000000000000000000000000000000000000000000000000000815260206004820152601860248201527f546f6b656e20696e646578206f7574206f662072616e67650000000000000000604482015290519081900360640190fd5b6000614003828860ff1681518110613fcc57fe5b6020026020010151613b758a6009018a60ff1681548110613fe957fe5b906000526020600020015488613cd490919063ffffffff16565b9050600061401489898985876149c3565b905061402e600161312883868b60ff168151811061120657fe5b94506140506402540be4006110f98b6004015488613cd490919063ffffffff16565b935061407d896009018860ff168154811061406757fe5b6000918252602090912001546110f98787613789565b945050505094509492505050565b606060008460070160009054906101000a900473ffffffffffffffffffffffffffffffffffffffff1673ffffffffffffffffffffffffffffffffffffffff166318160ddd6040518163ffffffff1660e01b815260040160206040518083038186803b1580156140f957600080fd5b505afa15801561410d573d6000803e3d6000fd5b505050506040513d602081101561412357600080fd5b505190508083111561419657604080517f08c379a000000000000000000000000000000000000000000000000000000000815260206004820152601a60248201527f43616e6e6f742065786365656420746f74616c20737570706c79000000000000604482015290519081900360640190fd5b60006141b86402540be4006110f96141b1611c3a8a8a612cf5565b8790613cd4565b600887015490915060609067ffffffffffffffff811180156141d957600080fd5b50604051908082528060200260200182016040528015614203578160200160208202803683370190505b50905060005b600888015481101561426457614245846110f9858b600a01858154811061422c57fe5b9060005260206000200154613cd490919063ffffffff16565b82828151811061425157fe5b6020908102919091010152600101614209565b509695505050505050565b6000612c3e60646110f9846139b3565b6008830154600090819060ff8516106142f957604080517f08c379a000000000000000000000000000000000000000000000000000000000815260206004820152601860248201527f546f6b656e20696e646578206f7574206f662072616e67650000000000000000604482015290519081900360640190fd5b606061430486613dc8565b905061430e615149565b6040518060a001604052806000815260200160008152602001600081526020016000815260200160008152509050614345876139b3565b60808201819052614357908390613aa6565b81526007870154604080517f18160ddd000000000000000000000000000000000000000000000000000000008152905161440f926144079273ffffffffffffffffffffffffffffffffffffffff909116916318160ddd91600480820192602092909190829003018186803b1580156143ce57600080fd5b505afa1580156143e2573d6000803e3d6000fd5b505050506040513d60208110156143f857600080fd5b505183516110f9908990613cd4565b825190613789565b60208201528151829060ff881690811061442557fe5b602002602001015185111561449b57604080517f08c379a000000000000000000000000000000000000000000000000000000000815260206004820152601a60248201527f5769746864726177206578636565647320617661696c61626c65000000000000604482015290519081900360640190fd5b6144af816080015187848460200151614ce3565b6040820152815160609067ffffffffffffffff811180156144cf57600080fd5b506040519080825280602002602001820160405280156144f9578160200160208202803683370190505b50905061450588613ca7565b606083015260005b60088901548110156145bc57600084828151811061452757fe5b6020026020010151905061459c613a386402540be4006110f987606001518d60ff16871461457557885160208a015161457091614569916110f9908a90613cd4565b8790613789565b6113c6565b6113c689604001516131288b600001516110f98d602001518b613cd490919063ffffffff16565b8383815181106145a857fe5b60209081029190910101525060010161450d565b5060006145e56145d684608001518a858760200151614ce3565b838a60ff168151811061120657fe5b9050614613896009018960ff16815481106145fc57fe5b6000918252602090912001546110f9836001613789565b604090930151929550919350505050935093915050565b73ffffffffffffffffffffffffffffffffffffffff821661464a57610a57565b60068301546146875773ffffffffffffffffffffffffffffffffffffffff82166000908152600c8401602052604090206402540be40090556147ac565b60006146938484612cf5565b6007850154604080517f70a0823100000000000000000000000000000000000000000000000000000000815273ffffffffffffffffffffffffffffffffffffffff8781166004830152915193945060009391909216916370a08231916024808301926020929190829003018186803b15801561470e57600080fd5b505afa158015614722573d6000803e3d6000fd5b505050506040513d602081101561473857600080fd5b5051600686015490915061478190614754906113c6868561393f565b6110f96402540be4006113c66147778a6006015489613cd490919063ffffffff16565b613b758789613cd4565b73ffffffffffffffffffffffffffffffffffffffff85166000908152600c8701602052604090205550505b5073ffffffffffffffffffffffffffffffffffffffff166000908152600b9190910160205260409020429055565b606061483c826040518060400160405280602081526020017f5361666545524332303a206c6f772d6c6576656c2063616c6c206661696c65648152508573ffffffffffffffffffffffffffffffffffffffff16614ee59092919063ffffffff16565b805190915015610a575780806020019051602081101561485b57600080fd5b5051610a57576040517f08c379a000000000000000000000000000000000000000000000000000000000815260040180806020018281038252602a8152602001806151af602a913960400191505060405180910390fd5b8151815160609190811461492757604080517f08c379a000000000000000000000000000000000000000000000000000000000815260206004820152601f60248201527f42616c616e636573206d757374206d61746368206d756c7469706c6965727300604482015290519081900360640190fd5b60608167ffffffffffffffff8111801561494057600080fd5b5060405190808252806020026020018201604052801561496a578160200160208202803683370190505b50905060005b828110156149ba5761499b85828151811061498757fe5b60200260200101518783815181106111e457fe5b8282815181106149a757fe5b6020908102919091010152600101614970565b50949350505050565b600885015460009060ff8681169086161415614a4057604080517f08c379a000000000000000000000000000000000000000000000000000000000815260206004820152601d60248201527f43616e277420636f6d7061726520746f6b656e20746f20697473656c66000000604482015290519081900360640190fd5b808660ff16108015614a545750808560ff16105b614abf57604080517f08c379a000000000000000000000000000000000000000000000000000000000815260206004820152601660248201527f546f6b656e73206d75737420626520696e20706f6f6c00000000000000000000604482015290519081900360640190fd5b6000614aca886139b3565b90506000614ad88583613aa6565b905080600080614ae88686613cd4565b90506000805b87811015614b61578c60ff16811415614b09578a9150614b33565b8b60ff168114614b2e57898181518110614b1f57fe5b60200260200101519150614b33565b614b59565b614b3d848361393f565b9350614b56614b4c838a613cd4565b6110f98789613cd4565b94505b600101614aee565b50614b7e614b6f8389613cd4565b6110f960646113c6888a613cd4565b93506000614b9b614b94846110f9896064613cd4565b859061393f565b9050600086815b610100811015614c7b579091508190614bd5614bc78a61312887613b75876002613cd4565b6110f98a613b758680613cd4565b91508173217C0546083Da133F736478417CAaf2813831c396313a1ec759091856040518363ffffffff1660e01b8152600401808381526020018281526020019250505060206040518083038186803b158015614c3057600080fd5b505af4158015614c44573d6000803e3d6000fd5b505050506040513d6020811015614c5a57600080fd5b505115614c735750995061250798505050505050505050565b600101614ba2565b50604080517f08c379a000000000000000000000000000000000000000000000000000000000815260206004820152601e60248201527f417070726f78696d6174696f6e20646964206e6f7420636f6e76657267650000604482015290519081900360640190fd5b815160009060ff85168111614d5957604080517f08c379a000000000000000000000000000000000000000000000000000000000815260206004820152600f60248201527f546f6b656e206e6f7420666f756e640000000000000000000000000000000000604482015290519081900360640190fd5b82600080614d678985613cd4565b905060005b84811015614dce578860ff168114614dc657614da4888281518110614d8d57fe5b60200260200101518461393f90919063ffffffff16565b9250614dc3614db9868a84815181106111e457fe5b6110f9868a613cd4565b93505b600101614d6c565b50614deb614ddc8286613cd4565b6110f960646113c6878b613cd4565b92506000614e08614e01836110f98a6064613cd4565b849061393f565b9050600087815b610100811015614c7b579091508190614e42614e348b61312887613b75876002613cd4565b6110f989613b758680613cd4565b91508173217C0546083Da133F736478417CAaf2813831c396313a1ec759091856040518363ffffffff1660e01b8152600401808381526020018281526020019250505060206040518083038186803b158015614e9d57600080fd5b505af4158015614eb1573d6000803e3d6000fd5b505050506040513d6020811015614ec757600080fd5b505115614edd57509650612b9295505050505050565b600101614e0f565b6060612b92848460008585614ef985615050565b614f6457604080517f08c379a000000000000000000000000000000000000000000000000000000000815260206004820152601d60248201527f416464726573733a2063616c6c20746f206e6f6e2d636f6e7472616374000000604482015290519081900360640190fd5b600060608673ffffffffffffffffffffffffffffffffffffffff1685876040518082805190602001908083835b60208310614fce57805182527fffffffffffffffffffffffffffffffffffffffffffffffffffffffffffffffe09092019160209182019101614f91565b6001836020036101000a03801982511681845116808217855250505050505090500191505060006040518083038185875af1925050503d8060008114615030576040519150601f19603f3d011682016040523d82523d6000602084013e615035565b606091505b5091509150615045828286615056565b979650505050505050565b3b151590565b60608315615065575081611626565b8251156150755782518084602001fd5b6040517f08c379a0000000000000000000000000000000000000000000000000000000008152602060048201818152845160248401528451859391928392604401919085019080838360008315613ee4578181015183820152602001613ecc565b6040518060800160405280600081526020016000815260200160008152602001600081525090565b828054828255906000526020600020908101928215615139579160200282015b8281111561513957825182559160200191906001019061511e565b50615145929150615178565b5090565b6040518060a0016040528060008152602001600081526020016000815260200160008152602001600081525090565b5b80821115615145576000815560010161517956fe536166654d6174683a206d756c7469706c69636174696f6e206f766572666c6f775361666545524332303a204552433230206f7065726174696f6e20646964206e6f74207375636365656443616e6e6f74207769746864726177206d6f7265207468616e20617661696c61626c65a2646970667358221220008b5b6d860b73c816ee59ffceccca3e4af44f6518ddf5721761df347f635ebd64736f6c634300060c0033",
  "deployedBytecode": "0x73000000000000000000000000000000000000000030146080604052600436106101ce5760003560e01c8063968e559411610103578063e4a9a0da116100a1578063e9252d461161007b578063e9252d4614610813578063f14e211e1461085f578063f3de036214610889578063f967a81f14610891576101ce565b8063e4a9a0da1461073a578063e7a4db811461079b578063e8c47a54146107da576101ce565b8063b0a14cfc116100dd578063b0a14cfc146106f8578063c9b64dcb14610715578063d011f91814610732578063d4b0de2f146106f0576101ce565b8063968e55941461066e578063a5397b22146106a7578063ab3d8544146106f0576101ce565b806358fdd79b1161017057806371906c2c1161014a57806371906c2c1461052557806373fd6b3e146105425780637d0481601461061b5780638ab7697e1461063e576101ce565b806358fdd79b1461042b5780635e58579c1461046157806370467276146104f5576101ce565b806340370edf116101ac57806340370edf1461025357806341b91c261461030c578063467e186c146103c55780634b23603c146103f5576101ce565b80630296ab50146101d357806324c5c751146101f15780633969841514610239575b600080fd5b6101db6108d0565b6040805160ff9092168252519081900360200190f35b8180156101fd57600080fd5b506102376004803603604081101561021457600080fd5b508035906020013573ffffffffffffffffffffffffffffffffffffffff166108d5565b005b610241610a5c565b60408051918252519081900360200190f35b81801561025f57600080fd5b506102416004803603606081101561027657600080fd5b8135919081019060408101602082013564010000000081111561029857600080fd5b8201836020820111156102aa57600080fd5b803590602001918460208302840111640100000000831117156102cc57600080fd5b9190808060200260200160405190810160405280939291908181526020018383602002808284376000920191909152509295505091359250610a63915050565b81801561031857600080fd5b506102416004803603606081101561032f57600080fd5b8135919081019060408101602082013564010000000081111561035157600080fd5b82018360208201111561036357600080fd5b8035906020019184602083028401116401000000008311171561038557600080fd5b919080806020026020016040519081016040528093929190818152602001838360200280828437600092019190915250929550509135925061162d915050565b8180156103d157600080fd5b50610237600480360360408110156103e857600080fd5b5080359060200135611eb0565b6102416004803603608081101561040b57600080fd5b5080359060ff602082013581169160408101359091169060600135611f61565b81801561043757600080fd5b506102376004803603606081101561044e57600080fd5b5080359060208101359060400135611f79565b6102416004803603608081101561047757600080fd5b81359173ffffffffffffffffffffffffffffffffffffffff602082013516918101906060810160408201356401000000008111156104b457600080fd5b8201836020820111156104c657600080fd5b803590602001918460208302840111640100000000831117156104e857600080fd5b9193509150351515612273565b81801561050157600080fd5b506102376004803603604081101561051857600080fd5b5080359060200135612510565b6102416004803603602081101561053b57600080fd5b50356125c2565b81801561054e57600080fd5b506105cb6004803603606081101561056557600080fd5b81359160208101359181019060608101604082013564010000000081111561058c57600080fd5b82018360208201111561059e57600080fd5b803590602001918460208302840111640100000000831117156105c057600080fd5b509092509050612740565b60408051602080825283518183015283519192839290830191858101910280838360005b838110156106075781810151838201526020016105ef565b505050509050019250505060405180910390f35b6102416004803603604081101561063157600080fd5b5080359060200135612b9a565b81801561064a57600080fd5b506102376004803603604081101561066157600080fd5b5080359060200135612c44565b6102416004803603604081101561068457600080fd5b508035906020013573ffffffffffffffffffffffffffffffffffffffff16612cf5565b8180156106b357600080fd5b50610241600480360360a08110156106ca57600080fd5b5080359060ff602082013581169160408101359091169060608101359060800135612dc3565b6102416131c1565b6102416004803603602081101561070e57600080fd5b50356131c9565b6102416004803603602081101561072b57600080fd5b50356131d4565b6102416131df565b6107826004803603608081101561075057600080fd5b50803590602081013573ffffffffffffffffffffffffffffffffffffffff16906040810135906060013560ff166131e4565b6040805192835260208301919091528051918290030190f35b8180156107a757600080fd5b50610241600480360360808110156107be57600080fd5b5080359060208101359060ff604082013516906060013561326e565b610241600480360360408110156107f057600080fd5b508035906020013573ffffffffffffffffffffffffffffffffffffffff16613665565b81801561081f57600080fd5b506102376004803603606081101561083657600080fd5b5080359073ffffffffffffffffffffffffffffffffffffffff6020820135169060400135613691565b81801561086b57600080fd5b506102376004803603602081101561088257600080fd5b503561369c565b610241613773565b6105cb600480360360608110156108a757600080fd5b5080359073ffffffffffffffffffffffffffffffffffffffff602082013516906040013561377c565b601281565b60005b6008830154811015610a575760008360080182815481106108f557fe5b6000918252602082200154600a8601805473ffffffffffffffffffffffffffffffffffffffff90921693506109d2918590811061092e57fe5b90600052602060002001548373ffffffffffffffffffffffffffffffffffffffff166370a08231306040518263ffffffff1660e01b8152600401808273ffffffffffffffffffffffffffffffffffffffff16815260200191505060206040518083038186803b1580156109a057600080fd5b505afa1580156109b4573d6000803e3d6000fd5b505050506040513d60208110156109ca57600080fd5b505190613789565b90508015610a4d576109fb73ffffffffffffffffffffffffffffffffffffffff83168583613800565b6040805173ffffffffffffffffffffffffffffffffffffffff841681526020810183905281517fee3859efa95e525bc2bcb149b51b60a8bb4e89c647392d9d4112e03c3e73bdd6929181900390910190a15b50506001016108d8565b505050565b620f424081565b6008830154825160009114610ad957604080517f08c379a000000000000000000000000000000000000000000000000000000000815260206004820181905260248201527f416d6f756e7473206d757374206d6174636820706f6f6c656420746f6b656e73604482015290519081900360640190fd5b600884015460609067ffffffffffffffff81118015610af757600080fd5b50604051908082528060200260200182016040528015610b21578160200160208202803683370190505b509050610b2c6150d6565b5060408051608081018252600080825260208083018290528284018290526060830191909152600788015483517f18160ddd0000000000000000000000000000000000000000000000000000000081529351929373ffffffffffffffffffffffffffffffffffffffff9091169283926318160ddd9260048082019391829003018186803b158015610bbc57600080fd5b505afa158015610bd0573d6000803e3d6000fd5b505050506040513d6020811015610be657600080fd5b505115610bf957610bf68761388d565b82525b606087600a01805480602002602001604051908101604052809291908181526020018280548015610c4957602002820191906000526020600020905b815481526020019060010190808311610c35575b5050505050905060005b6008890154811015610f83578273ffffffffffffffffffffffffffffffffffffffff166318160ddd6040518163ffffffff1660e01b815260040160206040518083038186803b158015610ca557600080fd5b505afa158015610cb9573d6000803e3d6000fd5b505050506040513d6020811015610ccf57600080fd5b5051151580610cf157506000888281518110610ce757fe5b6020026020010151115b610d5c57604080517f08c379a000000000000000000000000000000000000000000000000000000000815260206004820152601e60248201527f4d75737420737570706c7920616c6c20746f6b656e7320696e20706f6f6c0000604482015290519081900360640190fd5b878181518110610d6857fe5b6020026020010151600014610f25576000896008018281548110610d8857fe5b60009182526020918290200154604080517f70a08231000000000000000000000000000000000000000000000000000000008152306004820152905173ffffffffffffffffffffffffffffffffffffffff909216926370a0823192602480840193829003018186803b158015610dfd57600080fd5b505afa158015610e11573d6000803e3d6000fd5b505050506040513d6020811015610e2757600080fd5b50518951909150610e8390339030908c9086908110610e4257fe5b60200260200101518d6008018681548110610e5957fe5b60009182526020909120015473ffffffffffffffffffffffffffffffffffffffff169291906138a4565b610f0b818b6008018481548110610e9657fe5b60009182526020918290200154604080517f70a08231000000000000000000000000000000000000000000000000000000008152306004820152905173ffffffffffffffffffffffffffffffffffffffff909216926370a0823192602480840193829003018186803b1580156109a057600080fd5b898381518110610f1757fe5b602002602001018181525050505b610f64888281518110610f3457fe5b60200260200101518a600a018381548110610f4b57fe5b906000526020600020015461393f90919063ffffffff16565b828281518110610f7057fe5b6020908102919091010152600101610c53565b50610f8d886139b3565b6060840152610fa9610f9f8983613a48565b8460600151613aa6565b6020840181905283511061101e57604080517f08c379a000000000000000000000000000000000000000000000000000000000815260206004820152601160248201527f442073686f756c6420696e637265617365000000000000000000000000000000604482015290519081900360640190fd5b82602001518360400181815250508173ffffffffffffffffffffffffffffffffffffffff166318160ddd6040518163ffffffff1660e01b815260040160206040518083038186803b15801561107257600080fd5b505afa158015611086573d6000803e3d6000fd5b505050506040513d602081101561109c57600080fd5b50511561129f5760006110ae89613ca7565b905060005b60088a015481101561127c5760006110ff86600001516110f98d600a0185815481106110db57fe5b90600052602060002001548960200151613cd490919063ffffffff16565b90613d47565b90506111ac6402540be4006110f98373__$df59fa91de159e4aef63ef1a293daafb88$__63a95cb7f7909189888151811061113657fe5b60200260200101516040518363ffffffff1660e01b8152600401808381526020018281526020019250505060206040518083038186803b15801561117957600080fd5b505af415801561118d573d6000803e3d6000fd5b505050506040513d60208110156111a357600080fd5b50518690613cd4565b8783815181106111b857fe5b60200260200101818152505061121c6111fa6402540be4006110f98e600501548b87815181106111e457fe5b6020026020010151613cd490919063ffffffff16565b85848151811061120657fe5b602002602001015161378990919063ffffffff16565b8b600a01838154811061122b57fe5b906000526020600020018190555061125c87838151811061124857fe5b602002602001015185848151811061120657fe5b84838151811061126857fe5b6020908102919091010152506001016110b3565b5061129461128a8a84613a48565b8560600151613aa6565b6040850152506112b6565b80516112b490600a8a019060208401906150fe565b505b60008273ffffffffffffffffffffffffffffffffffffffff166318160ddd6040518163ffffffff1660e01b815260040160206040518083038186803b1580156112fe57600080fd5b505afa158015611312573d6000803e3d6000fd5b505050506040513d602081101561132857600080fd5b5051611339575060208301516113cf565b6113cc84600001516110f98573ffffffffffffffffffffffffffffffffffffffff166318160ddd6040518163ffffffff1660e01b815260040160206040518083038186803b15801561138a57600080fd5b505afa15801561139e573d6000803e3d6000fd5b505050506040513d60208110156113b457600080fd5b5051875160408901516113c691613789565b90613cd4565b90505b8681101561143e57604080517f08c379a000000000000000000000000000000000000000000000000000000000815260206004820152601b60248201527f436f756c646e2774206d696e74206d696e207265717565737465640000000000604482015290519081900360640190fd5b604080517f40c10f1900000000000000000000000000000000000000000000000000000000815233600482015260248101839052905173ffffffffffffffffffffffffffffffffffffffff8516916340c10f1991604480830192600092919082900301818387803b1580156114b257600080fd5b505af11580156114c6573d6000803e3d6000fd5b505050503373ffffffffffffffffffffffffffffffffffffffff167f189c623b666b1b45b83d7178f39b8c087cb09774317ca2f53c2d3c3726f222a2898787602001518773ffffffffffffffffffffffffffffffffffffffff166318160ddd6040518163ffffffff1660e01b815260040160206040518083038186803b15801561154f57600080fd5b505afa158015611563573d6000803e3d6000fd5b505050506040513d602081101561157957600080fd5b5051604080519081018390526060810182905260808082528551908201528451819060208281019160a0840191898101910280838360005b838110156115c95781810151838201526020016115b1565b50505050905001838103825286818151815260200191508051906020019060200280838360005b838110156116085781810151838201526020016115f0565b50505050905001965050505050505060405180910390a29450505050505b9392505050565b60088301548251600091146116a357604080517f08c379a000000000000000000000000000000000000000000000000000000000815260206004820181905260248201527f416d6f756e74732073686f756c64206d6174636820706f6f6c20746f6b656e73604482015290519081900360640190fd5b6007840154604080517f70a08231000000000000000000000000000000000000000000000000000000008152336004820152905173ffffffffffffffffffffffffffffffffffffffff909216916370a0823191602480820192602092909190829003018186803b15801561171657600080fd5b505afa15801561172a573d6000803e3d6000fd5b505050506040513d602081101561174057600080fd5b5051821180159061175057508115155b6117bb57604080517f08c379a000000000000000000000000000000000000000000000000000000000815260206004820152600d60248201527f3e4c502e62616c616e63654f6600000000000000000000000000000000000000604482015290519081900360640190fd5b6117c36150d6565b60405180608001604052806000815260200160008152602001600081526020016000815250905060008560070160009054906101000a900473ffffffffffffffffffffffffffffffffffffffff1673ffffffffffffffffffffffffffffffffffffffff166318160ddd6040518163ffffffff1660e01b815260040160206040518083038186803b15801561185657600080fd5b505afa15801561186a573d6000803e3d6000fd5b505050506040513d602081101561188057600080fd5b50519050600061188f87613ca7565b9050606087600a018054806020026020016040519081016040528092919081815260200182805480156118e157602002820191906000526020600020905b8154815260200190600101908083116118cd575b505050505090506118f1886139b3565b606085015261190261128a89613dc8565b845260005b60088901548110156119855761196688828151811061192257fe5b60200260200101516040518060600160405280602381526020016151d96023913984848151811061194f57fe5b6020026020010151613e769092919063ffffffff16565b82828151811061197257fe5b6020908102919091010152600101611907565b5061199361128a8983613a48565b6020850152600888015460609067ffffffffffffffff811180156119b657600080fd5b506040519080825280602002602001820160405280156119e0578160200160208202803683370190505b50905060005b60088a0154811015611b82576000611a2c87600001516110f98d600a018581548110611a0e57fe5b90600052602060002001548a60200151613cd490919063ffffffff16565b905060008173__$df59fa91de159e4aef63ef1a293daafb88$__63a95cb7f79091878681518110611a5957fe5b60200260200101516040518363ffffffff1660e01b8152600401808381526020018281526020019250505060206040518083038186803b158015611a9c57600080fd5b505af4158015611ab0573d6000803e3d6000fd5b505050506040513d6020811015611ac657600080fd5b50519050611add6402540be4006110f98884613cd4565b848481518110611ae957fe5b602002602001018181525050611b21611b156402540be4006110f98f600501548888815181106111e457fe5b86858151811061120657fe5b8c600a018481548110611b3057fe5b9060005260206000200181905550611b61848481518110611b4d57fe5b602002602001015186858151811061120657fe5b858481518110611b6d57fe5b602090810291909101015250506001016119e6565b50611b9a611b908a84613a48565b8660600151613aa6565b604086018190528551600091611bbc91906110f99088906113c6908490613789565b905080611c2a57604080517f08c379a000000000000000000000000000000000000000000000000000000000815260206004820152601b60248201527f4275726e7420616d6f756e742063616e6e6f74206265207a65726f0000000000604482015290519081900360640190fd5b611c5a611c46611c3a8c33612cf5565b6402540be40090613789565b6110f96402540be4006113c685600161393f565b905087811115611ccb57604080517f08c379a000000000000000000000000000000000000000000000000000000000815260206004820152601b60248201527f746f6b656e416d6f756e74203e206d61784275726e416d6f756e740000000000604482015290519081900360640190fd5b60078a0154604080517f79cc679000000000000000000000000000000000000000000000000000000000815233600482015260248101849052905173ffffffffffffffffffffffffffffffffffffffff909216916379cc67909160448082019260009290919082900301818387803b158015611d4657600080fd5b505af1158015611d5a573d6000803e3d6000fd5b5050505060005b60088b0154811015611dc557611dbd338b8381518110611d7d57fe5b60200260200101518d6008018481548110611d9457fe5b60009182526020909120015473ffffffffffffffffffffffffffffffffffffffff169190613800565b600101611d61565b50602086015133907f3631c28b1f9dd213e0319fb167b554d76b6c283a41143eb400a0d1adb1af1755908b908590611dfd8a87613789565b604051808060200180602001858152602001848152602001838103835287818151815260200191508051906020019060200280838360005b83811015611e4d578181015183820152602001611e35565b50505050905001838103825286818151815260200191508051906020019060200280838360005b83811015611e8c578181015183820152602001611e74565b50505050905001965050505050505060405180910390a29998505050505050505050565b6305f5e100811115611f2357604080517f08c379a000000000000000000000000000000000000000000000000000000000815260206004820152600f60248201527f46656520697320746f6f20686967680000000000000000000000000000000000604482015290519081900360640190fd5b600482018190556040805182815290517fd88ea5155021c6f8dafa1a741e173f595cdf77ce7c17d43342131d7f06afdfe59181900360200190a15050565b6000611f6f85858585613f27565b5095945050505050565b6002830154611f8b906201518061393f565b421015611ff957604080517f08c379a000000000000000000000000000000000000000000000000000000000815260206004820152601f60248201527f57616974203120646179206265666f7265207374617274696e672072616d7000604482015290519081900360640190fd5b612006426212750061393f565b81101561207457604080517f08c379a000000000000000000000000000000000000000000000000000000000815260206004820152601660248201527f496e73756666696369656e742072616d702074696d6500000000000000000000604482015290519081900360640190fd5b6000821180156120865750620f424082105b6120f157604080517f08c379a000000000000000000000000000000000000000000000000000000000815260206004820181905260248201527f667574757265415f206d757374206265203e203020616e64203c204d41585f41604482015290519081900360640190fd5b60006120fc846139b3565b9050600061210b846064613cd4565b9050818110156121935781612121826002613cd4565b101561218e57604080517f08c379a000000000000000000000000000000000000000000000000000000000815260206004820152601560248201527f667574757265415f20697320746f6f20736d616c6c0000000000000000000000604482015290519081900360640190fd5b61220c565b61219e826002613cd4565b81111561220c57604080517f08c379a000000000000000000000000000000000000000000000000000000000815260206004820152601560248201527f667574757265415f20697320746f6f206c617267650000000000000000000000604482015290519081900360640190fd5b8185556001850181905542600286018190556003860184905560408051848152602081018490528082019290925260608201859052517fa2b71ec6df949300b59aab36b55e189697b750119dd349fcfa8c0f779e83c2549181900360800190a15050505050565b600885015460009081612285886139b3565b905060006122ee6122e88a8b600a018054806020026020016040519081016040528092919081815260200182805480156122de57602002820191906000526020600020905b8154815260200190600101908083116122ca575b5050505050613a48565b83613aa6565b9050606089600a0180548060200260200160405190810160405280929190818152602001828054801561234057602002820191906000526020600020905b81548152602001906001019080831161232c575b5050505050905060005b848110156124095786156123ad5761239089898381811061236757fe5b9050602002013583838151811061237a57fe5b602002602001015161393f90919063ffffffff16565b82828151811061239c57fe5b602002602001018181525050612401565b6123e88989838181106123bc57fe5b905060200201356040518060600160405280602381526020016151d96023913984848151811061194f57fe5b8282815181106123f457fe5b6020026020010181815250505b60010161234a565b50600061241f6124198c84613a48565b85613aa6565b905060008b60070160009054906101000a900473ffffffffffffffffffffffffffffffffffffffff1673ffffffffffffffffffffffffffffffffffffffff166318160ddd6040518163ffffffff1660e01b815260040160206040518083038186803b15801561248d57600080fd5b505afa1580156124a1573d6000803e3d6000fd5b505050506040513d60208110156124b757600080fd5b5051905087156124e0576124d3846110f9836113c68684613789565b9650505050505050612507565b6124d36124f0611c3a8e8e612cf5565b6110f96402540be4006113c688838783838b613789565b95945050505050565b6402540be40081111561258457604080517f08c379a000000000000000000000000000000000000000000000000000000000815260206004820152600f60248201527f46656520697320746f6f20686967680000000000000000000000000000000000604482015290519081900360640190fd5b600582018190556040805182815290517fab599d640ca80cde2b09b128a4154a8dfe608cb80f4c9399c8b954b01fd35f389181900360200190a15050565b6000806125df6125d184613dc8565b6125da856139b3565b613aa6565b905060008360070160009054906101000a900473ffffffffffffffffffffffffffffffffffffffff1673ffffffffffffffffffffffffffffffffffffffff166318160ddd6040518163ffffffff1660e01b815260040160206040518083038186803b15801561264d57600080fd5b505afa158015612661573d6000803e3d6000fd5b505050506040513d602081101561267757600080fd5b5051905080156127345761272b816110f98660070160009054906101000a900473ffffffffffffffffffffffffffffffffffffffff1673ffffffffffffffffffffffffffffffffffffffff1663313ce5676040518163ffffffff1660e01b815260040160206040518083038186803b1580156126f257600080fd5b505afa158015612706573d6000803e3d6000fd5b505050506040513d602081101561271c57600080fd5b5051859060ff16600a0a613cd4565b9250505061273b565b6000925050505b919050565b6007840154604080517f70a08231000000000000000000000000000000000000000000000000000000008152336004820152905160609273ffffffffffffffffffffffffffffffffffffffff169182916370a0823191602480820192602092909190829003018186803b1580156127b657600080fd5b505afa1580156127ca573d6000803e3d6000fd5b505050506040513d60208110156127e057600080fd5b505185111561285057604080517f08c379a000000000000000000000000000000000000000000000000000000000815260206004820152600d60248201527f3e4c502e62616c616e63654f6600000000000000000000000000000000000000604482015290519081900360640190fd5b600886015483146128c257604080517f08c379a000000000000000000000000000000000000000000000000000000000815260206004820181905260248201527f6d696e416d6f756e7473206d757374206d6174636820706f6f6c546f6b656e73604482015290519081900360640190fd5b60606128cf87338861408b565b905060005b81518110156129fc578585828181106128e957fe5b905060200201358282815181106128fc57fe5b6020026020010151101561297157604080517f08c379a000000000000000000000000000000000000000000000000000000000815260206004820152601a60248201527f616d6f756e74735b695d203c206d696e416d6f756e74735b695d000000000000604482015290519081900360640190fd5b6129b082828151811061298057fe5b602002602001015189600a01838154811061299757fe5b906000526020600020015461378990919063ffffffff16565b88600a0182815481106129bf57fe5b90600052602060002001819055506129f4338383815181106129dd57fe5b60200260200101518a6008018481548110611d9457fe5b6001016128d4565b50604080517f79cc679000000000000000000000000000000000000000000000000000000000815233600482015260248101889052905173ffffffffffffffffffffffffffffffffffffffff8416916379cc679091604480830192600092919082900301818387803b158015612a7157600080fd5b505af1158015612a85573d6000803e3d6000fd5b505050503373ffffffffffffffffffffffffffffffffffffffff167f88d38ed598fdd809c2bf01ee49cd24b7fdabf379a83d29567952b60324d58cef828473ffffffffffffffffffffffffffffffffffffffff166318160ddd6040518163ffffffff1660e01b815260040160206040518083038186803b158015612b0857600080fd5b505afa158015612b1c573d6000803e3d6000fd5b505050506040513d6020811015612b3257600080fd5b50516040805160208181018490528282528451928201929092528351909182916060830191868101910280838360005b83811015612b7a578181015183820152602001612b62565b50505050905001935050505060405180910390a29150505b949350505050565b60088201546000908210612c0f57604080517f08c379a000000000000000000000000000000000000000000000000000000000815260206004820152601860248201527f546f6b656e20696e646578206f7574206f662072616e67650000000000000000604482015290519081900360640190fd5b612c3b83600a018381548110612c2157fe5b9060005260206000200154846008018481548110610e9657fe5b90505b92915050565b6305f5e100811115612cb757604080517f08c379a000000000000000000000000000000000000000000000000000000000815260206004820152600f60248201527f46656520697320746f6f20686967680000000000000000000000000000000000604482015290519081900360640190fd5b600682018190556040805182815290517fd5fe46099fa396290a7f57e36c3c3c8774e2562c18ed5d1dcc0fa75071e03f1d9181900360200190a15050565b73ffffffffffffffffffffffffffffffffffffffff81166000908152600b830160205260408120548190612d2c906224ea0061393f565b905042811115612db9576000612d428242613789565b9050612db06402540be4006110f96224ea006110f9856113c68b600c0160008c73ffffffffffffffffffffffffffffffffffffffff1673ffffffffffffffffffffffffffffffffffffffff168152602001908152602001600020548c60060154613cd490919063ffffffff16565b92505050612c3e565b5060009392505050565b600080866008018660ff1681548110612dd857fe5b60009182526020918290200154604080517f70a08231000000000000000000000000000000000000000000000000000000008152336004820152905173ffffffffffffffffffffffffffffffffffffffff909216935083926370a0823192602480840193829003018186803b158015612e5057600080fd5b505afa158015612e64573d6000803e3d6000fd5b505050506040513d6020811015612e7a57600080fd5b5051841115612eea57604080517f08c379a000000000000000000000000000000000000000000000000000000000815260206004820152601d60248201527f43616e6e6f742073776170206d6f7265207468616e20796f75206f776e000000604482015290519081900360640190fd5b6000808273ffffffffffffffffffffffffffffffffffffffff166370a08231306040518263ffffffff1660e01b8152600401808273ffffffffffffffffffffffffffffffffffffffff16815260200191505060206040518083038186803b158015612f5457600080fd5b505afa158015612f68573d6000803e3d6000fd5b505050506040513d6020811015612f7e57600080fd5b50519050612fa473ffffffffffffffffffffffffffffffffffffffff84163330896138a4565b61300f818473ffffffffffffffffffffffffffffffffffffffff166370a08231306040518263ffffffff1660e01b8152600401808273ffffffffffffffffffffffffffffffffffffffff16815260200191505060206040518083038186803b1580156109a057600080fd5b9150506000806130218a8a8a86613f27565b915091508582101561309457604080517f08c379a000000000000000000000000000000000000000000000000000000000815260206004820181905260248201527f53776170206469646e277420726573756c7420696e206d696e20746f6b656e73604482015290519081900360640190fd5b60006130d68b6009018a60ff16815481106130ab57fe5b90600052602060002001546110f96402540be4006110f98f6005015487613cd490919063ffffffff16565b90506130ee848c600a018c60ff1681548110610f4b57fe5b8b600a018b60ff168154811061310057fe5b906000526020600020018190555061312e81613128858e600a018d60ff168154811061299757fe5b90613789565b8b600a018a60ff168154811061314057fe5b906000526020600020018190555061316533848d6008018c60ff1681548110611d9457fe5b604080518581526020810185905260ff808d16828401528b166060820152905133917fc6c1e0630dbe9130cc068028486c0d118ddcea348550819defd5cb8c257f8a38919081900360800190a250909998505050505050505050565b6305f5e10081565b6000612c3e8261426f565b6000612c3e826139b3565b606481565b6000806000806131f588868861427f565b8092508193505050600061323e836131288b6009018960ff168154811061321857fe5b90600052602060002001546110f9866132308f613dc8565b8c60ff168151811061120657fe5b90506132606402540be4006110f9613259611c3a8d8d612cf5565b8690613cd4565b999098509650505050505050565b6007840154604080517f18160ddd000000000000000000000000000000000000000000000000000000008152905160009273ffffffffffffffffffffffffffffffffffffffff1691839183916318160ddd916004808301926020929190829003018186803b1580156132df57600080fd5b505afa1580156132f3573d6000803e3d6000fd5b505050506040513d602081101561330957600080fd5b50516008880154604080517f70a082310000000000000000000000000000000000000000000000000000000081523360048201529051929350909173ffffffffffffffffffffffffffffffffffffffff8516916370a08231916024808301926020929190829003018186803b15801561338157600080fd5b505afa158015613395573d6000803e3d6000fd5b505050506040513d60208110156133ab57600080fd5b505187111561341b57604080517f08c379a000000000000000000000000000000000000000000000000000000000815260206004820152600d60248201527f3e4c502e62616c616e63654f6600000000000000000000000000000000000000604482015290519081900360640190fd5b808660ff161061348c57604080517f08c379a000000000000000000000000000000000000000000000000000000000815260206004820152600f60248201527f546f6b656e206e6f7420666f756e640000000000000000000000000000000000604482015290519081900360640190fd5b60008061349b8a338b8b6131e4565b925090508681101561350e57604080517f08c379a000000000000000000000000000000000000000000000000000000000815260206004820152600e60248201527f6479203c206d696e416d6f756e74000000000000000000000000000000000000604482015290519081900360640190fd5b61354d61353b6135346402540be4006110f98e6005015487613cd490919063ffffffff16565b839061393f565b8b600a018a60ff168154811061299757fe5b8a600a018960ff168154811061355f57fe5b6000918252602082200191909155604080517f79cc6790000000000000000000000000000000000000000000000000000000008152336004820152602481018c9052905173ffffffffffffffffffffffffffffffffffffffff8816926379cc6790926044808201939182900301818387803b1580156135dd57600080fd5b505af11580156135f1573d6000803e3d6000fd5b5050505061360c33828c6008018b60ff1681548110611d9457fe5b604080518a81526020810186905260ff8a168183015260608101839052905133917f43fb02998f4e03da2e0e6fff53fdbf0c40a9f45f145dc377fc30615d7d7a8a64919081900360800190a29998505050505050505050565b73ffffffffffffffffffffffffffffffffffffffff166000908152600b91909101602052604090205490565b610a5783838361462a565b4281600301541161370e57604080517f08c379a000000000000000000000000000000000000000000000000000000000815260206004820152601760248201527f52616d7020697320616c72656164792073746f70706564000000000000000000604482015290519081900360640190fd5b6000613719826139b3565b8083556001830181905542600284018190556003840181905560408051838152602081019290925280519293507f46e22fb3709ad289f62ce63d469248536dbc78d82b84a3d7e74ad606dc20193892918290030190a15050565b6402540be40081565b6060612b9284848461408b565b6000828211156137fa57604080517f08c379a000000000000000000000000000000000000000000000000000000000815260206004820152601e60248201527f536166654d6174683a207375627472616374696f6e206f766572666c6f770000604482015290519081900360640190fd5b50900390565b6040805173ffffffffffffffffffffffffffffffffffffffff8416602482015260448082018490528251808303909101815260649091019091526020810180517bffffffffffffffffffffffffffffffffffffffffffffffffffffffff167fa9059cbb00000000000000000000000000000000000000000000000000000000179052610a579084906147da565b6000612c3e61389b83613dc8565b6125da846139b3565b6040805173ffffffffffffffffffffffffffffffffffffffff80861660248301528416604482015260648082018490528251808303909101815260849091019091526020810180517bffffffffffffffffffffffffffffffffffffffffffffffffffffffff167f23b872dd000000000000000000000000000000000000000000000000000000001790526139399085906147da565b50505050565b600082820183811015612c3b57604080517f08c379a000000000000000000000000000000000000000000000000000000000815260206004820152601b60248201527f536166654d6174683a206164646974696f6e206f766572666c6f770000000000604482015290519081900360640190fd5b600381015460018201546000919042821115613a3f576002840154845480831115613a1157613a066139ff6139e88685613789565b6110f96139f54287613789565b6113c68887613789565b829061393f565b94505050505061273b565b613a06613a38613a218685613789565b6110f9613a2e4287613789565b6113c68689613789565b8290613789565b915061273b9050565b6060612c3b8284600901805480602002602001604051908101604052809291908181526020018280548015613a9c57602002820191906000526020600020905b815481526020019060010190808311613a88575b50505050506148b2565b815160009081805b82811015613ae657613adc868281518110613ac557fe5b60200260200101518361393f90919063ffffffff16565b9150600101613aae565b5080613af757600092505050612c3e565b60008181613b058786613cd4565b905060005b610100811015613c3f578260005b87811015613b4757613b3d613b33898d84815181106111e457fe5b6110f98488613cd4565b9150600101613b18565b509293508392613b9b613b7b613b62836113c68b600161393f565b613b7560646110f9896113c68a84613789565b9061393f565b6110f9866113c6613b8c868d613cd4565b613b7560646110f98b8f613cd4565b93508373__$df59fa91de159e4aef63ef1a293daafb88$__6313a1ec759091876040518363ffffffff1660e01b8152600401808381526020018281526020019250505060206040518083038186803b158015613bf657600080fd5b505af4158015613c0a573d6000803e3d6000fd5b505050506040513d6020811015613c2057600080fd5b505115613c365783975050505050505050612c3e565b50600101613b0a565b50604080517f08c379a000000000000000000000000000000000000000000000000000000000815260206004820152601360248201527f4420646f6573206e6f7420636f6e766572676500000000000000000000000000604482015290519081900360640190fd5b6008810154600090612c3e90613cc5906004906113c6906001613789565b600884015460048501546110f9915b600082613ce357506000612c3e565b82820282848281613cf057fe5b0414612c3b576040517f08c379a000000000000000000000000000000000000000000000000000000000815260040180806020018281038252602181526020018061518e6021913960400191505060405180910390fd5b6000808211613db757604080517f08c379a000000000000000000000000000000000000000000000000000000000815260206004820152601a60248201527f536166654d6174683a206469766973696f6e206279207a65726f000000000000604482015290519081900360640190fd5b818381613dc057fe5b049392505050565b6060612c3e82600a01805480602002602001604051908101604052809291908181526020018280548015613e1b57602002820191906000526020600020905b815481526020019060010190808311613e07575b505050505083600901805480602002602001604051908101604052809291908181526020018280548015613a9c5760200282019190600052602060002090815481526020019060010190808311613a885750505050506148b2565b60008184841115613f1f576040517f08c379a00000000000000000000000000000000000000000000000000000000081526004018080602001828103825283818151815260200191508051906020019080838360005b83811015613ee4578181015183820152602001613ecc565b50505050905090810190601f168015613f115780820380516001836020036101000a031916815260200191505b509250505060405180910390fd5b505050900390565b6000806060613f3587613dc8565b905080518660ff16108015613f4d575080518560ff16105b613fb857604080517f08c379a000000000000000000000000000000000000000000000000000000000815260206004820152601860248201527f546f6b656e20696e646578206f7574206f662072616e67650000000000000000604482015290519081900360640190fd5b6000614003828860ff1681518110613fcc57fe5b6020026020010151613b758a6009018a60ff1681548110613fe957fe5b906000526020600020015488613cd490919063ffffffff16565b9050600061401489898985876149c3565b905061402e600161312883868b60ff168151811061120657fe5b94506140506402540be4006110f98b6004015488613cd490919063ffffffff16565b935061407d896009018860ff168154811061406757fe5b6000918252602090912001546110f98787613789565b945050505094509492505050565b606060008460070160009054906101000a900473ffffffffffffffffffffffffffffffffffffffff1673ffffffffffffffffffffffffffffffffffffffff166318160ddd6040518163ffffffff1660e01b815260040160206040518083038186803b1580156140f957600080fd5b505afa15801561410d573d6000803e3d6000fd5b505050506040513d602081101561412357600080fd5b505190508083111561419657604080517f08c379a000000000000000000000000000000000000000000000000000000000815260206004820152601a60248201527f43616e6e6f742065786365656420746f74616c20737570706c79000000000000604482015290519081900360640190fd5b60006141b86402540be4006110f96141b1611c3a8a8a612cf5565b8790613cd4565b600887015490915060609067ffffffffffffffff811180156141d957600080fd5b50604051908082528060200260200182016040528015614203578160200160208202803683370190505b50905060005b600888015481101561426457614245846110f9858b600a01858154811061422c57fe5b9060005260206000200154613cd490919063ffffffff16565b82828151811061425157fe5b6020908102919091010152600101614209565b509695505050505050565b6000612c3e60646110f9846139b3565b6008830154600090819060ff8516106142f957604080517f08c379a000000000000000000000000000000000000000000000000000000000815260206004820152601860248201527f546f6b656e20696e646578206f7574206f662072616e67650000000000000000604482015290519081900360640190fd5b606061430486613dc8565b905061430e615149565b6040518060a001604052806000815260200160008152602001600081526020016000815260200160008152509050614345876139b3565b60808201819052614357908390613aa6565b81526007870154604080517f18160ddd000000000000000000000000000000000000000000000000000000008152905161440f926144079273ffffffffffffffffffffffffffffffffffffffff909116916318160ddd91600480820192602092909190829003018186803b1580156143ce57600080fd5b505afa1580156143e2573d6000803e3d6000fd5b505050506040513d60208110156143f857600080fd5b505183516110f9908990613cd4565b825190613789565b60208201528151829060ff881690811061442557fe5b602002602001015185111561449b57604080517f08c379a000000000000000000000000000000000000000000000000000000000815260206004820152601a60248201527f5769746864726177206578636565647320617661696c61626c65000000000000604482015290519081900360640190fd5b6144af816080015187848460200151614ce3565b6040820152815160609067ffffffffffffffff811180156144cf57600080fd5b506040519080825280602002602001820160405280156144f9578160200160208202803683370190505b50905061450588613ca7565b606083015260005b60088901548110156145bc57600084828151811061452757fe5b6020026020010151905061459c613a386402540be4006110f987606001518d60ff16871461457557885160208a015161457091614569916110f9908a90613cd4565b8790613789565b6113c6565b6113c689604001516131288b600001516110f98d602001518b613cd490919063ffffffff16565b8383815181106145a857fe5b60209081029190910101525060010161450d565b5060006145e56145d684608001518a858760200151614ce3565b838a60ff168151811061120657fe5b9050614613896009018960ff16815481106145fc57fe5b6000918252602090912001546110f9836001613789565b604090930151929550919350505050935093915050565b73ffffffffffffffffffffffffffffffffffffffff821661464a57610a57565b60068301546146875773ffffffffffffffffffffffffffffffffffffffff82166000908152600c8401602052604090206402540be40090556147ac565b60006146938484612cf5565b6007850154604080517f70a0823100000000000000000000000000000000000000000000000000000000815273ffffffffffffffffffffffffffffffffffffffff8781166004830152915193945060009391909216916370a08231916024808301926020929190829003018186803b15801561470e57600080fd5b505afa158015614722573d6000803e3d6000fd5b505050506040513d602081101561473857600080fd5b5051600686015490915061478190614754906113c6868561393f565b6110f96402540be4006113c66147778a6006015489613cd490919063ffffffff16565b613b758789613cd4565b73ffffffffffffffffffffffffffffffffffffffff85166000908152600c8701602052604090205550505b5073ffffffffffffffffffffffffffffffffffffffff166000908152600b9190910160205260409020429055565b606061483c826040518060400160405280602081526020017f5361666545524332303a206c6f772d6c6576656c2063616c6c206661696c65648152508573ffffffffffffffffffffffffffffffffffffffff16614ee59092919063ffffffff16565b805190915015610a575780806020019051602081101561485b57600080fd5b5051610a57576040517f08c379a000000000000000000000000000000000000000000000000000000000815260040180806020018281038252602a8152602001806151af602a913960400191505060405180910390fd5b8151815160609190811461492757604080517f08c379a000000000000000000000000000000000000000000000000000000000815260206004820152601f60248201527f42616c616e636573206d757374206d61746368206d756c7469706c6965727300604482015290519081900360640190fd5b60608167ffffffffffffffff8111801561494057600080fd5b5060405190808252806020026020018201604052801561496a578160200160208202803683370190505b50905060005b828110156149ba5761499b85828151811061498757fe5b60200260200101518783815181106111e457fe5b8282815181106149a757fe5b6020908102919091010152600101614970565b50949350505050565b600885015460009060ff8681169086161415614a4057604080517f08c379a000000000000000000000000000000000000000000000000000000000815260206004820152601d60248201527f43616e277420636f6d7061726520746f6b656e20746f20697473656c66000000604482015290519081900360640190fd5b808660ff16108015614a545750808560ff16105b614abf57604080517f08c379a000000000000000000000000000000000000000000000000000000000815260206004820152601660248201527f546f6b656e73206d75737420626520696e20706f6f6c00000000000000000000604482015290519081900360640190fd5b6000614aca886139b3565b90506000614ad88583613aa6565b905080600080614ae88686613cd4565b90506000805b87811015614b61578c60ff16811415614b09578a9150614b33565b8b60ff168114614b2e57898181518110614b1f57fe5b60200260200101519150614b33565b614b59565b614b3d848361393f565b9350614b56614b4c838a613cd4565b6110f98789613cd4565b94505b600101614aee565b50614b7e614b6f8389613cd4565b6110f960646113c6888a613cd4565b93506000614b9b614b94846110f9896064613cd4565b859061393f565b9050600086815b610100811015614c7b579091508190614bd5614bc78a61312887613b75876002613cd4565b6110f98a613b758680613cd4565b91508173__$df59fa91de159e4aef63ef1a293daafb88$__6313a1ec759091856040518363ffffffff1660e01b8152600401808381526020018281526020019250505060206040518083038186803b158015614c3057600080fd5b505af4158015614c44573d6000803e3d6000fd5b505050506040513d6020811015614c5a57600080fd5b505115614c735750995061250798505050505050505050565b600101614ba2565b50604080517f08c379a000000000000000000000000000000000000000000000000000000000815260206004820152601e60248201527f417070726f78696d6174696f6e20646964206e6f7420636f6e76657267650000604482015290519081900360640190fd5b815160009060ff85168111614d5957604080517f08c379a000000000000000000000000000000000000000000000000000000000815260206004820152600f60248201527f546f6b656e206e6f7420666f756e640000000000000000000000000000000000604482015290519081900360640190fd5b82600080614d678985613cd4565b905060005b84811015614dce578860ff168114614dc657614da4888281518110614d8d57fe5b60200260200101518461393f90919063ffffffff16565b9250614dc3614db9868a84815181106111e457fe5b6110f9868a613cd4565b93505b600101614d6c565b50614deb614ddc8286613cd4565b6110f960646113c6878b613cd4565b92506000614e08614e01836110f98a6064613cd4565b849061393f565b9050600087815b610100811015614c7b579091508190614e42614e348b61312887613b75876002613cd4565b6110f989613b758680613cd4565b91508173__$df59fa91de159e4aef63ef1a293daafb88$__6313a1ec759091856040518363ffffffff1660e01b8152600401808381526020018281526020019250505060206040518083038186803b158015614e9d57600080fd5b505af4158015614eb1573d6000803e3d6000fd5b505050506040513d6020811015614ec757600080fd5b505115614edd57509650612b9295505050505050565b600101614e0f565b6060612b92848460008585614ef985615050565b614f6457604080517f08c379a000000000000000000000000000000000000000000000000000000000815260206004820152601d60248201527f416464726573733a2063616c6c20746f206e6f6e2d636f6e7472616374000000604482015290519081900360640190fd5b600060608673ffffffffffffffffffffffffffffffffffffffff1685876040518082805190602001908083835b60208310614fce57805182527fffffffffffffffffffffffffffffffffffffffffffffffffffffffffffffffe09092019160209182019101614f91565b6001836020036101000a03801982511681845116808217855250505050505090500191505060006040518083038185875af1925050503d8060008114615030576040519150601f19603f3d011682016040523d82523d6000602084013e615035565b606091505b5091509150615045828286615056565b979650505050505050565b3b151590565b60608315615065575081611626565b8251156150755782518084602001fd5b6040517f08c379a0000000000000000000000000000000000000000000000000000000008152602060048201818152845160248401528451859391928392604401919085019080838360008315613ee4578181015183820152602001613ecc565b6040518060800160405280600081526020016000815260200160008152602001600081525090565b828054828255906000526020600020908101928215615139579160200282015b8281111561513957825182559160200191906001019061511e565b50615145929150615178565b5090565b6040518060a0016040528060008152602001600081526020016000815260200160008152602001600081525090565b5b80821115615145576000815560010161517956fe536166654d6174683a206d756c7469706c69636174696f6e206f766572666c6f775361666545524332303a204552433230206f7065726174696f6e20646964206e6f74207375636365656443616e6e6f74207769746864726177206d6f7265207468616e20617661696c61626c65a2646970667358221220008b5b6d860b73c816ee59ffceccca3e4af44f6518ddf5721761df347f635ebd64736f6c634300060c0033",
  "libraries": {
    "MathUtils": "0x217C0546083Da133F736478417CAaf2813831c39"
  },
  "devdoc": {
    "details": "Contracts relying on this library must initialize SwapUtils.Swap struct then use this library for SwapUtils.Swap struct. Note that this library contains both functions called by users and admins. Admin functions should be protected within contracts using this library.",
    "kind": "dev",
    "methods": {
      "addLiquidity(SwapUtils.Swap storage,uint256[],uint256)": {
        "params": {
          "amounts": "the amounts of each token to add, in their native precision",
          "minToMint": "the minimum LP tokens adding this amount of liquidity should mint, otherwise revert. Handy for front-running mitigation",
          "self": "Swap struct to read from and write to"
        },
        "returns": {
          "_0": "amount of LP token user received"
        }
      },
      "calculateCurrentWithdrawFee(SwapUtils.Swap storage,address)": {
        "params": {
          "user": "address you want to calculate withdraw fee of"
        },
        "returns": {
          "_0": "current withdraw fee of the user"
        }
      },
      "calculateRemoveLiquidity(SwapUtils.Swap storage,address,uint256)": {
        "params": {
          "account": "the address that is removing liquidity. required for withdraw fee calculation",
          "amount": "the amount of LP tokens that would to be burned on withdrawal"
        },
        "returns": {
          "_0": "array of amounts of tokens user will receive"
        }
      },
      "calculateSwap(SwapUtils.Swap storage,uint8,uint8,uint256)": {
        "params": {
          "dx": "the number of tokens to sell. If the token charges a fee on transfers, use the amount that gets transferred after the fee.",
          "self": "Swap struct to read from",
          "tokenIndexFrom": "the token to sell",
          "tokenIndexTo": "the token to buy"
        },
        "returns": {
          "dy": "the number of tokens the user will get"
        }
      },
      "calculateTokenAmount(SwapUtils.Swap storage,address,uint256[],bool)": {
        "details": "This shouldn't be used outside frontends for user estimates.",
        "params": {
          "account": "address of the account depositing or withdrawing tokens",
          "amounts": "an array of token amounts to deposit or withdrawal, corresponding to pooledTokens. The amount should be in each pooled token's native precision. If a token charges a fee on transfers, use the amount that gets transferred after the fee.",
          "deposit": "whether this is a deposit or a withdrawal",
          "self": "Swap struct to read from"
        },
        "returns": {
          "_0": "if deposit was true, total amount of lp token that will be minted and if deposit was false, total amount of lp token that will be burned"
        }
      },
      "calculateWithdrawOneToken(SwapUtils.Swap storage,address,uint256,uint8)": {
        "params": {
          "account": "the address that is withdrawing",
          "self": "Swap struct to read from",
          "tokenAmount": "the amount to withdraw in the pool's precision",
          "tokenIndex": "which token will be withdrawn"
        },
        "returns": {
          "_0": "the amount of token user will receive and the associated swap fee"
        }
      },
      "getA(SwapUtils.Swap storage)": {
        "details": "See the StableSwap paper for details",
        "params": {
          "self": "Swap struct to read from"
        },
        "returns": {
          "_0": "A parameter"
        }
      },
      "getAPrecise(SwapUtils.Swap storage)": {
        "details": "See the StableSwap paper for details",
        "params": {
          "self": "Swap struct to read from"
        },
        "returns": {
          "_0": "A parameter in its raw precision form"
        }
      },
      "getAdminBalance(SwapUtils.Swap storage,uint256)": {
        "params": {
          "index": "Index of the pooled token",
          "self": "Swap struct to read from"
        },
        "returns": {
          "_0": "admin balance in the token's precision"
        }
      },
      "getDepositTimestamp(SwapUtils.Swap storage,address)": {
        "params": {
          "self": "Swap struct to read from"
        },
        "returns": {
          "_0": "timestamp of last deposit"
        }
      },
      "getVirtualPrice(SwapUtils.Swap storage)": {
        "params": {
          "self": "Swap struct to read from"
        },
        "returns": {
          "_0": "the virtual price, scaled to precision of POOL_PRECISION_DECIMALS"
        }
      },
      "rampA(SwapUtils.Swap storage,uint256,uint256)": {
        "params": {
          "futureA_": "the new A to ramp towards",
          "futureTime_": "timestamp when the new A should be reached",
          "self": "Swap struct to update"
        }
      },
      "removeLiquidity(SwapUtils.Swap storage,uint256,uint256[])": {
        "details": "Liquidity can always be removed, even when the pool is paused.",
        "params": {
          "amount": "the amount of LP tokens to burn",
          "minAmounts": "the minimum amounts of each token in the pool acceptable for this burn. Useful as a front-running mitigation",
          "self": "Swap struct to read from and write to"
        },
        "returns": {
          "_0": "amounts of tokens the user received"
        }
      },
      "removeLiquidityImbalance(SwapUtils.Swap storage,uint256[],uint256)": {
        "params": {
          "amounts": "how much of each token to withdraw",
          "maxBurnAmount": "the max LP token provider is willing to pay to remove liquidity. Useful as a front-running mitigation.",
          "self": "Swap struct to read from and write to"
        },
        "returns": {
          "_0": "actual amount of LP tokens burned in the withdrawal"
        }
      },
      "removeLiquidityOneToken(SwapUtils.Swap storage,uint256,uint8,uint256)": {
        "params": {
          "minAmount": "the minimum amount to withdraw, otherwise revert",
          "self": "Swap struct to read from and write to",
          "tokenAmount": "the amount of the lp tokens to burn",
          "tokenIndex": "the index of the token you want to receive"
        },
        "returns": {
          "_0": "amount chosen token that user received"
        }
      },
      "setAdminFee(SwapUtils.Swap storage,uint256)": {
        "details": "adminFee cannot be higher than 100% of the swap fee",
        "params": {
          "newAdminFee": "new admin fee to be applied on future transactions",
          "self": "Swap struct to update"
        }
      },
      "setDefaultWithdrawFee(SwapUtils.Swap storage,uint256)": {
        "params": {
          "newWithdrawFee": "new withdraw fee to be applied",
          "self": "Swap struct to update"
        }
      },
      "setSwapFee(SwapUtils.Swap storage,uint256)": {
        "details": "fee cannot be higher than 1% of each swap",
        "params": {
          "newSwapFee": "new swap fee to be applied on future transactions",
          "self": "Swap struct to update"
        }
      },
      "stopRampA(SwapUtils.Swap storage)": {
        "params": {
          "self": "Swap struct to update"
        }
      },
      "swap(SwapUtils.Swap storage,uint8,uint8,uint256,uint256)": {
        "params": {
          "dx": "the amount of tokens the user wants to sell",
          "minDy": "the min amount the user would like to receive, or revert.",
          "self": "Swap struct to read from and write to",
          "tokenIndexFrom": "the token the user wants to sell",
          "tokenIndexTo": "the token the user wants to buy"
        },
        "returns": {
          "_0": "amount of token user received on swap"
        }
      },
      "updateUserWithdrawFee(SwapUtils.Swap storage,address,uint256)": {
        "params": {
          "self": "Swap struct to read from and write to",
          "toMint": "amount of pool tokens to be minted",
          "user": "address of the user depositing tokens"
        }
      },
      "withdrawAdminFees(SwapUtils.Swap storage,address)": {
        "params": {
          "self": "Swap struct to withdraw fees from",
          "to": "Address to send the fees to"
        }
      }
    },
    "title": "SwapUtils library",
    "version": 1
  },
  "userdoc": {
    "kind": "user",
    "methods": {
      "addLiquidity(SwapUtils.Swap storage,uint256[],uint256)": {
        "notice": "Add liquidity to the pool"
      },
      "calculateCurrentWithdrawFee(SwapUtils.Swap storage,address)": {
        "notice": "Calculate the fee that is applied when the given user withdraws. Withdraw fee decays linearly over 4 weeks."
      },
      "calculateRemoveLiquidity(SwapUtils.Swap storage,address,uint256)": {
        "notice": "A simple method to calculate amount of each underlying tokens that is returned upon burning given amount of LP tokens"
      },
      "calculateSwap(SwapUtils.Swap storage,uint8,uint8,uint256)": {
        "notice": "Externally calculates a swap between two tokens."
      },
      "calculateTokenAmount(SwapUtils.Swap storage,address,uint256[],bool)": {
        "notice": "A simple method to calculate prices from deposits or withdrawals, excluding fees but including slippage. This is helpful as an input into the various \"min\" parameters on calls to fight front-running"
      },
      "calculateWithdrawOneToken(SwapUtils.Swap storage,address,uint256,uint8)": {
        "notice": "Calculate the dy, the amount of selected token that user receives and the fee of withdrawing in one token"
      },
      "getA(SwapUtils.Swap storage)": {
        "notice": "Return A, the amplification coefficient * n * (n - 1)"
      },
      "getAPrecise(SwapUtils.Swap storage)": {
        "notice": "Return A in its raw precision"
      },
      "getAdminBalance(SwapUtils.Swap storage,uint256)": {
        "notice": "return accumulated amount of admin fees of the token with given index"
      },
      "getDepositTimestamp(SwapUtils.Swap storage,address)": {
        "notice": "Retrieves the timestamp of last deposit made by the given address"
      },
      "getVirtualPrice(SwapUtils.Swap storage)": {
        "notice": "Get the virtual price, to help calculate profit"
      },
      "rampA(SwapUtils.Swap storage,uint256,uint256)": {
        "notice": "Start ramping up or down A parameter towards given futureA_ and futureTime_ Checks if the change is too rapid, and commits the new A value only when it falls under the limit range."
      },
      "removeLiquidity(SwapUtils.Swap storage,uint256,uint256[])": {
        "notice": "Burn LP tokens to remove liquidity from the pool."
      },
      "removeLiquidityImbalance(SwapUtils.Swap storage,uint256[],uint256)": {
        "notice": "Remove liquidity from the pool, weighted differently than the pool's current balances."
      },
      "removeLiquidityOneToken(SwapUtils.Swap storage,uint256,uint8,uint256)": {
        "notice": "Remove liquidity from the pool all in one token."
      },
      "setAdminFee(SwapUtils.Swap storage,uint256)": {
        "notice": "Sets the admin fee"
      },
      "setDefaultWithdrawFee(SwapUtils.Swap storage,uint256)": {
        "notice": "update the default withdraw fee. This also affects deposits made in the past as well."
      },
      "setSwapFee(SwapUtils.Swap storage,uint256)": {
        "notice": "update the swap fee"
      },
      "stopRampA(SwapUtils.Swap storage)": {
        "notice": "Stops ramping A immediately. Once this function is called, rampA() cannot be called for another 24 hours"
      },
      "swap(SwapUtils.Swap storage,uint8,uint8,uint256,uint256)": {
        "notice": "swap two tokens in the pool"
      },
      "updateUserWithdrawFee(SwapUtils.Swap storage,address,uint256)": {
        "notice": "Update the withdraw fee for `user`. If the user is currently not providing liquidity in the pool, sets to default value. If not, recalculate the starting withdraw fee based on the last deposit's time & amount relative to the new deposit."
      },
      "withdrawAdminFees(SwapUtils.Swap storage,address)": {
        "notice": "withdraw all admin fees to a given address"
      }
    },
    "notice": "A library to be used within Swap.sol. Contains functions responsible for custody and AMM functionalities.",
    "version": 1
  },
  "storageLayout": {
    "storage": [],
    "types": null
  }
}