{
  "address": "0x43659Cd896e93620aEcC5e74A4e3b76F98ff3Dfc",
  "abi": [
    {
      "inputs": [
        {
          "internalType": "contract IFireBirdRouter",
          "name": "_fireBirdRouter",
          "type": "address"
        }
      ],
      "stateMutability": "nonpayable",
      "type": "constructor"
    },
    {
      "anonymous": false,
      "inputs": [
        {
          "indexed": false,
          "internalType": "address",
          "name": "governance",
          "type": "address"
        }
      ],
      "name": "LogGovernance",
      "type": "event"
    },
    {
      "anonymous": false,
      "inputs": [
        {
          "indexed": true,
          "internalType": "address",
          "name": "token",
          "type": "address"
        },
        {
          "indexed": false,
          "internalType": "uint256",
          "name": "amount",
          "type": "uint256"
        },
        {
          "indexed": false,
          "internalType": "address",
          "name": "to",
          "type": "address"
        }
      ],
      "name": "Withdraw",
      "type": "event"
    },
    {
      "anonymous": false,
      "inputs": [
        {
          "indexed": true,
          "internalType": "address",
          "name": "sender",
          "type": "address"
        },
        {
          "indexed": false,
          "internalType": "address",
          "name": "from",
          "type": "address"
        },
        {
          "indexed": false,
          "internalType": "uint256",
          "name": "amtFrom",
          "type": "uint256"
        },
        {
          "indexed": false,
          "internalType": "address",
          "name": "pool",
          "type": "address"
        },
        {
          "indexed": false,
          "internalType": "uint256",
          "name": "amtLp",
          "type": "uint256"
        }
      ],
      "name": "ZapIn",
      "type": "event"
    },
    {
      "anonymous": false,
      "inputs": [
        {
          "indexed": true,
          "internalType": "address",
          "name": "sender",
          "type": "address"
        },
        {
          "indexed": false,
          "internalType": "address",
          "name": "pool",
          "type": "address"
        },
        {
          "indexed": false,
          "internalType": "uint256",
          "name": "amtLp",
          "type": "uint256"
        },
        {
          "indexed": false,
          "internalType": "address",
          "name": "to",
          "type": "address"
        },
        {
          "indexed": false,
          "internalType": "uint256",
          "name": "amtTo",
          "type": "uint256"
        }
      ],
      "name": "ZapOut",
      "type": "event"
    },
    {
      "inputs": [],
      "name": "WBNB",
      "outputs": [
        {
          "internalType": "address",
          "name": "",
          "type": "address"
        }
      ],
      "stateMutability": "view",
      "type": "function"
    },
    {
      "inputs": [],
      "name": "fireBirdFactory",
      "outputs": [
        {
          "internalType": "address",
          "name": "",
          "type": "address"
        }
      ],
      "stateMutability": "view",
      "type": "function"
    },
    {
      "inputs": [],
      "name": "fireBirdFormula",
      "outputs": [
        {
          "internalType": "contract IFireBirdFormula",
          "name": "",
          "type": "address"
        }
      ],
      "stateMutability": "view",
      "type": "function"
    },
    {
      "inputs": [],
      "name": "fireBirdRouter",
      "outputs": [
        {
          "internalType": "contract IFireBirdRouter",
          "name": "",
          "type": "address"
        }
      ],
      "stateMutability": "view",
      "type": "function"
    },
    {
      "inputs": [
        {
          "internalType": "address",
          "name": "_from",
          "type": "address"
        },
        {
          "internalType": "uint256",
          "name": "_fromAmount",
          "type": "uint256"
        },
        {
          "internalType": "address",
          "name": "lp",
          "type": "address"
        },
        {
          "internalType": "uint8",
          "name": "dexId",
          "type": "uint8"
        }
      ],
      "name": "getAmountBToZapIn",
      "outputs": [
        {
          "internalType": "uint256",
          "name": "amountBConverted",
          "type": "uint256"
        },
        {
          "internalType": "uint256",
          "name": "amountASell",
          "type": "uint256"
        }
      ],
      "stateMutability": "view",
      "type": "function"
    },
    {
      "inputs": [
        {
          "internalType": "address",
          "name": "_from",
          "type": "address"
        },
        {
          "internalType": "uint256",
          "name": "amount",
          "type": "uint256"
        },
        {
          "internalType": "address",
          "name": "_toToken",
          "type": "address"
        },
        {
          "internalType": "uint8",
          "name": "dexId",
          "type": "uint8"
        }
      ],
      "name": "getAmountToZapOut",
      "outputs": [
        {
          "internalType": "uint256",
          "name": "amountOtherSell",
          "type": "uint256"
        },
        {
          "internalType": "uint256",
          "name": "amountToConverted",
          "type": "uint256"
        },
        {
          "internalType": "uint256",
          "name": "amountToOrigin",
          "type": "uint256"
        }
      ],
      "stateMutability": "view",
      "type": "function"
    },
    {
      "inputs": [],
      "name": "governance",
      "outputs": [
        {
          "internalType": "address",
          "name": "",
          "type": "address"
        }
      ],
      "stateMutability": "view",
      "type": "function"
    },
    {
      "inputs": [
        {
          "internalType": "contract IERC20[]",
          "name": "tokens",
          "type": "address[]"
        },
        {
          "internalType": "address[]",
          "name": "spenders",
          "type": "address[]"
        },
        {
          "internalType": "uint256",
          "name": "allowance",
          "type": "uint256"
        }
      ],
      "name": "manualApproveAllowance",
      "outputs": [],
      "stateMutability": "nonpayable",
      "type": "function"
    },
    {
      "inputs": [
        {
          "internalType": "address",
          "name": "tokenA",
          "type": "address"
        },
        {
          "internalType": "address",
          "name": "tokenB",
          "type": "address"
        },
        {
          "components": [
            {
              "internalType": "address",
              "name": "router",
              "type": "address"
            },
            {
              "internalType": "address",
              "name": "pair",
              "type": "address"
            },
            {
              "internalType": "uint256",
              "name": "amountAMin",
              "type": "uint256"
            },
            {
              "internalType": "uint256",
              "name": "amountBMin",
              "type": "uint256"
            }
          ],
          "internalType": "struct FireBirdZap.PoolLiquidityInfo",
          "name": "oldPair",
          "type": "tuple"
        },
        {
          "components": [
            {
              "internalType": "address",
              "name": "router",
              "type": "address"
            },
            {
              "internalType": "address",
              "name": "pair",
              "type": "address"
            },
            {
              "internalType": "uint256",
              "name": "amountAMin",
              "type": "uint256"
            },
            {
              "internalType": "uint256",
              "name": "amountBMin",
              "type": "uint256"
            }
          ],
          "internalType": "struct FireBirdZap.PoolLiquidityInfo",
          "name": "newPair",
          "type": "tuple"
        },
        {
          "internalType": "uint256",
          "name": "liquidity",
          "type": "uint256"
        }
      ],
      "name": "migrate",
      "outputs": [],
      "stateMutability": "nonpayable",
      "type": "function"
    },
    {
      "inputs": [
        {
          "internalType": "address",
          "name": "tokenA",
          "type": "address"
        },
        {
          "internalType": "address",
          "name": "tokenB",
          "type": "address"
        },
        {
          "components": [
            {
              "internalType": "address",
              "name": "router",
              "type": "address"
            },
            {
              "internalType": "address",
              "name": "pair",
              "type": "address"
            },
            {
              "internalType": "uint256",
              "name": "amountAMin",
              "type": "uint256"
            },
            {
              "internalType": "uint256",
              "name": "amountBMin",
              "type": "uint256"
            }
          ],
          "internalType": "struct FireBirdZap.PoolLiquidityInfo",
          "name": "oldPair",
          "type": "tuple"
        },
        {
          "components": [
            {
              "internalType": "address",
              "name": "router",
              "type": "address"
            },
            {
              "internalType": "address",
              "name": "pair",
              "type": "address"
            },
            {
              "internalType": "uint256",
              "name": "amountAMin",
              "type": "uint256"
            },
            {
              "internalType": "uint256",
              "name": "amountBMin",
              "type": "uint256"
            }
          ],
          "internalType": "struct FireBirdZap.PoolLiquidityInfo",
          "name": "newPair",
          "type": "tuple"
        },
        {
          "internalType": "uint256",
          "name": "liquidity",
          "type": "uint256"
        },
        {
          "internalType": "uint256",
          "name": "deadline",
          "type": "uint256"
        },
        {
          "internalType": "uint8",
          "name": "v",
          "type": "uint8"
        },
        {
          "internalType": "bytes32",
          "name": "r",
          "type": "bytes32"
        },
        {
          "internalType": "bytes32",
          "name": "s",
          "type": "bytes32"
        }
      ],
      "name": "migrateWithPermit",
      "outputs": [],
      "stateMutability": "nonpayable",
      "type": "function"
    },
    {
      "inputs": [
        {
          "internalType": "address",
          "name": "_governance",
          "type": "address"
        }
      ],
      "name": "setGovernance",
      "outputs": [],
      "stateMutability": "nonpayable",
      "type": "function"
    },
    {
      "inputs": [
        {
          "internalType": "address",
          "name": "_uniRouter",
          "type": "address"
        },
        {
          "internalType": "bool",
          "name": "_isWhitelist",
          "type": "bool"
        }
      ],
      "name": "setWhitelistUniRouter",
      "outputs": [],
      "stateMutability": "nonpayable",
      "type": "function"
    },
    {
      "inputs": [
        {
          "internalType": "address",
          "name": "",
          "type": "address"
        }
      ],
      "name": "whitelistUniRouter",
      "outputs": [
        {
          "internalType": "bool",
          "name": "",
          "type": "bool"
        }
      ],
      "stateMutability": "view",
      "type": "function"
    },
    {
      "inputs": [
        {
          "internalType": "address[]",
          "name": "tokens",
          "type": "address[]"
        },
        {
          "internalType": "address",
          "name": "to",
          "type": "address"
        }
      ],
      "name": "withdrawToken",
      "outputs": [],
      "stateMutability": "nonpayable",
      "type": "function"
    },
    {
      "inputs": [
        {
          "internalType": "address",
          "name": "token",
          "type": "address"
        },
        {
          "internalType": "address",
          "name": "to",
          "type": "address"
        },
        {
          "internalType": "uint256",
          "name": "amount",
          "type": "uint256"
        }
      ],
      "name": "withdrawTokenAmount",
      "outputs": [],
      "stateMutability": "nonpayable",
      "type": "function"
    },
    {
      "inputs": [
        {
          "internalType": "address",
          "name": "_to",
          "type": "address"
        },
        {
          "internalType": "uint256",
          "name": "_minTokenB",
          "type": "uint256"
        },
        {
          "internalType": "uint256",
          "name": "_minLp",
          "type": "uint256"
        },
        {
          "internalType": "uint8",
          "name": "dexId",
          "type": "uint8"
        },
        {
          "internalType": "address",
          "name": "uniRouter",
          "type": "address"
        },
        {
          "internalType": "bool",
          "name": "transferResidual",
          "type": "bool"
        }
      ],
      "name": "zapIn",
      "outputs": [
        {
          "internalType": "uint256",
          "name": "",
          "type": "uint256"
        }
      ],
      "stateMutability": "payable",
      "type": "function"
    },
    {
      "inputs": [
        {
          "internalType": "address",
          "name": "_from",
          "type": "address"
        },
        {
          "internalType": "uint256[]",
          "name": "amounts",
          "type": "uint256[]"
        },
        {
          "internalType": "address",
          "name": "_to",
          "type": "address"
        },
        {
          "internalType": "uint8",
          "name": "dexId",
          "type": "uint8"
        },
        {
          "internalType": "address",
          "name": "uniRouter",
          "type": "address"
        },
        {
          "internalType": "bool",
          "name": "transferResidual",
          "type": "bool"
        }
      ],
      "name": "zapInToken",
      "outputs": [
        {
          "internalType": "uint256",
          "name": "lpAmt",
          "type": "uint256"
        }
      ],
      "stateMutability": "nonpayable",
      "type": "function"
    },
    {
      "inputs": [
        {
          "internalType": "address",
          "name": "_from",
          "type": "address"
        },
        {
          "internalType": "uint256",
          "name": "amount",
          "type": "uint256"
        },
        {
          "internalType": "address",
          "name": "_toToken",
          "type": "address"
        },
        {
          "internalType": "uint256",
          "name": "_minTokensRec",
          "type": "uint256"
        },
        {
          "internalType": "uint8",
          "name": "dexId",
          "type": "uint8"
        },
        {
          "internalType": "address",
          "name": "uniRouter",
          "type": "address"
        }
      ],
      "name": "zapOut",
      "outputs": [
        {
          "internalType": "uint256",
          "name": "",
          "type": "uint256"
        }
      ],
      "stateMutability": "nonpayable",
      "type": "function"
    },
    {
      "inputs": [
        {
          "internalType": "address",
          "name": "_from",
          "type": "address"
        },
        {
          "internalType": "uint256",
          "name": "amount",
          "type": "uint256"
        },
        {
          "internalType": "address",
          "name": "uniRouter",
          "type": "address"
        }
      ],
      "name": "zapOutToPair",
      "outputs": [
        {
          "internalType": "uint256",
          "name": "amountA",
          "type": "uint256"
        },
        {
          "internalType": "uint256",
          "name": "amountB",
          "type": "uint256"
        }
      ],
      "stateMutability": "nonpayable",
      "type": "function"
    },
    {
      "inputs": [
        {
          "internalType": "address",
          "name": "_from",
          "type": "address"
        },
        {
          "internalType": "uint256",
          "name": "_amount",
          "type": "uint256"
        },
        {
          "internalType": "address",
          "name": "_uniRouter",
          "type": "address"
        },
        {
          "internalType": "uint256",
          "name": "_approvalAmount",
          "type": "uint256"
        },
        {
          "internalType": "uint256",
          "name": "_deadline",
          "type": "uint256"
        },
        {
          "internalType": "uint8",
          "name": "v",
          "type": "uint8"
        },
        {
          "internalType": "bytes32",
          "name": "r",
          "type": "bytes32"
        },
        {
          "internalType": "bytes32",
          "name": "s",
          "type": "bytes32"
        }
      ],
      "name": "zapOutToPairWithPermit",
      "outputs": [
        {
          "internalType": "uint256",
          "name": "amountA",
          "type": "uint256"
        },
        {
          "internalType": "uint256",
          "name": "amountB",
          "type": "uint256"
        }
      ],
      "stateMutability": "nonpayable",
      "type": "function"
    },
    {
      "inputs": [
        {
          "internalType": "address",
          "name": "_from",
          "type": "address"
        },
        {
          "internalType": "uint256",
          "name": "amount",
          "type": "uint256"
        },
        {
          "internalType": "address",
          "name": "_toToken",
          "type": "address"
        },
        {
          "internalType": "uint256",
          "name": "_minTokensRec",
          "type": "uint256"
        },
        {
          "internalType": "uint8",
          "name": "dexId",
          "type": "uint8"
        },
        {
          "internalType": "address",
          "name": "uniRouter",
          "type": "address"
        },
        {
          "internalType": "uint256",
          "name": "_approvalAmount",
          "type": "uint256"
        },
        {
          "internalType": "uint256",
          "name": "_deadline",
          "type": "uint256"
        },
        {
          "internalType": "uint8",
          "name": "v",
          "type": "uint8"
        },
        {
          "internalType": "bytes32",
          "name": "r",
          "type": "bytes32"
        },
        {
          "internalType": "bytes32",
          "name": "s",
          "type": "bytes32"
        }
      ],
      "name": "zapOutWithPermit",
      "outputs": [
        {
          "internalType": "uint256",
          "name": "",
          "type": "uint256"
        }
      ],
      "stateMutability": "nonpayable",
      "type": "function"
    },
    {
      "stateMutability": "payable",
      "type": "receive"
    }
  ],
  "transactionHash": "0x4eb5fd6cebe756b86c3864e6b16266700dd523172753c5641327e18abf79a513",
  "args": [
    "0x4BFBf7fCC9776CE8285B059fB77e7Bb2A5c5E365"
  ],
  "solcInputHash": "2e4ef85039a7c061add9857fb7795d5e",
  "bytecode": "0x60806040523480156200001157600080fd5b50604051620060af380380620060af833981016040819052620000349162000225565b6001600081905580546001600160a01b03199081163317909155600380546001600160a01b0384169216821790556040805163c45a015560e01b8152905163c45a015591600480820192602092909190829003018186803b1580156200009957600080fd5b505afa158015620000ae573d6000803e3d6000fd5b505050506040513d601f19601f82011682018060405250810190620000d4919062000225565b600480546001600160a01b0319166001600160a01b0392831617815560408051634b75f54f60e01b8152905192841692634b75f54f92828101926020929190829003018186803b1580156200012857600080fd5b505afa1580156200013d573d6000803e3d6000fd5b505050506040513d601f19601f8201168201806040525081019062000163919062000225565b600560006101000a8154816001600160a01b0302191690836001600160a01b03160217905550806001600160a01b031663ad5c46486040518163ffffffff1660e01b815260040160206040518083038186803b158015620001c357600080fd5b505afa158015620001d8573d6000803e3d6000fd5b505050506040513d601f19601f82011682018060405250810190620001fe919062000225565b600280546001600160a01b0319166001600160a01b03929092169190911790555062000264565b60006020828403121562000237578081fd5b815162000244816200024b565b9392505050565b6001600160a01b03811681146200026157600080fd5b50565b615e3b80620002746000396000f3fe60806040526004361061016e5760003560e01c80636bd3e89f116100cb5780637e2150fd1161007f578063ab033ea911610059578063ab033ea914610406578063d30b7e2a14610426578063f4a9c16b14610446576101b8565b80637e2150fd146103bc5780638dd95002146103d15780639f53beac146103e6576101b8565b80637a226ab0116100b05780637a226ab0146103695780637a9b214d1461037c5780637b191ff21461039c576101b8565b80636bd3e89f14610329578063760cec6714610349576101b8565b80632c002c0611610122578063457e7e5911610107578063457e7e59146102d25780635aa6e675146102ff57806360a13c5214610314576101b8565b80632c002c06146102925780633904a5ef146102b2576101b8565b806312e225681161015357806312e225681461022357806326d718c91461024557806328e802ac14610272576101b8565b8063047be023146101bd5780630f4c1a93146101f4576101b8565b366101b857333214156101b6576040517f08c379a00000000000000000000000000000000000000000000000000000000081526004016101ad906157d9565b60405180910390fd5b005b600080fd5b3480156101c957600080fd5b506101dd6101d8366004614dc9565b610466565b6040516101eb929190615cd9565b60405180910390f35b34801561020057600080fd5b5061021461020f366004614dc9565b61078c565b6040516101eb93929190615ce7565b34801561022f57600080fd5b50610238610a68565b6040516101eb9190615256565b34801561025157600080fd5b50610265610260366004614cb2565b610a84565b6040516101eb9190615cac565b34801561027e57600080fd5b506101b661028d366004614adc565b6110f6565b34801561029e57600080fd5b506102656102ad366004614b1c565b61120a565b3480156102be57600080fd5b506101b66102cd366004614f92565b6118b7565b3480156102de57600080fd5b506102f26102ed3660046149ab565b61199a565b6040516101eb9190615711565b34801561030b57600080fd5b506102386119af565b34801561032057600080fd5b506102386119cb565b34801561033557600080fd5b506101b6610344366004614bbb565b6119e7565b34801561035557600080fd5b506101b6610364366004614a79565b611a8e565b610265610377366004614e7f565b611da2565b34801561038857600080fd5b506101dd610397366004614bf3565b612081565b3480156103a857600080fd5b506101b66103b7366004614edf565b612622565b3480156103c857600080fd5b506102386126f6565b3480156103dd57600080fd5b50610238612712565b3480156103f257600080fd5b506101b66104013660046149e3565b61272e565b34801561041257600080fd5b506101b66104213660046149ab565b6127dc565b34801561043257600080fd5b50610265610441366004614d20565b6128ae565b34801561045257600080fd5b506101dd610461366004614c34565b61295f565b600080600080600086905060008173ffffffffffffffffffffffffffffffffffffffff16630dfe16816040518163ffffffff1660e01b815260040160206040518083038186803b1580156104b957600080fd5b505afa1580156104cd573d6000803e3d6000fd5b505050506040513d601f19601f820116820180604052508101906104f191906149c7565b905060008273ffffffffffffffffffffffffffffffffffffffff1663d21220a76040518163ffffffff1660e01b815260040160206040518083038186803b15801561053b57600080fd5b505afa15801561054f573d6000803e3d6000fd5b505050506040513d601f19601f8201168201806040525081019061057391906149c7565b90508173ffffffffffffffffffffffffffffffffffffffff168b73ffffffffffffffffffffffffffffffffffffffff16146105ae57816105b0565b805b94506105bf898c8c858c6129f5565b6040805160018082528183019092529195506060945090925090506020808301908036833701905050905086816000815181106105f857fe5b73ffffffffffffffffffffffffffffffffffffffff9290921660209283029190910190910152604080516001808252818301909252606091816020016020820280368337019050509050868160008151811061065057fe5b602002602001019060ff16908160ff16815250506060600560009054906101000a900473ffffffffffffffffffffffffffffffffffffffff1673ffffffffffffffffffffffffffffffffffffffff1663f2734c38600460009054906101000a900473ffffffffffffffffffffffffffffffffffffffff168d888888886040518763ffffffff1660e01b81526004016106ed969594939291906152ec565b60006040518083038186803b15801561070557600080fd5b505afa158015610719573d6000803e3d6000fd5b505050506040513d6000823e601f3d9081017fffffffffffffffffffffffffffffffffffffffffffffffffffffffffffffffe016820160405261075f9190810190615003565b90508060018251038151811061077157fe5b60200260200101518496509650505050505094509492505050565b600080600080600088905060008173ffffffffffffffffffffffffffffffffffffffff16630dfe16816040518163ffffffff1660e01b815260040160206040518083038186803b1580156107df57600080fd5b505afa1580156107f3573d6000803e3d6000fd5b505050506040513d601f19601f8201168201806040525081019061081791906149c7565b905060008273ffffffffffffffffffffffffffffffffffffffff1663d21220a76040518163ffffffff1660e01b815260040160206040518083038186803b15801561086157600080fd5b505afa158015610875573d6000803e3d6000fd5b505050506040513d601f19601f8201168201806040525081019061089991906149c7565b90508173ffffffffffffffffffffffffffffffffffffffff168973ffffffffffffffffffffffffffffffffffffffff16146108d457816108d6565b805b935050505060008060008a73ffffffffffffffffffffffffffffffffffffffff166318160ddd6040518163ffffffff1660e01b815260040160206040518083038186803b15801561092657600080fd5b505afa15801561093a573d6000803e3d6000fd5b505050506040513d601f19601f8201168201806040525081019061095e919061510b565b9050806109f48573ffffffffffffffffffffffffffffffffffffffff166370a082318e6040518263ffffffff1660e01b815260040161099d9190615256565b60206040518083038186803b1580156109b557600080fd5b505afa1580156109c9573d6000803e3d6000fd5b505050506040513d601f19601f820116820180604052508101906109ed919061510b565b8c90612c48565b816109fb57fe5b04925080610a3b8a73ffffffffffffffffffffffffffffffffffffffff166370a082318e6040518263ffffffff1660e01b815260040161099d9190615256565b81610a4257fe5b049150506000610a558b8585858c612ca5565b929b929a50909850909650505050505050565b60055473ffffffffffffffffffffffffffffffffffffffff1681565b73ffffffffffffffffffffffffffffffffffffffff8116600090815260066020526040812054829060ff1680610ad4575060035473ffffffffffffffffffffffffffffffffffffffff8281169116145b610b0a576040517f08c379a00000000000000000000000000000000000000000000000000000000081526004016101ad90615a4b565b60026000541415610b47576040517f08c379a00000000000000000000000000000000000000000000000000000000081526004016101ad90615be1565b60026000819055508273ffffffffffffffffffffffffffffffffffffffff1663c45a01556040518163ffffffff1660e01b815260040160206040518083038186803b158015610b9557600080fd5b505afa158015610ba9573d6000803e3d6000fd5b505050506040513d601f19601f82011682018060405250810190610bcd91906149c7565b73ffffffffffffffffffffffffffffffffffffffff168873ffffffffffffffffffffffffffffffffffffffff1663c45a01556040518163ffffffff1660e01b815260040160206040518083038186803b158015610c2957600080fd5b505afa158015610c3d573d6000803e3d6000fd5b505050506040513d601f19601f82011682018060405250810190610c6191906149c7565b73ffffffffffffffffffffffffffffffffffffffff1614610cae576040517f08c379a00000000000000000000000000000000000000000000000000000000081526004016101ad90615c75565b610cd073ffffffffffffffffffffffffffffffffffffffff891633308a612e46565b60008060008060008c90508073ffffffffffffffffffffffffffffffffffffffff16630dfe16816040518163ffffffff1660e01b815260040160206040518083038186803b158015610d2157600080fd5b505afa158015610d35573d6000803e3d6000fd5b505050506040513d601f19601f82011682018060405250810190610d5991906149c7565b94508073ffffffffffffffffffffffffffffffffffffffff1663d21220a76040518163ffffffff1660e01b815260040160206040518083038186803b158015610da157600080fd5b505afa158015610db5573d6000803e3d6000fd5b505050506040513d601f19601f82011682018060405250810190610dd991906149c7565b9350610deb8d86868f6001808e612eef565b909350915060009050610dfe8589613047565b610e088489613047565b73ffffffffffffffffffffffffffffffffffffffff8b1673eeeeeeeeeeeeeeeeeeeeeeeeeeeeeeeeeeeeeeee1415610f0a5760025460009073ffffffffffffffffffffffffffffffffffffffff87811691161480610e80575060025473ffffffffffffffffffffffffffffffffffffffff8681169116145b610e8b576000610e8d565b8d5b905073ffffffffffffffffffffffffffffffffffffffff8116610edc576040517f08c379a00000000000000000000000000000000000000000000000000000000081526004016101ad906157a2565b610ee9868530848e613227565b9150610f02610efb868530858f613227565b83906133d9565b915050610ff1565b60008573ffffffffffffffffffffffffffffffffffffffff168c73ffffffffffffffffffffffffffffffffffffffff161480610f7157508473ffffffffffffffffffffffffffffffffffffffff168c73ffffffffffffffffffffffffffffffffffffffff16145b610f7c576000610f7e565b8d5b905073ffffffffffffffffffffffffffffffffffffffff8116610fcd576040517f08c379a00000000000000000000000000000000000000000000000000000000081526004016101ad90615b4d565b610fdb86858e30858f613418565b9150610feb85848e30858f613418565b82019150505b8981101561102b576040517f08c379a00000000000000000000000000000000000000000000000000000000081526004016101ad906158b5565b73ffffffffffffffffffffffffffffffffffffffff8b1673eeeeeeeeeeeeeeeeeeeeeeeeeeeeeeeeeeeeeeee141561106c576110673382613713565b61108d565b61108d73ffffffffffffffffffffffffffffffffffffffff8c1633836137c7565b3373ffffffffffffffffffffffffffffffffffffffff167f04a863d47eb1f82dce727c38e0b2294b96dea01f7d8c060216edb8ef473ea8398e8e8e856040516110d9949392919061562c565b60405180910390a260016000559c9b505050505050505050505050565b60015473ffffffffffffffffffffffffffffffffffffffff163314611147576040517f08c379a00000000000000000000000000000000000000000000000000000000081526004016101ad9061587e565b73ffffffffffffffffffffffffffffffffffffffff8216611194576040517f08c379a00000000000000000000000000000000000000000000000000000000081526004016101ad906159b7565b6111b573ffffffffffffffffffffffffffffffffffffffff841683836137c7565b8273ffffffffffffffffffffffffffffffffffffffff167f56c54ba9bd38d8fd62012e42c7ee564519b09763c426d331b3661b537ead19b282846040516111fd929190615cb5565b60405180910390a2505050565b73ffffffffffffffffffffffffffffffffffffffff8216600090815260066020526040812054839060ff168061125a575060035473ffffffffffffffffffffffffffffffffffffffff8281169116145b611290576040517f08c379a00000000000000000000000000000000000000000000000000000000081526004016101ad90615a4b565b600260005414156112cd576040517f08c379a00000000000000000000000000000000000000000000000000000000081526004016101ad90615be1565b60026000819055508573ffffffffffffffffffffffffffffffffffffffff16630dfe16816040518163ffffffff1660e01b815260040160206040518083038186803b15801561131b57600080fd5b505afa15801561132f573d6000803e3d6000fd5b505050506040513d601f19601f8201168201806040525081019061135391906149c7565b73ffffffffffffffffffffffffffffffffffffffff168973ffffffffffffffffffffffffffffffffffffffff16148061143457508573ffffffffffffffffffffffffffffffffffffffff1663d21220a76040518163ffffffff1660e01b815260040160206040518083038186803b1580156113cd57600080fd5b505afa1580156113e1573d6000803e3d6000fd5b505050506040513d601f19601f8201168201806040525081019061140591906149c7565b73ffffffffffffffffffffffffffffffffffffffff168973ffffffffffffffffffffffffffffffffffffffff16145b61146a576040517f08c379a00000000000000000000000000000000000000000000000000000000081526004016101ad90615b4d565b8373ffffffffffffffffffffffffffffffffffffffff1663c45a01556040518163ffffffff1660e01b815260040160206040518083038186803b1580156114b057600080fd5b505afa1580156114c4573d6000803e3d6000fd5b505050506040513d601f19601f820116820180604052508101906114e891906149c7565b73ffffffffffffffffffffffffffffffffffffffff168673ffffffffffffffffffffffffffffffffffffffff1663c45a01556040518163ffffffff1660e01b815260040160206040518083038186803b15801561154457600080fd5b505afa158015611558573d6000803e3d6000fd5b505050506040513d601f19601f8201168201806040525081019061157c91906149c7565b73ffffffffffffffffffffffffffffffffffffffff16146115c9576040517f08c379a00000000000000000000000000000000000000000000000000000000081526004016101ad90615c75565b61160933308a8a60008181106115db57fe5b905060200201358c73ffffffffffffffffffffffffffffffffffffffff16612e46909392919063ffffffff16565b6116138985613047565b60008060008873ffffffffffffffffffffffffffffffffffffffff16630dfe16816040518163ffffffff1660e01b815260040160206040518083038186803b15801561165e57600080fd5b505afa158015611672573d6000803e3d6000fd5b505050506040513d601f19601f8201168201806040525081019061169691906149c7565b905060008973ffffffffffffffffffffffffffffffffffffffff1663d21220a76040518163ffffffff1660e01b815260040160206040518083038186803b1580156116e057600080fd5b505afa1580156116f4573d6000803e3d6000fd5b505050506040513d601f19601f8201168201806040525081019061171891906149c7565b90508173ffffffffffffffffffffffffffffffffffffffff168d73ffffffffffffffffffffffffffffffffffffffff16146117535781611755565b805b93506117778a8e8e8e600081811061176957fe5b90506020020135858d6129f5565b92505050600061178b8c8385308d8d613418565b90508a8a600181811061179a57fe5b905060200201358110156117da576040517f08c379a00000000000000000000000000000000000000000000000000000000081526004016101ad9061576d565b611801898d85858f8f60008181106117ee57fe5b9050602002013503856001808e8e6137e6565b96508c91508b9050600281811061181457fe5b90506020020135851015611854576040517f08c379a00000000000000000000000000000000000000000000000000000000081526004016101ad90615a82565b337f6c9d1839e8465b42ebfd3c687420dbcdf116253fd431545be184fb051c38f0c28d8d8d60008161188257fe5b905060200201358c8960405161189b949392919061562c565b60405180910390a2505050506001600055979650505050505050565b60015473ffffffffffffffffffffffffffffffffffffffff163314611908576040517f08c379a00000000000000000000000000000000000000000000000000000000081526004016101ad9061587e565b60005b848110156119925760005b838110156119895761198185858381811061192d57fe5b905060200201602081019061194291906149ab565b8489898681811061194f57fe5b905060200201602081019061196491906149ab565b73ffffffffffffffffffffffffffffffffffffffff1691906139f6565b600101611916565b5060010161190b565b505050505050565b60066020526000908152604090205460ff1681565b60015473ffffffffffffffffffffffffffffffffffffffff1681565b60035473ffffffffffffffffffffffffffffffffffffffff1681565b60015473ffffffffffffffffffffffffffffffffffffffff163314611a38576040517f08c379a00000000000000000000000000000000000000000000000000000000081526004016101ad9061587e565b73ffffffffffffffffffffffffffffffffffffffff91909116600090815260066020526040902080547fffffffffffffffffffffffffffffffffffffffffffffffffffffffffffffff0016911515919091179055565b825173ffffffffffffffffffffffffffffffffffffffff811660009081526006602052604090205460ff1680611ade575060035473ffffffffffffffffffffffffffffffffffffffff8281169116145b611b14576040517f08c379a00000000000000000000000000000000000000000000000000000000081526004016101ad90615a4b565b611b2160208401846149ab565b73ffffffffffffffffffffffffffffffffffffffff811660009081526006602052604090205460ff1680611b6f575060035473ffffffffffffffffffffffffffffffffffffffff8281169116145b611ba5576040517f08c379a00000000000000000000000000000000000000000000000000000000081526004016101ad90615a4b565b600354855173ffffffffffffffffffffffffffffffffffffffff908116911614611d11576000856000015173ffffffffffffffffffffffffffffffffffffffff1663c45a01556040518163ffffffff1660e01b815260040160206040518083038186803b158015611c1557600080fd5b505afa158015611c29573d6000803e3d6000fd5b505050506040513d601f19601f82011682018060405250810190611c4d91906149c7565b6040517fe6a4390500000000000000000000000000000000000000000000000000000000815290915073ffffffffffffffffffffffffffffffffffffffff82169063e6a4390590611ca4908b908b90600401615277565b60206040518083038186803b158015611cbc57600080fd5b505afa158015611cd0573d6000803e3d6000fd5b505050506040513d601f19601f82011682018060405250810190611cf491906149c7565b73ffffffffffffffffffffffffffffffffffffffff166020870152505b6020850151611d389073ffffffffffffffffffffffffffffffffffffffff16333086612e46565b600080611d5a87602001518a8a888b604001518c606001518d60000151612eef565b9092509050611d94611d7260408801602089016149ab565b8a8a858560408c013560608d0135611d8d60208f018f6149ab565b60016137e6565b505050505050505050505050565b73ffffffffffffffffffffffffffffffffffffffff8216600090815260066020526040812054839060ff1680611df2575060035473ffffffffffffffffffffffffffffffffffffffff8281169116145b611e28576040517f08c379a00000000000000000000000000000000000000000000000000000000081526004016101ad90615a4b565b60026000541415611e65576040517f08c379a00000000000000000000000000000000000000000000000000000000081526004016101ad90615be1565b60026000819055508373ffffffffffffffffffffffffffffffffffffffff1663c45a01556040518163ffffffff1660e01b815260040160206040518083038186803b158015611eb357600080fd5b505afa158015611ec7573d6000803e3d6000fd5b505050506040513d601f19601f82011682018060405250810190611eeb91906149c7565b73ffffffffffffffffffffffffffffffffffffffff168873ffffffffffffffffffffffffffffffffffffffff1663c45a01556040518163ffffffff1660e01b815260040160206040518083038186803b158015611f4757600080fd5b505afa158015611f5b573d6000803e3d6000fd5b505050506040513d601f19601f82011682018060405250810190611f7f91906149c7565b73ffffffffffffffffffffffffffffffffffffffff1614611fcc576040517f08c379a00000000000000000000000000000000000000000000000000000000081526004016101ad90615c75565b6000611fdc89348a898989613af9565b905086811015612018576040517f08c379a00000000000000000000000000000000000000000000000000000000081526004016101ad90615a82565b60025460405133917f6c9d1839e8465b42ebfd3c687420dbcdf116253fd431545be184fb051c38f0c2916120689173ffffffffffffffffffffffffffffffffffffffff169034908e90879061562c565b60405180910390a2600160005598975050505050505050565b73ffffffffffffffffffffffffffffffffffffffff81166000908152600660205260408120548190839060ff16806120d3575060035473ffffffffffffffffffffffffffffffffffffffff8281169116145b612109576040517f08c379a00000000000000000000000000000000000000000000000000000000081526004016101ad90615a4b565b60026000541415612146576040517f08c379a00000000000000000000000000000000000000000000000000000000081526004016101ad90615be1565b60026000819055508373ffffffffffffffffffffffffffffffffffffffff1663c45a01556040518163ffffffff1660e01b815260040160206040518083038186803b15801561219457600080fd5b505afa1580156121a8573d6000803e3d6000fd5b505050506040513d601f19601f820116820180604052508101906121cc91906149c7565b73ffffffffffffffffffffffffffffffffffffffff168673ffffffffffffffffffffffffffffffffffffffff1663c45a01556040518163ffffffff1660e01b815260040160206040518083038186803b15801561222857600080fd5b505afa15801561223c573d6000803e3d6000fd5b505050506040513d601f19601f8201168201806040525081019061226091906149c7565b73ffffffffffffffffffffffffffffffffffffffff16146122ad576040517f08c379a00000000000000000000000000000000000000000000000000000000081526004016101ad90615c75565b6122cf73ffffffffffffffffffffffffffffffffffffffff8716333088612e46565b6122d98685613047565b600086905060008173ffffffffffffffffffffffffffffffffffffffff16630dfe16816040518163ffffffff1660e01b815260040160206040518083038186803b15801561232657600080fd5b505afa15801561233a573d6000803e3d6000fd5b505050506040513d601f19601f8201168201806040525081019061235e91906149c7565b905060008273ffffffffffffffffffffffffffffffffffffffff1663d21220a76040518163ffffffff1660e01b815260040160206040518083038186803b1580156123a857600080fd5b505afa1580156123bc573d6000803e3d6000fd5b505050506040513d601f19601f820116820180604052508101906123e091906149c7565b60025490915073ffffffffffffffffffffffffffffffffffffffff90811690831681148061243957508073ffffffffffffffffffffffffffffffffffffffff168273ffffffffffffffffffffffffffffffffffffffff16145b156125f75760035473ffffffffffffffffffffffffffffffffffffffff8981169116141561251c5760035473ffffffffffffffffffffffffffffffffffffffff9081169063b56b681d908c9086811690851614156124975784612499565b855b8c60018033426040518863ffffffff1660e01b81526004016124c197969594939291906154d1565b6040805180830381600087803b1580156124da57600080fd5b505af11580156124ee573d6000803e3d6000fd5b505050506040513d601f19601f820116820180604052508101906125129190615123565b90975095506125f2565b8773ffffffffffffffffffffffffffffffffffffffff166302751cec8273ffffffffffffffffffffffffffffffffffffffff168573ffffffffffffffffffffffffffffffffffffffff1614156125725783612574565b845b8b60018033426040518763ffffffff1660e01b815260040161259b969594939291906156c9565b6040805180830381600087803b1580156125b457600080fd5b505af11580156125c8573d6000803e3d6000fd5b505050506040513d601f19601f820116820180604052508101906125ec9190615123565b90975095505b61260d565b6126078a84848c6001808e612eef565b90975095505b50505050600160008190555050935093915050565b60015473ffffffffffffffffffffffffffffffffffffffff163314612673576040517f08c379a00000000000000000000000000000000000000000000000000000000081526004016101ad9061587e565b73ffffffffffffffffffffffffffffffffffffffff81166126c0576040517f08c379a00000000000000000000000000000000000000000000000000000000081526004016101ad906159b7565b60005b82518110156126f1576126e98382815181106126db57fe5b602002602001015183613fd7565b6001016126c3565b505050565b60045473ffffffffffffffffffffffffffffffffffffffff1681565b60025473ffffffffffffffffffffffffffffffffffffffff1681565b61273e60408801602089016149ab565b73ffffffffffffffffffffffffffffffffffffffff1663d505accf333088888888886040518863ffffffff1660e01b8152600401612782979695949392919061529e565b600060405180830381600087803b15801561279c57600080fd5b505af11580156127b0573d6000803e3d6000fd5b505050506127d18989898036038101906127ca91906150af565b8989611a8e565b505050505050505050565b60015473ffffffffffffffffffffffffffffffffffffffff16331461282d576040517f08c379a00000000000000000000000000000000000000000000000000000000081526004016101ad9061587e565b600180547fffffffffffffffffffffffff00000000000000000000000000000000000000001673ffffffffffffffffffffffffffffffffffffffff83811691909117918290556040517f4d5c50bb72d5f3b4cd853277f0fedffc1df6a70dbed9a9f365013b5a8543e884926128a3921690615256565b60405180910390a150565b6040517fd505accf00000000000000000000000000000000000000000000000000000000815260009073ffffffffffffffffffffffffffffffffffffffff8d169063d505accf9061290f90339030908b908b908b908b908b9060040161529e565b600060405180830381600087803b15801561292957600080fd5b505af115801561293d573d6000803e3d6000fd5b5050505061294f8c8c8c8c8c8c610a84565b9c9b505050505050505050505050565b6000808973ffffffffffffffffffffffffffffffffffffffff1663d505accf33308a8a8a8a8a6040518863ffffffff1660e01b81526004016129a7979695949392919061529e565b600060405180830381600087803b1580156129c157600080fd5b505af11580156129d5573d6000803e3d6000fd5b505050506129e48a8a8a612081565b915091509850989650505050505050565b600554600480546040517f0c1815df00000000000000000000000000000000000000000000000000000000815260009384938493849373ffffffffffffffffffffffffffffffffffffffff93841693630c1815df93612a5c93909116918e918b9101615574565b60606040518083038186803b158015612a7457600080fd5b505afa158015612a88573d6000803e3d6000fd5b505050506040513d601f19601f82011682018060405250810190612aac9190615173565b9250925092508263ffffffff1660321415612bd8576000808a73ffffffffffffffffffffffffffffffffffffffff16630902f1ac6040518163ffffffff1660e01b815260040160606040518083038186803b158015612b0a57600080fd5b505afa158015612b1e573d6000803e3d6000fd5b505050506040513d601f19601f82011682018060405250810190612b4291906150ca565b506dffffffffffffffffffffffffffff1691506dffffffffffffffffffffffffffff16915060008873ffffffffffffffffffffffffffffffffffffffff168b73ffffffffffffffffffffffffffffffffffffffff1614612ba25781612ba4565b825b90506000612bbd61271063ffffffff8088169061413016565b9050612bca828c83614172565b975050505050505050612c3f565b60008673ffffffffffffffffffffffffffffffffffffffff168973ffffffffffffffffffffffffffffffffffffffff1614612c19578363ffffffff16612c21565b8263ffffffff165b9050612c386064612c328a84612c48565b906141f1565b9450505050505b95945050505050565b600082612c5757506000612c9f565b82820282848281612c6457fe5b0414612c9c576040517f08c379a00000000000000000000000000000000000000000000000000000000081526004016101ad906159ee565b90505b92915050565b600080600080600080600560009054906101000a900473ffffffffffffffffffffffffffffffffffffffff1673ffffffffffffffffffffffffffffffffffffffff1663eb22d54f600460009054906101000a900473ffffffffffffffffffffffffffffffffffffffff168d8d8b6040518563ffffffff1660e01b8152600401612d3194939291906153f7565b60c06040518083038186803b158015612d4957600080fd5b505afa158015612d5d573d6000803e3d6000fd5b505050506040513d601f19601f82011682018060405250810190612d819190614e1a565b600554949a509298509096509450925073ffffffffffffffffffffffffffffffffffffffff16905063671a11b58a612db98882614130565b612dc3888d614130565b8787876040518763ffffffff1660e01b8152600401612de796959493929190615cfd565b60206040518083038186803b158015612dff57600080fd5b505afa158015612e13573d6000803e3d6000fd5b505050506040513d601f19601f82011682018060405250810190612e37919061510b565b9b9a5050505050505050505050565b612ee9846323b872dd60e01b858585604051602401612e6793929190615430565b604080517fffffffffffffffffffffffffffffffffffffffffffffffffffffffffffffffe08184030181529190526020810180517bffffffffffffffffffffffffffffffffffffffffffffffffffffffff167fffffffff000000000000000000000000000000000000000000000000000000009093169290921790915261423d565b50505050565b600080612efc8984613047565b60035473ffffffffffffffffffffffffffffffffffffffff84811691161415612fdd576003546040517fe1f4a78400000000000000000000000000000000000000000000000000000000815273ffffffffffffffffffffffffffffffffffffffff9091169063e1f4a78490612f83908c908c908c908c908c908c9030904290600401615345565b6040805180830381600087803b158015612f9c57600080fd5b505af1158015612fb0573d6000803e3d6000fd5b505050506040513d601f19601f82011682018060405250810190612fd49190615123565b9150915061303b565b6040517fbaa2abde00000000000000000000000000000000000000000000000000000000815273ffffffffffffffffffffffffffffffffffffffff84169063baa2abde90612f83908b908b908b908b908b90309042906004016154d1565b97509795505050505050565b6040517fdd62ed3e00000000000000000000000000000000000000000000000000000000815273ffffffffffffffffffffffffffffffffffffffff83169063dd62ed3e9061309b9030908590600401615277565b60206040518083038186803b1580156130b357600080fd5b505afa1580156130c7573d6000803e3d6000fd5b505050506040513d601f19601f820116820180604052508101906130eb919061510b565b6131305761313073ffffffffffffffffffffffffffffffffffffffff8316827fffffffffffffffffffffffffffffffffffffffffffffffffffffffffffffffff6139f6565b6003546040517fdd62ed3e00000000000000000000000000000000000000000000000000000000815273ffffffffffffffffffffffffffffffffffffffff8085169263dd62ed3e926131889230921690600401615277565b60206040518083038186803b1580156131a057600080fd5b505afa1580156131b4573d6000803e3d6000fd5b505050506040513d601f19601f820116820180604052508101906131d8919061510b565b613223576003546132239073ffffffffffffffffffffffffffffffffffffffff84811691167fffffffffffffffffffffffffffffffffffffffffffffffffffffffffffffffff6139f6565b5050565b60025460009073ffffffffffffffffffffffffffffffffffffffff87811691161415613278576002546132719073ffffffffffffffffffffffffffffffffffffffff1685876142f3565b5083612c3f565b6040805160018082528183019092526060916020808301908036833701905050905083816000815181106132a857fe5b73ffffffffffffffffffffffffffffffffffffffff9290921660209283029190910190910152604080516001808252818301909252606091816020016020820280368337019050509050838160008151811061330057fe5b60ff909216602092830291909101909101526003546040517f242e3b9f00000000000000000000000000000000000000000000000000000000815273ffffffffffffffffffffffffffffffffffffffff8089163192169063242e3b9f90613378908c908c90600190899089908f904290600401615663565b600060405180830381600087803b15801561339257600080fd5b505af11580156133a6573d6000803e3d6000fd5b506133cc9250505073ffffffffffffffffffffffffffffffffffffffff88163182614130565b9998505050505050505050565b600082820183811015612c9c576040517f08c379a00000000000000000000000000000000000000000000000000000000081526004016101ad90615847565b60008473ffffffffffffffffffffffffffffffffffffffff168773ffffffffffffffffffffffffffffffffffffffff1614156134935773ffffffffffffffffffffffffffffffffffffffff8416301461348c5761348c73ffffffffffffffffffffffffffffffffffffffff881685886137c7565b5084613709565b6040805160018082528183019092526060916020808301908036833701905050905083816000815181106134c357fe5b73ffffffffffffffffffffffffffffffffffffffff9290921660209283029190910190910152604080516001808252818301909252606091816020016020820280368337019050509050838160008151811061351b57fe5b60ff909216602092830291909101909101526040517f70a0823100000000000000000000000000000000000000000000000000000000815260009073ffffffffffffffffffffffffffffffffffffffff8916906370a0823190613582908a90600401615256565b60206040518083038186803b15801561359a57600080fd5b505afa1580156135ae573d6000803e3d6000fd5b505050506040513d601f19601f820116820180604052508101906135d2919061510b565b9050600360009054906101000a900473ffffffffffffffffffffffffffffffffffffffff1673ffffffffffffffffffffffffffffffffffffffff1663dc9f70298b8a8c600188888e426040518963ffffffff1660e01b815260040161363e989796959493929190615461565b600060405180830381600087803b15801561365857600080fd5b505af115801561366c573d6000803e3d6000fd5b50505050613703818973ffffffffffffffffffffffffffffffffffffffff166370a082318a6040518263ffffffff1660e01b81526004016136ad9190615256565b60206040518083038186803b1580156136c557600080fd5b505afa1580156136d9573d6000803e3d6000fd5b505050506040513d601f19601f820116820180604052508101906136fd919061510b565b90614130565b93505050505b9695505050505050565b6040805160008082526020820190925273ffffffffffffffffffffffffffffffffffffffff841690839060405161374a919061523a565b60006040518083038185875af1925050503d8060008114613787576040519150601f19603f3d011682016040523d82523d6000602084013e61378c565b606091505b50509050806126f1576040517f08c379a00000000000000000000000000000000000000000000000000000000081526004016101ad90615af0565b6126f18363a9059cbb60e01b8484604051602401612e67929190615606565b60008060006137f58b86613047565b6137ff8a86613047565b60035473ffffffffffffffffffffffffffffffffffffffff868116911614156138e6576003546040517ffbf4513500000000000000000000000000000000000000000000000000000000815273ffffffffffffffffffffffffffffffffffffffff9091169063fbf4513590613888908f908f908f908f908f908f908f903390429060040161539b565b606060405180830381600087803b1580156138a257600080fd5b505af11580156138b6573d6000803e3d6000fd5b505050506040513d601f19601f820116820180604052508101906138da9190615146565b919450925090506139a0565b6040517fe8e3370000000000000000000000000000000000000000000000000000000000815273ffffffffffffffffffffffffffffffffffffffff86169063e8e3370090613946908e908e908e908e908e908e903390429060040161551e565b606060405180830381600087803b15801561396057600080fd5b505af1158015613974573d6000803e3d6000fd5b505050506040513d601f19601f820116820180604052508101906139989190615146565b919450925090505b83156139e75760006139b28a85614130565b905080156139c5576139c58c33836142f3565b60006139d18a85614130565b905080156139e4576139e48c33836142f3565b50505b99509950999650505050505050565b801580613aa457506040517fdd62ed3e00000000000000000000000000000000000000000000000000000000815273ffffffffffffffffffffffffffffffffffffffff84169063dd62ed3e90613a529030908690600401615277565b60206040518083038186803b158015613a6a57600080fd5b505afa158015613a7e573d6000803e3d6000fd5b505050506040513d601f19601f82011682018060405250810190613aa2919061510b565b155b613ada576040517f08c379a00000000000000000000000000000000000000000000000000000000081526004016101ad90615c18565b6126f18363095ea7b360e01b8484604051602401612e67929190615606565b600080600260009054906101000a900473ffffffffffffffffffffffffffffffffffffffff1690508073ffffffffffffffffffffffffffffffffffffffff168873ffffffffffffffffffffffffffffffffffffffff16630dfe16816040518163ffffffff1660e01b815260040160206040518083038186803b158015613b7e57600080fd5b505afa158015613b92573d6000803e3d6000fd5b505050506040513d601f19601f82011682018060405250810190613bb691906149c7565b73ffffffffffffffffffffffffffffffffffffffff161480613c8057508073ffffffffffffffffffffffffffffffffffffffff168873ffffffffffffffffffffffffffffffffffffffff1663d21220a76040518163ffffffff1660e01b815260040160206040518083038186803b158015613c3057600080fd5b505afa158015613c44573d6000803e3d6000fd5b505050506040513d601f19601f82011682018060405250810190613c6891906149c7565b73ffffffffffffffffffffffffffffffffffffffff16145b613cb6576040517f08c379a00000000000000000000000000000000000000000000000000000000081526004016101ad90615810565b60008173ffffffffffffffffffffffffffffffffffffffff168973ffffffffffffffffffffffffffffffffffffffff16630dfe16816040518163ffffffff1660e01b815260040160206040518083038186803b158015613d1557600080fd5b505afa158015613d29573d6000803e3d6000fd5b505050506040513d601f19601f82011682018060405250810190613d4d91906149c7565b73ffffffffffffffffffffffffffffffffffffffff1614613deb578873ffffffffffffffffffffffffffffffffffffffff16630dfe16816040518163ffffffff1660e01b815260040160206040518083038186803b158015613dae57600080fd5b505afa158015613dc2573d6000803e3d6000fd5b505050506040513d601f19601f82011682018060405250810190613de691906149c7565b613e69565b8873ffffffffffffffffffffffffffffffffffffffff1663d21220a76040518163ffffffff1660e01b815260040160206040518083038186803b158015613e3157600080fd5b505afa158015613e45573d6000803e3d6000fd5b505050506040513d601f19601f82011682018060405250810190613e6991906149c7565b90506000613ef78a848b8d73ffffffffffffffffffffffffffffffffffffffff16630dfe16816040518163ffffffff1660e01b815260040160206040518083038186803b158015613eb957600080fd5b505afa158015613ecd573d6000803e3d6000fd5b505050506040513d601f19601f82011682018060405250810190613ef191906149c7565b8b6129f5565b90506000613f088383308e8c6143f5565b905088811015613f44576040517f08c379a00000000000000000000000000000000000000000000000000000000081526004016101ad9061576d565b6000613f508b84614130565b90508473ffffffffffffffffffffffffffffffffffffffff1663d0e30db0826040518263ffffffff1660e01b81526004016000604051808303818588803b158015613f9a57600080fd5b505af1158015613fae573d6000803e3d6000fd5b5050505050613fc58c868684866001808f8f6137e6565b9e9d5050505050505050505050505050565b73ffffffffffffffffffffffffffffffffffffffff821673eeeeeeeeeeeeeeeeeeeeeeeeeeeeeeeeeeeeeeee1415614068576140138147613713565b8173ffffffffffffffffffffffffffffffffffffffff167f56c54ba9bd38d8fd62012e42c7ee564519b09763c426d331b3661b537ead19b2478360405161405b929190615cb5565b60405180910390a2613223565b6040517f70a0823100000000000000000000000000000000000000000000000000000000815260009073ffffffffffffffffffffffffffffffffffffffff8416906370a08231906140bd903090600401615256565b60206040518083038186803b1580156140d557600080fd5b505afa1580156140e9573d6000803e3d6000fd5b505050506040513d601f19601f8201168201806040525081019061410d919061510b565b90506111b573ffffffffffffffffffffffffffffffffffffffff841683836137c7565b60008282111561416c576040517f08c379a00000000000000000000000000000000000000000000000000000000081526004016101ad906158ec565b50900390565b600061417f826002612c48565b6141df614198614191856127106133d9565b8790612c48565b6136fd6141da6141c26141ad886127106133d9565b6141bc6109ed8a6127106133d9565b90612c48565b6141d2886141bc8b619c40612c48565b8a9101612c48565b6146fe565b816141e657fe5b0490505b9392505050565b600080821161422c576040517f08c379a00000000000000000000000000000000000000000000000000000000081526004016101ad90615980565b81838161423557fe5b049392505050565b606061429f826040518060400160405280602081526020017f5361666545524332303a206c6f772d6c6576656c2063616c6c206661696c65648152508573ffffffffffffffffffffffffffffffffffffffff166147509092919063ffffffff16565b8051909150156126f157808060200190518101906142bd9190615093565b6126f1576040517f08c379a00000000000000000000000000000000000000000000000000000000081526004016101ad90615b84565b806142fd576126f1565b60025473ffffffffffffffffffffffffffffffffffffffff848116911614156143d4576002546040517f2e1a7d4d00000000000000000000000000000000000000000000000000000000815273ffffffffffffffffffffffffffffffffffffffff90911690632e1a7d4d90614376908490600401615cac565b600060405180830381600087803b15801561439057600080fd5b505af11580156143a4573d6000803e3d6000fd5b5050505073ffffffffffffffffffffffffffffffffffffffff821630146143cf576143cf8282613713565b6126f1565b6126f173ffffffffffffffffffffffffffffffffffffffff841683836137c7565b60025460009073ffffffffffffffffffffffffffffffffffffffff878116911614156144ec57600254604080517fd0e30db0000000000000000000000000000000000000000000000000000000008152905173ffffffffffffffffffffffffffffffffffffffff90921691829163d0e30db091899160048082019260009290919082900301818588803b15801561448b57600080fd5b505af115801561449f573d6000803e3d6000fd5b5050505073ffffffffffffffffffffffffffffffffffffffff8616301490506144e3576144e373ffffffffffffffffffffffffffffffffffffffff821686886137c7565b85915050612c3f565b60408051600180825281830190925260609160208083019080368337019050509050838160008151811061451c57fe5b73ffffffffffffffffffffffffffffffffffffffff9290921660209283029190910190910152604080516001808252818301909252606091816020016020820280368337019050509050838160008151811061457457fe5b60ff909216602092830291909101909101526040517f70a0823100000000000000000000000000000000000000000000000000000000815260009073ffffffffffffffffffffffffffffffffffffffff8a16906370a08231906145db908a90600401615256565b60206040518083038186803b1580156145f357600080fd5b505afa158015614607573d6000803e3d6000fd5b505050506040513d601f19601f8201168201806040525081019061462b919061510b565b6003546040517f752ebb7c00000000000000000000000000000000000000000000000000000000815291925073ffffffffffffffffffffffffffffffffffffffff169063752ebb7c908a9061468f908d90600190899089908f9042906004016155a7565b6000604051808303818588803b1580156146a857600080fd5b505af11580156146bc573d6000803e3d6000fd5b50505050506133cc818a73ffffffffffffffffffffffffffffffffffffffff166370a082318a6040518263ffffffff1660e01b81526004016136ad9190615256565b60006003821115614741575080600160028204015b8181101561473b5780915060028182858161472a57fe5b04018161473357fe5b049050614713565b5061474b565b811561474b575060015b919050565b606061475f8484600085614767565b949350505050565b6060824710156147a3576040517f08c379a00000000000000000000000000000000000000000000000000000000081526004016101ad90615923565b6147ac85614869565b6147e2576040517f08c379a00000000000000000000000000000000000000000000000000000000081526004016101ad90615ab9565b600060608673ffffffffffffffffffffffffffffffffffffffff16858760405161480c919061523a565b60006040518083038185875af1925050503d8060008114614849576040519150601f19603f3d011682016040523d82523d6000602084013e61484e565b606091505b509150915061485e82828661486f565b979650505050505050565b3b151590565b6060831561487e5750816141ea565b82511561488e5782518084602001fd5b816040517f08c379a00000000000000000000000000000000000000000000000000000000081526004016101ad919061571c565b8035612c9f81615da4565b60008083601f8401126148de578182fd5b50813567ffffffffffffffff8111156148f5578182fd5b602083019150836020808302850101111561490f57600080fd5b9250929050565b600060808284031215614927578081fd5b50919050565b60006080828403121561493e578081fd5b6149486080615d31565b9050813561495581615da4565b8152602082013561496581615da4565b80602083015250604082013560408201526060820135606082015292915050565b805163ffffffff81168114612c9f57600080fd5b803560ff81168114612c9f57600080fd5b6000602082840312156149bc578081fd5b8135612c9c81615da4565b6000602082840312156149d8578081fd5b8151612c9c81615da4565b60008060008060008060008060006101e08a8c031215614a01578485fd5b8935614a0c81615da4565b985060208a0135614a1c81615da4565b9750614a2b8b60408c01614916565b9650614a3a8b60c08c01614916565b95506101408a013594506101608a01359350614a5a8b6101808c0161499a565b92506101a08a013591506101c08a013590509295985092959850929598565b60008060008060006101608688031215614a91578081fd5b8535614a9c81615da4565b94506020860135614aac81615da4565b9350614abb876040880161492d565b9250614aca8760c08801614916565b94979396509194610140013592915050565b600080600060608486031215614af0578283fd5b8335614afb81615da4565b92506020840135614b0b81615da4565b929592945050506040919091013590565b600080600080600080600060c0888a031215614b36578081fd5b8735614b4181615da4565b9650602088013567ffffffffffffffff811115614b5c578182fd5b614b688a828b016148cd565b9097509550506040880135614b7c81615da4565b9350614b8b8960608a0161499a565b92506080880135614b9b81615da4565b915060a0880135614bab81615dc9565b8091505092959891949750929550565b60008060408385031215614bcd578182fd5b8235614bd881615da4565b91506020830135614be881615dc9565b809150509250929050565b600080600060608486031215614c07578081fd5b8335614c1281615da4565b9250602084013591506040840135614c2981615da4565b809150509250925092565b600080600080600080600080610100898b031215614c50578182fd5b8835614c5b81615da4565b9750602089013596506040890135614c7281615da4565b9550606089013594506080890135935060a089013560ff81168114614c95578283fd5b979a969950949793969295929450505060c08201359160e0013590565b60008060008060008060c08789031215614cca578384fd5b8635614cd581615da4565b9550602087013594506040870135614cec81615da4565b935060608701359250614d02886080890161499a565b915060a0870135614d1281615da4565b809150509295509295509295565b60008060008060008060008060008060006101608c8e031215614d41578485fd5b8b35614d4c81615da4565b9a5060208c0135995060408c0135614d6381615da4565b985060608c01359750614d798d60808e0161499a565b965060a08c0135614d8981615da4565b955060c08c0135945060e08c01359350614da78d6101008e0161499a565b92506101208c013591506101408c013590509295989b509295989b9093969950565b60008060008060808587031215614dde578182fd5b8435614de981615da4565b9350602085013592506040850135614e0081615da4565b9150614e0f866060870161499a565b905092959194509250565b60008060008060008060c08789031215614e32578384fd5b8651614e3d81615da4565b8096505060208701519450604087015193506060870151614e5d81615df3565b6080880151909350614e6e81615df3565b60a0880151909250614d1281615df3565b60008060008060008060c08789031215614e97578384fd5b8635614ea281615da4565b95506020870135945060408701359350614ebf886060890161499a565b92506080870135614ecf81615da4565b915060a0870135614d1281615dc9565b60008060408385031215614ef1578182fd5b823567ffffffffffffffff811115614f07578283fd5b8301601f81018513614f17578283fd5b8035614f2a614f2582615d58565b615d31565b808282526020808301925080850189828387028801011115614f4a578788fd5b8795505b84861015614f7457614f608a826148c2565b845260019590950194928101928101614f4e565b50819650614f8489828a016148c2565b955050505050509250929050565b600080600080600060608688031215614fa9578283fd5b853567ffffffffffffffff80821115614fc0578485fd5b614fcc89838a016148cd565b90975095506020880135915080821115614fe4578485fd5b50614ff1888289016148cd565b96999598509660400135949350505050565b60006020808385031215615015578182fd5b825167ffffffffffffffff81111561502b578283fd5b8301601f8101851361503b578283fd5b8051615049614f2582615d58565b8181528381019083850185840285018601891015615065578687fd5b8694505b83851015615087578051835260019490940193918501918501615069565b50979650505050505050565b6000602082840312156150a4578081fd5b8151612c9c81615dc9565b6000608082840312156150c0578081fd5b6141ea838361492d565b6000806000606084860312156150de578081fd5b83516150e981615dd7565b60208501519093506150fa81615dd7565b6040850151909250614c2981615df3565b60006020828403121561511c578081fd5b5051919050565b60008060408385031215615135578182fd5b505080516020909101519092909150565b60008060006060848603121561515a578081fd5b8351925060208401519150604084015190509250925092565b600080600060608486031215615187578081fd5b6151918585614986565b92506151a08560208601614986565b91506151af8560408601614986565b90509250925092565b6000815180845260208085019450808401835b838110156151fd57815173ffffffffffffffffffffffffffffffffffffffff16875295820195908201906001016151cb565b509495945050505050565b6000815180845260208085019450808401835b838110156151fd57815160ff168752958201959082019060010161521b565b6000825161524c818460208701615d78565b9190910192915050565b73ffffffffffffffffffffffffffffffffffffffff91909116815260200190565b73ffffffffffffffffffffffffffffffffffffffff92831681529116602082015260400190565b73ffffffffffffffffffffffffffffffffffffffff97881681529590961660208601526040850193909352606084019190915260ff16608083015260a082015260c081019190915260e00190565b600073ffffffffffffffffffffffffffffffffffffffff8089168352808816602084015280871660408401525084606083015260c0608083015261533360c08301856151b8565b82810360a08401526133cc8185615208565b73ffffffffffffffffffffffffffffffffffffffff9889168152968816602088015294871660408701526060860193909352608085019190915260a084015290921660c082015260e08101919091526101000190565b73ffffffffffffffffffffffffffffffffffffffff998a168152978916602089015295881660408801526060870194909452608086019290925260a085015260c084015290921660e08201526101008101919091526101200190565b73ffffffffffffffffffffffffffffffffffffffff948516815292841660208401529216604082015260ff909116606082015260800190565b73ffffffffffffffffffffffffffffffffffffffff9384168152919092166020820152604081019190915260600190565b600061010073ffffffffffffffffffffffffffffffffffffffff808c168452808b1660208501528960408501528860608501528160808501526154a6828501896151b8565b915083820360a08501526154ba8288615208565b951660c0840152505060e001529695505050505050565b73ffffffffffffffffffffffffffffffffffffffff9788168152958716602087015260408601949094526060850192909252608084015290921660a082015260c081019190915260e00190565b73ffffffffffffffffffffffffffffffffffffffff9889168152968816602088015260408701959095526060860193909352608085019190915260a084015290921660c082015260e08101919091526101000190565b73ffffffffffffffffffffffffffffffffffffffff938416815291909216602082015260ff909116604082015260600190565b600073ffffffffffffffffffffffffffffffffffffffff808916835287602084015260c060408401526155dd60c08401886151b8565b83810360608501526155ef8188615208565b959091166080840152505060a00152949350505050565b73ffffffffffffffffffffffffffffffffffffffff929092168252602082015260400190565b73ffffffffffffffffffffffffffffffffffffffff9485168152602081019390935292166040820152606081019190915260800190565b600073ffffffffffffffffffffffffffffffffffffffff808a16835288602084015287604084015260e0606084015261569f60e08401886151b8565b83810360808501526156b18188615208565b9590911660a0840152505060c0015295945050505050565b73ffffffffffffffffffffffffffffffffffffffff9687168152602081019590955260408501939093526060840191909152909216608082015260a081019190915260c00190565b901515815260200190565b600060208252825180602084015261573b816040850160208701615d78565b601f017fffffffffffffffffffffffffffffffffffffffffffffffffffffffffffffffe0169190910160400192915050565b6020808252818101527f5a61703a20496e73756666696369656e74205265636569766520416d6f756e74604082015260600190565b6020808252600d908201527f5a61703a202170616972424e4200000000000000000000000000000000000000604082015260600190565b6020808252601d908201527f5a61703a20446f206e6f742073656e6420455448206469726563746c79000000604082015260600190565b60208082526015908201527f46697265426972645a61703a202170616972424e420000000000000000000000604082015260600190565b6020808252601b908201527f536166654d6174683a206164646974696f6e206f766572666c6f770000000000604082015260600190565b60208082526010908201527f5a61703a2021676f7665726e616e636500000000000000000000000000000000604082015260600190565b60208082526016908201527f5a61703a204869676820536c697070616765204f757400000000000000000000604082015260600190565b6020808252601e908201527f536166654d6174683a207375627472616374696f6e206f766572666c6f770000604082015260600190565b60208082526026908201527f416464726573733a20696e73756666696369656e742062616c616e636520666f60408201527f722063616c6c0000000000000000000000000000000000000000000000000000606082015260800190565b6020808252601a908201527f536166654d6174683a206469766973696f6e206279207a65726f000000000000604082015260600190565b6020808252600e908201527f5a61703a20217265636569766572000000000000000000000000000000000000604082015260600190565b60208082526021908201527f536166654d6174683a206d756c7469706c69636174696f6e206f766572666c6f60408201527f7700000000000000000000000000000000000000000000000000000000000000606082015260800190565b6020808252600c908201527f5a61703a2021726f757465720000000000000000000000000000000000000000604082015260600190565b60208082526015908201527f5a61703a204869676820536c69707061676520496e0000000000000000000000604082015260600190565b6020808252601d908201527f416464726573733a2063616c6c20746f206e6f6e2d636f6e7472616374000000604082015260600190565b60208082526023908201527f5472616e7366657248656c7065723a204554485f5452414e534645525f46414960408201527f4c45440000000000000000000000000000000000000000000000000000000000606082015260800190565b6020808252600a908201527f5a61703a20217061697200000000000000000000000000000000000000000000604082015260600190565b6020808252602a908201527f5361666545524332303a204552433230206f7065726174696f6e20646964206e60408201527f6f74207375636365656400000000000000000000000000000000000000000000606082015260800190565b6020808252601f908201527f5265656e7472616e637947756172643a207265656e7472616e742063616c6c00604082015260600190565b60208082526036908201527f5361666545524332303a20617070726f76652066726f6d206e6f6e2d7a65726f60408201527f20746f206e6f6e2d7a65726f20616c6c6f77616e636500000000000000000000606082015260800190565b60208082526019908201527f5a61703a20496e636f6d70617469626c6520666163746f727900000000000000604082015260600190565b90815260200190565b91825273ffffffffffffffffffffffffffffffffffffffff16602082015260400190565b918252602082015260400190565b9283526020830191909152604082015260600190565b9586526020860194909452604085019290925263ffffffff908116606085015290811660808401521660a082015260c00190565b60405181810167ffffffffffffffff81118282101715615d5057600080fd5b604052919050565b600067ffffffffffffffff821115615d6e578081fd5b5060209081020190565b60005b83811015615d93578181015183820152602001615d7b565b83811115612ee95750506000910152565b73ffffffffffffffffffffffffffffffffffffffff81168114615dc657600080fd5b50565b8015158114615dc657600080fd5b6dffffffffffffffffffffffffffff81168114615dc657600080fd5b63ffffffff81168114615dc657600080fdfea264697066735822122024f7074631e44aba1957f037b0ab8cd30c818b59a8c606da2b06e3cb2a3837fc64736f6c634300060c0033",
  "devdoc": {
    "kind": "dev",
    "methods": {
      "manualApproveAllowance(address[],address[],uint256)": {
        "details": "Use only for some special tokens"
      }
    },
    "version": 1
  },
  "userdoc": {
    "kind": "user",
    "methods": {},
    "version": 1
  },
  "storageLayout": {
    "storage": [
      {
        "astId": 1739,
        "contract": "contracts/FireBirdZap.sol:FireBirdZap",
        "label": "_status",
        "offset": 0,
        "slot": "0",
        "type": "t_uint256"
      },
      {
        "astId": 1792,
        "contract": "contracts/FireBirdZap.sol:FireBirdZap",
        "label": "governance",
        "offset": 0,
        "slot": "1",
        "type": "t_address"
      },
      {
        "astId": 1794,
        "contract": "contracts/FireBirdZap.sol:FireBirdZap",
        "label": "WBNB",
        "offset": 0,
        "slot": "2",
        "type": "t_address"
      },
      {
        "astId": 1802,
        "contract": "contracts/FireBirdZap.sol:FireBirdZap",
        "label": "fireBirdRouter",
        "offset": 0,
        "slot": "3",
        "type": "t_contract(IFireBirdRouter)5888"
      },
      {
        "astId": 1804,
        "contract": "contracts/FireBirdZap.sol:FireBirdZap",
        "label": "fireBirdFactory",
        "offset": 0,
        "slot": "4",
        "type": "t_address"
      },
      {
        "astId": 1806,
        "contract": "contracts/FireBirdZap.sol:FireBirdZap",
        "label": "fireBirdFormula",
        "offset": 0,
        "slot": "5",
        "type": "t_contract(IFireBirdFormula)5173"
      },
      {
        "astId": 1810,
        "contract": "contracts/FireBirdZap.sol:FireBirdZap",
        "label": "whitelistUniRouter",
        "offset": 0,
        "slot": "6",
        "type": "t_mapping(t_address,t_bool)"
      }
    ],
    "types": {
      "t_address": {
        "encoding": "inplace",
        "label": "address",
        "numberOfBytes": "20"
      },
      "t_bool": {
        "encoding": "inplace",
        "label": "bool",
        "numberOfBytes": "1"
      },
      "t_contract(IFireBirdFormula)5173": {
        "encoding": "inplace",
        "label": "contract IFireBirdFormula",
        "numberOfBytes": "20"
      },
      "t_contract(IFireBirdRouter)5888": {
        "encoding": "inplace",
        "label": "contract IFireBirdRouter",
        "numberOfBytes": "20"
      },
      "t_mapping(t_address,t_bool)": {
        "encoding": "mapping",
        "key": "t_address",
        "label": "mapping(address => bool)",
        "numberOfBytes": "32",
        "value": "t_bool"
      },
      "t_uint256": {
        "encoding": "inplace",
        "label": "uint256",
        "numberOfBytes": "32"
      }
    }
  }
}