{
  "address": "0x5De74546d3B86C8Df7FEEc30253865e1149818C8",
  "abi": [
    {
      "inputs": [
        {
          "internalType": "address",
          "name": "_feeToSetter",
          "type": "address"
        },
        {
          "internalType": "address",
          "name": "_formula",
          "type": "address"
        }
      ],
      "payable": false,
      "stateMutability": "nonpayable",
      "type": "constructor"
    },
    {
      "anonymous": false,
      "inputs": [
        {
          "indexed": true,
          "internalType": "address",
          "name": "token0",
          "type": "address"
        },
        {
          "indexed": true,
          "internalType": "address",
          "name": "token1",
          "type": "address"
        },
        {
          "indexed": false,
          "internalType": "address",
          "name": "pair",
          "type": "address"
        },
        {
          "indexed": false,
          "internalType": "uint32",
          "name": "tokenWeight0",
          "type": "uint32"
        },
        {
          "indexed": false,
          "internalType": "uint32",
          "name": "swapFee",
          "type": "uint32"
        },
        {
          "indexed": false,
          "internalType": "uint256",
          "name": "",
          "type": "uint256"
        }
      ],
      "name": "PairCreated",
      "type": "event"
    },
    {
      "constant": true,
      "inputs": [
        {
          "internalType": "uint256",
          "name": "",
          "type": "uint256"
        }
      ],
      "name": "allPairs",
      "outputs": [
        {
          "internalType": "address",
          "name": "",
          "type": "address"
        }
      ],
      "payable": false,
      "stateMutability": "view",
      "type": "function"
    },
    {
      "constant": true,
      "inputs": [],
      "name": "allPairsLength",
      "outputs": [
        {
          "internalType": "uint256",
          "name": "",
          "type": "uint256"
        }
      ],
      "payable": false,
      "stateMutability": "view",
      "type": "function"
    },
    {
      "constant": false,
      "inputs": [
        {
          "internalType": "address",
          "name": "tokenA",
          "type": "address"
        },
        {
          "internalType": "address",
          "name": "tokenB",
          "type": "address"
        },
        {
          "internalType": "uint32",
          "name": "tokenWeightA",
          "type": "uint32"
        },
        {
          "internalType": "uint32",
          "name": "swapFee",
          "type": "uint32"
        }
      ],
      "name": "createPair",
      "outputs": [
        {
          "internalType": "address",
          "name": "pair",
          "type": "address"
        }
      ],
      "payable": false,
      "stateMutability": "nonpayable",
      "type": "function"
    },
    {
      "constant": true,
      "inputs": [],
      "name": "feeTo",
      "outputs": [
        {
          "internalType": "address",
          "name": "",
          "type": "address"
        }
      ],
      "payable": false,
      "stateMutability": "view",
      "type": "function"
    },
    {
      "constant": true,
      "inputs": [],
      "name": "feeToSetter",
      "outputs": [
        {
          "internalType": "address",
          "name": "",
          "type": "address"
        }
      ],
      "payable": false,
      "stateMutability": "view",
      "type": "function"
    },
    {
      "constant": true,
      "inputs": [],
      "name": "formula",
      "outputs": [
        {
          "internalType": "address",
          "name": "",
          "type": "address"
        }
      ],
      "payable": false,
      "stateMutability": "view",
      "type": "function"
    },
    {
      "constant": true,
      "inputs": [
        {
          "internalType": "address",
          "name": "tokenA",
          "type": "address"
        },
        {
          "internalType": "address",
          "name": "tokenB",
          "type": "address"
        },
        {
          "internalType": "uint32",
          "name": "tokenWeightA",
          "type": "uint32"
        },
        {
          "internalType": "uint32",
          "name": "swapFee",
          "type": "uint32"
        }
      ],
      "name": "getPair",
      "outputs": [
        {
          "internalType": "address",
          "name": "pair",
          "type": "address"
        }
      ],
      "payable": false,
      "stateMutability": "view",
      "type": "function"
    },
    {
      "constant": true,
      "inputs": [
        {
          "internalType": "address",
          "name": "pair",
          "type": "address"
        }
      ],
      "name": "getWeightsAndSwapFee",
      "outputs": [
        {
          "internalType": "uint32",
          "name": "tokenWeight0",
          "type": "uint32"
        },
        {
          "internalType": "uint32",
          "name": "tokenWeight1",
          "type": "uint32"
        },
        {
          "internalType": "uint32",
          "name": "swapFee",
          "type": "uint32"
        }
      ],
      "payable": false,
      "stateMutability": "view",
      "type": "function"
    },
    {
      "constant": true,
      "inputs": [
        {
          "internalType": "address",
          "name": "b",
          "type": "address"
        }
      ],
      "name": "isPair",
      "outputs": [
        {
          "internalType": "bool",
          "name": "",
          "type": "bool"
        }
      ],
      "payable": false,
      "stateMutability": "view",
      "type": "function"
    },
    {
      "constant": true,
      "inputs": [],
      "name": "protocolFee",
      "outputs": [
        {
          "internalType": "uint256",
          "name": "",
          "type": "uint256"
        }
      ],
      "payable": false,
      "stateMutability": "view",
      "type": "function"
    },
    {
      "constant": false,
      "inputs": [
        {
          "internalType": "address",
          "name": "_feeTo",
          "type": "address"
        }
      ],
      "name": "setFeeTo",
      "outputs": [],
      "payable": false,
      "stateMutability": "nonpayable",
      "type": "function"
    },
    {
      "constant": false,
      "inputs": [
        {
          "internalType": "address",
          "name": "_feeToSetter",
          "type": "address"
        }
      ],
      "name": "setFeeToSetter",
      "outputs": [],
      "payable": false,
      "stateMutability": "nonpayable",
      "type": "function"
    },
    {
      "constant": false,
      "inputs": [
        {
          "internalType": "uint256",
          "name": "_protocolFee",
          "type": "uint256"
        }
      ],
      "name": "setProtocolFee",
      "outputs": [],
      "payable": false,
      "stateMutability": "nonpayable",
      "type": "function"
    }
  ],
  "transactionHash": "0xbbe815a90602fc7692b6982ee7f4f941f107e31fcad04495e0ef1374d8fefcdd",
  "args": [
    "0x0FFaD0c8b6acB224999e41e8229D0De90f914832",
    "0x7973b6961C8C5ca8026B9FB82332626e715ff8c7"
  ],
  "solcInputHash": "09f2d70cb71d69f1cdc83c12570dc3dd",
  "bytecode": "0x608060405234801561001057600080fd5b5060405161441d38038061441d8339818101604052604081101561003357600080fd5b508051602090910151600380546001600160a01b039384166001600160a01b031991821617909155600180549390921692169190911790556143a38061007a6000396000f3fe608060405234801561001057600080fd5b50600436106100df5760003560e01c8063787dce3d1161008c578063bfd63f4d11610066578063bfd63f4d14610207578063ca22297914610258578063e5e31b13146102b3578063f46901ed146102fa576100df565b8063787dce3d146101ad578063a2e74af6146101cc578063b0e21e8a146101ff576100df565b80631e3dd18b116100bd5780631e3dd18b1461016e5780634b75f54f1461018b578063574f2ba314610193576100df565b8063017e7e58146100e4578063094b74151461011557806314572adb1461011d575b600080fd5b6100ec61032d565b6040805173ffffffffffffffffffffffffffffffffffffffff9092168252519081900360200190f35b6100ec610349565b6100ec6004803603608081101561013357600080fd5b5073ffffffffffffffffffffffffffffffffffffffff813581169160208101359091169063ffffffff60408201358116916060013516610365565b6100ec6004803603602081101561018457600080fd5b5035610a1f565b6100ec610a53565b61019b610a6f565b60408051918252519081900360200190f35b6101ca600480360360208110156101c357600080fd5b5035610a75565b005b6101ca600480360360208110156101e257600080fd5b503573ffffffffffffffffffffffffffffffffffffffff16610b88565b61019b610c55565b6100ec6004803603608081101561021d57600080fd5b5073ffffffffffffffffffffffffffffffffffffffff813581169160208101359091169063ffffffff60408201358116916060013516610c5b565b61028b6004803603602081101561026e57600080fd5b503573ffffffffffffffffffffffffffffffffffffffff16610d67565b6040805163ffffffff9485168152928416602084015292168183015290519081900360600190f35b6102e6600480360360208110156102c957600080fd5b503573ffffffffffffffffffffffffffffffffffffffff16610dda565b604080519115158252519081900360200190f35b6101ca6004803603602081101561031057600080fd5b503573ffffffffffffffffffffffffffffffffffffffff16610e0e565b60005473ffffffffffffffffffffffffffffffffffffffff1681565b60035473ffffffffffffffffffffffffffffffffffffffff1681565b60008373ffffffffffffffffffffffffffffffffffffffff168573ffffffffffffffffffffffffffffffffffffffff16141561040257604080517f08c379a000000000000000000000000000000000000000000000000000000000815260206004820152601860248201527f464c503a204944454e544943414c5f4144445245535345530000000000000000604482015290519081900360640190fd5b60028363ffffffff1610158015610420575060628363ffffffff1611155b801561042d575060018316155b61049857604080517f08c379a000000000000000000000000000000000000000000000000000000000815260206004820152601960248201527f464c503a20494e56414c49445f544f4b454e5f57454947485400000000000000604482015290519081900360640190fd5b60018263ffffffff16101580156104b757506107d08263ffffffff1611155b61052257604080517f08c379a000000000000000000000000000000000000000000000000000000000815260206004820152601560248201527f464c503a20494e56414c49445f535741505f4645450000000000000000000000604482015290519081900360640190fd5b60008060008673ffffffffffffffffffffffffffffffffffffffff168873ffffffffffffffffffffffffffffffffffffffff161061056557868887606403610569565b8787875b9194509250905073ffffffffffffffffffffffffffffffffffffffff83166105f257604080517f08c379a000000000000000000000000000000000000000000000000000000000815260206004820152601160248201527f464c503a205a45524f5f41444452455353000000000000000000000000000000604482015290519081900360640190fd5b60606040518060200161060490610edb565b7fffffffffffffffffffffffffffffffffffffffffffffffffffffffffffffffe082820381018352601f9091011660408181527fffffffffffffffffffffffffffffffffffffffff000000000000000000000000606088811b82166020858101919091529088901b90911660348401527fffffffff0000000000000000000000000000000000000000000000000000000060e087811b821660488601528b901b16604c8401528151603081850301815260509093018252825192810192909220600081815260049093529120549192509073ffffffffffffffffffffffffffffffffffffffff161561075757604080517f08c379a000000000000000000000000000000000000000000000000000000000815260206004820152601060248201527f464c503a20504149525f45584953545300000000000000000000000000000000604482015290519081900360640190fd5b808251602084016000f5604080517fd0f6957900000000000000000000000000000000000000000000000000000000815273ffffffffffffffffffffffffffffffffffffffff8881166004830152878116602483015263ffffffff80881660448401528b16606483015291519298509088169163d0f695799160848082019260009290919082900301818387803b1580156107f157600080fd5b505af1158015610805573d6000803e3d6000fd5b50505050856004600083815260200190815260200160002060006101000a81548173ffffffffffffffffffffffffffffffffffffffff021916908373ffffffffffffffffffffffffffffffffffffffff16021790555060058690806001815401808255809150509060018203906000526020600020016000909192909190916101000a81548173ffffffffffffffffffffffffffffffffffffffff021916908373ffffffffffffffffffffffffffffffffffffffff1602179055505060008763ffffffff16905060208463ffffffff1667ffffffffffffffff16901b8117905080600660008973ffffffffffffffffffffffffffffffffffffffff1673ffffffffffffffffffffffffffffffffffffffff16815260200190815260200160002060006101000a81548167ffffffffffffffff021916908367ffffffffffffffff1602179055508473ffffffffffffffffffffffffffffffffffffffff168673ffffffffffffffffffffffffffffffffffffffff167f41f8736f924f57e464ededb08bf71f868f9d142885bbc73a1516db2be21fc42889878c600580549050604051808573ffffffffffffffffffffffffffffffffffffffff1673ffffffffffffffffffffffffffffffffffffffff1681526020018463ffffffff1663ffffffff1681526020018363ffffffff1663ffffffff16815260200182815260200194505050505060405180910390a3505050505050949350505050565b60058181548110610a2c57fe5b60009182526020909120015473ffffffffffffffffffffffffffffffffffffffff16905081565b60015473ffffffffffffffffffffffffffffffffffffffff1681565b60055490565b60035473ffffffffffffffffffffffffffffffffffffffff163314610afb57604080517f08c379a000000000000000000000000000000000000000000000000000000000815260206004820152600e60248201527f464c503a20464f5242494444454e000000000000000000000000000000000000604482015290519081900360640190fd5b801580610b1857506127108110158015610b185750620186a08111155b610b8357604080517f08c379a000000000000000000000000000000000000000000000000000000000815260206004820152601960248201527f464c503a20496e76616c69642050726f746f636f6c2066656500000000000000604482015290519081900360640190fd5b600255565b60035473ffffffffffffffffffffffffffffffffffffffff163314610c0e57604080517f08c379a000000000000000000000000000000000000000000000000000000000815260206004820152600e60248201527f464c503a20464f5242494444454e000000000000000000000000000000000000604482015290519081900360640190fd5b600380547fffffffffffffffffffffffff00000000000000000000000000000000000000001673ffffffffffffffffffffffffffffffffffffffff92909216919091179055565b60025481565b6000806000808673ffffffffffffffffffffffffffffffffffffffff168873ffffffffffffffffffffffffffffffffffffffff1610610c9f57868887606403610ca3565b8787875b604080517fffffffffffffffffffffffffffffffffffffffff000000000000000000000000606095861b81166020808401919091529490951b90941660348501527fffffffff0000000000000000000000000000000000000000000000000000000060e092831b811660488601529890911b909716604c830152865160308184030181526050909201875281519181019190912060009081526004909152949094205473ffffffffffffffffffffffffffffffffffffffff16979650505050505050565b73ffffffffffffffffffffffffffffffffffffffff81166000908152600660205260408120548190819067ffffffffffffffff168015610dc05780915060208167ffffffffffffffff16901c9350836064039250610dd1565b5060329250829150601e9050610dd3565b505b9193909250565b73ffffffffffffffffffffffffffffffffffffffff1660009081526006602052604090205467ffffffffffffffff16151590565b60035473ffffffffffffffffffffffffffffffffffffffff163314610e9457604080517f08c379a000000000000000000000000000000000000000000000000000000000815260206004820152600e60248201527f464c503a20464f5242494444454e000000000000000000000000000000000000604482015290519081900360640190fd5b600080547fffffffffffffffffffffffff00000000000000000000000000000000000000001673ffffffffffffffffffffffffffffffffffffffff92909216919091179055565b61348680610ee98339019056fe60806040526001600b5534801561001557600080fd5b5060405146908060526134348239604080519182900360520182208282018252601b83527f4669726542697264204c69717569646974792050726f766964657200000000006020938401528151808301835260018152603160f81b908401528151808401919091527fac35389a04d55c5c9df86be7d941289f55fc537c7493deefe4c0fe8bedcd61c7818301527fc89efdaa54c0f20c7adf612882df0950f5a951637e0307cdcb4c672f298b8bc6606082015260808101949094523060a0808601919091528151808603909101815260c09094019052825192019190912060035550600580546001600160a01b0319163317905561331c806101186000396000f3fe608060405234801561001057600080fd5b50600436106101da5760003560e01c806370a0823111610104578063c45a0155116100a2578063d505accf11610071578063d505accf14610665578063d54a8d18146106c3578063dd62ed3e146106f8578063fff6cae914610733576101da565b8063c45a0155146105e3578063d0f69579146105eb578063d21220a71461063c578063d4cadf6814610644576101da565b806395d89b41116100de57806395d89b4114610567578063a9059cbb1461056f578063ba9a7a56146105a8578063bc25cf77146105b0576101da565b806370a08231146104b55780637ecebe00146104e857806389afcb441461051b576101da565b806330adf81f1161017c5780634b75f54f1161014b5780634b75f54f1461046a5780635909c0d5146104725780635a3d54931461047a5780636a62784214610482576101da565b806330adf81f14610411578063313ce5671461041957806332bfe469146104375780633644e51514610462576101da565b8063095ea7b3116101b8578063095ea7b3146103365780630dfe16811461038357806318160ddd146103b457806323b872dd146103ce576101da565b8063022c0d9f146101df57806306fdde031461027a5780630902f1ac146102f7575b600080fd5b610278600480360360808110156101f557600080fd5b81359160208101359173ffffffffffffffffffffffffffffffffffffffff604083013516919081019060808101606082013564010000000081111561023957600080fd5b82018360208201111561024b57600080fd5b8035906020019184600183028401116401000000008311171561026d57600080fd5b50909250905061073b565b005b6102826110fe565b6040805160208082528351818301528351919283929083019185019080838360005b838110156102bc5781810151838201526020016102a4565b50505050905090810190601f1680156102e95780820380516001836020036101000a031916815260200191505b509250505060405180910390f35b6102ff611137565b604080516dffffffffffffffffffffffffffff948516815292909316602083015263ffffffff168183015290519081900360600190f35b61036f6004803603604081101561034c57600080fd5b5073ffffffffffffffffffffffffffffffffffffffff813516906020013561118c565b604080519115158252519081900360200190f35b61038b6111a3565b6040805173ffffffffffffffffffffffffffffffffffffffff9092168252519081900360200190f35b6103bc6111bf565b60408051918252519081900360200190f35b61036f600480360360608110156103e457600080fd5b5073ffffffffffffffffffffffffffffffffffffffff8135811691602081013590911690604001356111c5565b6103bc6112a4565b6104216112c8565b6040805160ff9092168252519081900360200190f35b61043f6112cd565b6040805163ffffffff938416815291909216602082015281519081900390910190f35b6103bc6112ff565b61038b611305565b6103bc611321565b6103bc611327565b6103bc6004803603602081101561049857600080fd5b503573ffffffffffffffffffffffffffffffffffffffff1661132d565b6103bc600480360360208110156104cb57600080fd5b503573ffffffffffffffffffffffffffffffffffffffff166116ac565b6103bc600480360360208110156104fe57600080fd5b503573ffffffffffffffffffffffffffffffffffffffff166116be565b61054e6004803603602081101561053157600080fd5b503573ffffffffffffffffffffffffffffffffffffffff166116d0565b6040805192835260208301919091528051918290030190f35b610282611b28565b61036f6004803603604081101561058557600080fd5b5073ffffffffffffffffffffffffffffffffffffffff8135169060200135611b61565b6103bc611b6e565b610278600480360360208110156105c657600080fd5b503573ffffffffffffffffffffffffffffffffffffffff16611b74565b61038b611d6a565b6102786004803603608081101561060157600080fd5b5073ffffffffffffffffffffffffffffffffffffffff813581169160208101359091169063ffffffff60408201358116916060013516611d86565b61038b611fae565b61064c611fca565b6040805163ffffffff9092168252519081900360200190f35b610278600480360360e081101561067b57600080fd5b5073ffffffffffffffffffffffffffffffffffffffff813581169160208101359091169060408101359060608101359060ff6080820135169060a08101359060c00135611fd6565b6106cb6122a2565b604080516dffffffffffffffffffffffffffff938416815291909216602082015281519081900390910190f35b6103bc6004803603604081101561070e57600080fd5b5073ffffffffffffffffffffffffffffffffffffffff813581169160200135166122cf565b6102786122ec565b600b546001146107ac57604080517f08c379a000000000000000000000000000000000000000000000000000000000815260206004820152600b60248201527f464c503a204c4f434b4544000000000000000000000000000000000000000000604482015290519081900360640190fd5b6000600b55841515806107bf5750600084115b61082a57604080517f08c379a000000000000000000000000000000000000000000000000000000000815260206004820152601f60248201527f464c503a20494e53554646494349454e545f4f55545055545f414d4f554e5400604482015290519081900360640190fd5b6008546dffffffffffffffffffffffffffff808216916e01000000000000000000000000000090041681871080156108715750806dffffffffffffffffffffffffffff1686105b6108dc57604080517f08c379a000000000000000000000000000000000000000000000000000000000815260206004820152601b60248201527f464c503a20494e53554646494349454e545f4c49515549444954590000000000604482015290519081900360640190fd5b600654600754600091829173ffffffffffffffffffffffffffffffffffffffff91821691908116908916821480159061094157508073ffffffffffffffffffffffffffffffffffffffff168973ffffffffffffffffffffffffffffffffffffffff1614155b6109ac57604080517f08c379a000000000000000000000000000000000000000000000000000000000815260206004820152600f60248201527f464c503a20494e56414c49445f544f0000000000000000000000000000000000604482015290519081900360640190fd5b8a156109bd576109bd828a8d6124d2565b89156109ce576109ce818a8c6124d2565b8615610ab0578873ffffffffffffffffffffffffffffffffffffffff166310d1e85c338d8d8c8c6040518663ffffffff1660e01b8152600401808673ffffffffffffffffffffffffffffffffffffffff1673ffffffffffffffffffffffffffffffffffffffff168152602001858152602001848152602001806020018281038252848482818152602001925080828437600081840152601f19601f8201169050808301925050509650505050505050600060405180830381600087803b158015610a9757600080fd5b505af1158015610aab573d6000803e3d6000fd5b505050505b604080517f70a08231000000000000000000000000000000000000000000000000000000008152306004820152905173ffffffffffffffffffffffffffffffffffffffff8416916370a08231916024808301926020929190829003018186803b158015610b1c57600080fd5b505afa158015610b30573d6000803e3d6000fd5b505050506040513d6020811015610b4657600080fd5b5051604080517f70a08231000000000000000000000000000000000000000000000000000000008152306004820152905191955073ffffffffffffffffffffffffffffffffffffffff8316916370a0823191602480820192602092909190829003018186803b158015610bb857600080fd5b505afa158015610bcc573d6000803e3d6000fd5b505050506040513d6020811015610be257600080fd5b5051925060009150506dffffffffffffffffffffffffffff85168a90038311610c0c576000610c22565b89856dffffffffffffffffffffffffffff160383035b9050600089856dffffffffffffffffffffffffffff16038311610c46576000610c5c565b89856dffffffffffffffffffffffffffff160383035b90506000821180610c6d5750600081115b610cd857604080517f08c379a000000000000000000000000000000000000000000000000000000000815260206004820152601e60248201527f464c503a20494e53554646494349454e545f494e5055545f414d4f554e540000604482015290519081900360640190fd5b6000610cec8561271063ffffffff6126df16565b90506000610d028561271063ffffffff6126df16565b90508315610d9e57600e54600090610d2590869063ffffffff908116906126df16565b9050610d37838263ffffffff61276516565b600d54909350610d5d906dffffffffffffffffffffffffffff168263ffffffff6127d716565b600d80547fffffffffffffffffffffffffffffffffffff0000000000000000000000000000166dffffffffffffffffffffffffffff92909216919091179055505b8215610e3957600e54600090610dbf90859063ffffffff908116906126df16565b9050610dd1828263ffffffff61276516565b600d54909250610e03906e01000000000000000000000000000090046dffffffffffffffffffffffffffff16826127d7565b600d600e6101000a8154816dffffffffffffffffffffffffffff02191690836dffffffffffffffffffffffffffff160217905550505b600d547c0100000000000000000000000000000000000000000000000000000000900463ffffffff166032811415610f2457610ea26305f5e100610e966dffffffffffffffffffffffffffff8c8116908c1663ffffffff6126df16565b9063ffffffff6126df16565b610eb2848463ffffffff6126df16565b1015610f1f57604080517f08c379a000000000000000000000000000000000000000000000000000000000815260206004820152600660248201527f464c503a204b0000000000000000000000000000000000000000000000000000604482015290519081900360640190fd5b61107c565b600c5473ffffffffffffffffffffffffffffffffffffffff166379c91b37610f646dffffffffffffffffffffffffffff8c1661271063ffffffff6126df16565b610f866dffffffffffffffffffffffffffff8c1661271063ffffffff6126df16565b8686866040518663ffffffff1660e01b8152600401808681526020018581526020018481526020018381526020018263ffffffff1663ffffffff1681526020019550505050505060206040518083038186803b158015610fe557600080fd5b505afa158015610ff9573d6000803e3d6000fd5b505050506040513d602081101561100f57600080fd5b505161107c57604080517f08c379a000000000000000000000000000000000000000000000000000000000815260206004820152600660248201527f464c503a204b0000000000000000000000000000000000000000000000000000604482015290519081900360640190fd5b50505061108b84848888612849565b60408051838152602081018390528082018d9052606081018c9052905173ffffffffffffffffffffffffffffffffffffffff8b169133917fd78ad95fa46c994b6551d0da85fc275fe613ce37657fb8d5e3d130840159d8229181900360800190a350506001600b55505050505050505050565b6040518060400160405280601b81526020017f4669726542697264204c69717569646974792050726f7669646572000000000081525081565b6008546dffffffffffffffffffffffffffff808216926e0100000000000000000000000000008304909116917c0100000000000000000000000000000000000000000000000000000000900463ffffffff1690565b6000611199338484612b55565b5060015b92915050565b60065473ffffffffffffffffffffffffffffffffffffffff1681565b60005481565b73ffffffffffffffffffffffffffffffffffffffff831660009081526002602090815260408083203384529091528120547fffffffffffffffffffffffffffffffffffffffffffffffffffffffffffffffff1461128f5773ffffffffffffffffffffffffffffffffffffffff8416600090815260026020908152604080832033845290915290205461125d908363ffffffff61276516565b73ffffffffffffffffffffffffffffffffffffffff851660009081526002602090815260408083203384529091529020555b61129a848484612bc4565b5060019392505050565b7f6e71edae12b1b97f4d1f60370fef10105fa2faae0126114a169c64845d6126c981565b601281565b600d547c0100000000000000000000000000000000000000000000000000000000900463ffffffff1690606482900390565b60035481565b600c5473ffffffffffffffffffffffffffffffffffffffff1681565b60095481565b600a5481565b6000600b546001146113a057604080517f08c379a000000000000000000000000000000000000000000000000000000000815260206004820152600b60248201527f464c503a204c4f434b4544000000000000000000000000000000000000000000604482015290519081900360640190fd5b6000600b819055806113b0611137565b50600654604080517f70a08231000000000000000000000000000000000000000000000000000000008152306004820152905193955091935060009273ffffffffffffffffffffffffffffffffffffffff909116916370a08231916024808301926020929190829003018186803b15801561142a57600080fd5b505afa15801561143e573d6000803e3d6000fd5b505050506040513d602081101561145457600080fd5b5051600754604080517f70a08231000000000000000000000000000000000000000000000000000000008152306004820152905192935060009273ffffffffffffffffffffffffffffffffffffffff909216916370a0823191602480820192602092909190829003018186803b1580156114cd57600080fd5b505afa1580156114e1573d6000803e3d6000fd5b505050506040513d60208110156114f757600080fd5b50519050600061151d836dffffffffffffffffffffffffffff871663ffffffff61276516565b90506000611541836dffffffffffffffffffffffffffff871663ffffffff61276516565b905061154d8686612ca5565b5060005480611594576115806103e861157461156f868663ffffffff6126df16565b61305f565b9063ffffffff61276516565b975061158f60006103e86130b1565b6115f1565b6115ee6dffffffffffffffffffffffffffff88166115b8858463ffffffff6126df16565b816115bf57fe5b046dffffffffffffffffffffffffffff88166115e1858563ffffffff6126df16565b816115e857fe5b04613161565b97505b6000881161164a576040517f08c379a00000000000000000000000000000000000000000000000000000000081526004018080602001828103825260228152602001806132c66022913960400191505060405180910390fd5b61165489896130b1565b61166085858989612849565b6040805184815260208101849052815133927f4c209b5fc8ad50758f13e2e1088ba56a560dff690a1c6fef26394f4c03821c4f928290030190a250506001600b55509395945050505050565b60016020526000908152604090205481565b60046020526000908152604090205481565b600080600b5460011461174457604080517f08c379a000000000000000000000000000000000000000000000000000000000815260206004820152600b60248201527f464c503a204c4f434b4544000000000000000000000000000000000000000000604482015290519081900360640190fd5b6000600b81905580611754611137565b50600654600754604080517f70a08231000000000000000000000000000000000000000000000000000000008152306004820152905194965092945073ffffffffffffffffffffffffffffffffffffffff9182169391169160009184916370a08231916024808301926020929190829003018186803b1580156117d657600080fd5b505afa1580156117ea573d6000803e3d6000fd5b505050506040513d602081101561180057600080fd5b5051604080517f70a08231000000000000000000000000000000000000000000000000000000008152306004820152905191925060009173ffffffffffffffffffffffffffffffffffffffff8516916370a08231916024808301926020929190829003018186803b15801561187457600080fd5b505afa158015611888573d6000803e3d6000fd5b505050506040513d602081101561189e57600080fd5b5051306000908152600160205260409020549091506118bd8787612ca5565b50600054806118d2838663ffffffff6126df16565b816118d957fe5b049950806118ed838563ffffffff6126df16565b816118f457fe5b04985060008a1180156119075750600089115b61195c576040517f08c379a00000000000000000000000000000000000000000000000000000000081526004018080602001828103825260228152602001806132a46022913960400191505060405180910390fd5b6119663083613179565b611971868c8c6124d2565b61197c858c8b6124d2565b604080517f70a08231000000000000000000000000000000000000000000000000000000008152306004820152905173ffffffffffffffffffffffffffffffffffffffff8816916370a08231916024808301926020929190829003018186803b1580156119e857600080fd5b505afa1580156119fc573d6000803e3d6000fd5b505050506040513d6020811015611a1257600080fd5b5051604080517f70a08231000000000000000000000000000000000000000000000000000000008152306004820152905191955073ffffffffffffffffffffffffffffffffffffffff8716916370a0823191602480820192602092909190829003018186803b158015611a8457600080fd5b505afa158015611a98573d6000803e3d6000fd5b505050506040513d6020811015611aae57600080fd5b50519250611abe84848a8a612849565b604080518b8152602081018b9052815173ffffffffffffffffffffffffffffffffffffffff8e169233927fdccd412f0b1252819cb1fd330b93224ca42612892bb3f4f789976e6d81936496929081900390910190a350505050505050506001600b81905550915091565b6040518060400160405280600381526020017f464c50000000000000000000000000000000000000000000000000000000000081525081565b6000611199338484612bc4565b6103e881565b600b54600114611be557604080517f08c379a000000000000000000000000000000000000000000000000000000000815260206004820152600b60248201527f464c503a204c4f434b4544000000000000000000000000000000000000000000604482015290519081900360640190fd5b6000600b55600654600754600854604080517f70a08231000000000000000000000000000000000000000000000000000000008152306004820152905173ffffffffffffffffffffffffffffffffffffffff9485169490931692611cc19285928792611cbc926dffffffffffffffffffffffffffff169185916370a0823191602480820192602092909190829003018186803b158015611c8457600080fd5b505afa158015611c98573d6000803e3d6000fd5b505050506040513d6020811015611cae57600080fd5b50519063ffffffff61276516565b6124d2565b600854604080517f70a082310000000000000000000000000000000000000000000000000000000081523060048201529051611d609284928792611cbc926e01000000000000000000000000000090046dffffffffffffffffffffffffffff169173ffffffffffffffffffffffffffffffffffffffff8616916370a0823191602480820192602092909190829003018186803b158015611c8457600080fd5b50506001600b5550565b60055473ffffffffffffffffffffffffffffffffffffffff1681565b60055473ffffffffffffffffffffffffffffffffffffffff163314611e0c57604080517f08c379a000000000000000000000000000000000000000000000000000000000815260206004820152600e60248201527f464c503a20464f5242494444454e000000000000000000000000000000000000604482015290519081900360640190fd5b6006805473ffffffffffffffffffffffffffffffffffffffff8087167fffffffffffffffffffffffff000000000000000000000000000000000000000092831617909255600780548684169216919091179055600d805463ffffffff8086167c0100000000000000000000000000000000000000000000000000000000027bffffffffffffffffffffffffffffffffffffffffffffffffffffffff90921691909117909155600e80549184167fffffffffffffffffffffffffffffffffffffffffffffffffffffffff00000000909216919091179055600554604080517f4b75f54f00000000000000000000000000000000000000000000000000000000815290519190921691634b75f54f916004808301926020929190829003018186803b158015611f3857600080fd5b505afa158015611f4c573d6000803e3d6000fd5b505050506040513d6020811015611f6257600080fd5b5051600c80547fffffffffffffffffffffffff00000000000000000000000000000000000000001673ffffffffffffffffffffffffffffffffffffffff90921691909117905550505050565b60075473ffffffffffffffffffffffffffffffffffffffff1681565b600e5463ffffffff1690565b4284101561204557604080517f08c379a000000000000000000000000000000000000000000000000000000000815260206004820152600c60248201527f464c503a20455850495245440000000000000000000000000000000000000000604482015290519081900360640190fd5b60035473ffffffffffffffffffffffffffffffffffffffff80891660008181526004602090815260408083208054600180820190925582517f6e71edae12b1b97f4d1f60370fef10105fa2faae0126114a169c64845d6126c98186015280840196909652958d166060860152608085018c905260a085019590955260c08085018b90528151808603909101815260e0850182528051908301207f19010000000000000000000000000000000000000000000000000000000000006101008601526101028501969096526101228085019690965280518085039096018652610142840180825286519683019690962095839052610162840180825286905260ff89166101828501526101a284018890526101c28401879052519193926101e2808201937fffffffffffffffffffffffffffffffffffffffffffffffffffffffffffffffe081019281900390910190855afa1580156121a6573d6000803e3d6000fd5b50506040517fffffffffffffffffffffffffffffffffffffffffffffffffffffffffffffffe0015191505073ffffffffffffffffffffffffffffffffffffffff81161580159061222157508873ffffffffffffffffffffffffffffffffffffffff168173ffffffffffffffffffffffffffffffffffffffff16145b61228c57604080517f08c379a000000000000000000000000000000000000000000000000000000000815260206004820152601660248201527f464c503a20494e56414c49445f5349474e415455524500000000000000000000604482015290519081900360640190fd5b612297898989612b55565b505050505050505050565b600d546dffffffffffffffffffffffffffff808216926e0100000000000000000000000000009092041690565b600260209081526000928352604080842090915290825290205481565b600b5460011461235d57604080517f08c379a000000000000000000000000000000000000000000000000000000000815260206004820152600b60248201527f464c503a204c4f434b4544000000000000000000000000000000000000000000604482015290519081900360640190fd5b6000600b55600654604080517f70a0823100000000000000000000000000000000000000000000000000000000815230600482015290516124cb9273ffffffffffffffffffffffffffffffffffffffff16916370a08231916024808301926020929190829003018186803b1580156123d457600080fd5b505afa1580156123e8573d6000803e3d6000fd5b505050506040513d60208110156123fe57600080fd5b5051600754604080517f70a08231000000000000000000000000000000000000000000000000000000008152306004820152905173ffffffffffffffffffffffffffffffffffffffff909216916370a0823191602480820192602092909190829003018186803b15801561247157600080fd5b505afa158015612485573d6000803e3d6000fd5b505050506040513d602081101561249b57600080fd5b50516008546dffffffffffffffffffffffffffff808216916e010000000000000000000000000000900416612849565b6001600b55565b604080518082018252601981527f7472616e7366657228616464726573732c75696e743235362900000000000000602091820152815173ffffffffffffffffffffffffffffffffffffffff85811660248301526044808301869052845180840390910181526064909201845291810180517bffffffffffffffffffffffffffffffffffffffffffffffffffffffff167fa9059cbb000000000000000000000000000000000000000000000000000000001781529251815160009460609489169392918291908083835b602083106125d857805182527fffffffffffffffffffffffffffffffffffffffffffffffffffffffffffffffe0909201916020918201910161259b565b6001836020036101000a0380198251168184511680821785525050505050509050019150506000604051808303816000865af19150503d806000811461263a576040519150601f19603f3d011682016040523d82523d6000602084013e61263f565b606091505b509150915081801561266d57508051158061266d575080806020019051602081101561266a57600080fd5b50515b6126d857604080517f08c379a000000000000000000000000000000000000000000000000000000000815260206004820152601460248201527f464c503a205452414e534645525f4641494c4544000000000000000000000000604482015290519081900360640190fd5b5050505050565b60008115806126fa575050808202828282816126f757fe5b04145b61119d57604080517f08c379a000000000000000000000000000000000000000000000000000000000815260206004820152601460248201527f64732d6d6174682d6d756c2d6f766572666c6f77000000000000000000000000604482015290519081900360640190fd5b8082038281111561119d57604080517f08c379a000000000000000000000000000000000000000000000000000000000815260206004820152601560248201527f64732d6d6174682d7375622d756e646572666c6f770000000000000000000000604482015290519081900360640190fd5b8082018281101561119d57604080517f08c379a000000000000000000000000000000000000000000000000000000000815260206004820152601460248201527f64732d6d6174682d6164642d6f766572666c6f77000000000000000000000000604482015290519081900360640190fd5b600d5463ffffffff7c01000000000000000000000000000000000000000000000000000000009091048116906dffffffffffffffffffffffffffff60648390039091168602118015906128b257506dffffffffffffffffffffffffffff63ffffffff8216850211155b61291d57604080517f08c379a000000000000000000000000000000000000000000000000000000000815260206004820152600d60248201527f464c503a204f564552464c4f5700000000000000000000000000000000000000604482015290519081900360640190fd5b60085463ffffffff428116917c01000000000000000000000000000000000000000000000000000000009004811682039081161580159061296d57506dffffffffffffffffffffffffffff851615155b801561298857506dffffffffffffffffffffffffffff841615155b15612a4a5763ffffffff6064849003811686029080851686029083166129db836129b18461323e565b7bffffffffffffffffffffffffffffffffffffffffffffffffffffffff169063ffffffff61326216565b600980547bffffffffffffffffffffffffffffffffffffffffffffffffffffffff929092169290920201905563ffffffff8316612a1b826129b18561323e565b600a80547bffffffffffffffffffffffffffffffffffffffffffffffffffffffff929092169290920201905550505b600880547fffffffffffffffffffffffffffffffffffff0000000000000000000000000000166dffffffffffffffffffffffffffff898116919091177fffffffff0000000000000000000000000000ffffffffffffffffffffffffffff166e0100000000000000000000000000008983168102919091177bffffffffffffffffffffffffffffffffffffffffffffffffffffffff167c010000000000000000000000000000000000000000000000000000000063ffffffff871602179283905560408051848416815291909304909116602082015281517f1c411e9a96e071241c2f21f7726b17ae89e3cab4c78be50e062b03a9fffbbad1929181900390910190a150505050505050565b73ffffffffffffffffffffffffffffffffffffffff808416600081815260026020908152604080832094871680845294825291829020859055815185815291517f8c5be1e5ebec7d5bd14f71427d1e84f3dd0314c0f7b2291e5b200ac8c7c3b9259281900390910190a3505050565b73ffffffffffffffffffffffffffffffffffffffff8316600090815260016020526040902054612bfa908263ffffffff61276516565b73ffffffffffffffffffffffffffffffffffffffff8085166000908152600160205260408082209390935590841681522054612c3c908263ffffffff6127d716565b73ffffffffffffffffffffffffffffffffffffffff80841660008181526001602090815260409182902094909455805185815290519193928716927fddf252ad1be2c89b69c2b068fc378daa952ba7f163c4a11628f55a4df523b3ef92918290030190a3505050565b600080600560009054906101000a900473ffffffffffffffffffffffffffffffffffffffff1673ffffffffffffffffffffffffffffffffffffffff1663017e7e586040518163ffffffff1660e01b815260040160206040518083038186803b158015612d1057600080fd5b505afa158015612d24573d6000803e3d6000fd5b505050506040513d6020811015612d3a57600080fd5b5051600554604080517fb0e21e8a000000000000000000000000000000000000000000000000000000008152905192935060009273ffffffffffffffffffffffffffffffffffffffff9092169163b0e21e8a91600480820192602092909190829003018186803b158015612dad57600080fd5b505afa158015612dc1573d6000803e3d6000fd5b505050506040513d6020811015612dd757600080fd5b505173ffffffffffffffffffffffffffffffffffffffff8316151593509050600080612e016122a2565b915091506000836dffffffffffffffffffffffffffff16118015612e225750845b8015612e5857506000826dffffffffffffffffffffffffffff161180612e5857506000816dffffffffffffffffffffffffffff16115b15612fd757600d54600c54600080547c010000000000000000000000000000000000000000000000000000000090930463ffffffff1692909173ffffffffffffffffffffffffffffffffffffffff16906392aec23c908b8b8660648190036dffffffffffffffffffffffffffff8c8116908c1681612ed257fe5b048c6dffffffffffffffffffffffffffff168b6dffffffffffffffffffffffffffff1681612efc57fe5b6040805160e08b901b7fffffffff0000000000000000000000000000000000000000000000000000000016815260048101999099526dffffffffffffffffffffffffffff97881660248a0152958716604489015263ffffffff9485166064890152929093166084870152841660a48601520490911660c48301525160e4808301926020929190829003018186803b158015612f9657600080fd5b505afa158015612faa573d6000803e3d6000fd5b505050506040513d6020811015612fc057600080fd5b505190508015612fd457612fd486826130b1565b50505b6dffffffffffffffffffffffffffff82161561301657600d80547fffffffffffffffffffffffffffffffffffff00000000000000000000000000001690555b6dffffffffffffffffffffffffffff81161561305557600d80547fffffffff0000000000000000000000000000ffffffffffffffffffffffffffff1690555b5050505092915050565b600060038211156130a2575080600160028204015b8181101561309c5780915060028182858161308b57fe5b04018161309457fe5b049050613074565b506130ac565b81156130ac575060015b919050565b6000546130c4908263ffffffff6127d716565b600090815573ffffffffffffffffffffffffffffffffffffffff83168152600160205260409020546130fc908263ffffffff6127d716565b73ffffffffffffffffffffffffffffffffffffffff831660008181526001602090815260408083209490945583518581529351929391927fddf252ad1be2c89b69c2b068fc378daa952ba7f163c4a11628f55a4df523b3ef9281900390910190a35050565b60008183106131705781613172565b825b9392505050565b73ffffffffffffffffffffffffffffffffffffffff82166000908152600160205260409020546131af908263ffffffff61276516565b73ffffffffffffffffffffffffffffffffffffffff8316600090815260016020526040812091909155546131e9908263ffffffff61276516565b600090815560408051838152905173ffffffffffffffffffffffffffffffffffffffff8516917fddf252ad1be2c89b69c2b068fc378daa952ba7f163c4a11628f55a4df523b3ef919081900360200190a35050565b6dffffffffffffffffffffffffffff166e0100000000000000000000000000000290565b60006dffffffffffffffffffffffffffff82167bffffffffffffffffffffffffffffffffffffffffffffffffffffffff84168161329b57fe5b04939250505056fe464c503a20494e53554646494349454e545f4c49515549444954595f4255524e4544464c503a20494e53554646494349454e545f4c49515549444954595f4d494e544544a265627a7a72315820bd8409660fada8ed13ce8e51189a04ac4042d9ccfa09e0d33044c91d787ed3b264736f6c63430005100032454950373132446f6d61696e28737472696e67206e616d652c737472696e672076657273696f6e2c75696e7432353620636861696e49642c6164647265737320766572696679696e67436f6e747261637429a265627a7a72315820dd22e0f67c58e49f16ca91d3a802471e18d1b4610425a5caa5fd9621432314bc64736f6c63430005100032",
  "devdoc": {
    "methods": {}
  },
  "userdoc": {
    "methods": {}
  },
  "storageLayout": {
    "storage": [
      {
        "astId": 376,
        "contract": "contracts/FireBirdFactory.sol:FireBirdFactory",
        "label": "feeTo",
        "offset": 0,
        "slot": "0",
        "type": "t_address"
      },
      {
        "astId": 378,
        "contract": "contracts/FireBirdFactory.sol:FireBirdFactory",
        "label": "formula",
        "offset": 0,
        "slot": "1",
        "type": "t_address"
      },
      {
        "astId": 380,
        "contract": "contracts/FireBirdFactory.sol:FireBirdFactory",
        "label": "protocolFee",
        "offset": 0,
        "slot": "2",
        "type": "t_uint256"
      },
      {
        "astId": 382,
        "contract": "contracts/FireBirdFactory.sol:FireBirdFactory",
        "label": "feeToSetter",
        "offset": 0,
        "slot": "3",
        "type": "t_address"
      },
      {
        "astId": 386,
        "contract": "contracts/FireBirdFactory.sol:FireBirdFactory",
        "label": "_pairSalts",
        "offset": 0,
        "slot": "4",
        "type": "t_mapping(t_bytes32,t_address)"
      },
      {
        "astId": 389,
        "contract": "contracts/FireBirdFactory.sol:FireBirdFactory",
        "label": "allPairs",
        "offset": 0,
        "slot": "5",
        "type": "t_array(t_address)dyn_storage"
      },
      {
        "astId": 393,
        "contract": "contracts/FireBirdFactory.sol:FireBirdFactory",
        "label": "_pairs",
        "offset": 0,
        "slot": "6",
        "type": "t_mapping(t_address,t_uint64)"
      }
    ],
    "types": {
      "t_address": {
        "encoding": "inplace",
        "label": "address",
        "numberOfBytes": "20"
      },
      "t_array(t_address)dyn_storage": {
        "base": "t_address",
        "encoding": "dynamic_array",
        "label": "address[]",
        "numberOfBytes": "32"
      },
      "t_bytes32": {
        "encoding": "inplace",
        "label": "bytes32",
        "numberOfBytes": "32"
      },
      "t_mapping(t_address,t_uint64)": {
        "encoding": "mapping",
        "key": "t_address",
        "label": "mapping(address => uint64)",
        "numberOfBytes": "32",
        "value": "t_uint64"
      },
      "t_mapping(t_bytes32,t_address)": {
        "encoding": "mapping",
        "key": "t_bytes32",
        "label": "mapping(bytes32 => address)",
        "numberOfBytes": "32",
        "value": "t_address"
      },
      "t_uint256": {
        "encoding": "inplace",
        "label": "uint256",
        "numberOfBytes": "32"
      },
      "t_uint64": {
        "encoding": "inplace",
        "label": "uint64",
        "numberOfBytes": "8"
      }
    }
  }
}