{
  "address": "0xEf7E3401f70aE2e49E3D2af0A30d2978A059cd7b",
  "abi": [
    {
      "inputs": [],
      "stateMutability": "nonpayable",
      "type": "constructor"
    },
    {
      "anonymous": false,
      "inputs": [
        {
          "indexed": false,
          "internalType": "address",
          "name": "changeValue",
          "type": "address"
        }
      ],
      "name": "ChangeGovernance",
      "type": "event"
    },
    {
      "anonymous": false,
      "inputs": [
        {
          "indexed": false,
          "internalType": "address",
          "name": "changeValue",
          "type": "address"
        }
      ],
      "name": "ChangeReceiver",
      "type": "event"
    },
    {
      "anonymous": false,
      "inputs": [
        {
          "indexed": true,
          "internalType": "address",
          "name": "pair",
          "type": "address"
        },
        {
          "indexed": false,
          "internalType": "uint256",
          "name": "token0",
          "type": "uint256"
        },
        {
          "indexed": false,
          "internalType": "uint256",
          "name": "token1",
          "type": "uint256"
        }
      ],
      "name": "RemoveLiquidity",
      "type": "event"
    },
    {
      "inputs": [],
      "name": "governance",
      "outputs": [
        {
          "internalType": "address",
          "name": "",
          "type": "address"
        }
      ],
      "stateMutability": "view",
      "type": "function"
    },
    {
      "inputs": [],
      "name": "receiver",
      "outputs": [
        {
          "internalType": "address",
          "name": "",
          "type": "address"
        }
      ],
      "stateMutability": "view",
      "type": "function"
    },
    {
      "inputs": [
        {
          "internalType": "address[]",
          "name": "pairs",
          "type": "address[]"
        }
      ],
      "name": "remove",
      "outputs": [],
      "stateMutability": "nonpayable",
      "type": "function"
    },
    {
      "inputs": [
        {
          "internalType": "address",
          "name": "_governance",
          "type": "address"
        }
      ],
      "name": "setGovernance",
      "outputs": [],
      "stateMutability": "nonpayable",
      "type": "function"
    },
    {
      "inputs": [
        {
          "internalType": "address",
          "name": "_receiver",
          "type": "address"
        }
      ],
      "name": "setReceiver",
      "outputs": [],
      "stateMutability": "nonpayable",
      "type": "function"
    },
    {
      "inputs": [
        {
          "internalType": "address",
          "name": "_token",
          "type": "address"
        },
        {
          "internalType": "uint256",
          "name": "_value",
          "type": "uint256"
        }
      ],
      "name": "transfer",
      "outputs": [],
      "stateMutability": "nonpayable",
      "type": "function"
    },
    {
      "inputs": [
        {
          "internalType": "address[]",
          "name": "_tokens",
          "type": "address[]"
        }
      ],
      "name": "transferAllTokens",
      "outputs": [],
      "stateMutability": "nonpayable",
      "type": "function"
    }
  ],
  "transactionHash": "0x3c856dfdd997396bad25a7da5c1ebbc44423daead73d981a4d579ee7775e6277",
  "args": [],
  "solcInputHash": "93493eb6bc248a75cfbcefab86f22da7",
  "bytecode": "0x608060405234801561001057600080fd5b50600180546001600160a01b03191633179055610ce1806100326000396000f3fe608060405234801561001057600080fd5b506004361061007d5760003560e01c8063a9059cbb1161005b578063a9059cbb14610158578063ab033ea914610191578063f7260d3e146101c4578063ffb769f4146101cc5761007d565b80635aa6e675146100825780635e4ba17c146100b3578063718da7ee14610125575b600080fd5b61008a61023c565b6040805173ffffffffffffffffffffffffffffffffffffffff9092168252519081900360200190f35b610123600480360360208110156100c957600080fd5b8101906020810181356401000000008111156100e457600080fd5b8201836020820111156100f657600080fd5b8035906020019184602083028401116401000000008311171561011857600080fd5b509092509050610258565b005b6101236004803603602081101561013b57600080fd5b503573ffffffffffffffffffffffffffffffffffffffff1661054d565b6101236004803603604081101561016e57600080fd5b5073ffffffffffffffffffffffffffffffffffffffff813516906020013561064c565b610123600480360360208110156101a757600080fd5b503573ffffffffffffffffffffffffffffffffffffffff16610769565b61008a610868565b610123600480360360208110156101e257600080fd5b8101906020810181356401000000008111156101fd57600080fd5b82018360208201111561020f57600080fd5b8035906020019184602083028401116401000000008311171561023157600080fd5b509092509050610884565b60015473ffffffffffffffffffffffffffffffffffffffff1681565b60005473ffffffffffffffffffffffffffffffffffffffff16806102c7576040517f08c379a000000000000000000000000000000000000000000000000000000000815260040180806020018281038252602c815260200180610c80602c913960400191505060405180910390fd5b60005b828110156105475760008484838181106102e057fe5b9050602002013573ffffffffffffffffffffffffffffffffffffffff16905060008173ffffffffffffffffffffffffffffffffffffffff166370a08231306040518263ffffffff1660e01b8152600401808273ffffffffffffffffffffffffffffffffffffffff16815260200191505060206040518083038186803b15801561036857600080fd5b505afa15801561037c573d6000803e3d6000fd5b505050506040513d602081101561039257600080fd5b50519050801561053d57604080517fa9059cbb00000000000000000000000000000000000000000000000000000000815273ffffffffffffffffffffffffffffffffffffffff84166004820181905260248201849052915163a9059cbb916044808201926020929091908290030181600087803b15801561041257600080fd5b505af1158015610426573d6000803e3d6000fd5b505050506040513d602081101561043c57600080fd5b5050604080517f89afcb4400000000000000000000000000000000000000000000000000000000815273ffffffffffffffffffffffffffffffffffffffff868116600483015282516000938493928716926389afcb44926024808301939282900301818787803b1580156104af57600080fd5b505af11580156104c3573d6000803e3d6000fd5b505050506040513d60408110156104d957600080fd5b50805160209182015160408051838152938401829052805192955090935073ffffffffffffffffffffffffffffffffffffffff8716927f0fbf06c058b90cb038a618f8c2acbf6145f8b3570fd1fa56abb8f0f3f05b36e8929081900390910190a250505b50506001016102ca565b50505050565b60015473ffffffffffffffffffffffffffffffffffffffff1633146105d357604080517f08c379a000000000000000000000000000000000000000000000000000000000815260206004820152601d60248201527f50726f746f636f6c46656552656d6f7665723a20464f5242494444454e000000604482015290519081900360640190fd5b6000805473ffffffffffffffffffffffffffffffffffffffff83167fffffffffffffffffffffffff0000000000000000000000000000000000000000909116811790915560408051918252517f2f69edf1b496867b439a36a0d934c9770b139d2790222bdeafc4f6daaa79c83a9181900360200190a150565b60015473ffffffffffffffffffffffffffffffffffffffff1633146106d257604080517f08c379a000000000000000000000000000000000000000000000000000000000815260206004820152601d60248201527f50726f746f636f6c46656552656d6f7665723a20464f5242494444454e000000604482015290519081900360640190fd5b60005473ffffffffffffffffffffffffffffffffffffffff16610740576040517f08c379a000000000000000000000000000000000000000000000000000000000815260040180806020018281038252602c815260200180610c80602c913960400191505060405180910390fd5b60005461076590839073ffffffffffffffffffffffffffffffffffffffff1683610aa3565b5050565b60015473ffffffffffffffffffffffffffffffffffffffff1633146107ef57604080517f08c379a000000000000000000000000000000000000000000000000000000000815260206004820152601d60248201527f50726f746f636f6c46656552656d6f7665723a20464f5242494444454e000000604482015290519081900360640190fd5b6001805473ffffffffffffffffffffffffffffffffffffffff83167fffffffffffffffffffffffff0000000000000000000000000000000000000000909116811790915560408051918252517f13079bd259b6c430f434e223f09ff073409b818146629085e53378cf536d3ce89181900360200190a150565b60005473ffffffffffffffffffffffffffffffffffffffff1681565b60015473ffffffffffffffffffffffffffffffffffffffff16331461090a57604080517f08c379a000000000000000000000000000000000000000000000000000000000815260206004820152601d60248201527f50726f746f636f6c46656552656d6f7665723a20464f5242494444454e000000604482015290519081900360640190fd5b60005473ffffffffffffffffffffffffffffffffffffffff16610978576040517f08c379a000000000000000000000000000000000000000000000000000000000815260040180806020018281038252602c815260200180610c80602c913960400191505060405180910390fd5b60005b81811015610a9e57600083838381811061099157fe5b9050602002013573ffffffffffffffffffffffffffffffffffffffff1673ffffffffffffffffffffffffffffffffffffffff166370a08231306040518263ffffffff1660e01b8152600401808273ffffffffffffffffffffffffffffffffffffffff16815260200191505060206040518083038186803b158015610a1457600080fd5b505afa158015610a28573d6000803e3d6000fd5b505050506040513d6020811015610a3e57600080fd5b50519050610a95848484818110610a5157fe5b9050602002013573ffffffffffffffffffffffffffffffffffffffff1660008054906101000a900473ffffffffffffffffffffffffffffffffffffffff1683610aa3565b5060010161097b565b505050565b6040805173ffffffffffffffffffffffffffffffffffffffff8481166024830152604480830185905283518084039091018152606490920183526020820180517bffffffffffffffffffffffffffffffffffffffffffffffffffffffff167fa9059cbb000000000000000000000000000000000000000000000000000000001781529251825160009485949389169392918291908083835b60208310610b7857805182527fffffffffffffffffffffffffffffffffffffffffffffffffffffffffffffffe09092019160209182019101610b3b565b6001836020036101000a0380198251168184511680821785525050505050509050019150506000604051808303816000865af19150503d8060008114610bda576040519150601f19603f3d011682016040523d82523d6000602084013e610bdf565b606091505b5091509150818015610c0d575080511580610c0d5750808060200190516020811015610c0a57600080fd5b50515b610c7857604080517f08c379a000000000000000000000000000000000000000000000000000000000815260206004820152601f60248201527f5472616e7366657248656c7065723a205452414e534645525f4641494c454400604482015290519081900360640190fd5b505050505056fe50726f746f636f6c46656552656d6f7665723a20496e76616c69642052656365697665722061646472657373a26469706673582212201dfe66d4a23d4bdb8a2a8276d9142fe08b84db678b7624613535b1fe5a6a192b64736f6c63430007060033",
  "devdoc": {
    "kind": "dev",
    "methods": {},
    "version": 1
  },
  "userdoc": {
    "kind": "user",
    "methods": {},
    "version": 1
  },
  "storageLayout": {
    "storage": [
      {
        "astId": 5290,
        "contract": "contracts/ProtocolFeeRemover.sol:ProtocolFeeRemover",
        "label": "receiver",
        "offset": 0,
        "slot": "0",
        "type": "t_address"
      },
      {
        "astId": 5292,
        "contract": "contracts/ProtocolFeeRemover.sol:ProtocolFeeRemover",
        "label": "governance",
        "offset": 0,
        "slot": "1",
        "type": "t_address"
      }
    ],
    "types": {
      "t_address": {
        "encoding": "inplace",
        "label": "address",
        "numberOfBytes": "20"
      }
    }
  }
}